{"contracts/ERC222Vault.sol":{"ERC222Vault":{"abi":[{"inputs":[{"internalType":"address","name":"nftContract_","type":"address"},{"internalType":"address","name":"tokenContract_","type":"address"},{"internalType":"string","name":"songName_","type":"string"},{"internalType":"address","name":"admin_","type":"address"}],"stateMutability":"nonpayable","type":"constructor"},{"inputs":[{"internalType":"address","name":"owner","type":"address"}],"name":"OwnableInvalidOwner","type":"error"},{"inputs":[{"internalType":"address","name":"account","type":"address"}],"name":"OwnableUnauthorizedAccount","type":"error"},{"inputs":[],"name":"ReentrancyGuardReentrantCall","type":"error"},{"inputs":[{"internalType":"address","name":"token","type":"address"}],"name":"SafeERC20FailedOperation","type":"error"},{"anonymous":false,"inputs":[{"indexed":true,"internalType":"address","name":"oldAdmin","type":"address"},{"indexed":true,"internalType":"address","name":"newAdmin","type":"address"}],"name":"AdminUpdated","type":"event"},{"anonymous":false,"inputs":[{"indexed":false,"internalType":"uint256","name":"newFloorPrice","type":"uint256"}],"name":"FloorPriceUpdated","type":"event"},{"anonymous":false,"inputs":[{"indexed":true,"internalType":"address","name":"user","type":"address"},{"indexed":true,"internalType":"uint256","name":"tokenId","type":"uint256"},{"indexed":false,"internalType":"uint256","name":"tokensReceived","type":"uint256"}],"name":"NFTDepositedToVault","type":"event"},{"anonymous":false,"inputs":[{"indexed":true,"internalType":"address","name":"user","type":"address"},{"indexed":true,"internalType":"uint256","name":"tokenId","type":"uint256"},{"indexed":false,"internalType":"uint256","name":"tokensPaid","type":"uint256"}],"name":"NFTWithdrawnFromVault","type":"event"},{"anonymous":false,"inputs":[{"indexed":false,"internalType":"uint256","name":"totalNFTsMinted","type":"uint256"}],"name":"OpenMarketModeActivated","type":"event"},{"anonymous":false,"inputs":[{"indexed":true,"internalType":"address","name":"previousOwner","type":"address"},{"indexed":true,"internalType":"address","name":"newOwner","type":"address"}],"name":"OwnershipTransferred","type":"event"},{"anonymous":false,"inputs":[{"indexed":false,"internalType":"bool","name":"enabled","type":"bool"}],"name":"SwapStatusUpdated","type":"event"},{"anonymous":false,"inputs":[{"indexed":true,"internalType":"address","name":"user","type":"address"},{"indexed":false,"internalType":"uint256","name":"tokenAmount","type":"uint256"},{"indexed":true,"internalType":"uint256","name":"nftReceived","type":"uint256"}],"name":"TokensDepositedToVault","type":"event"},{"anonymous":false,"inputs":[{"indexed":true,"internalType":"address","name":"user","type":"address"},{"indexed":false,"internalType":"uint256","name":"tokenAmount","type":"uint256"},{"indexed":true,"internalType":"uint256","name":"nftDeposited","type":"uint256"}],"name":"TokensWithdrawnFromVault","type":"event"},{"anonymous":false,"inputs":[{"indexed":false,"internalType":"uint256","name":"nftCount","type":"uint256"},{"indexed":false,"internalType":"uint256","name":"tokenAmount","type":"uint256"}],"name":"VaultPreloaded","type":"event"},{"inputs":[],"name":"TOKENS_PER_NFT","outputs":[{"internalType":"uint256","name":"","type":"uint256"}],"stateMutability":"view","type":"function"},{"inputs":[],"name":"TOKENS_PER_NFT_UNITS","outputs":[{"internalType":"uint256","name":"","type":"uint256"}],"stateMutability":"view","type":"function"},{"inputs":[],"name":"TOKEN_DECIMALS","outputs":[{"internalType":"uint8","name":"","type":"uint8"}],"stateMutability":"view","type":"function"},{"inputs":[],"name":"admin","outputs":[{"internalType":"address","name":"","type":"address"}],"stateMutability":"view","type":"function"},{"inputs":[{"internalType":"uint256","name":"tokenId","type":"uint256"}],"name":"depositNFT","outputs":[],"stateMutability":"nonpayable","type":"function"},{"inputs":[{"internalType":"uint256","name":"tokenAmount","type":"uint256"}],"name":"depositTokens","outputs":[],"stateMutability":"nonpayable","type":"function"},{"inputs":[{"internalType":"address","name":"to","type":"address"},{"internalType":"uint256","name":"tokenId","type":"uint256"}],"name":"emergencyWithdrawNFT","outputs":[],"stateMutability":"nonpayable","type":"function"},{"inputs":[{"internalType":"address","name":"to","type":"address"},{"internalType":"uint256","name":"amount","type":"uint256"}],"name":"emergencyWithdrawTokens","outputs":[],"stateMutability":"nonpayable","type":"function"},{"inputs":[],"name":"getFloorPrice","outputs":[{"internalType":"uint256","name":"","type":"uint256"}],"stateMutability":"view","type":"function"},{"inputs":[{"internalType":"uint256","name":"maxResults","type":"uint256"}],"name":"getNFTsInVault","outputs":[{"internalType":"uint256[]","name":"","type":"uint256[]"}],"stateMutability":"view","type":"function"},{"inputs":[],"name":"getVaultInfo","outputs":[{"internalType":"string","name":"vaultSongName","type":"string"},{"internalType":"address","name":"nftAddress","type":"address"},{"internalType":"address","name":"tokenAddress","type":"address"},{"internalType":"uint256","name":"conversionRatio","type":"uint256"},{"internalType":"uint256","name":"nftsHeld","type":"uint256"},{"internalType":"uint256","name":"tokensHeld","type":"uint256"},{"internalType":"uint256","name":"currentFloorPrice","type":"uint256"},{"internalType":"bool","name":"openMarket","type":"bool"},{"internalType":"bool","name":"swappingEnabled","type":"bool"}],"stateMutability":"view","type":"function"},{"inputs":[],"name":"getVaultStats","outputs":[{"internalType":"uint256","name":"nftsInVault","type":"uint256"},{"internalType":"uint256","name":"tokensInVault","type":"uint256"},{"internalType":"uint256","name":"floorPrice","type":"uint256"},{"internalType":"bool","name":"isOpenMarket","type":"bool"},{"internalType":"uint256","name":"totalNFTsMinted","type":"uint256"},{"internalType":"uint256","name":"maxNFTSupply","type":"uint256"}],"stateMutability":"view","type":"function"},{"inputs":[{"internalType":"uint256","name":"tokenId","type":"uint256"}],"name":"isNFTInVault","outputs":[{"internalType":"bool","name":"","type":"bool"}],"stateMutability":"view","type":"function"},{"inputs":[],"name":"nftContract","outputs":[{"internalType":"contract IERC222NFT","name":"","type":"address"}],"stateMutability":"view","type":"function"},{"inputs":[],"name":"nftCount","outputs":[{"internalType":"uint256","name":"","type":"uint256"}],"stateMutability":"view","type":"function"},{"inputs":[{"internalType":"uint256","name":"","type":"uint256"}],"name":"nftHeld","outputs":[{"internalType":"bool","name":"","type":"bool"}],"stateMutability":"view","type":"function"},{"inputs":[{"internalType":"address","name":"operator","type":"address"},{"internalType":"address","name":"from","type":"address"},{"internalType":"uint256","name":"tokenId","type":"uint256"},{"internalType":"bytes","name":"data","type":"bytes"}],"name":"onERC721Received","outputs":[{"internalType":"bytes4","name":"","type":"bytes4"}],"stateMutability":"pure","type":"function"},{"inputs":[],"name":"openMarketMode","outputs":[{"internalType":"bool","name":"","type":"bool"}],"stateMutability":"view","type":"function"},{"inputs":[],"name":"owner","outputs":[{"internalType":"address","name":"","type":"address"}],"stateMutability":"view","type":"function"},{"inputs":[{"internalType":"uint256[]","name":"nftIds","type":"uint256[]"},{"internalType":"uint256","name":"tokenAmount","type":"uint256"}],"name":"preloadVault","outputs":[],"stateMutability":"nonpayable","type":"function"},{"inputs":[],"name":"renounceOwnership","outputs":[],"stateMutability":"nonpayable","type":"function"},{"inputs":[{"internalType":"address","name":"newAdmin","type":"address"}],"name":"setAdmin","outputs":[],"stateMutability":"nonpayable","type":"function"},{"inputs":[{"internalType":"bool","name":"enabled","type":"bool"}],"name":"setSwapEnabled","outputs":[],"stateMutability":"nonpayable","type":"function"},{"inputs":[],"name":"songName","outputs":[{"internalType":"string","name":"","type":"string"}],"stateMutability":"view","type":"function"},{"inputs":[],"name":"swapEnabled","outputs":[{"internalType":"bool","name":"","type":"bool"}],"stateMutability":"view","type":"function"},{"inputs":[],"name":"tokenBalance","outputs":[{"internalType":"uint256","name":"","type":"uint256"}],"stateMutability":"view","type":"function"},{"inputs":[],"name":"tokenContract","outputs":[{"internalType":"contract IERC222Token","name":"","type":"address"}],"stateMutability":"view","type":"function"},{"inputs":[],"name":"totalMarketCap","outputs":[{"internalType":"uint256","name":"","type":"uint256"}],"stateMutability":"view","type":"function"},{"inputs":[{"internalType":"address","name":"newOwner","type":"address"}],"name":"transferOwnership","outputs":[],"stateMutability":"nonpayable","type":"function"},{"inputs":[{"internalType":"uint256","name":"additionalValue","type":"uint256"}],"name":"updateMarketCap","outputs":[],"stateMutability":"nonpayable","type":"function"}],"evm":{"bytecode":{"linkReferences":{},"object":"6101206040526007805460ff60a81b1916600160a81b1790553480156200002557600080fd5b5060405162002c7338038062002c738339810160408190526200004891620003ad565b33806200007057604051631e4fbdf760e01b8152600060048201526024015b60405180910390fd5b6200007b816200032a565b50600180556001600160a01b038416620000d85760405162461bcd60e51b815260206004820152601460248201527f496e76616c6964204e465420636f6e7472616374000000000000000000000000604482015260640162000067565b6001600160a01b038316620001305760405162461bcd60e51b815260206004820152601660248201527f496e76616c696420746f6b656e20636f6e747261637400000000000000000000604482015260640162000067565b6000825111620001835760405162461bcd60e51b815260206004820152601960248201527f536f6e67206e616d652063616e6e6f7420626520656d70747900000000000000604482015260640162000067565b6001600160a01b038116620001db5760405162461bcd60e51b815260206004820152601560248201527f496e76616c69642061646d696e20616464726573730000000000000000000000604482015260640162000067565b6001600160a01b03808516608052831660a0526002620001fc838262000549565b5080600760016101000a8154816001600160a01b0302191690836001600160a01b0316021790555060a0516001600160a01b031663adee8ff26040518163ffffffff1660e01b8152600401602060405180830381865afa15801562000265573d6000803e3d6000fd5b505050506040513d601f19601f820116820180604052508101906200028b919062000615565b60c08181525050826001600160a01b031663313ce5676040518163ffffffff1660e01b8152600401602060405180830381865afa158015620002d1573d6000803e3d6000fd5b505050506040513d601f19601f82011682018060405250810190620002f791906200062f565b60ff1660e08190526200030c90600a62000770565b60c0516200031b919062000781565b61010052506200079b92505050565b600080546001600160a01b038381166001600160a01b0319831681178455604051919092169283917f8be0079c531659141344cd1fd0a4f28419497f9722a3daafe3b4186f6b6457e09190a35050565b80516001600160a01b03811681146200039257600080fd5b919050565b634e487b7160e01b600052604160045260246000fd5b60008060008060808587031215620003c457600080fd5b620003cf856200037a565b93506020620003e08187016200037a565b60408701519094506001600160401b0380821115620003fe57600080fd5b818801915088601f8301126200041357600080fd5b81518181111562000428576200042862000397565b604051601f8201601f19908116603f0116810190838211818310171562000453576200045362000397565b816040528281528b868487010111156200046c57600080fd5b600093505b8284101562000490578484018601518185018701529285019262000471565b6000868483010152809750505050505050620004af606086016200037a565b905092959194509250565b600181811c90821680620004cf57607f821691505b602082108103620004f057634e487b7160e01b600052602260045260246000fd5b50919050565b601f8211156200054457600081815260208120601f850160051c810160208610156200051f5750805b601f850160051c820191505b8181101562000540578281556001016200052b565b5050505b505050565b81516001600160401b0381111562000565576200056562000397565b6200057d81620005768454620004ba565b84620004f6565b602080601f831160018114620005b557600084156200059c5750858301515b600019600386901b1c1916600185901b17855562000540565b600085815260208120601f198616915b82811015620005e657888601518255948401946001909101908401620005c5565b5085821015620006055787850151600019600388901b60f8161c191681555b5050505050600190811b01905550565b6000602082840312156200062857600080fd5b5051919050565b6000602082840312156200064257600080fd5b815160ff811681146200065457600080fd5b9392505050565b634e487b7160e01b600052601160045260246000fd5b600181815b80851115620006b25781600019048211156200069657620006966200065b565b80851615620006a457918102915b93841c939080029062000676565b509250929050565b600082620006cb575060016200076a565b81620006da575060006200076a565b8160018114620006f35760028114620006fe576200071e565b60019150506200076a565b60ff8411156200071257620007126200065b565b50506001821b6200076a565b5060208310610133831016604e8410600b841016171562000743575081810a6200076a565b6200074f838362000671565b80600019048211156200076657620007666200065b565b0290505b92915050565b60006200065460ff841683620006ba565b80820281158282048414176200076a576200076a6200065b565b60805160a05160c05160e051610100516123c8620008ab60003960008181610428015281816107fc01528181610961015281816111c70152818161123a015281816112fc015281816115fd015281816118f801528181611a1901528181611a7f0152611aa8015260006102ea0152600061044f0152600081816102ab015281816106c00152818161094001528181610b4f0152818161138c0152611a5c015260008181610492015281816106000152818161074b0152818161091f01528181610c9901528181610df101528181610fb7015281816110390152818161146b0152818161152c015281816117ef0152818161197f01528181611be801528181611c6a0152611d3b01526123c86000f3fe608060405234801561001057600080fd5b50600436106101da5760003560e01c8063922b807911610104578063b1e776e3116100a2578063e01af92c11610071578063e01af92c146104c7578063e91a7ca6146104da578063f2fde38b146104ed578063f851a4401461050057600080fd5b8063b1e776e314610471578063bbffa2d314610484578063d56d229d1461048d578063dd49756e146104b457600080fd5b80639e1a4d19116100de5780639e1a4d19146103e3578063a59aa5a6146103ec578063a98d499414610423578063adee8ff21461044a57600080fd5b8063922b80791461039b57806396cd06f8146103ae578063978cd40f146103c357600080fd5b80635b7f415c1161017c5780637304fa201161014b5780637304fa201461034d5780637f98aa711461035a5780638da5cb5b14610377578063917bb9981461038857600080fd5b80635b7f415c146102e55780636ddd17131461031e578063704b6c0214610332578063715018a61461034557600080fd5b8063150b7a02116101b8578063150b7a02146102435780632a33d6b21461027b578063505860881461028357806355a373d6146102a657600080fd5b8063029a3c5f146101df578063035dd06d146101f45780630af2c6ca1461022c575b600080fd5b6101f26101ed366004611f1c565b610518565b005b610217610202366004611f97565b60009081526003602052604090205460ff1690565b60405190151581526020015b60405180910390f35b61023560045481565b604051908152602001610223565b610262610251366004611fc5565b630a85bd0160e11b95945050505050565b6040516001600160e01b03199091168152602001610223565b610235610746565b610217610291366004611f97565b60036020526000908152604090205460ff1681565b6102cd7f000000000000000000000000000000000000000000000000000000000000000081565b6040516001600160a01b039091168152602001610223565b61030c7f000000000000000000000000000000000000000000000000000000000000000081565b60405160ff9091168152602001610223565b60075461021790600160a81b900460ff1681565b6101f2610340366004612064565b610849565b6101f26108f9565b6007546102179060ff1681565b61036261090d565b604051610223999897969594939291906120ce565b6000546001600160a01b03166102cd565b6101f261039636600461212f565b610a4a565b6101f26103a936600461212f565b610b7a565b6103b6610d08565b604051610223919061215b565b6103d66103d1366004611f97565b610d96565b604051610223919061216e565b61023560055481565b6103f4610f8e565b6040805196875260208701959095529385019290925215156060840152608083015260a082015260c001610223565b6102357f000000000000000000000000000000000000000000000000000000000000000081565b6102357f000000000000000000000000000000000000000000000000000000000000000081565b6101f261047f366004611f97565b6110cc565b61023560065481565b6102cd7f000000000000000000000000000000000000000000000000000000000000000081565b6101f26104c2366004611f97565b61116d565b6101f26104d53660046121c0565b6116db565b6101f26104e8366004611f97565b611777565b6101f26104fb366004612064565b611b3d565b6007546102cd9061010090046001600160a01b031681565b60075461010090046001600160a01b031633148061054057506000546001600160a01b031633145b6105655760405162461bcd60e51b815260040161055c906121dd565b60405180910390fd5b60005b828110156106ac5760008484838181106105845761058461220b565b60209081029290920135600081815260039093526040909220549192505060ff16156105e95760405162461bcd60e51b815260206004820152601460248201527313919508185b1c9958591e481a5b881d985d5b1d60621b604482015260640161055c565b604051632142170760e11b81526001600160a01b037f000000000000000000000000000000000000000000000000000000000000000016906342842e0e9061063990339030908690600401612221565b600060405180830381600087803b15801561065357600080fd5b505af1158015610667573d6000803e3d6000fd5b5050506000828152600360205260408120805460ff19166001179055600480549250906106938361225b565b91905055505080806106a49061225b565b915050610568565b508015610700576106e86001600160a01b037f000000000000000000000000000000000000000000000000000000000000000016333084611b78565b80600560008282546106fa9190612274565b90915550505b60408051838152602081018390527f0aaa76c8a42ec2b6c80e857ced5306e0fe0a1e94eb891a653c2aec9bced6bb84910160405180910390a1610741611bd8565b505050565b6000807f00000000000000000000000000000000000000000000000000000000000000006001600160a01b031663a2309ff86040518163ffffffff1660e01b8152600401602060405180830381865afa1580156107a7573d6000803e3d6000fd5b505050506040513d601f19601f820116820180604052508101906107cb9190612287565b9050806000036107dd57600091505090565b60075460ff161561083b576004546000036107fa57600091505090565b7f000000000000000000000000000000000000000000000000000000000000000060045460055461082b91906122b6565b61083591906122b6565b91505090565b8060065461083591906122b6565b610851611dbe565b6001600160a01b03811661089f5760405162461bcd60e51b8152602060048201526015602482015274496e76616c69642061646d696e206164647265737360581b604482015260640161055c565b600780546001600160a01b03838116610100818102610100600160a81b031985161790945560405193909204169182907f101b8081ff3b56bbf45deb824d86a3b0fd38b7e3dd42421105cf8abe9106db0b90600090a35050565b610901611dbe565b61090b6000611deb565b565b606060008060008060008060008060027f00000000000000000000000000000000000000000000000000000000000000007f00000000000000000000000000000000000000000000000000000000000000007f000000000000000000000000000000000000000000000000000000000000000060045460055461098e610746565b600754875460ff80831692600160a81b9004169089906109ad906122ca565b80601f01602080910402602001604051908101604052809291908181526020018280546109d9906122ca565b8015610a265780601f106109fb57610100808354040283529160200191610a26565b820191906000526020600020905b815481529060010190602001808311610a0957829003601f168201915b50505050509850985098509850985098509850985098509850909192939495969798565b60075461010090046001600160a01b0316331480610a7257506000546001600160a01b031633145b610a8e5760405162461bcd60e51b815260040161055c906121dd565b6001600160a01b038216610ad85760405162461bcd60e51b8152602060048201526011602482015270125b9d985b1a59081c9958da5c1a595b9d607a1b604482015260640161055c565b600554811115610b2a5760405162461bcd60e51b815260206004820152601a60248201527f496e73756666696369656e7420746f6b656e2062616c616e6365000000000000604482015260640161055c565b8060056000828254610b3c9190612304565b90915550610b7690506001600160a01b037f0000000000000000000000000000000000000000000000000000000000000000168383611e3b565b5050565b60075461010090046001600160a01b0316331480610ba257506000546001600160a01b031633145b610bbe5760405162461bcd60e51b815260040161055c906121dd565b6001600160a01b038216610c085760405162461bcd60e51b8152602060048201526011602482015270125b9d985b1a59081c9958da5c1a595b9d607a1b604482015260640161055c565b60008181526003602052604090205460ff16610c595760405162461bcd60e51b815260206004820152601060248201526f139195081b9bdd081a5b881d985d5b1d60821b604482015260640161055c565b6000818152600360205260408120805460ff191690556004805491610c7d83612317565b9091555050604051632142170760e11b81526001600160a01b037f000000000000000000000000000000000000000000000000000000000000000016906342842e0e90610cd290309086908690600401612221565b600060405180830381600087803b158015610cec57600080fd5b505af1158015610d00573d6000803e3d6000fd5b505050505050565b60028054610d15906122ca565b80601f0160208091040260200160405190810160405280929190818152602001828054610d41906122ca565b8015610d8e5780601f10610d6357610100808354040283529160200191610d8e565b820191906000526020600020905b815481529060010190602001808311610d7157829003601f168201915b505050505081565b60606000610da660045484611e6c565b67ffffffffffffffff811115610dbe57610dbe61232e565b604051908082528060200260200182016040528015610de7578160200160208202803683370190505b509050600060015b7f00000000000000000000000000000000000000000000000000000000000000006001600160a01b03166332cb6b0c6040518163ffffffff1660e01b8152600401602060405180830381865afa158015610e4d573d6000803e3d6000fd5b505050506040513d601f19601f82011682018060405250810190610e719190612287565b8111158015610e7f57508482105b15610ed95760008181526003602052604090205460ff1615610ec75780838381518110610eae57610eae61220b565b602090810291909101015281610ec38161225b565b9250505b80610ed18161225b565b915050610def565b508151811015610f875760008167ffffffffffffffff811115610efe57610efe61232e565b604051908082528060200260200182016040528015610f27578160200160208202803683370190505b50905060005b82811015610f7e57838181518110610f4757610f4761220b565b6020026020010151828281518110610f6157610f6161220b565b602090810291909101015280610f768161225b565b915050610f2d565b50949350505050565b5092915050565b600080600080600080600454600554610fa5610746565b600760009054906101000a900460ff167f00000000000000000000000000000000000000000000000000000000000000006001600160a01b031663a2309ff86040518163ffffffff1660e01b8152600401602060405180830381865afa158015611013573d6000803e3d6000fd5b505050506040513d601f19601f820116820180604052508101906110379190612287565b7f00000000000000000000000000000000000000000000000000000000000000006001600160a01b03166332cb6b0c6040518163ffffffff1660e01b8152600401602060405180830381865afa158015611095573d6000803e3d6000fd5b505050506040513d601f19601f820116820180604052508101906110b99190612287565b949b939a50919850965094509092509050565b60075461010090046001600160a01b03163314806110f457506000546001600160a01b031633145b6111105760405162461bcd60e51b815260040161055c906121dd565b80600660008282546111229190612274565b909155507f41c5e8c55061532e874271e77c72be737c2b190be0b0da85c4b6248689eac53a9050611151610746565b60405190815260200160405180910390a161116a611bd8565b50565b611175611e81565b600754600160a81b900460ff166111c55760405162461bcd60e51b815260206004820152601460248201527314ddd85c1c1a5b99c81a5cc8191a5cd8589b195960621b604482015260640161055c565b7f00000000000000000000000000000000000000000000000000000000000000008110156112355760405162461bcd60e51b815260206004820152601960248201527f496e73756666696369656e7420746f6b656e20616d6f756e7400000000000000604482015260640161055c565b61125f7f000000000000000000000000000000000000000000000000000000000000000082612344565b156112a35760405162461bcd60e51b8152602060048201526014602482015273125b9d985b1a59081d1bdad95b88185b5bdd5b9d60621b604482015260640161055c565b6000600454116112f55760405162461bcd60e51b815260206004820152601a60248201527f4e6f204e46547320617661696c61626c6520696e207661756c74000000000000604482015260640161055c565b60006113217f0000000000000000000000000000000000000000000000000000000000000000836122b6565b90506004548111156113755760405162461bcd60e51b815260206004820152601860248201527f4e6f7420656e6f756768204e46547320696e207661756c740000000000000000604482015260640161055c565b6040516323b872dd60e01b81526001600160a01b037f000000000000000000000000000000000000000000000000000000000000000016906323b872dd906113c590339030908790600401612221565b6020604051808303816000875af11580156113e4573d6000803e3d6000fd5b505050506040513d601f19601f820116820180604052508101906114089190612358565b61144c5760405162461bcd60e51b8152602060048201526015602482015274151bdad95b881d1c985b9cd9995c8819985a5b1959605a1b604482015260640161055c565b816005600082825461145e9190612274565b909155506000905060015b7f00000000000000000000000000000000000000000000000000000000000000006001600160a01b03166332cb6b0c6040518163ffffffff1660e01b8152600401602060405180830381865afa1580156114c7573d6000803e3d6000fd5b505050506040513d601f19601f820116820180604052508101906114eb9190612287565b81111580156114f957508282105b156116465760008181526003602052604090205460ff161561163457604051632142170760e11b81526001600160a01b037f000000000000000000000000000000000000000000000000000000000000000016906342842e0e9061156590309033908690600401612221565b600060405180830381600087803b15801561157f57600080fd5b505af1158015611593573d6000803e3d6000fd5b5050506000828152600360205260408120805460ff19169055600480549250906115bc83612317565b919050555081806115cc9061225b565b92505080336001600160a01b03167f0a08eebabec640fe759f6e5d61d6377cfe1f1367ae220b5f81a44a7b74c9be347f000000000000000000000000000000000000000000000000000000000000000060405161162b91815260200190565b60405180910390a35b8061163e8161225b565b915050611469565b508181146116965760405162461bcd60e51b815260206004820152601b60248201527f4661696c656420746f207472616e7366657220616c6c204e4654730000000000604482015260640161055c565b7f41c5e8c55061532e874271e77c72be737c2b190be0b0da85c4b6248689eac53a6116bf610746565b60405190815260200160405180910390a1505061116a60018055565b60075461010090046001600160a01b031633148061170357506000546001600160a01b031633145b61171f5760405162461bcd60e51b815260040161055c906121dd565b60078054821515600160a81b0260ff60a81b199091161790556040517fd101cbf49d2d7d396082a0e64b8dcc4e0b2a280bdccc3855f1d1fe8cf9d0f0e29061176c90831515815260200190565b60405180910390a150565b61177f611e81565b600754600160a81b900460ff166117cf5760405162461bcd60e51b815260206004820152601460248201527314ddd85c1c1a5b99c81a5cc8191a5cd8589b195960621b604482015260640161055c565b6040516331a9108f60e11b81526004810182905233906001600160a01b037f00000000000000000000000000000000000000000000000000000000000000001690636352211e90602401602060405180830381865afa158015611836573d6000803e3d6000fd5b505050506040513d601f19601f8201168201806040525081019061185a9190612375565b6001600160a01b0316146118a05760405162461bcd60e51b815260206004820152600d60248201526c2737ba1027232a1037bbb732b960991b604482015260640161055c565b60008181526003602052604090205460ff16156118f65760405162461bcd60e51b815260206004820152601460248201527313919508185b1c9958591e481a5b881d985d5b1d60621b604482015260640161055c565b7f000000000000000000000000000000000000000000000000000000000000000060055410156119685760405162461bcd60e51b815260206004820152601c60248201527f496e73756666696369656e7420746f6b656e7320696e207661756c7400000000604482015260640161055c565b604051632142170760e11b81526001600160a01b037f000000000000000000000000000000000000000000000000000000000000000016906342842e0e906119b890339030908690600401612221565b600060405180830381600087803b1580156119d257600080fd5b505af11580156119e6573d6000803e3d6000fd5b5050506000828152600360205260408120805460ff1916600117905560048054925090611a128361225b565b91905055507f000000000000000000000000000000000000000000000000000000000000000060056000828254611a499190612304565b90915550611aa390506001600160a01b037f000000000000000000000000000000000000000000000000000000000000000016337f0000000000000000000000000000000000000000000000000000000000000000611e3b565b6040517f00000000000000000000000000000000000000000000000000000000000000008152819033907f494c78ec0278e768f6779f083e8c6b4691758074367b4e7c6355aa772ed6d7049060200160405180910390a37f41c5e8c55061532e874271e77c72be737c2b190be0b0da85c4b6248689eac53a611b23610746565b60405190815260200160405180910390a161116a60018055565b611b45611dbe565b6001600160a01b038116611b6f57604051631e4fbdf760e01b81526000600482015260240161055c565b61116a81611deb565b611bd284856001600160a01b03166323b872dd868686604051602401611ba093929190612221565b604051602081830303815290604052915060e01b6020820180516001600160e01b038381831617835250505050611eab565b50505050565b60075460ff16158015611ced57507f00000000000000000000000000000000000000000000000000000000000000006001600160a01b03166332cb6b0c6040518163ffffffff1660e01b8152600401602060405180830381865afa158015611c44573d6000803e3d6000fd5b505050506040513d601f19601f82011682018060405250810190611c689190612287565b7f00000000000000000000000000000000000000000000000000000000000000006001600160a01b031663a2309ff86040518163ffffffff1660e01b8152600401602060405180830381865afa158015611cc6573d6000803e3d6000fd5b505050506040513d601f19601f82011682018060405250810190611cea9190612287565b10155b1561090b576007805460ff191660011790556040805163144613ff60e31b815290517f2f32e519b30d0f52c856843502cc5b899f08f78da6adc87ddedb8d70c7365b1f916001600160a01b037f0000000000000000000000000000000000000000000000000000000000000000169163a2309ff8916004808201926020929091908290030181865afa158015611d87573d6000803e3d6000fd5b505050506040513d601f19601f82011682018060405250810190611dab9190612287565b60405190815260200160405180910390a1565b6000546001600160a01b0316331461090b5760405163118cdaa760e01b815233600482015260240161055c565b600080546001600160a01b038381166001600160a01b0319831681178455604051919092169283917f8be0079c531659141344cd1fd0a4f28419497f9722a3daafe3b4186f6b6457e09190a35050565b6040516001600160a01b0383811660248301526044820183905261074191859182169063a9059cbb90606401611ba0565b60008282188284100282185b90505b92915050565b600260015403611ea457604051633ee5aeb560e01b815260040160405180910390fd5b6002600155565b600080602060008451602086016000885af180611ece576040513d6000823e3d81fd5b50506000513d91508115611ee6578060011415611ef3565b6001600160a01b0384163b155b15611bd257604051635274afe760e01b81526001600160a01b038516600482015260240161055c565b600080600060408486031215611f3157600080fd5b833567ffffffffffffffff80821115611f4957600080fd5b818601915086601f830112611f5d57600080fd5b813581811115611f6c57600080fd5b8760208260051b8501011115611f8157600080fd5b6020928301989097509590910135949350505050565b600060208284031215611fa957600080fd5b5035919050565b6001600160a01b038116811461116a57600080fd5b600080600080600060808688031215611fdd57600080fd5b8535611fe881611fb0565b94506020860135611ff881611fb0565b935060408601359250606086013567ffffffffffffffff8082111561201c57600080fd5b818801915088601f83011261203057600080fd5b81358181111561203f57600080fd5b89602082850101111561205157600080fd5b9699959850939650602001949392505050565b60006020828403121561207657600080fd5b813561208181611fb0565b9392505050565b6000815180845260005b818110156120ae57602081850181015186830182015201612092565b506000602082860101526020601f19601f83011685010191505092915050565b60006101208083526120e28184018d612088565b6001600160a01b039b8c16602085015299909a166040830152506060810196909652608086019490945260a085019290925260c0840152151560e083015215156101009091015292915050565b6000806040838503121561214257600080fd5b823561214d81611fb0565b946020939093013593505050565b602081526000611e786020830184612088565b6020808252825182820181905260009190848201906040850190845b818110156121a65783518352928401929184019160010161218a565b50909695505050505050565b801515811461116a57600080fd5b6000602082840312156121d257600080fd5b8135612081816121b2565b6020808252601490820152732737ba1030baba3437b934bd32b21030b236b4b760611b604082015260600190565b634e487b7160e01b600052603260045260246000fd5b6001600160a01b039384168152919092166020820152604081019190915260600190565b634e487b7160e01b600052601160045260246000fd5b60006001820161226d5761226d612245565b5060010190565b80820180821115611e7b57611e7b612245565b60006020828403121561229957600080fd5b5051919050565b634e487b7160e01b600052601260045260246000fd5b6000826122c5576122c56122a0565b500490565b600181811c908216806122de57607f821691505b6020821081036122fe57634e487b7160e01b600052602260045260246000fd5b50919050565b81810381811115611e7b57611e7b612245565b60008161232657612326612245565b506000190190565b634e487b7160e01b600052604160045260246000fd5b600082612353576123536122a0565b500690565b60006020828403121561236a57600080fd5b8151612081816121b2565b60006020828403121561238757600080fd5b815161208181611fb056fea264697066735822122030a05a3147a9f145ba8ad437cfb1597813bd43ea197a1cafedb34d17a754836764736f6c63430008140033","opcodes":"PUSH2 0x120 PUSH1 0x40 MSTORE PUSH1 0x7 DUP1 SLOAD PUSH1 0xFF PUSH1 0xA8 SHL NOT AND PUSH1 0x1 PUSH1 0xA8 SHL OR SWAP1 SSTORE CALLVALUE DUP1 ISZERO PUSH3 0x25 JUMPI PUSH1 0x0 DUP1 REVERT JUMPDEST POP PUSH1 0x40 MLOAD PUSH3 0x2C73 CODESIZE SUB DUP1 PUSH3 0x2C73 DUP4 CODECOPY DUP2 ADD PUSH1 0x40 DUP2 SWAP1 MSTORE PUSH3 0x48 SWAP2 PUSH3 0x3AD JUMP JUMPDEST CALLER DUP1 PUSH3 0x70 JUMPI PUSH1 0x40 MLOAD PUSH4 0x1E4FBDF7 PUSH1 0xE0 SHL DUP2 MSTORE PUSH1 0x0 PUSH1 0x4 DUP3 ADD MSTORE PUSH1 0x24 ADD JUMPDEST PUSH1 0x40 MLOAD DUP1 SWAP2 SUB SWAP1 REVERT JUMPDEST PUSH3 0x7B DUP2 PUSH3 0x32A JUMP JUMPDEST POP PUSH1 0x1 DUP1 SSTORE PUSH1 0x1 PUSH1 0x1 PUSH1 0xA0 SHL SUB DUP5 AND PUSH3 0xD8 JUMPI PUSH1 0x40 MLOAD PUSH3 0x461BCD PUSH1 0xE5 SHL DUP2 MSTORE PUSH1 0x20 PUSH1 0x4 DUP3 ADD MSTORE PUSH1 0x14 PUSH1 0x24 DUP3 ADD MSTORE PUSH32 0x496E76616C6964204E465420636F6E7472616374000000000000000000000000 PUSH1 0x44 DUP3 ADD MSTORE PUSH1 0x64 ADD PUSH3 0x67 JUMP JUMPDEST PUSH1 0x1 PUSH1 0x1 PUSH1 0xA0 SHL SUB DUP4 AND PUSH3 0x130 JUMPI PUSH1 0x40 MLOAD PUSH3 0x461BCD PUSH1 0xE5 SHL DUP2 MSTORE PUSH1 0x20 PUSH1 0x4 DUP3 ADD MSTORE PUSH1 0x16 PUSH1 0x24 DUP3 ADD MSTORE PUSH32 0x496E76616C696420746F6B656E20636F6E747261637400000000000000000000 PUSH1 0x44 DUP3 ADD MSTORE PUSH1 0x64 ADD PUSH3 0x67 JUMP JUMPDEST PUSH1 0x0 DUP3 MLOAD GT PUSH3 0x183 JUMPI PUSH1 0x40 MLOAD PUSH3 0x461BCD PUSH1 0xE5 SHL DUP2 MSTORE PUSH1 0x20 PUSH1 0x4 DUP3 ADD MSTORE PUSH1 0x19 PUSH1 0x24 DUP3 ADD MSTORE PUSH32 0x536F6E67206E616D652063616E6E6F7420626520656D70747900000000000000 PUSH1 0x44 DUP3 ADD MSTORE PUSH1 0x64 ADD PUSH3 0x67 JUMP JUMPDEST PUSH1 0x1 PUSH1 0x1 PUSH1 0xA0 SHL SUB DUP2 AND PUSH3 0x1DB JUMPI PUSH1 0x40 MLOAD PUSH3 0x461BCD PUSH1 0xE5 SHL DUP2 MSTORE PUSH1 0x20 PUSH1 0x4 DUP3 ADD MSTORE PUSH1 0x15 PUSH1 0x24 DUP3 ADD MSTORE PUSH32 0x496E76616C69642061646D696E20616464726573730000000000000000000000 PUSH1 0x44 DUP3 ADD MSTORE PUSH1 0x64 ADD PUSH3 0x67 JUMP JUMPDEST PUSH1 0x1 PUSH1 0x1 PUSH1 0xA0 SHL SUB DUP1 DUP6 AND PUSH1 0x80 MSTORE DUP4 AND PUSH1 0xA0 MSTORE PUSH1 0x2 PUSH3 0x1FC DUP4 DUP3 PUSH3 0x549 JUMP JUMPDEST POP DUP1 PUSH1 0x7 PUSH1 0x1 PUSH2 0x100 EXP DUP2 SLOAD DUP2 PUSH1 0x1 PUSH1 0x1 PUSH1 0xA0 SHL SUB MUL NOT AND SWAP1 DUP4 PUSH1 0x1 PUSH1 0x1 PUSH1 0xA0 SHL SUB AND MUL OR SWAP1 SSTORE POP PUSH1 0xA0 MLOAD PUSH1 0x1 PUSH1 0x1 PUSH1 0xA0 SHL SUB AND PUSH4 0xADEE8FF2 PUSH1 0x40 MLOAD DUP2 PUSH4 0xFFFFFFFF AND PUSH1 0xE0 SHL DUP2 MSTORE PUSH1 0x4 ADD PUSH1 0x20 PUSH1 0x40 MLOAD DUP1 DUP4 SUB DUP2 DUP7 GAS STATICCALL ISZERO DUP1 ISZERO PUSH3 0x265 JUMPI RETURNDATASIZE PUSH1 0x0 DUP1 RETURNDATACOPY RETURNDATASIZE PUSH1 0x0 REVERT JUMPDEST POP POP POP POP PUSH1 0x40 MLOAD RETURNDATASIZE PUSH1 0x1F NOT PUSH1 0x1F DUP3 ADD AND DUP3 ADD DUP1 PUSH1 0x40 MSTORE POP DUP2 ADD SWAP1 PUSH3 0x28B SWAP2 SWAP1 PUSH3 0x615 JUMP JUMPDEST PUSH1 0xC0 DUP2 DUP2 MSTORE POP POP DUP3 PUSH1 0x1 PUSH1 0x1 PUSH1 0xA0 SHL SUB AND PUSH4 0x313CE567 PUSH1 0x40 MLOAD DUP2 PUSH4 0xFFFFFFFF AND PUSH1 0xE0 SHL DUP2 MSTORE PUSH1 0x4 ADD PUSH1 0x20 PUSH1 0x40 MLOAD DUP1 DUP4 SUB DUP2 DUP7 GAS STATICCALL ISZERO DUP1 ISZERO PUSH3 0x2D1 JUMPI RETURNDATASIZE PUSH1 0x0 DUP1 RETURNDATACOPY RETURNDATASIZE PUSH1 0x0 REVERT JUMPDEST POP POP POP POP PUSH1 0x40 MLOAD RETURNDATASIZE PUSH1 0x1F NOT PUSH1 0x1F DUP3 ADD AND DUP3 ADD DUP1 PUSH1 0x40 MSTORE POP DUP2 ADD SWAP1 PUSH3 0x2F7 SWAP2 SWAP1 PUSH3 0x62F JUMP JUMPDEST PUSH1 0xFF AND PUSH1 0xE0 DUP2 SWAP1 MSTORE PUSH3 0x30C SWAP1 PUSH1 0xA PUSH3 0x770 JUMP JUMPDEST PUSH1 0xC0 MLOAD PUSH3 0x31B SWAP2 SWAP1 PUSH3 0x781 JUMP JUMPDEST PUSH2 0x100 MSTORE POP PUSH3 0x79B SWAP3 POP POP POP JUMP JUMPDEST PUSH1 0x0 DUP1 SLOAD PUSH1 0x1 PUSH1 0x1 PUSH1 0xA0 SHL SUB DUP4 DUP2 AND PUSH1 0x1 PUSH1 0x1 PUSH1 0xA0 SHL SUB NOT DUP4 AND DUP2 OR DUP5 SSTORE PUSH1 0x40 MLOAD SWAP2 SWAP1 SWAP3 AND SWAP3 DUP4 SWAP2 PUSH32 0x8BE0079C531659141344CD1FD0A4F28419497F9722A3DAAFE3B4186F6B6457E0 SWAP2 SWAP1 LOG3 POP POP JUMP JUMPDEST DUP1 MLOAD PUSH1 0x1 PUSH1 0x1 PUSH1 0xA0 SHL SUB DUP2 AND DUP2 EQ PUSH3 0x392 JUMPI PUSH1 0x0 DUP1 REVERT JUMPDEST SWAP2 SWAP1 POP JUMP JUMPDEST PUSH4 0x4E487B71 PUSH1 0xE0 SHL PUSH1 0x0 MSTORE PUSH1 0x41 PUSH1 0x4 MSTORE PUSH1 0x24 PUSH1 0x0 REVERT JUMPDEST PUSH1 0x0 DUP1 PUSH1 0x0 DUP1 PUSH1 0x80 DUP6 DUP8 SUB SLT ISZERO PUSH3 0x3C4 JUMPI PUSH1 0x0 DUP1 REVERT JUMPDEST PUSH3 0x3CF DUP6 PUSH3 0x37A JUMP JUMPDEST SWAP4 POP PUSH1 0x20 PUSH3 0x3E0 DUP2 DUP8 ADD PUSH3 0x37A JUMP JUMPDEST PUSH1 0x40 DUP8 ADD MLOAD SWAP1 SWAP5 POP PUSH1 0x1 PUSH1 0x1 PUSH1 0x40 SHL SUB DUP1 DUP3 GT ISZERO PUSH3 0x3FE JUMPI PUSH1 0x0 DUP1 REVERT JUMPDEST DUP2 DUP9 ADD SWAP2 POP DUP9 PUSH1 0x1F DUP4 ADD SLT PUSH3 0x413 JUMPI PUSH1 0x0 DUP1 REVERT JUMPDEST DUP2 MLOAD DUP2 DUP2 GT ISZERO PUSH3 0x428 JUMPI PUSH3 0x428 PUSH3 0x397 JUMP JUMPDEST PUSH1 0x40 MLOAD PUSH1 0x1F DUP3 ADD PUSH1 0x1F NOT SWAP1 DUP2 AND PUSH1 0x3F ADD AND DUP2 ADD SWAP1 DUP4 DUP3 GT DUP2 DUP4 LT OR ISZERO PUSH3 0x453 JUMPI PUSH3 0x453 PUSH3 0x397 JUMP JUMPDEST DUP2 PUSH1 0x40 MSTORE DUP3 DUP2 MSTORE DUP12 DUP7 DUP5 DUP8 ADD ADD GT ISZERO PUSH3 0x46C JUMPI PUSH1 0x0 DUP1 REVERT JUMPDEST PUSH1 0x0 SWAP4 POP JUMPDEST DUP3 DUP5 LT ISZERO PUSH3 0x490 JUMPI DUP5 DUP5 ADD DUP7 ADD MLOAD DUP2 DUP6 ADD DUP8 ADD MSTORE SWAP3 DUP6 ADD SWAP3 PUSH3 0x471 JUMP JUMPDEST PUSH1 0x0 DUP7 DUP5 DUP4 ADD ADD MSTORE DUP1 SWAP8 POP POP POP POP POP POP POP PUSH3 0x4AF PUSH1 0x60 DUP7 ADD PUSH3 0x37A JUMP JUMPDEST SWAP1 POP SWAP3 SWAP6 SWAP2 SWAP5 POP SWAP3 POP JUMP JUMPDEST PUSH1 0x1 DUP2 DUP2 SHR SWAP1 DUP3 AND DUP1 PUSH3 0x4CF JUMPI PUSH1 0x7F DUP3 AND SWAP2 POP JUMPDEST PUSH1 0x20 DUP3 LT DUP2 SUB PUSH3 0x4F0 JUMPI PUSH4 0x4E487B71 PUSH1 0xE0 SHL PUSH1 0x0 MSTORE PUSH1 0x22 PUSH1 0x4 MSTORE PUSH1 0x24 PUSH1 0x0 REVERT JUMPDEST POP SWAP2 SWAP1 POP JUMP JUMPDEST PUSH1 0x1F DUP3 GT ISZERO PUSH3 0x544 JUMPI PUSH1 0x0 DUP2 DUP2 MSTORE PUSH1 0x20 DUP2 KECCAK256 PUSH1 0x1F DUP6 ADD PUSH1 0x5 SHR DUP2 ADD PUSH1 0x20 DUP7 LT ISZERO PUSH3 0x51F JUMPI POP DUP1 JUMPDEST PUSH1 0x1F DUP6 ADD PUSH1 0x5 SHR DUP3 ADD SWAP2 POP JUMPDEST DUP2 DUP2 LT ISZERO PUSH3 0x540 JUMPI DUP3 DUP2 SSTORE PUSH1 0x1 ADD PUSH3 0x52B JUMP JUMPDEST POP POP POP JUMPDEST POP POP POP JUMP JUMPDEST DUP2 MLOAD PUSH1 0x1 PUSH1 0x1 PUSH1 0x40 SHL SUB DUP2 GT ISZERO PUSH3 0x565 JUMPI PUSH3 0x565 PUSH3 0x397 JUMP JUMPDEST PUSH3 0x57D DUP2 PUSH3 0x576 DUP5 SLOAD PUSH3 0x4BA JUMP JUMPDEST DUP5 PUSH3 0x4F6 JUMP JUMPDEST PUSH1 0x20 DUP1 PUSH1 0x1F DUP4 GT PUSH1 0x1 DUP2 EQ PUSH3 0x5B5 JUMPI PUSH1 0x0 DUP5 ISZERO PUSH3 0x59C JUMPI POP DUP6 DUP4 ADD MLOAD JUMPDEST PUSH1 0x0 NOT PUSH1 0x3 DUP7 SWAP1 SHL SHR NOT AND PUSH1 0x1 DUP6 SWAP1 SHL OR DUP6 SSTORE PUSH3 0x540 JUMP JUMPDEST PUSH1 0x0 DUP6 DUP2 MSTORE PUSH1 0x20 DUP2 KECCAK256 PUSH1 0x1F NOT DUP7 AND SWAP2 JUMPDEST DUP3 DUP2 LT ISZERO PUSH3 0x5E6 JUMPI DUP9 DUP7 ADD MLOAD DUP3 SSTORE SWAP5 DUP5 ADD SWAP5 PUSH1 0x1 SWAP1 SWAP2 ADD SWAP1 DUP5 ADD PUSH3 0x5C5 JUMP JUMPDEST POP DUP6 DUP3 LT ISZERO PUSH3 0x605 JUMPI DUP8 DUP6 ADD MLOAD PUSH1 0x0 NOT PUSH1 0x3 DUP9 SWAP1 SHL PUSH1 0xF8 AND SHR NOT AND DUP2 SSTORE JUMPDEST POP POP POP POP POP PUSH1 0x1 SWAP1 DUP2 SHL ADD SWAP1 SSTORE POP JUMP JUMPDEST PUSH1 0x0 PUSH1 0x20 DUP3 DUP5 SUB SLT ISZERO PUSH3 0x628 JUMPI PUSH1 0x0 DUP1 REVERT JUMPDEST POP MLOAD SWAP2 SWAP1 POP JUMP JUMPDEST PUSH1 0x0 PUSH1 0x20 DUP3 DUP5 SUB SLT ISZERO PUSH3 0x642 JUMPI PUSH1 0x0 DUP1 REVERT JUMPDEST DUP2 MLOAD PUSH1 0xFF DUP2 AND DUP2 EQ PUSH3 0x654 JUMPI PUSH1 0x0 DUP1 REVERT JUMPDEST SWAP4 SWAP3 POP POP POP JUMP JUMPDEST PUSH4 0x4E487B71 PUSH1 0xE0 SHL PUSH1 0x0 MSTORE PUSH1 0x11 PUSH1 0x4 MSTORE PUSH1 0x24 PUSH1 0x0 REVERT JUMPDEST PUSH1 0x1 DUP2 DUP2 JUMPDEST DUP1 DUP6 GT ISZERO PUSH3 0x6B2 JUMPI DUP2 PUSH1 0x0 NOT DIV DUP3 GT ISZERO PUSH3 0x696 JUMPI PUSH3 0x696 PUSH3 0x65B JUMP JUMPDEST DUP1 DUP6 AND ISZERO PUSH3 0x6A4 JUMPI SWAP2 DUP2 MUL SWAP2 JUMPDEST SWAP4 DUP5 SHR SWAP4 SWAP1 DUP1 MUL SWAP1 PUSH3 0x676 JUMP JUMPDEST POP SWAP3 POP SWAP3 SWAP1 POP JUMP JUMPDEST PUSH1 0x0 DUP3 PUSH3 0x6CB JUMPI POP PUSH1 0x1 PUSH3 0x76A JUMP JUMPDEST DUP2 PUSH3 0x6DA JUMPI POP PUSH1 0x0 PUSH3 0x76A JUMP JUMPDEST DUP2 PUSH1 0x1 DUP2 EQ PUSH3 0x6F3 JUMPI PUSH1 0x2 DUP2 EQ PUSH3 0x6FE JUMPI PUSH3 0x71E JUMP JUMPDEST PUSH1 0x1 SWAP2 POP POP PUSH3 0x76A JUMP JUMPDEST PUSH1 0xFF DUP5 GT ISZERO PUSH3 0x712 JUMPI PUSH3 0x712 PUSH3 0x65B JUMP JUMPDEST POP POP PUSH1 0x1 DUP3 SHL PUSH3 0x76A JUMP JUMPDEST POP PUSH1 0x20 DUP4 LT PUSH2 0x133 DUP4 LT AND PUSH1 0x4E DUP5 LT PUSH1 0xB DUP5 LT AND OR ISZERO PUSH3 0x743 JUMPI POP DUP2 DUP2 EXP PUSH3 0x76A JUMP JUMPDEST PUSH3 0x74F DUP4 DUP4 PUSH3 0x671 JUMP JUMPDEST DUP1 PUSH1 0x0 NOT DIV DUP3 GT ISZERO PUSH3 0x766 JUMPI PUSH3 0x766 PUSH3 0x65B JUMP JUMPDEST MUL SWAP1 POP JUMPDEST SWAP3 SWAP2 POP POP JUMP JUMPDEST PUSH1 0x0 PUSH3 0x654 PUSH1 0xFF DUP5 AND DUP4 PUSH3 0x6BA JUMP JUMPDEST DUP1 DUP3 MUL DUP2 ISZERO DUP3 DUP3 DIV DUP5 EQ OR PUSH3 0x76A JUMPI PUSH3 0x76A PUSH3 0x65B JUMP JUMPDEST PUSH1 0x80 MLOAD PUSH1 0xA0 MLOAD PUSH1 0xC0 MLOAD PUSH1 0xE0 MLOAD PUSH2 0x100 MLOAD PUSH2 0x23C8 PUSH3 0x8AB PUSH1 0x0 CODECOPY PUSH1 0x0 DUP2 DUP2 PUSH2 0x428 ADD MSTORE DUP2 DUP2 PUSH2 0x7FC ADD MSTORE DUP2 DUP2 PUSH2 0x961 ADD MSTORE DUP2 DUP2 PUSH2 0x11C7 ADD MSTORE DUP2 DUP2 PUSH2 0x123A ADD MSTORE DUP2 DUP2 PUSH2 0x12FC ADD MSTORE DUP2 DUP2 PUSH2 0x15FD ADD MSTORE DUP2 DUP2 PUSH2 0x18F8 ADD MSTORE DUP2 DUP2 PUSH2 0x1A19 ADD MSTORE DUP2 DUP2 PUSH2 0x1A7F ADD MSTORE PUSH2 0x1AA8 ADD MSTORE PUSH1 0x0 PUSH2 0x2EA ADD MSTORE PUSH1 0x0 PUSH2 0x44F ADD MSTORE PUSH1 0x0 DUP2 DUP2 PUSH2 0x2AB ADD MSTORE DUP2 DUP2 PUSH2 0x6C0 ADD MSTORE DUP2 DUP2 PUSH2 0x940 ADD MSTORE DUP2 DUP2 PUSH2 0xB4F ADD MSTORE DUP2 DUP2 PUSH2 0x138C ADD MSTORE PUSH2 0x1A5C ADD MSTORE PUSH1 0x0 DUP2 DUP2 PUSH2 0x492 ADD MSTORE DUP2 DUP2 PUSH2 0x600 ADD MSTORE DUP2 DUP2 PUSH2 0x74B ADD MSTORE DUP2 DUP2 PUSH2 0x91F ADD MSTORE DUP2 DUP2 PUSH2 0xC99 ADD MSTORE DUP2 DUP2 PUSH2 0xDF1 ADD MSTORE DUP2 DUP2 PUSH2 0xFB7 ADD MSTORE DUP2 DUP2 PUSH2 0x1039 ADD MSTORE DUP2 DUP2 PUSH2 0x146B ADD MSTORE DUP2 DUP2 PUSH2 0x152C ADD MSTORE DUP2 DUP2 PUSH2 0x17EF ADD MSTORE DUP2 DUP2 PUSH2 0x197F ADD MSTORE DUP2 DUP2 PUSH2 0x1BE8 ADD MSTORE DUP2 DUP2 PUSH2 0x1C6A ADD MSTORE PUSH2 0x1D3B ADD MSTORE PUSH2 0x23C8 PUSH1 0x0 RETURN INVALID PUSH1 0x80 PUSH1 0x40 MSTORE CALLVALUE DUP1 ISZERO PUSH2 0x10 JUMPI PUSH1 0x0 DUP1 REVERT JUMPDEST POP PUSH1 0x4 CALLDATASIZE LT PUSH2 0x1DA JUMPI PUSH1 0x0 CALLDATALOAD PUSH1 0xE0 SHR DUP1 PUSH4 0x922B8079 GT PUSH2 0x104 JUMPI DUP1 PUSH4 0xB1E776E3 GT PUSH2 0xA2 JUMPI DUP1 PUSH4 0xE01AF92C GT PUSH2 0x71 JUMPI DUP1 PUSH4 0xE01AF92C EQ PUSH2 0x4C7 JUMPI DUP1 PUSH4 0xE91A7CA6 EQ PUSH2 0x4DA JUMPI DUP1 PUSH4 0xF2FDE38B EQ PUSH2 0x4ED JUMPI DUP1 PUSH4 0xF851A440 EQ PUSH2 0x500 JUMPI PUSH1 0x0 DUP1 REVERT JUMPDEST DUP1 PUSH4 0xB1E776E3 EQ PUSH2 0x471 JUMPI DUP1 PUSH4 0xBBFFA2D3 EQ PUSH2 0x484 JUMPI DUP1 PUSH4 0xD56D229D EQ PUSH2 0x48D JUMPI DUP1 PUSH4 0xDD49756E EQ PUSH2 0x4B4 JUMPI PUSH1 0x0 DUP1 REVERT JUMPDEST DUP1 PUSH4 0x9E1A4D19 GT PUSH2 0xDE JUMPI DUP1 PUSH4 0x9E1A4D19 EQ PUSH2 0x3E3 JUMPI DUP1 PUSH4 0xA59AA5A6 EQ PUSH2 0x3EC JUMPI DUP1 PUSH4 0xA98D4994 EQ PUSH2 0x423 JUMPI DUP1 PUSH4 0xADEE8FF2 EQ PUSH2 0x44A JUMPI PUSH1 0x0 DUP1 REVERT JUMPDEST DUP1 PUSH4 0x922B8079 EQ PUSH2 0x39B JUMPI DUP1 PUSH4 0x96CD06F8 EQ PUSH2 0x3AE JUMPI DUP1 PUSH4 0x978CD40F EQ PUSH2 0x3C3 JUMPI PUSH1 0x0 DUP1 REVERT JUMPDEST DUP1 PUSH4 0x5B7F415C GT PUSH2 0x17C JUMPI DUP1 PUSH4 0x7304FA20 GT PUSH2 0x14B JUMPI DUP1 PUSH4 0x7304FA20 EQ PUSH2 0x34D JUMPI DUP1 PUSH4 0x7F98AA71 EQ PUSH2 0x35A JUMPI DUP1 PUSH4 0x8DA5CB5B EQ PUSH2 0x377 JUMPI DUP1 PUSH4 0x917BB998 EQ PUSH2 0x388 JUMPI PUSH1 0x0 DUP1 REVERT JUMPDEST DUP1 PUSH4 0x5B7F415C EQ PUSH2 0x2E5 JUMPI DUP1 PUSH4 0x6DDD1713 EQ PUSH2 0x31E JUMPI DUP1 PUSH4 0x704B6C02 EQ PUSH2 0x332 JUMPI DUP1 PUSH4 0x715018A6 EQ PUSH2 0x345 JUMPI PUSH1 0x0 DUP1 REVERT JUMPDEST DUP1 PUSH4 0x150B7A02 GT PUSH2 0x1B8 JUMPI DUP1 PUSH4 0x150B7A02 EQ PUSH2 0x243 JUMPI DUP1 PUSH4 0x2A33D6B2 EQ PUSH2 0x27B JUMPI DUP1 PUSH4 0x50586088 EQ PUSH2 0x283 JUMPI DUP1 PUSH4 0x55A373D6 EQ PUSH2 0x2A6 JUMPI PUSH1 0x0 DUP1 REVERT JUMPDEST DUP1 PUSH4 0x29A3C5F EQ PUSH2 0x1DF JUMPI DUP1 PUSH4 0x35DD06D EQ PUSH2 0x1F4 JUMPI DUP1 PUSH4 0xAF2C6CA EQ PUSH2 0x22C JUMPI JUMPDEST PUSH1 0x0 DUP1 REVERT JUMPDEST PUSH2 0x1F2 PUSH2 0x1ED CALLDATASIZE PUSH1 0x4 PUSH2 0x1F1C JUMP JUMPDEST PUSH2 0x518 JUMP JUMPDEST STOP JUMPDEST PUSH2 0x217 PUSH2 0x202 CALLDATASIZE PUSH1 0x4 PUSH2 0x1F97 JUMP JUMPDEST PUSH1 0x0 SWAP1 DUP2 MSTORE PUSH1 0x3 PUSH1 0x20 MSTORE PUSH1 0x40 SWAP1 KECCAK256 SLOAD PUSH1 0xFF AND SWAP1 JUMP JUMPDEST PUSH1 0x40 MLOAD SWAP1 ISZERO ISZERO DUP2 MSTORE PUSH1 0x20 ADD JUMPDEST PUSH1 0x40 MLOAD DUP1 SWAP2 SUB SWAP1 RETURN JUMPDEST PUSH2 0x235 PUSH1 0x4 SLOAD DUP2 JUMP JUMPDEST PUSH1 0x40 MLOAD SWAP1 DUP2 MSTORE PUSH1 0x20 ADD PUSH2 0x223 JUMP JUMPDEST PUSH2 0x262 PUSH2 0x251 CALLDATASIZE PUSH1 0x4 PUSH2 0x1FC5 JUMP JUMPDEST PUSH4 0xA85BD01 PUSH1 0xE1 SHL SWAP6 SWAP5 POP POP POP POP POP JUMP JUMPDEST PUSH1 0x40 MLOAD PUSH1 0x1 PUSH1 0x1 PUSH1 0xE0 SHL SUB NOT SWAP1 SWAP2 AND DUP2 MSTORE PUSH1 0x20 ADD PUSH2 0x223 JUMP JUMPDEST PUSH2 0x235 PUSH2 0x746 JUMP JUMPDEST PUSH2 0x217 PUSH2 0x291 CALLDATASIZE PUSH1 0x4 PUSH2 0x1F97 JUMP JUMPDEST PUSH1 0x3 PUSH1 0x20 MSTORE PUSH1 0x0 SWAP1 DUP2 MSTORE PUSH1 0x40 SWAP1 KECCAK256 SLOAD PUSH1 0xFF AND DUP2 JUMP JUMPDEST PUSH2 0x2CD PUSH32 0x0 DUP2 JUMP JUMPDEST PUSH1 0x40 MLOAD PUSH1 0x1 PUSH1 0x1 PUSH1 0xA0 SHL SUB SWAP1 SWAP2 AND DUP2 MSTORE PUSH1 0x20 ADD PUSH2 0x223 JUMP JUMPDEST PUSH2 0x30C PUSH32 0x0 DUP2 JUMP JUMPDEST PUSH1 0x40 MLOAD PUSH1 0xFF SWAP1 SWAP2 AND DUP2 MSTORE PUSH1 0x20 ADD PUSH2 0x223 JUMP JUMPDEST PUSH1 0x7 SLOAD PUSH2 0x217 SWAP1 PUSH1 0x1 PUSH1 0xA8 SHL SWAP1 DIV PUSH1 0xFF AND DUP2 JUMP JUMPDEST PUSH2 0x1F2 PUSH2 0x340 CALLDATASIZE PUSH1 0x4 PUSH2 0x2064 JUMP JUMPDEST PUSH2 0x849 JUMP JUMPDEST PUSH2 0x1F2 PUSH2 0x8F9 JUMP JUMPDEST PUSH1 0x7 SLOAD PUSH2 0x217 SWAP1 PUSH1 0xFF AND DUP2 JUMP JUMPDEST PUSH2 0x362 PUSH2 0x90D JUMP JUMPDEST PUSH1 0x40 MLOAD PUSH2 0x223 SWAP10 SWAP9 SWAP8 SWAP7 SWAP6 SWAP5 SWAP4 SWAP3 SWAP2 SWAP1 PUSH2 0x20CE JUMP JUMPDEST PUSH1 0x0 SLOAD PUSH1 0x1 PUSH1 0x1 PUSH1 0xA0 SHL SUB AND PUSH2 0x2CD JUMP JUMPDEST PUSH2 0x1F2 PUSH2 0x396 CALLDATASIZE PUSH1 0x4 PUSH2 0x212F JUMP JUMPDEST PUSH2 0xA4A JUMP JUMPDEST PUSH2 0x1F2 PUSH2 0x3A9 CALLDATASIZE PUSH1 0x4 PUSH2 0x212F JUMP JUMPDEST PUSH2 0xB7A JUMP JUMPDEST PUSH2 0x3B6 PUSH2 0xD08 JUMP JUMPDEST PUSH1 0x40 MLOAD PUSH2 0x223 SWAP2 SWAP1 PUSH2 0x215B JUMP JUMPDEST PUSH2 0x3D6 PUSH2 0x3D1 CALLDATASIZE PUSH1 0x4 PUSH2 0x1F97 JUMP JUMPDEST PUSH2 0xD96 JUMP JUMPDEST PUSH1 0x40 MLOAD PUSH2 0x223 SWAP2 SWAP1 PUSH2 0x216E JUMP JUMPDEST PUSH2 0x235 PUSH1 0x5 SLOAD DUP2 JUMP JUMPDEST PUSH2 0x3F4 PUSH2 0xF8E JUMP JUMPDEST PUSH1 0x40 DUP1 MLOAD SWAP7 DUP8 MSTORE PUSH1 0x20 DUP8 ADD SWAP6 SWAP1 SWAP6 MSTORE SWAP4 DUP6 ADD SWAP3 SWAP1 SWAP3 MSTORE ISZERO ISZERO PUSH1 0x60 DUP5 ADD MSTORE PUSH1 0x80 DUP4 ADD MSTORE PUSH1 0xA0 DUP3 ADD MSTORE PUSH1 0xC0 ADD PUSH2 0x223 JUMP JUMPDEST PUSH2 0x235 PUSH32 0x0 DUP2 JUMP JUMPDEST PUSH2 0x235 PUSH32 0x0 DUP2 JUMP JUMPDEST PUSH2 0x1F2 PUSH2 0x47F CALLDATASIZE PUSH1 0x4 PUSH2 0x1F97 JUMP JUMPDEST PUSH2 0x10CC JUMP JUMPDEST PUSH2 0x235 PUSH1 0x6 SLOAD DUP2 JUMP JUMPDEST PUSH2 0x2CD PUSH32 0x0 DUP2 JUMP JUMPDEST PUSH2 0x1F2 PUSH2 0x4C2 CALLDATASIZE PUSH1 0x4 PUSH2 0x1F97 JUMP JUMPDEST PUSH2 0x116D JUMP JUMPDEST PUSH2 0x1F2 PUSH2 0x4D5 CALLDATASIZE PUSH1 0x4 PUSH2 0x21C0 JUMP JUMPDEST PUSH2 0x16DB JUMP JUMPDEST PUSH2 0x1F2 PUSH2 0x4E8 CALLDATASIZE PUSH1 0x4 PUSH2 0x1F97 JUMP JUMPDEST PUSH2 0x1777 JUMP JUMPDEST PUSH2 0x1F2 PUSH2 0x4FB CALLDATASIZE PUSH1 0x4 PUSH2 0x2064 JUMP JUMPDEST PUSH2 0x1B3D JUMP JUMPDEST PUSH1 0x7 SLOAD PUSH2 0x2CD SWAP1 PUSH2 0x100 SWAP1 DIV PUSH1 0x1 PUSH1 0x1 PUSH1 0xA0 SHL SUB AND DUP2 JUMP JUMPDEST PUSH1 0x7 SLOAD PUSH2 0x100 SWAP1 DIV PUSH1 0x1 PUSH1 0x1 PUSH1 0xA0 SHL SUB AND CALLER EQ DUP1 PUSH2 0x540 JUMPI POP PUSH1 0x0 SLOAD PUSH1 0x1 PUSH1 0x1 PUSH1 0xA0 SHL SUB AND CALLER EQ JUMPDEST PUSH2 0x565 JUMPI PUSH1 0x40 MLOAD PUSH3 0x461BCD PUSH1 0xE5 SHL DUP2 MSTORE PUSH1 0x4 ADD PUSH2 0x55C SWAP1 PUSH2 0x21DD JUMP JUMPDEST PUSH1 0x40 MLOAD DUP1 SWAP2 SUB SWAP1 REVERT JUMPDEST PUSH1 0x0 JUMPDEST DUP3 DUP2 LT ISZERO PUSH2 0x6AC JUMPI PUSH1 0x0 DUP5 DUP5 DUP4 DUP2 DUP2 LT PUSH2 0x584 JUMPI PUSH2 0x584 PUSH2 0x220B JUMP JUMPDEST PUSH1 0x20 SWAP1 DUP2 MUL SWAP3 SWAP1 SWAP3 ADD CALLDATALOAD PUSH1 0x0 DUP2 DUP2 MSTORE PUSH1 0x3 SWAP1 SWAP4 MSTORE PUSH1 0x40 SWAP1 SWAP3 KECCAK256 SLOAD SWAP2 SWAP3 POP POP PUSH1 0xFF AND ISZERO PUSH2 0x5E9 JUMPI PUSH1 0x40 MLOAD PUSH3 0x461BCD PUSH1 0xE5 SHL DUP2 MSTORE PUSH1 0x20 PUSH1 0x4 DUP3 ADD MSTORE PUSH1 0x14 PUSH1 0x24 DUP3 ADD MSTORE PUSH20 0x13919508185B1C9958591E481A5B881D985D5B1D PUSH1 0x62 SHL PUSH1 0x44 DUP3 ADD MSTORE PUSH1 0x64 ADD PUSH2 0x55C JUMP JUMPDEST PUSH1 0x40 MLOAD PUSH4 0x21421707 PUSH1 0xE1 SHL DUP2 MSTORE PUSH1 0x1 PUSH1 0x1 PUSH1 0xA0 SHL SUB PUSH32 0x0 AND SWAP1 PUSH4 0x42842E0E SWAP1 PUSH2 0x639 SWAP1 CALLER SWAP1 ADDRESS SWAP1 DUP7 SWAP1 PUSH1 0x4 ADD PUSH2 0x2221 JUMP JUMPDEST PUSH1 0x0 PUSH1 0x40 MLOAD DUP1 DUP4 SUB DUP2 PUSH1 0x0 DUP8 DUP1 EXTCODESIZE ISZERO DUP1 ISZERO PUSH2 0x653 JUMPI PUSH1 0x0 DUP1 REVERT JUMPDEST POP GAS CALL ISZERO DUP1 ISZERO PUSH2 0x667 JUMPI RETURNDATASIZE PUSH1 0x0 DUP1 RETURNDATACOPY RETURNDATASIZE PUSH1 0x0 REVERT JUMPDEST POP POP POP PUSH1 0x0 DUP3 DUP2 MSTORE PUSH1 0x3 PUSH1 0x20 MSTORE PUSH1 0x40 DUP2 KECCAK256 DUP1 SLOAD PUSH1 0xFF NOT AND PUSH1 0x1 OR SWAP1 SSTORE PUSH1 0x4 DUP1 SLOAD SWAP3 POP SWAP1 PUSH2 0x693 DUP4 PUSH2 0x225B JUMP JUMPDEST SWAP2 SWAP1 POP SSTORE POP POP DUP1 DUP1 PUSH2 0x6A4 SWAP1 PUSH2 0x225B JUMP JUMPDEST SWAP2 POP POP PUSH2 0x568 JUMP JUMPDEST POP DUP1 ISZERO PUSH2 0x700 JUMPI PUSH2 0x6E8 PUSH1 0x1 PUSH1 0x1 PUSH1 0xA0 SHL SUB PUSH32 0x0 AND CALLER ADDRESS DUP5 PUSH2 0x1B78 JUMP JUMPDEST DUP1 PUSH1 0x5 PUSH1 0x0 DUP3 DUP3 SLOAD PUSH2 0x6FA SWAP2 SWAP1 PUSH2 0x2274 JUMP JUMPDEST SWAP1 SWAP2 SSTORE POP POP JUMPDEST PUSH1 0x40 DUP1 MLOAD DUP4 DUP2 MSTORE PUSH1 0x20 DUP2 ADD DUP4 SWAP1 MSTORE PUSH32 0xAAA76C8A42EC2B6C80E857CED5306E0FE0A1E94EB891A653C2AEC9BCED6BB84 SWAP2 ADD PUSH1 0x40 MLOAD DUP1 SWAP2 SUB SWAP1 LOG1 PUSH2 0x741 PUSH2 0x1BD8 JUMP JUMPDEST POP POP POP JUMP JUMPDEST PUSH1 0x0 DUP1 PUSH32 0x0 PUSH1 0x1 PUSH1 0x1 PUSH1 0xA0 SHL SUB AND PUSH4 0xA2309FF8 PUSH1 0x40 MLOAD DUP2 PUSH4 0xFFFFFFFF AND PUSH1 0xE0 SHL DUP2 MSTORE PUSH1 0x4 ADD PUSH1 0x20 PUSH1 0x40 MLOAD DUP1 DUP4 SUB DUP2 DUP7 GAS STATICCALL ISZERO DUP1 ISZERO PUSH2 0x7A7 JUMPI RETURNDATASIZE PUSH1 0x0 DUP1 RETURNDATACOPY RETURNDATASIZE PUSH1 0x0 REVERT JUMPDEST POP POP POP POP PUSH1 0x40 MLOAD RETURNDATASIZE PUSH1 0x1F NOT PUSH1 0x1F DUP3 ADD AND DUP3 ADD DUP1 PUSH1 0x40 MSTORE POP DUP2 ADD SWAP1 PUSH2 0x7CB SWAP2 SWAP1 PUSH2 0x2287 JUMP JUMPDEST SWAP1 POP DUP1 PUSH1 0x0 SUB PUSH2 0x7DD JUMPI PUSH1 0x0 SWAP2 POP POP SWAP1 JUMP JUMPDEST PUSH1 0x7 SLOAD PUSH1 0xFF AND ISZERO PUSH2 0x83B JUMPI PUSH1 0x4 SLOAD PUSH1 0x0 SUB PUSH2 0x7FA JUMPI PUSH1 0x0 SWAP2 POP POP SWAP1 JUMP JUMPDEST PUSH32 0x0 PUSH1 0x4 SLOAD PUSH1 0x5 SLOAD PUSH2 0x82B SWAP2 SWAP1 PUSH2 0x22B6 JUMP JUMPDEST PUSH2 0x835 SWAP2 SWAP1 PUSH2 0x22B6 JUMP JUMPDEST SWAP2 POP POP SWAP1 JUMP JUMPDEST DUP1 PUSH1 0x6 SLOAD PUSH2 0x835 SWAP2 SWAP1 PUSH2 0x22B6 JUMP JUMPDEST PUSH2 0x851 PUSH2 0x1DBE JUMP JUMPDEST PUSH1 0x1 PUSH1 0x1 PUSH1 0xA0 SHL SUB DUP2 AND PUSH2 0x89F JUMPI PUSH1 0x40 MLOAD PUSH3 0x461BCD PUSH1 0xE5 SHL DUP2 MSTORE PUSH1 0x20 PUSH1 0x4 DUP3 ADD MSTORE PUSH1 0x15 PUSH1 0x24 DUP3 ADD MSTORE PUSH21 0x496E76616C69642061646D696E2061646472657373 PUSH1 0x58 SHL PUSH1 0x44 DUP3 ADD MSTORE PUSH1 0x64 ADD PUSH2 0x55C JUMP JUMPDEST PUSH1 0x7 DUP1 SLOAD PUSH1 0x1 PUSH1 0x1 PUSH1 0xA0 SHL SUB DUP4 DUP2 AND PUSH2 0x100 DUP2 DUP2 MUL PUSH2 0x100 PUSH1 0x1 PUSH1 0xA8 SHL SUB NOT DUP6 AND OR SWAP1 SWAP5 SSTORE PUSH1 0x40 MLOAD SWAP4 SWAP1 SWAP3 DIV AND SWAP2 DUP3 SWAP1 PUSH32 0x101B8081FF3B56BBF45DEB824D86A3B0FD38B7E3DD42421105CF8ABE9106DB0B SWAP1 PUSH1 0x0 SWAP1 LOG3 POP POP JUMP JUMPDEST PUSH2 0x901 PUSH2 0x1DBE JUMP JUMPDEST PUSH2 0x90B PUSH1 0x0 PUSH2 0x1DEB JUMP JUMPDEST JUMP JUMPDEST PUSH1 0x60 PUSH1 0x0 DUP1 PUSH1 0x0 DUP1 PUSH1 0x0 DUP1 PUSH1 0x0 DUP1 PUSH1 0x2 PUSH32 0x0 PUSH32 0x0 PUSH32 0x0 PUSH1 0x4 SLOAD PUSH1 0x5 SLOAD PUSH2 0x98E PUSH2 0x746 JUMP JUMPDEST PUSH1 0x7 SLOAD DUP8 SLOAD PUSH1 0xFF DUP1 DUP4 AND SWAP3 PUSH1 0x1 PUSH1 0xA8 SHL SWAP1 DIV AND SWAP1 DUP10 SWAP1 PUSH2 0x9AD SWAP1 PUSH2 0x22CA JUMP JUMPDEST DUP1 PUSH1 0x1F ADD PUSH1 0x20 DUP1 SWAP2 DIV MUL PUSH1 0x20 ADD PUSH1 0x40 MLOAD SWAP1 DUP2 ADD PUSH1 0x40 MSTORE DUP1 SWAP3 SWAP2 SWAP1 DUP2 DUP2 MSTORE PUSH1 0x20 ADD DUP3 DUP1 SLOAD PUSH2 0x9D9 SWAP1 PUSH2 0x22CA JUMP JUMPDEST DUP1 ISZERO PUSH2 0xA26 JUMPI DUP1 PUSH1 0x1F LT PUSH2 0x9FB JUMPI PUSH2 0x100 DUP1 DUP4 SLOAD DIV MUL DUP4 MSTORE SWAP2 PUSH1 0x20 ADD SWAP2 PUSH2 0xA26 JUMP JUMPDEST DUP3 ADD SWAP2 SWAP1 PUSH1 0x0 MSTORE PUSH1 0x20 PUSH1 0x0 KECCAK256 SWAP1 JUMPDEST DUP2 SLOAD DUP2 MSTORE SWAP1 PUSH1 0x1 ADD SWAP1 PUSH1 0x20 ADD DUP1 DUP4 GT PUSH2 0xA09 JUMPI DUP3 SWAP1 SUB PUSH1 0x1F AND DUP3 ADD SWAP2 JUMPDEST POP POP POP POP POP SWAP9 POP SWAP9 POP SWAP9 POP SWAP9 POP SWAP9 POP SWAP9 POP SWAP9 POP SWAP9 POP SWAP9 POP SWAP9 POP SWAP1 SWAP2 SWAP3 SWAP4 SWAP5 SWAP6 SWAP7 SWAP8 SWAP9 JUMP JUMPDEST PUSH1 0x7 SLOAD PUSH2 0x100 SWAP1 DIV PUSH1 0x1 PUSH1 0x1 PUSH1 0xA0 SHL SUB AND CALLER EQ DUP1 PUSH2 0xA72 JUMPI POP PUSH1 0x0 SLOAD PUSH1 0x1 PUSH1 0x1 PUSH1 0xA0 SHL SUB AND CALLER EQ JUMPDEST PUSH2 0xA8E JUMPI PUSH1 0x40 MLOAD PUSH3 0x461BCD PUSH1 0xE5 SHL DUP2 MSTORE PUSH1 0x4 ADD PUSH2 0x55C SWAP1 PUSH2 0x21DD JUMP JUMPDEST PUSH1 0x1 PUSH1 0x1 PUSH1 0xA0 SHL SUB DUP3 AND PUSH2 0xAD8 JUMPI PUSH1 0x40 MLOAD PUSH3 0x461BCD PUSH1 0xE5 SHL DUP2 MSTORE PUSH1 0x20 PUSH1 0x4 DUP3 ADD MSTORE PUSH1 0x11 PUSH1 0x24 DUP3 ADD MSTORE PUSH17 0x125B9D985B1A59081C9958DA5C1A595B9D PUSH1 0x7A SHL PUSH1 0x44 DUP3 ADD MSTORE PUSH1 0x64 ADD PUSH2 0x55C JUMP JUMPDEST PUSH1 0x5 SLOAD DUP2 GT ISZERO PUSH2 0xB2A JUMPI PUSH1 0x40 MLOAD PUSH3 0x461BCD PUSH1 0xE5 SHL DUP2 MSTORE PUSH1 0x20 PUSH1 0x4 DUP3 ADD MSTORE PUSH1 0x1A PUSH1 0x24 DUP3 ADD MSTORE PUSH32 0x496E73756666696369656E7420746F6B656E2062616C616E6365000000000000 PUSH1 0x44 DUP3 ADD MSTORE PUSH1 0x64 ADD PUSH2 0x55C JUMP JUMPDEST DUP1 PUSH1 0x5 PUSH1 0x0 DUP3 DUP3 SLOAD PUSH2 0xB3C SWAP2 SWAP1 PUSH2 0x2304 JUMP JUMPDEST SWAP1 SWAP2 SSTORE POP PUSH2 0xB76 SWAP1 POP PUSH1 0x1 PUSH1 0x1 PUSH1 0xA0 SHL SUB PUSH32 0x0 AND DUP4 DUP4 PUSH2 0x1E3B JUMP JUMPDEST POP POP JUMP JUMPDEST PUSH1 0x7 SLOAD PUSH2 0x100 SWAP1 DIV PUSH1 0x1 PUSH1 0x1 PUSH1 0xA0 SHL SUB AND CALLER EQ DUP1 PUSH2 0xBA2 JUMPI POP PUSH1 0x0 SLOAD PUSH1 0x1 PUSH1 0x1 PUSH1 0xA0 SHL SUB AND CALLER EQ JUMPDEST PUSH2 0xBBE JUMPI PUSH1 0x40 MLOAD PUSH3 0x461BCD PUSH1 0xE5 SHL DUP2 MSTORE PUSH1 0x4 ADD PUSH2 0x55C SWAP1 PUSH2 0x21DD JUMP JUMPDEST PUSH1 0x1 PUSH1 0x1 PUSH1 0xA0 SHL SUB DUP3 AND PUSH2 0xC08 JUMPI PUSH1 0x40 MLOAD PUSH3 0x461BCD PUSH1 0xE5 SHL DUP2 MSTORE PUSH1 0x20 PUSH1 0x4 DUP3 ADD MSTORE PUSH1 0x11 PUSH1 0x24 DUP3 ADD MSTORE PUSH17 0x125B9D985B1A59081C9958DA5C1A595B9D PUSH1 0x7A SHL PUSH1 0x44 DUP3 ADD MSTORE PUSH1 0x64 ADD PUSH2 0x55C JUMP JUMPDEST PUSH1 0x0 DUP2 DUP2 MSTORE PUSH1 0x3 PUSH1 0x20 MSTORE PUSH1 0x40 SWAP1 KECCAK256 SLOAD PUSH1 0xFF AND PUSH2 0xC59 JUMPI PUSH1 0x40 MLOAD PUSH3 0x461BCD PUSH1 0xE5 SHL DUP2 MSTORE PUSH1 0x20 PUSH1 0x4 DUP3 ADD MSTORE PUSH1 0x10 PUSH1 0x24 DUP3 ADD MSTORE PUSH16 0x139195081B9BDD081A5B881D985D5B1D PUSH1 0x82 SHL PUSH1 0x44 DUP3 ADD MSTORE PUSH1 0x64 ADD PUSH2 0x55C JUMP JUMPDEST PUSH1 0x0 DUP2 DUP2 MSTORE PUSH1 0x3 PUSH1 0x20 MSTORE PUSH1 0x40 DUP2 KECCAK256 DUP1 SLOAD PUSH1 0xFF NOT AND SWAP1 SSTORE PUSH1 0x4 DUP1 SLOAD SWAP2 PUSH2 0xC7D DUP4 PUSH2 0x2317 JUMP JUMPDEST SWAP1 SWAP2 SSTORE POP POP PUSH1 0x40 MLOAD PUSH4 0x21421707 PUSH1 0xE1 SHL DUP2 MSTORE PUSH1 0x1 PUSH1 0x1 PUSH1 0xA0 SHL SUB PUSH32 0x0 AND SWAP1 PUSH4 0x42842E0E SWAP1 PUSH2 0xCD2 SWAP1 ADDRESS SWAP1 DUP7 SWAP1 DUP7 SWAP1 PUSH1 0x4 ADD PUSH2 0x2221 JUMP JUMPDEST PUSH1 0x0 PUSH1 0x40 MLOAD DUP1 DUP4 SUB DUP2 PUSH1 0x0 DUP8 DUP1 EXTCODESIZE ISZERO DUP1 ISZERO PUSH2 0xCEC JUMPI PUSH1 0x0 DUP1 REVERT JUMPDEST POP GAS CALL ISZERO DUP1 ISZERO PUSH2 0xD00 JUMPI RETURNDATASIZE PUSH1 0x0 DUP1 RETURNDATACOPY RETURNDATASIZE PUSH1 0x0 REVERT JUMPDEST POP POP POP POP POP POP JUMP JUMPDEST PUSH1 0x2 DUP1 SLOAD PUSH2 0xD15 SWAP1 PUSH2 0x22CA JUMP JUMPDEST DUP1 PUSH1 0x1F ADD PUSH1 0x20 DUP1 SWAP2 DIV MUL PUSH1 0x20 ADD PUSH1 0x40 MLOAD SWAP1 DUP2 ADD PUSH1 0x40 MSTORE DUP1 SWAP3 SWAP2 SWAP1 DUP2 DUP2 MSTORE PUSH1 0x20 ADD DUP3 DUP1 SLOAD PUSH2 0xD41 SWAP1 PUSH2 0x22CA JUMP JUMPDEST DUP1 ISZERO PUSH2 0xD8E JUMPI DUP1 PUSH1 0x1F LT PUSH2 0xD63 JUMPI PUSH2 0x100 DUP1 DUP4 SLOAD DIV MUL DUP4 MSTORE SWAP2 PUSH1 0x20 ADD SWAP2 PUSH2 0xD8E JUMP JUMPDEST DUP3 ADD SWAP2 SWAP1 PUSH1 0x0 MSTORE PUSH1 0x20 PUSH1 0x0 KECCAK256 SWAP1 JUMPDEST DUP2 SLOAD DUP2 MSTORE SWAP1 PUSH1 0x1 ADD SWAP1 PUSH1 0x20 ADD DUP1 DUP4 GT PUSH2 0xD71 JUMPI DUP3 SWAP1 SUB PUSH1 0x1F AND DUP3 ADD SWAP2 JUMPDEST POP POP POP POP POP DUP2 JUMP JUMPDEST PUSH1 0x60 PUSH1 0x0 PUSH2 0xDA6 PUSH1 0x4 SLOAD DUP5 PUSH2 0x1E6C JUMP JUMPDEST PUSH8 0xFFFFFFFFFFFFFFFF DUP2 GT ISZERO PUSH2 0xDBE JUMPI PUSH2 0xDBE PUSH2 0x232E JUMP JUMPDEST PUSH1 0x40 MLOAD SWAP1 DUP1 DUP3 MSTORE DUP1 PUSH1 0x20 MUL PUSH1 0x20 ADD DUP3 ADD PUSH1 0x40 MSTORE DUP1 ISZERO PUSH2 0xDE7 JUMPI DUP2 PUSH1 0x20 ADD PUSH1 0x20 DUP3 MUL DUP1 CALLDATASIZE DUP4 CALLDATACOPY ADD SWAP1 POP JUMPDEST POP SWAP1 POP PUSH1 0x0 PUSH1 0x1 JUMPDEST PUSH32 0x0 PUSH1 0x1 PUSH1 0x1 PUSH1 0xA0 SHL SUB AND PUSH4 0x32CB6B0C PUSH1 0x40 MLOAD DUP2 PUSH4 0xFFFFFFFF AND PUSH1 0xE0 SHL DUP2 MSTORE PUSH1 0x4 ADD PUSH1 0x20 PUSH1 0x40 MLOAD DUP1 DUP4 SUB DUP2 DUP7 GAS STATICCALL ISZERO DUP1 ISZERO PUSH2 0xE4D JUMPI RETURNDATASIZE PUSH1 0x0 DUP1 RETURNDATACOPY RETURNDATASIZE PUSH1 0x0 REVERT JUMPDEST POP POP POP POP PUSH1 0x40 MLOAD RETURNDATASIZE PUSH1 0x1F NOT PUSH1 0x1F DUP3 ADD AND DUP3 ADD DUP1 PUSH1 0x40 MSTORE POP DUP2 ADD SWAP1 PUSH2 0xE71 SWAP2 SWAP1 PUSH2 0x2287 JUMP JUMPDEST DUP2 GT ISZERO DUP1 ISZERO PUSH2 0xE7F JUMPI POP DUP5 DUP3 LT JUMPDEST ISZERO PUSH2 0xED9 JUMPI PUSH1 0x0 DUP2 DUP2 MSTORE PUSH1 0x3 PUSH1 0x20 MSTORE PUSH1 0x40 SWAP1 KECCAK256 SLOAD PUSH1 0xFF AND ISZERO PUSH2 0xEC7 JUMPI DUP1 DUP4 DUP4 DUP2 MLOAD DUP2 LT PUSH2 0xEAE JUMPI PUSH2 0xEAE PUSH2 0x220B JUMP JUMPDEST PUSH1 0x20 SWAP1 DUP2 MUL SWAP2 SWAP1 SWAP2 ADD ADD MSTORE DUP2 PUSH2 0xEC3 DUP2 PUSH2 0x225B JUMP JUMPDEST SWAP3 POP POP JUMPDEST DUP1 PUSH2 0xED1 DUP2 PUSH2 0x225B JUMP JUMPDEST SWAP2 POP POP PUSH2 0xDEF JUMP JUMPDEST POP DUP2 MLOAD DUP2 LT ISZERO PUSH2 0xF87 JUMPI PUSH1 0x0 DUP2 PUSH8 0xFFFFFFFFFFFFFFFF DUP2 GT ISZERO PUSH2 0xEFE JUMPI PUSH2 0xEFE PUSH2 0x232E JUMP JUMPDEST PUSH1 0x40 MLOAD SWAP1 DUP1 DUP3 MSTORE DUP1 PUSH1 0x20 MUL PUSH1 0x20 ADD DUP3 ADD PUSH1 0x40 MSTORE DUP1 ISZERO PUSH2 0xF27 JUMPI DUP2 PUSH1 0x20 ADD PUSH1 0x20 DUP3 MUL DUP1 CALLDATASIZE DUP4 CALLDATACOPY ADD SWAP1 POP JUMPDEST POP SWAP1 POP PUSH1 0x0 JUMPDEST DUP3 DUP2 LT ISZERO PUSH2 0xF7E JUMPI DUP4 DUP2 DUP2 MLOAD DUP2 LT PUSH2 0xF47 JUMPI PUSH2 0xF47 PUSH2 0x220B JUMP JUMPDEST PUSH1 0x20 MUL PUSH1 0x20 ADD ADD MLOAD DUP3 DUP3 DUP2 MLOAD DUP2 LT PUSH2 0xF61 JUMPI PUSH2 0xF61 PUSH2 0x220B JUMP JUMPDEST PUSH1 0x20 SWAP1 DUP2 MUL SWAP2 SWAP1 SWAP2 ADD ADD MSTORE DUP1 PUSH2 0xF76 DUP2 PUSH2 0x225B JUMP JUMPDEST SWAP2 POP POP PUSH2 0xF2D JUMP JUMPDEST POP SWAP5 SWAP4 POP POP POP POP JUMP JUMPDEST POP SWAP3 SWAP2 POP POP JUMP JUMPDEST PUSH1 0x0 DUP1 PUSH1 0x0 DUP1 PUSH1 0x0 DUP1 PUSH1 0x4 SLOAD PUSH1 0x5 SLOAD PUSH2 0xFA5 PUSH2 0x746 JUMP JUMPDEST PUSH1 0x7 PUSH1 0x0 SWAP1 SLOAD SWAP1 PUSH2 0x100 EXP SWAP1 DIV PUSH1 0xFF AND PUSH32 0x0 PUSH1 0x1 PUSH1 0x1 PUSH1 0xA0 SHL SUB AND PUSH4 0xA2309FF8 PUSH1 0x40 MLOAD DUP2 PUSH4 0xFFFFFFFF AND PUSH1 0xE0 SHL DUP2 MSTORE PUSH1 0x4 ADD PUSH1 0x20 PUSH1 0x40 MLOAD DUP1 DUP4 SUB DUP2 DUP7 GAS STATICCALL ISZERO DUP1 ISZERO PUSH2 0x1013 JUMPI RETURNDATASIZE PUSH1 0x0 DUP1 RETURNDATACOPY RETURNDATASIZE PUSH1 0x0 REVERT JUMPDEST POP POP POP POP PUSH1 0x40 MLOAD RETURNDATASIZE PUSH1 0x1F NOT PUSH1 0x1F DUP3 ADD AND DUP3 ADD DUP1 PUSH1 0x40 MSTORE POP DUP2 ADD SWAP1 PUSH2 0x1037 SWAP2 SWAP1 PUSH2 0x2287 JUMP JUMPDEST PUSH32 0x0 PUSH1 0x1 PUSH1 0x1 PUSH1 0xA0 SHL SUB AND PUSH4 0x32CB6B0C PUSH1 0x40 MLOAD DUP2 PUSH4 0xFFFFFFFF AND PUSH1 0xE0 SHL DUP2 MSTORE PUSH1 0x4 ADD PUSH1 0x20 PUSH1 0x40 MLOAD DUP1 DUP4 SUB DUP2 DUP7 GAS STATICCALL ISZERO DUP1 ISZERO PUSH2 0x1095 JUMPI RETURNDATASIZE PUSH1 0x0 DUP1 RETURNDATACOPY RETURNDATASIZE PUSH1 0x0 REVERT JUMPDEST POP POP POP POP PUSH1 0x40 MLOAD RETURNDATASIZE PUSH1 0x1F NOT PUSH1 0x1F DUP3 ADD AND DUP3 ADD DUP1 PUSH1 0x40 MSTORE POP DUP2 ADD SWAP1 PUSH2 0x10B9 SWAP2 SWAP1 PUSH2 0x2287 JUMP JUMPDEST SWAP5 SWAP12 SWAP4 SWAP11 POP SWAP2 SWAP9 POP SWAP7 POP SWAP5 POP SWAP1 SWAP3 POP SWAP1 POP JUMP JUMPDEST PUSH1 0x7 SLOAD PUSH2 0x100 SWAP1 DIV PUSH1 0x1 PUSH1 0x1 PUSH1 0xA0 SHL SUB AND CALLER EQ DUP1 PUSH2 0x10F4 JUMPI POP PUSH1 0x0 SLOAD PUSH1 0x1 PUSH1 0x1 PUSH1 0xA0 SHL SUB AND CALLER EQ JUMPDEST PUSH2 0x1110 JUMPI PUSH1 0x40 MLOAD PUSH3 0x461BCD PUSH1 0xE5 SHL DUP2 MSTORE PUSH1 0x4 ADD PUSH2 0x55C SWAP1 PUSH2 0x21DD JUMP JUMPDEST DUP1 PUSH1 0x6 PUSH1 0x0 DUP3 DUP3 SLOAD PUSH2 0x1122 SWAP2 SWAP1 PUSH2 0x2274 JUMP JUMPDEST SWAP1 SWAP2 SSTORE POP PUSH32 0x41C5E8C55061532E874271E77C72BE737C2B190BE0B0DA85C4B6248689EAC53A SWAP1 POP PUSH2 0x1151 PUSH2 0x746 JUMP JUMPDEST PUSH1 0x40 MLOAD SWAP1 DUP2 MSTORE PUSH1 0x20 ADD PUSH1 0x40 MLOAD DUP1 SWAP2 SUB SWAP1 LOG1 PUSH2 0x116A PUSH2 0x1BD8 JUMP JUMPDEST POP JUMP JUMPDEST PUSH2 0x1175 PUSH2 0x1E81 JUMP JUMPDEST PUSH1 0x7 SLOAD PUSH1 0x1 PUSH1 0xA8 SHL SWAP1 DIV PUSH1 0xFF AND PUSH2 0x11C5 JUMPI PUSH1 0x40 MLOAD PUSH3 0x461BCD PUSH1 0xE5 SHL DUP2 MSTORE PUSH1 0x20 PUSH1 0x4 DUP3 ADD MSTORE PUSH1 0x14 PUSH1 0x24 DUP3 ADD MSTORE PUSH20 0x14DDD85C1C1A5B99C81A5CC8191A5CD8589B1959 PUSH1 0x62 SHL PUSH1 0x44 DUP3 ADD MSTORE PUSH1 0x64 ADD PUSH2 0x55C JUMP JUMPDEST PUSH32 0x0 DUP2 LT ISZERO PUSH2 0x1235 JUMPI PUSH1 0x40 MLOAD PUSH3 0x461BCD PUSH1 0xE5 SHL DUP2 MSTORE PUSH1 0x20 PUSH1 0x4 DUP3 ADD MSTORE PUSH1 0x19 PUSH1 0x24 DUP3 ADD MSTORE PUSH32 0x496E73756666696369656E7420746F6B656E20616D6F756E7400000000000000 PUSH1 0x44 DUP3 ADD MSTORE PUSH1 0x64 ADD PUSH2 0x55C JUMP JUMPDEST PUSH2 0x125F PUSH32 0x0 DUP3 PUSH2 0x2344 JUMP JUMPDEST ISZERO PUSH2 0x12A3 JUMPI PUSH1 0x40 MLOAD PUSH3 0x461BCD PUSH1 0xE5 SHL DUP2 MSTORE PUSH1 0x20 PUSH1 0x4 DUP3 ADD MSTORE PUSH1 0x14 PUSH1 0x24 DUP3 ADD MSTORE PUSH20 0x125B9D985B1A59081D1BDAD95B88185B5BDD5B9D PUSH1 0x62 SHL PUSH1 0x44 DUP3 ADD MSTORE PUSH1 0x64 ADD PUSH2 0x55C JUMP JUMPDEST PUSH1 0x0 PUSH1 0x4 SLOAD GT PUSH2 0x12F5 JUMPI PUSH1 0x40 MLOAD PUSH3 0x461BCD PUSH1 0xE5 SHL DUP2 MSTORE PUSH1 0x20 PUSH1 0x4 DUP3 ADD MSTORE PUSH1 0x1A PUSH1 0x24 DUP3 ADD MSTORE PUSH32 0x4E6F204E46547320617661696C61626C6520696E207661756C74000000000000 PUSH1 0x44 DUP3 ADD MSTORE PUSH1 0x64 ADD PUSH2 0x55C JUMP JUMPDEST PUSH1 0x0 PUSH2 0x1321 PUSH32 0x0 DUP4 PUSH2 0x22B6 JUMP JUMPDEST SWAP1 POP PUSH1 0x4 SLOAD DUP2 GT ISZERO PUSH2 0x1375 JUMPI PUSH1 0x40 MLOAD PUSH3 0x461BCD PUSH1 0xE5 SHL DUP2 MSTORE PUSH1 0x20 PUSH1 0x4 DUP3 ADD MSTORE PUSH1 0x18 PUSH1 0x24 DUP3 ADD MSTORE PUSH32 0x4E6F7420656E6F756768204E46547320696E207661756C740000000000000000 PUSH1 0x44 DUP3 ADD MSTORE PUSH1 0x64 ADD PUSH2 0x55C JUMP JUMPDEST PUSH1 0x40 MLOAD PUSH4 0x23B872DD PUSH1 0xE0 SHL DUP2 MSTORE PUSH1 0x1 PUSH1 0x1 PUSH1 0xA0 SHL SUB PUSH32 0x0 AND SWAP1 PUSH4 0x23B872DD SWAP1 PUSH2 0x13C5 SWAP1 CALLER SWAP1 ADDRESS SWAP1 DUP8 SWAP1 PUSH1 0x4 ADD PUSH2 0x2221 JUMP JUMPDEST PUSH1 0x20 PUSH1 0x40 MLOAD DUP1 DUP4 SUB DUP2 PUSH1 0x0 DUP8 GAS CALL ISZERO DUP1 ISZERO PUSH2 0x13E4 JUMPI RETURNDATASIZE PUSH1 0x0 DUP1 RETURNDATACOPY RETURNDATASIZE PUSH1 0x0 REVERT JUMPDEST POP POP POP POP PUSH1 0x40 MLOAD RETURNDATASIZE PUSH1 0x1F NOT PUSH1 0x1F DUP3 ADD AND DUP3 ADD DUP1 PUSH1 0x40 MSTORE POP DUP2 ADD SWAP1 PUSH2 0x1408 SWAP2 SWAP1 PUSH2 0x2358 JUMP JUMPDEST PUSH2 0x144C JUMPI PUSH1 0x40 MLOAD PUSH3 0x461BCD PUSH1 0xE5 SHL DUP2 MSTORE PUSH1 0x20 PUSH1 0x4 DUP3 ADD MSTORE PUSH1 0x15 PUSH1 0x24 DUP3 ADD MSTORE PUSH21 0x151BDAD95B881D1C985B9CD9995C8819985A5B1959 PUSH1 0x5A SHL PUSH1 0x44 DUP3 ADD MSTORE PUSH1 0x64 ADD PUSH2 0x55C JUMP JUMPDEST DUP2 PUSH1 0x5 PUSH1 0x0 DUP3 DUP3 SLOAD PUSH2 0x145E SWAP2 SWAP1 PUSH2 0x2274 JUMP JUMPDEST SWAP1 SWAP2 SSTORE POP PUSH1 0x0 SWAP1 POP PUSH1 0x1 JUMPDEST PUSH32 0x0 PUSH1 0x1 PUSH1 0x1 PUSH1 0xA0 SHL SUB AND PUSH4 0x32CB6B0C PUSH1 0x40 MLOAD DUP2 PUSH4 0xFFFFFFFF AND PUSH1 0xE0 SHL DUP2 MSTORE PUSH1 0x4 ADD PUSH1 0x20 PUSH1 0x40 MLOAD DUP1 DUP4 SUB DUP2 DUP7 GAS STATICCALL ISZERO DUP1 ISZERO PUSH2 0x14C7 JUMPI RETURNDATASIZE PUSH1 0x0 DUP1 RETURNDATACOPY RETURNDATASIZE PUSH1 0x0 REVERT JUMPDEST POP POP POP POP PUSH1 0x40 MLOAD RETURNDATASIZE PUSH1 0x1F NOT PUSH1 0x1F DUP3 ADD AND DUP3 ADD DUP1 PUSH1 0x40 MSTORE POP DUP2 ADD SWAP1 PUSH2 0x14EB SWAP2 SWAP1 PUSH2 0x2287 JUMP JUMPDEST DUP2 GT ISZERO DUP1 ISZERO PUSH2 0x14F9 JUMPI POP DUP3 DUP3 LT JUMPDEST ISZERO PUSH2 0x1646 JUMPI PUSH1 0x0 DUP2 DUP2 MSTORE PUSH1 0x3 PUSH1 0x20 MSTORE PUSH1 0x40 SWAP1 KECCAK256 SLOAD PUSH1 0xFF AND ISZERO PUSH2 0x1634 JUMPI PUSH1 0x40 MLOAD PUSH4 0x21421707 PUSH1 0xE1 SHL DUP2 MSTORE PUSH1 0x1 PUSH1 0x1 PUSH1 0xA0 SHL SUB PUSH32 0x0 AND SWAP1 PUSH4 0x42842E0E SWAP1 PUSH2 0x1565 SWAP1 ADDRESS SWAP1 CALLER SWAP1 DUP7 SWAP1 PUSH1 0x4 ADD PUSH2 0x2221 JUMP JUMPDEST PUSH1 0x0 PUSH1 0x40 MLOAD DUP1 DUP4 SUB DUP2 PUSH1 0x0 DUP8 DUP1 EXTCODESIZE ISZERO DUP1 ISZERO PUSH2 0x157F JUMPI PUSH1 0x0 DUP1 REVERT JUMPDEST POP GAS CALL ISZERO DUP1 ISZERO PUSH2 0x1593 JUMPI RETURNDATASIZE PUSH1 0x0 DUP1 RETURNDATACOPY RETURNDATASIZE PUSH1 0x0 REVERT JUMPDEST POP POP POP PUSH1 0x0 DUP3 DUP2 MSTORE PUSH1 0x3 PUSH1 0x20 MSTORE PUSH1 0x40 DUP2 KECCAK256 DUP1 SLOAD PUSH1 0xFF NOT AND SWAP1 SSTORE PUSH1 0x4 DUP1 SLOAD SWAP3 POP SWAP1 PUSH2 0x15BC DUP4 PUSH2 0x2317 JUMP JUMPDEST SWAP2 SWAP1 POP SSTORE POP DUP2 DUP1 PUSH2 0x15CC SWAP1 PUSH2 0x225B JUMP JUMPDEST SWAP3 POP POP DUP1 CALLER PUSH1 0x1 PUSH1 0x1 PUSH1 0xA0 SHL SUB AND PUSH32 0xA08EEBABEC640FE759F6E5D61D6377CFE1F1367AE220B5F81A44A7B74C9BE34 PUSH32 0x0 PUSH1 0x40 MLOAD PUSH2 0x162B SWAP2 DUP2 MSTORE PUSH1 0x20 ADD SWAP1 JUMP JUMPDEST PUSH1 0x40 MLOAD DUP1 SWAP2 SUB SWAP1 LOG3 JUMPDEST DUP1 PUSH2 0x163E DUP2 PUSH2 0x225B JUMP JUMPDEST SWAP2 POP POP PUSH2 0x1469 JUMP JUMPDEST POP DUP2 DUP2 EQ PUSH2 0x1696 JUMPI PUSH1 0x40 MLOAD PUSH3 0x461BCD PUSH1 0xE5 SHL DUP2 MSTORE PUSH1 0x20 PUSH1 0x4 DUP3 ADD MSTORE PUSH1 0x1B PUSH1 0x24 DUP3 ADD MSTORE PUSH32 0x4661696C656420746F207472616E7366657220616C6C204E4654730000000000 PUSH1 0x44 DUP3 ADD MSTORE PUSH1 0x64 ADD PUSH2 0x55C JUMP JUMPDEST PUSH32 0x41C5E8C55061532E874271E77C72BE737C2B190BE0B0DA85C4B6248689EAC53A PUSH2 0x16BF PUSH2 0x746 JUMP JUMPDEST PUSH1 0x40 MLOAD SWAP1 DUP2 MSTORE PUSH1 0x20 ADD PUSH1 0x40 MLOAD DUP1 SWAP2 SUB SWAP1 LOG1 POP POP PUSH2 0x116A PUSH1 0x1 DUP1 SSTORE JUMP JUMPDEST PUSH1 0x7 SLOAD PUSH2 0x100 SWAP1 DIV PUSH1 0x1 PUSH1 0x1 PUSH1 0xA0 SHL SUB AND CALLER EQ DUP1 PUSH2 0x1703 JUMPI POP PUSH1 0x0 SLOAD PUSH1 0x1 PUSH1 0x1 PUSH1 0xA0 SHL SUB AND CALLER EQ JUMPDEST PUSH2 0x171F JUMPI PUSH1 0x40 MLOAD PUSH3 0x461BCD PUSH1 0xE5 SHL DUP2 MSTORE PUSH1 0x4 ADD PUSH2 0x55C SWAP1 PUSH2 0x21DD JUMP JUMPDEST PUSH1 0x7 DUP1 SLOAD DUP3 ISZERO ISZERO PUSH1 0x1 PUSH1 0xA8 SHL MUL PUSH1 0xFF PUSH1 0xA8 SHL NOT SWAP1 SWAP2 AND OR SWAP1 SSTORE PUSH1 0x40 MLOAD PUSH32 0xD101CBF49D2D7D396082A0E64B8DCC4E0B2A280BDCCC3855F1D1FE8CF9D0F0E2 SWAP1 PUSH2 0x176C SWAP1 DUP4 ISZERO ISZERO DUP2 MSTORE PUSH1 0x20 ADD SWAP1 JUMP JUMPDEST PUSH1 0x40 MLOAD DUP1 SWAP2 SUB SWAP1 LOG1 POP JUMP JUMPDEST PUSH2 0x177F PUSH2 0x1E81 JUMP JUMPDEST PUSH1 0x7 SLOAD PUSH1 0x1 PUSH1 0xA8 SHL SWAP1 DIV PUSH1 0xFF AND PUSH2 0x17CF JUMPI PUSH1 0x40 MLOAD PUSH3 0x461BCD PUSH1 0xE5 SHL DUP2 MSTORE PUSH1 0x20 PUSH1 0x4 DUP3 ADD MSTORE PUSH1 0x14 PUSH1 0x24 DUP3 ADD MSTORE PUSH20 0x14DDD85C1C1A5B99C81A5CC8191A5CD8589B1959 PUSH1 0x62 SHL PUSH1 0x44 DUP3 ADD MSTORE PUSH1 0x64 ADD PUSH2 0x55C JUMP JUMPDEST PUSH1 0x40 MLOAD PUSH4 0x31A9108F PUSH1 0xE1 SHL DUP2 MSTORE PUSH1 0x4 DUP2 ADD DUP3 SWAP1 MSTORE CALLER SWAP1 PUSH1 0x1 PUSH1 0x1 PUSH1 0xA0 SHL SUB PUSH32 0x0 AND SWAP1 PUSH4 0x6352211E SWAP1 PUSH1 0x24 ADD PUSH1 0x20 PUSH1 0x40 MLOAD DUP1 DUP4 SUB DUP2 DUP7 GAS STATICCALL ISZERO DUP1 ISZERO PUSH2 0x1836 JUMPI RETURNDATASIZE PUSH1 0x0 DUP1 RETURNDATACOPY RETURNDATASIZE PUSH1 0x0 REVERT JUMPDEST POP POP POP POP PUSH1 0x40 MLOAD RETURNDATASIZE PUSH1 0x1F NOT PUSH1 0x1F DUP3 ADD AND DUP3 ADD DUP1 PUSH1 0x40 MSTORE POP DUP2 ADD SWAP1 PUSH2 0x185A SWAP2 SWAP1 PUSH2 0x2375 JUMP JUMPDEST PUSH1 0x1 PUSH1 0x1 PUSH1 0xA0 SHL SUB AND EQ PUSH2 0x18A0 JUMPI PUSH1 0x40 MLOAD PUSH3 0x461BCD PUSH1 0xE5 SHL DUP2 MSTORE PUSH1 0x20 PUSH1 0x4 DUP3 ADD MSTORE PUSH1 0xD PUSH1 0x24 DUP3 ADD MSTORE PUSH13 0x2737BA1027232A1037BBB732B9 PUSH1 0x99 SHL PUSH1 0x44 DUP3 ADD MSTORE PUSH1 0x64 ADD PUSH2 0x55C JUMP JUMPDEST PUSH1 0x0 DUP2 DUP2 MSTORE PUSH1 0x3 PUSH1 0x20 MSTORE PUSH1 0x40 SWAP1 KECCAK256 SLOAD PUSH1 0xFF AND ISZERO PUSH2 0x18F6 JUMPI PUSH1 0x40 MLOAD PUSH3 0x461BCD PUSH1 0xE5 SHL DUP2 MSTORE PUSH1 0x20 PUSH1 0x4 DUP3 ADD MSTORE PUSH1 0x14 PUSH1 0x24 DUP3 ADD MSTORE PUSH20 0x13919508185B1C9958591E481A5B881D985D5B1D PUSH1 0x62 SHL PUSH1 0x44 DUP3 ADD MSTORE PUSH1 0x64 ADD PUSH2 0x55C JUMP JUMPDEST PUSH32 0x0 PUSH1 0x5 SLOAD LT ISZERO PUSH2 0x1968 JUMPI PUSH1 0x40 MLOAD PUSH3 0x461BCD PUSH1 0xE5 SHL DUP2 MSTORE PUSH1 0x20 PUSH1 0x4 DUP3 ADD MSTORE PUSH1 0x1C PUSH1 0x24 DUP3 ADD MSTORE PUSH32 0x496E73756666696369656E7420746F6B656E7320696E207661756C7400000000 PUSH1 0x44 DUP3 ADD MSTORE PUSH1 0x64 ADD PUSH2 0x55C JUMP JUMPDEST PUSH1 0x40 MLOAD PUSH4 0x21421707 PUSH1 0xE1 SHL DUP2 MSTORE PUSH1 0x1 PUSH1 0x1 PUSH1 0xA0 SHL SUB PUSH32 0x0 AND SWAP1 PUSH4 0x42842E0E SWAP1 PUSH2 0x19B8 SWAP1 CALLER SWAP1 ADDRESS SWAP1 DUP7 SWAP1 PUSH1 0x4 ADD PUSH2 0x2221 JUMP JUMPDEST PUSH1 0x0 PUSH1 0x40 MLOAD DUP1 DUP4 SUB DUP2 PUSH1 0x0 DUP8 DUP1 EXTCODESIZE ISZERO DUP1 ISZERO PUSH2 0x19D2 JUMPI PUSH1 0x0 DUP1 REVERT JUMPDEST POP GAS CALL ISZERO DUP1 ISZERO PUSH2 0x19E6 JUMPI RETURNDATASIZE PUSH1 0x0 DUP1 RETURNDATACOPY RETURNDATASIZE PUSH1 0x0 REVERT JUMPDEST POP POP POP PUSH1 0x0 DUP3 DUP2 MSTORE PUSH1 0x3 PUSH1 0x20 MSTORE PUSH1 0x40 DUP2 KECCAK256 DUP1 SLOAD PUSH1 0xFF NOT AND PUSH1 0x1 OR SWAP1 SSTORE PUSH1 0x4 DUP1 SLOAD SWAP3 POP SWAP1 PUSH2 0x1A12 DUP4 PUSH2 0x225B JUMP JUMPDEST SWAP2 SWAP1 POP SSTORE POP PUSH32 0x0 PUSH1 0x5 PUSH1 0x0 DUP3 DUP3 SLOAD PUSH2 0x1A49 SWAP2 SWAP1 PUSH2 0x2304 JUMP JUMPDEST SWAP1 SWAP2 SSTORE POP PUSH2 0x1AA3 SWAP1 POP PUSH1 0x1 PUSH1 0x1 PUSH1 0xA0 SHL SUB PUSH32 0x0 AND CALLER PUSH32 0x0 PUSH2 0x1E3B JUMP JUMPDEST PUSH1 0x40 MLOAD PUSH32 0x0 DUP2 MSTORE DUP2 SWAP1 CALLER SWAP1 PUSH32 0x494C78EC0278E768F6779F083E8C6B4691758074367B4E7C6355AA772ED6D704 SWAP1 PUSH1 0x20 ADD PUSH1 0x40 MLOAD DUP1 SWAP2 SUB SWAP1 LOG3 PUSH32 0x41C5E8C55061532E874271E77C72BE737C2B190BE0B0DA85C4B6248689EAC53A PUSH2 0x1B23 PUSH2 0x746 JUMP JUMPDEST PUSH1 0x40 MLOAD SWAP1 DUP2 MSTORE PUSH1 0x20 ADD PUSH1 0x40 MLOAD DUP1 SWAP2 SUB SWAP1 LOG1 PUSH2 0x116A PUSH1 0x1 DUP1 SSTORE JUMP JUMPDEST PUSH2 0x1B45 PUSH2 0x1DBE JUMP JUMPDEST PUSH1 0x1 PUSH1 0x1 PUSH1 0xA0 SHL SUB DUP2 AND PUSH2 0x1B6F JUMPI PUSH1 0x40 MLOAD PUSH4 0x1E4FBDF7 PUSH1 0xE0 SHL DUP2 MSTORE PUSH1 0x0 PUSH1 0x4 DUP3 ADD MSTORE PUSH1 0x24 ADD PUSH2 0x55C JUMP JUMPDEST PUSH2 0x116A DUP2 PUSH2 0x1DEB JUMP JUMPDEST PUSH2 0x1BD2 DUP5 DUP6 PUSH1 0x1 PUSH1 0x1 PUSH1 0xA0 SHL SUB AND PUSH4 0x23B872DD DUP7 DUP7 DUP7 PUSH1 0x40 MLOAD PUSH1 0x24 ADD PUSH2 0x1BA0 SWAP4 SWAP3 SWAP2 SWAP1 PUSH2 0x2221 JUMP JUMPDEST PUSH1 0x40 MLOAD PUSH1 0x20 DUP2 DUP4 SUB SUB DUP2 MSTORE SWAP1 PUSH1 0x40 MSTORE SWAP2 POP PUSH1 0xE0 SHL PUSH1 0x20 DUP3 ADD DUP1 MLOAD PUSH1 0x1 PUSH1 0x1 PUSH1 0xE0 SHL SUB DUP4 DUP2 DUP4 AND OR DUP4 MSTORE POP POP POP POP PUSH2 0x1EAB JUMP JUMPDEST POP POP POP POP JUMP JUMPDEST PUSH1 0x7 SLOAD PUSH1 0xFF AND ISZERO DUP1 ISZERO PUSH2 0x1CED JUMPI POP PUSH32 0x0 PUSH1 0x1 PUSH1 0x1 PUSH1 0xA0 SHL SUB AND PUSH4 0x32CB6B0C PUSH1 0x40 MLOAD DUP2 PUSH4 0xFFFFFFFF AND PUSH1 0xE0 SHL DUP2 MSTORE PUSH1 0x4 ADD PUSH1 0x20 PUSH1 0x40 MLOAD DUP1 DUP4 SUB DUP2 DUP7 GAS STATICCALL ISZERO DUP1 ISZERO PUSH2 0x1C44 JUMPI RETURNDATASIZE PUSH1 0x0 DUP1 RETURNDATACOPY RETURNDATASIZE PUSH1 0x0 REVERT JUMPDEST POP POP POP POP PUSH1 0x40 MLOAD RETURNDATASIZE PUSH1 0x1F NOT PUSH1 0x1F DUP3 ADD AND DUP3 ADD DUP1 PUSH1 0x40 MSTORE POP DUP2 ADD SWAP1 PUSH2 0x1C68 SWAP2 SWAP1 PUSH2 0x2287 JUMP JUMPDEST PUSH32 0x0 PUSH1 0x1 PUSH1 0x1 PUSH1 0xA0 SHL SUB AND PUSH4 0xA2309FF8 PUSH1 0x40 MLOAD DUP2 PUSH4 0xFFFFFFFF AND PUSH1 0xE0 SHL DUP2 MSTORE PUSH1 0x4 ADD PUSH1 0x20 PUSH1 0x40 MLOAD DUP1 DUP4 SUB DUP2 DUP7 GAS STATICCALL ISZERO DUP1 ISZERO PUSH2 0x1CC6 JUMPI RETURNDATASIZE PUSH1 0x0 DUP1 RETURNDATACOPY RETURNDATASIZE PUSH1 0x0 REVERT JUMPDEST POP POP POP POP PUSH1 0x40 MLOAD RETURNDATASIZE PUSH1 0x1F NOT PUSH1 0x1F DUP3 ADD AND DUP3 ADD DUP1 PUSH1 0x40 MSTORE POP DUP2 ADD SWAP1 PUSH2 0x1CEA SWAP2 SWAP1 PUSH2 0x2287 JUMP JUMPDEST LT ISZERO JUMPDEST ISZERO PUSH2 0x90B JUMPI PUSH1 0x7 DUP1 SLOAD PUSH1 0xFF NOT AND PUSH1 0x1 OR SWAP1 SSTORE PUSH1 0x40 DUP1 MLOAD PUSH4 0x144613FF PUSH1 0xE3 SHL DUP2 MSTORE SWAP1 MLOAD PUSH32 0x2F32E519B30D0F52C856843502CC5B899F08F78DA6ADC87DDEDB8D70C7365B1F SWAP2 PUSH1 0x1 PUSH1 0x1 PUSH1 0xA0 SHL SUB PUSH32 0x0 AND SWAP2 PUSH4 0xA2309FF8 SWAP2 PUSH1 0x4 DUP1 DUP3 ADD SWAP3 PUSH1 0x20 SWAP3 SWAP1 SWAP2 SWAP1 DUP3 SWAP1 SUB ADD DUP2 DUP7 GAS STATICCALL ISZERO DUP1 ISZERO PUSH2 0x1D87 JUMPI RETURNDATASIZE PUSH1 0x0 DUP1 RETURNDATACOPY RETURNDATASIZE PUSH1 0x0 REVERT JUMPDEST POP POP POP POP PUSH1 0x40 MLOAD RETURNDATASIZE PUSH1 0x1F NOT PUSH1 0x1F DUP3 ADD AND DUP3 ADD DUP1 PUSH1 0x40 MSTORE POP DUP2 ADD SWAP1 PUSH2 0x1DAB SWAP2 SWAP1 PUSH2 0x2287 JUMP JUMPDEST PUSH1 0x40 MLOAD SWAP1 DUP2 MSTORE PUSH1 0x20 ADD PUSH1 0x40 MLOAD DUP1 SWAP2 SUB SWAP1 LOG1 JUMP JUMPDEST PUSH1 0x0 SLOAD PUSH1 0x1 PUSH1 0x1 PUSH1 0xA0 SHL SUB AND CALLER EQ PUSH2 0x90B JUMPI PUSH1 0x40 MLOAD PUSH4 0x118CDAA7 PUSH1 0xE0 SHL DUP2 MSTORE CALLER PUSH1 0x4 DUP3 ADD MSTORE PUSH1 0x24 ADD PUSH2 0x55C JUMP JUMPDEST PUSH1 0x0 DUP1 SLOAD PUSH1 0x1 PUSH1 0x1 PUSH1 0xA0 SHL SUB DUP4 DUP2 AND PUSH1 0x1 PUSH1 0x1 PUSH1 0xA0 SHL SUB NOT DUP4 AND DUP2 OR DUP5 SSTORE PUSH1 0x40 MLOAD SWAP2 SWAP1 SWAP3 AND SWAP3 DUP4 SWAP2 PUSH32 0x8BE0079C531659141344CD1FD0A4F28419497F9722A3DAAFE3B4186F6B6457E0 SWAP2 SWAP1 LOG3 POP POP JUMP JUMPDEST PUSH1 0x40 MLOAD PUSH1 0x1 PUSH1 0x1 PUSH1 0xA0 SHL SUB DUP4 DUP2 AND PUSH1 0x24 DUP4 ADD MSTORE PUSH1 0x44 DUP3 ADD DUP4 SWAP1 MSTORE PUSH2 0x741 SWAP2 DUP6 SWAP2 DUP3 AND SWAP1 PUSH4 0xA9059CBB SWAP1 PUSH1 0x64 ADD PUSH2 0x1BA0 JUMP JUMPDEST PUSH1 0x0 DUP3 DUP3 XOR DUP3 DUP5 LT MUL DUP3 XOR JUMPDEST SWAP1 POP JUMPDEST SWAP3 SWAP2 POP POP JUMP JUMPDEST PUSH1 0x2 PUSH1 0x1 SLOAD SUB PUSH2 0x1EA4 JUMPI PUSH1 0x40 MLOAD PUSH4 0x3EE5AEB5 PUSH1 0xE0 SHL DUP2 MSTORE PUSH1 0x4 ADD PUSH1 0x40 MLOAD DUP1 SWAP2 SUB SWAP1 REVERT JUMPDEST PUSH1 0x2 PUSH1 0x1 SSTORE JUMP JUMPDEST PUSH1 0x0 DUP1 PUSH1 0x20 PUSH1 0x0 DUP5 MLOAD PUSH1 0x20 DUP7 ADD PUSH1 0x0 DUP9 GAS CALL DUP1 PUSH2 0x1ECE JUMPI PUSH1 0x40 MLOAD RETURNDATASIZE PUSH1 0x0 DUP3 RETURNDATACOPY RETURNDATASIZE DUP2 REVERT JUMPDEST POP POP PUSH1 0x0 MLOAD RETURNDATASIZE SWAP2 POP DUP2 ISZERO PUSH2 0x1EE6 JUMPI DUP1 PUSH1 0x1 EQ ISZERO PUSH2 0x1EF3 JUMP JUMPDEST PUSH1 0x1 PUSH1 0x1 PUSH1 0xA0 SHL SUB DUP5 AND EXTCODESIZE ISZERO JUMPDEST ISZERO PUSH2 0x1BD2 JUMPI PUSH1 0x40 MLOAD PUSH4 0x5274AFE7 PUSH1 0xE0 SHL DUP2 MSTORE PUSH1 0x1 PUSH1 0x1 PUSH1 0xA0 SHL SUB DUP6 AND PUSH1 0x4 DUP3 ADD MSTORE PUSH1 0x24 ADD PUSH2 0x55C JUMP JUMPDEST PUSH1 0x0 DUP1 PUSH1 0x0 PUSH1 0x40 DUP5 DUP7 SUB SLT ISZERO PUSH2 0x1F31 JUMPI PUSH1 0x0 DUP1 REVERT JUMPDEST DUP4 CALLDATALOAD PUSH8 0xFFFFFFFFFFFFFFFF DUP1 DUP3 GT ISZERO PUSH2 0x1F49 JUMPI PUSH1 0x0 DUP1 REVERT JUMPDEST DUP2 DUP7 ADD SWAP2 POP DUP7 PUSH1 0x1F DUP4 ADD SLT PUSH2 0x1F5D JUMPI PUSH1 0x0 DUP1 REVERT JUMPDEST DUP2 CALLDATALOAD DUP2 DUP2 GT ISZERO PUSH2 0x1F6C JUMPI PUSH1 0x0 DUP1 REVERT JUMPDEST DUP8 PUSH1 0x20 DUP3 PUSH1 0x5 SHL DUP6 ADD ADD GT ISZERO PUSH2 0x1F81 JUMPI PUSH1 0x0 DUP1 REVERT JUMPDEST PUSH1 0x20 SWAP3 DUP4 ADD SWAP9 SWAP1 SWAP8 POP SWAP6 SWAP1 SWAP2 ADD CALLDATALOAD SWAP5 SWAP4 POP POP POP POP JUMP JUMPDEST PUSH1 0x0 PUSH1 0x20 DUP3 DUP5 SUB SLT ISZERO PUSH2 0x1FA9 JUMPI PUSH1 0x0 DUP1 REVERT JUMPDEST POP CALLDATALOAD SWAP2 SWAP1 POP JUMP JUMPDEST PUSH1 0x1 PUSH1 0x1 PUSH1 0xA0 SHL SUB DUP2 AND DUP2 EQ PUSH2 0x116A JUMPI PUSH1 0x0 DUP1 REVERT JUMPDEST PUSH1 0x0 DUP1 PUSH1 0x0 DUP1 PUSH1 0x0 PUSH1 0x80 DUP7 DUP9 SUB SLT ISZERO PUSH2 0x1FDD JUMPI PUSH1 0x0 DUP1 REVERT JUMPDEST DUP6 CALLDATALOAD PUSH2 0x1FE8 DUP2 PUSH2 0x1FB0 JUMP JUMPDEST SWAP5 POP PUSH1 0x20 DUP7 ADD CALLDATALOAD PUSH2 0x1FF8 DUP2 PUSH2 0x1FB0 JUMP JUMPDEST SWAP4 POP PUSH1 0x40 DUP7 ADD CALLDATALOAD SWAP3 POP PUSH1 0x60 DUP7 ADD CALLDATALOAD PUSH8 0xFFFFFFFFFFFFFFFF DUP1 DUP3 GT ISZERO PUSH2 0x201C JUMPI PUSH1 0x0 DUP1 REVERT JUMPDEST DUP2 DUP9 ADD SWAP2 POP DUP9 PUSH1 0x1F DUP4 ADD SLT PUSH2 0x2030 JUMPI PUSH1 0x0 DUP1 REVERT JUMPDEST DUP2 CALLDATALOAD DUP2 DUP2 GT ISZERO PUSH2 0x203F JUMPI PUSH1 0x0 DUP1 REVERT JUMPDEST DUP10 PUSH1 0x20 DUP3 DUP6 ADD ADD GT ISZERO PUSH2 0x2051 JUMPI PUSH1 0x0 DUP1 REVERT JUMPDEST SWAP7 SWAP10 SWAP6 SWAP9 POP SWAP4 SWAP7 POP PUSH1 0x20 ADD SWAP5 SWAP4 SWAP3 POP POP POP JUMP JUMPDEST PUSH1 0x0 PUSH1 0x20 DUP3 DUP5 SUB SLT ISZERO PUSH2 0x2076 JUMPI PUSH1 0x0 DUP1 REVERT JUMPDEST DUP2 CALLDATALOAD PUSH2 0x2081 DUP2 PUSH2 0x1FB0 JUMP JUMPDEST SWAP4 SWAP3 POP POP POP JUMP JUMPDEST PUSH1 0x0 DUP2 MLOAD DUP1 DUP5 MSTORE PUSH1 0x0 JUMPDEST DUP2 DUP2 LT ISZERO PUSH2 0x20AE JUMPI PUSH1 0x20 DUP2 DUP6 ADD DUP2 ADD MLOAD DUP7 DUP4 ADD DUP3 ADD MSTORE ADD PUSH2 0x2092 JUMP JUMPDEST POP PUSH1 0x0 PUSH1 0x20 DUP3 DUP7 ADD ADD MSTORE PUSH1 0x20 PUSH1 0x1F NOT PUSH1 0x1F DUP4 ADD AND DUP6 ADD ADD SWAP2 POP POP SWAP3 SWAP2 POP POP JUMP JUMPDEST PUSH1 0x0 PUSH2 0x120 DUP1 DUP4 MSTORE PUSH2 0x20E2 DUP2 DUP5 ADD DUP14 PUSH2 0x2088 JUMP JUMPDEST PUSH1 0x1 PUSH1 0x1 PUSH1 0xA0 SHL SUB SWAP12 DUP13 AND PUSH1 0x20 DUP6 ADD MSTORE SWAP10 SWAP1 SWAP11 AND PUSH1 0x40 DUP4 ADD MSTORE POP PUSH1 0x60 DUP2 ADD SWAP7 SWAP1 SWAP7 MSTORE PUSH1 0x80 DUP7 ADD SWAP5 SWAP1 SWAP5 MSTORE PUSH1 0xA0 DUP6 ADD SWAP3 SWAP1 SWAP3 MSTORE PUSH1 0xC0 DUP5 ADD MSTORE ISZERO ISZERO PUSH1 0xE0 DUP4 ADD MSTORE ISZERO ISZERO PUSH2 0x100 SWAP1 SWAP2 ADD MSTORE SWAP3 SWAP2 POP POP JUMP JUMPDEST PUSH1 0x0 DUP1 PUSH1 0x40 DUP4 DUP6 SUB SLT ISZERO PUSH2 0x2142 JUMPI PUSH1 0x0 DUP1 REVERT JUMPDEST DUP3 CALLDATALOAD PUSH2 0x214D DUP2 PUSH2 0x1FB0 JUMP JUMPDEST SWAP5 PUSH1 0x20 SWAP4 SWAP1 SWAP4 ADD CALLDATALOAD SWAP4 POP POP POP JUMP JUMPDEST PUSH1 0x20 DUP2 MSTORE PUSH1 0x0 PUSH2 0x1E78 PUSH1 0x20 DUP4 ADD DUP5 PUSH2 0x2088 JUMP JUMPDEST PUSH1 0x20 DUP1 DUP3 MSTORE DUP3 MLOAD DUP3 DUP3 ADD DUP2 SWAP1 MSTORE PUSH1 0x0 SWAP2 SWAP1 DUP5 DUP3 ADD SWAP1 PUSH1 0x40 DUP6 ADD SWAP1 DUP5 JUMPDEST DUP2 DUP2 LT ISZERO PUSH2 0x21A6 JUMPI DUP4 MLOAD DUP4 MSTORE SWAP3 DUP5 ADD SWAP3 SWAP2 DUP5 ADD SWAP2 PUSH1 0x1 ADD PUSH2 0x218A JUMP JUMPDEST POP SWAP1 SWAP7 SWAP6 POP POP POP POP POP POP JUMP JUMPDEST DUP1 ISZERO ISZERO DUP2 EQ PUSH2 0x116A JUMPI PUSH1 0x0 DUP1 REVERT JUMPDEST PUSH1 0x0 PUSH1 0x20 DUP3 DUP5 SUB SLT ISZERO PUSH2 0x21D2 JUMPI PUSH1 0x0 DUP1 REVERT JUMPDEST DUP2 CALLDATALOAD PUSH2 0x2081 DUP2 PUSH2 0x21B2 JUMP JUMPDEST PUSH1 0x20 DUP1 DUP3 MSTORE PUSH1 0x14 SWAP1 DUP3 ADD MSTORE PUSH20 0x2737BA1030BABA3437B934BD32B21030B236B4B7 PUSH1 0x61 SHL PUSH1 0x40 DUP3 ADD MSTORE PUSH1 0x60 ADD SWAP1 JUMP JUMPDEST PUSH4 0x4E487B71 PUSH1 0xE0 SHL PUSH1 0x0 MSTORE PUSH1 0x32 PUSH1 0x4 MSTORE PUSH1 0x24 PUSH1 0x0 REVERT JUMPDEST PUSH1 0x1 PUSH1 0x1 PUSH1 0xA0 SHL SUB SWAP4 DUP5 AND DUP2 MSTORE SWAP2 SWAP1 SWAP3 AND PUSH1 0x20 DUP3 ADD MSTORE PUSH1 0x40 DUP2 ADD SWAP2 SWAP1 SWAP2 MSTORE PUSH1 0x60 ADD SWAP1 JUMP JUMPDEST PUSH4 0x4E487B71 PUSH1 0xE0 SHL PUSH1 0x0 MSTORE PUSH1 0x11 PUSH1 0x4 MSTORE PUSH1 0x24 PUSH1 0x0 REVERT JUMPDEST PUSH1 0x0 PUSH1 0x1 DUP3 ADD PUSH2 0x226D JUMPI PUSH2 0x226D PUSH2 0x2245 JUMP JUMPDEST POP PUSH1 0x1 ADD SWAP1 JUMP JUMPDEST DUP1 DUP3 ADD DUP1 DUP3 GT ISZERO PUSH2 0x1E7B JUMPI PUSH2 0x1E7B PUSH2 0x2245 JUMP JUMPDEST PUSH1 0x0 PUSH1 0x20 DUP3 DUP5 SUB SLT ISZERO PUSH2 0x2299 JUMPI PUSH1 0x0 DUP1 REVERT JUMPDEST POP MLOAD SWAP2 SWAP1 POP JUMP JUMPDEST PUSH4 0x4E487B71 PUSH1 0xE0 SHL PUSH1 0x0 MSTORE PUSH1 0x12 PUSH1 0x4 MSTORE PUSH1 0x24 PUSH1 0x0 REVERT JUMPDEST PUSH1 0x0 DUP3 PUSH2 0x22C5 JUMPI PUSH2 0x22C5 PUSH2 0x22A0 JUMP JUMPDEST POP DIV SWAP1 JUMP JUMPDEST PUSH1 0x1 DUP2 DUP2 SHR SWAP1 DUP3 AND DUP1 PUSH2 0x22DE JUMPI PUSH1 0x7F DUP3 AND SWAP2 POP JUMPDEST PUSH1 0x20 DUP3 LT DUP2 SUB PUSH2 0x22FE JUMPI PUSH4 0x4E487B71 PUSH1 0xE0 SHL PUSH1 0x0 MSTORE PUSH1 0x22 PUSH1 0x4 MSTORE PUSH1 0x24 PUSH1 0x0 REVERT JUMPDEST POP SWAP2 SWAP1 POP JUMP JUMPDEST DUP2 DUP2 SUB DUP2 DUP2 GT ISZERO PUSH2 0x1E7B JUMPI PUSH2 0x1E7B PUSH2 0x2245 JUMP JUMPDEST PUSH1 0x0 DUP2 PUSH2 0x2326 JUMPI PUSH2 0x2326 PUSH2 0x2245 JUMP JUMPDEST POP PUSH1 0x0 NOT ADD SWAP1 JUMP JUMPDEST PUSH4 0x4E487B71 PUSH1 0xE0 SHL PUSH1 0x0 MSTORE PUSH1 0x41 PUSH1 0x4 MSTORE PUSH1 0x24 PUSH1 0x0 REVERT JUMPDEST PUSH1 0x0 DUP3 PUSH2 0x2353 JUMPI PUSH2 0x2353 PUSH2 0x22A0 JUMP JUMPDEST POP MOD SWAP1 JUMP JUMPDEST PUSH1 0x0 PUSH1 0x20 DUP3 DUP5 SUB SLT ISZERO PUSH2 0x236A JUMPI PUSH1 0x0 DUP1 REVERT JUMPDEST DUP2 MLOAD PUSH2 0x2081 DUP2 PUSH2 0x21B2 JUMP JUMPDEST PUSH1 0x0 PUSH1 0x20 DUP3 DUP5 SUB SLT ISZERO PUSH2 0x2387 JUMPI PUSH1 0x0 DUP1 REVERT JUMPDEST DUP2 MLOAD PUSH2 0x2081 DUP2 PUSH2 0x1FB0 JUMP INVALID LOG2 PUSH5 0x6970667358 0x22 SLT KECCAK256 ADDRESS LOG0 GAS BALANCE SELFBALANCE 0xA9 CALL GASLIMIT 0xBA DUP11 0xD4 CALLDATACOPY 0xCF 0xB1 MSIZE PUSH25 0x13BD43EA197A1CAFEDB34D17A754836764736F6C6343000814 STOP CALLER "},"methodIdentifiers":{"TOKENS_PER_NFT()":"adee8ff2","TOKENS_PER_NFT_UNITS()":"a98d4994","TOKEN_DECIMALS()":"5b7f415c","admin()":"f851a440","depositNFT(uint256)":"e91a7ca6","depositTokens(uint256)":"dd49756e","emergencyWithdrawNFT(address,uint256)":"922b8079","emergencyWithdrawTokens(address,uint256)":"917bb998","getFloorPrice()":"2a33d6b2","getNFTsInVault(uint256)":"978cd40f","getVaultInfo()":"7f98aa71","getVaultStats()":"a59aa5a6","isNFTInVault(uint256)":"035dd06d","nftContract()":"d56d229d","nftCount()":"0af2c6ca","nftHeld(uint256)":"50586088","onERC721Received(address,address,uint256,bytes)":"150b7a02","openMarketMode()":"7304fa20","owner()":"8da5cb5b","preloadVault(uint256[],uint256)":"029a3c5f","renounceOwnership()":"715018a6","setAdmin(address)":"704b6c02","setSwapEnabled(bool)":"e01af92c","songName()":"96cd06f8","swapEnabled()":"6ddd1713","tokenBalance()":"9e1a4d19","tokenContract()":"55a373d6","totalMarketCap()":"bbffa2d3","transferOwnership(address)":"f2fde38b","updateMarketCap(uint256)":"b1e776e3"}}}}}