{
  "_format": "hh-sol-artifact-1",
  "contractName": "KANDIToken",
  "sourceName": "contracts/KANDIToken.sol",
  "abi": [
    {
      "inputs": [
        {
          "internalType": "address",
          "name": "ghoToken_",
          "type": "address"
        },
        {
          "internalType": "address",
          "name": "devWallet_",
          "type": "address"
        },
        {
          "internalType": "address",
          "name": "stakingContract_",
          "type": "address"
        },
        {
          "internalType": "address",
          "name": "checkInContract_",
          "type": "address"
        }
      ],
      "stateMutability": "nonpayable",
      "type": "constructor"
    },
    {
      "inputs": [
        {
          "internalType": "address",
          "name": "spender",
          "type": "address"
        },
        {
          "internalType": "uint256",
          "name": "allowance",
          "type": "uint256"
        },
        {
          "internalType": "uint256",
          "name": "needed",
          "type": "uint256"
        }
      ],
      "name": "ERC20InsufficientAllowance",
      "type": "error"
    },
    {
      "inputs": [
        {
          "internalType": "address",
          "name": "sender",
          "type": "address"
        },
        {
          "internalType": "uint256",
          "name": "balance",
          "type": "uint256"
        },
        {
          "internalType": "uint256",
          "name": "needed",
          "type": "uint256"
        }
      ],
      "name": "ERC20InsufficientBalance",
      "type": "error"
    },
    {
      "inputs": [
        {
          "internalType": "address",
          "name": "approver",
          "type": "address"
        }
      ],
      "name": "ERC20InvalidApprover",
      "type": "error"
    },
    {
      "inputs": [
        {
          "internalType": "address",
          "name": "receiver",
          "type": "address"
        }
      ],
      "name": "ERC20InvalidReceiver",
      "type": "error"
    },
    {
      "inputs": [
        {
          "internalType": "address",
          "name": "sender",
          "type": "address"
        }
      ],
      "name": "ERC20InvalidSender",
      "type": "error"
    },
    {
      "inputs": [
        {
          "internalType": "address",
          "name": "spender",
          "type": "address"
        }
      ],
      "name": "ERC20InvalidSpender",
      "type": "error"
    },
    {
      "inputs": [
        {
          "internalType": "address",
          "name": "owner",
          "type": "address"
        }
      ],
      "name": "OwnableInvalidOwner",
      "type": "error"
    },
    {
      "inputs": [
        {
          "internalType": "address",
          "name": "account",
          "type": "address"
        }
      ],
      "name": "OwnableUnauthorizedAccount",
      "type": "error"
    },
    {
      "inputs": [],
      "name": "ReentrancyGuardReentrantCall",
      "type": "error"
    },
    {
      "inputs": [
        {
          "internalType": "address",
          "name": "token",
          "type": "address"
        }
      ],
      "name": "SafeERC20FailedOperation",
      "type": "error"
    },
    {
      "anonymous": false,
      "inputs": [
        {
          "indexed": true,
          "internalType": "address",
          "name": "recipient",
          "type": "address"
        },
        {
          "indexed": false,
          "internalType": "uint256",
          "name": "amount",
          "type": "uint256"
        }
      ],
      "name": "AirdropClaimed",
      "type": "event"
    },
    {
      "anonymous": false,
      "inputs": [
        {
          "indexed": true,
          "internalType": "address",
          "name": "recipient",
          "type": "address"
        },
        {
          "indexed": false,
          "internalType": "uint256",
          "name": "amount",
          "type": "uint256"
        },
        {
          "indexed": false,
          "internalType": "uint256",
          "name": "unlockTime",
          "type": "uint256"
        }
      ],
      "name": "AirdropScheduled",
      "type": "event"
    },
    {
      "anonymous": false,
      "inputs": [
        {
          "indexed": true,
          "internalType": "address",
          "name": "owner",
          "type": "address"
        },
        {
          "indexed": true,
          "internalType": "address",
          "name": "spender",
          "type": "address"
        },
        {
          "indexed": false,
          "internalType": "uint256",
          "name": "value",
          "type": "uint256"
        }
      ],
      "name": "Approval",
      "type": "event"
    },
    {
      "anonymous": false,
      "inputs": [
        {
          "indexed": true,
          "internalType": "address",
          "name": "recipient",
          "type": "address"
        },
        {
          "indexed": false,
          "internalType": "uint256",
          "name": "amount",
          "type": "uint256"
        }
      ],
      "name": "CheckInRewardDistributed",
      "type": "event"
    },
    {
      "anonymous": false,
      "inputs": [
        {
          "indexed": false,
          "internalType": "string",
          "name": "contractType",
          "type": "string"
        },
        {
          "indexed": false,
          "internalType": "address",
          "name": "newAddress",
          "type": "address"
        }
      ],
      "name": "ContractAddressUpdated",
      "type": "event"
    },
    {
      "anonymous": false,
      "inputs": [
        {
          "indexed": true,
          "internalType": "address",
          "name": "recipient",
          "type": "address"
        },
        {
          "indexed": false,
          "internalType": "uint256",
          "name": "amount",
          "type": "uint256"
        }
      ],
      "name": "FarcasterRewardClaimed",
      "type": "event"
    },
    {
      "anonymous": false,
      "inputs": [
        {
          "indexed": true,
          "internalType": "address",
          "name": "buyer",
          "type": "address"
        },
        {
          "indexed": false,
          "internalType": "uint256",
          "name": "ghoAmount",
          "type": "uint256"
        },
        {
          "indexed": false,
          "internalType": "uint256",
          "name": "kandiAmount",
          "type": "uint256"
        }
      ],
      "name": "OpenSalePurchase",
      "type": "event"
    },
    {
      "anonymous": false,
      "inputs": [
        {
          "indexed": true,
          "internalType": "address",
          "name": "previousOwner",
          "type": "address"
        },
        {
          "indexed": true,
          "internalType": "address",
          "name": "newOwner",
          "type": "address"
        }
      ],
      "name": "OwnershipTransferred",
      "type": "event"
    },
    {
      "anonymous": false,
      "inputs": [
        {
          "indexed": false,
          "internalType": "uint256",
          "name": "newPrice",
          "type": "uint256"
        }
      ],
      "name": "SalePriceUpdated",
      "type": "event"
    },
    {
      "anonymous": false,
      "inputs": [
        {
          "indexed": false,
          "internalType": "bool",
          "name": "active",
          "type": "bool"
        }
      ],
      "name": "SaleStatusUpdated",
      "type": "event"
    },
    {
      "anonymous": false,
      "inputs": [
        {
          "indexed": true,
          "internalType": "address",
          "name": "recipient",
          "type": "address"
        },
        {
          "indexed": false,
          "internalType": "uint256",
          "name": "amount",
          "type": "uint256"
        }
      ],
      "name": "StakingRewardDistributed",
      "type": "event"
    },
    {
      "anonymous": false,
      "inputs": [
        {
          "indexed": false,
          "internalType": "bool",
          "name": "enabled",
          "type": "bool"
        },
        {
          "indexed": false,
          "internalType": "uint256",
          "name": "feeRate",
          "type": "uint256"
        },
        {
          "indexed": false,
          "internalType": "address",
          "name": "feeReceiver",
          "type": "address"
        }
      ],
      "name": "SwapConfigUpdated",
      "type": "event"
    },
    {
      "anonymous": false,
      "inputs": [
        {
          "indexed": true,
          "internalType": "address",
          "name": "user",
          "type": "address"
        },
        {
          "indexed": false,
          "internalType": "uint256",
          "name": "kandiAmount",
          "type": "uint256"
        },
        {
          "indexed": false,
          "internalType": "uint256",
          "name": "ghoAmount",
          "type": "uint256"
        }
      ],
      "name": "TokensSwappedToGHO",
      "type": "event"
    },
    {
      "anonymous": false,
      "inputs": [
        {
          "indexed": true,
          "internalType": "address",
          "name": "from",
          "type": "address"
        },
        {
          "indexed": true,
          "internalType": "address",
          "name": "to",
          "type": "address"
        },
        {
          "indexed": false,
          "internalType": "uint256",
          "name": "value",
          "type": "uint256"
        }
      ],
      "name": "Transfer",
      "type": "event"
    },
    {
      "inputs": [],
      "name": "AIRDROP_AMOUNT",
      "outputs": [
        {
          "internalType": "uint256",
          "name": "",
          "type": "uint256"
        }
      ],
      "stateMutability": "view",
      "type": "function"
    },
    {
      "inputs": [],
      "name": "AIRDROP_LOCK_PERIOD",
      "outputs": [
        {
          "internalType": "uint256",
          "name": "",
          "type": "uint256"
        }
      ],
      "stateMutability": "view",
      "type": "function"
    },
    {
      "inputs": [],
      "name": "AIRDROP_PCT",
      "outputs": [
        {
          "internalType": "uint256",
          "name": "",
          "type": "uint256"
        }
      ],
      "stateMutability": "view",
      "type": "function"
    },
    {
      "inputs": [],
      "name": "CHECKIN_REWARDS_AMOUNT",
      "outputs": [
        {
          "internalType": "uint256",
          "name": "",
          "type": "uint256"
        }
      ],
      "stateMutability": "view",
      "type": "function"
    },
    {
      "inputs": [],
      "name": "CHECKIN_REWARDS_PCT",
      "outputs": [
        {
          "internalType": "uint256",
          "name": "",
          "type": "uint256"
        }
      ],
      "stateMutability": "view",
      "type": "function"
    },
    {
      "inputs": [],
      "name": "FARCASTER_AMOUNT",
      "outputs": [
        {
          "internalType": "uint256",
          "name": "",
          "type": "uint256"
        }
      ],
      "stateMutability": "view",
      "type": "function"
    },
    {
      "inputs": [],
      "name": "FARCASTER_PCT",
      "outputs": [
        {
          "internalType": "uint256",
          "name": "",
          "type": "uint256"
        }
      ],
      "stateMutability": "view",
      "type": "function"
    },
    {
      "inputs": [],
      "name": "OPEN_SALE_AMOUNT",
      "outputs": [
        {
          "internalType": "uint256",
          "name": "",
          "type": "uint256"
        }
      ],
      "stateMutability": "view",
      "type": "function"
    },
    {
      "inputs": [],
      "name": "OPEN_SALE_PCT",
      "outputs": [
        {
          "internalType": "uint256",
          "name": "",
          "type": "uint256"
        }
      ],
      "stateMutability": "view",
      "type": "function"
    },
    {
      "inputs": [],
      "name": "STAKING_REWARDS_AMOUNT",
      "outputs": [
        {
          "internalType": "uint256",
          "name": "",
          "type": "uint256"
        }
      ],
      "stateMutability": "view",
      "type": "function"
    },
    {
      "inputs": [],
      "name": "STAKING_REWARDS_PCT",
      "outputs": [
        {
          "internalType": "uint256",
          "name": "",
          "type": "uint256"
        }
      ],
      "stateMutability": "view",
      "type": "function"
    },
    {
      "inputs": [],
      "name": "TOTAL_SUPPLY",
      "outputs": [
        {
          "internalType": "uint256",
          "name": "",
          "type": "uint256"
        }
      ],
      "stateMutability": "view",
      "type": "function"
    },
    {
      "inputs": [],
      "name": "airdropDistributed",
      "outputs": [
        {
          "internalType": "uint256",
          "name": "",
          "type": "uint256"
        }
      ],
      "stateMutability": "view",
      "type": "function"
    },
    {
      "inputs": [
        {
          "internalType": "address",
          "name": "",
          "type": "address"
        }
      ],
      "name": "airdropVesting",
      "outputs": [
        {
          "internalType": "uint256",
          "name": "totalAmount",
          "type": "uint256"
        },
        {
          "internalType": "uint256",
          "name": "claimedAmount",
          "type": "uint256"
        },
        {
          "internalType": "uint256",
          "name": "startTime",
          "type": "uint256"
        },
        {
          "internalType": "uint256",
          "name": "lockPeriod",
          "type": "uint256"
        },
        {
          "internalType": "bool",
          "name": "isActive",
          "type": "bool"
        }
      ],
      "stateMutability": "view",
      "type": "function"
    },
    {
      "inputs": [
        {
          "internalType": "address",
          "name": "owner",
          "type": "address"
        },
        {
          "internalType": "address",
          "name": "spender",
          "type": "address"
        }
      ],
      "name": "allowance",
      "outputs": [
        {
          "internalType": "uint256",
          "name": "",
          "type": "uint256"
        }
      ],
      "stateMutability": "view",
      "type": "function"
    },
    {
      "inputs": [
        {
          "internalType": "address",
          "name": "spender",
          "type": "address"
        },
        {
          "internalType": "uint256",
          "name": "value",
          "type": "uint256"
        }
      ],
      "name": "approve",
      "outputs": [
        {
          "internalType": "bool",
          "name": "",
          "type": "bool"
        }
      ],
      "stateMutability": "nonpayable",
      "type": "function"
    },
    {
      "inputs": [
        {
          "internalType": "address",
          "name": "account",
          "type": "address"
        }
      ],
      "name": "balanceOf",
      "outputs": [
        {
          "internalType": "uint256",
          "name": "",
          "type": "uint256"
        }
      ],
      "stateMutability": "view",
      "type": "function"
    },
    {
      "inputs": [
        {
          "internalType": "address[]",
          "name": "recipients",
          "type": "address[]"
        },
        {
          "internalType": "uint256[]",
          "name": "amounts",
          "type": "uint256[]"
        }
      ],
      "name": "batchScheduleAirdrop",
      "outputs": [],
      "stateMutability": "nonpayable",
      "type": "function"
    },
    {
      "inputs": [],
      "name": "checkInContract",
      "outputs": [
        {
          "internalType": "address",
          "name": "",
          "type": "address"
        }
      ],
      "stateMutability": "view",
      "type": "function"
    },
    {
      "inputs": [],
      "name": "checkInRewardsDistributed",
      "outputs": [
        {
          "internalType": "uint256",
          "name": "",
          "type": "uint256"
        }
      ],
      "stateMutability": "view",
      "type": "function"
    },
    {
      "inputs": [],
      "name": "claimAirdrop",
      "outputs": [],
      "stateMutability": "nonpayable",
      "type": "function"
    },
    {
      "inputs": [
        {
          "internalType": "uint256",
          "name": "amount",
          "type": "uint256"
        }
      ],
      "name": "claimFarcasterReward",
      "outputs": [],
      "stateMutability": "nonpayable",
      "type": "function"
    },
    {
      "inputs": [],
      "name": "decimals",
      "outputs": [
        {
          "internalType": "uint8",
          "name": "",
          "type": "uint8"
        }
      ],
      "stateMutability": "view",
      "type": "function"
    },
    {
      "inputs": [],
      "name": "devWallet",
      "outputs": [
        {
          "internalType": "address",
          "name": "",
          "type": "address"
        }
      ],
      "stateMutability": "view",
      "type": "function"
    },
    {
      "inputs": [
        {
          "internalType": "address",
          "name": "recipient",
          "type": "address"
        },
        {
          "internalType": "uint256",
          "name": "amount",
          "type": "uint256"
        }
      ],
      "name": "distributeCheckInReward",
      "outputs": [],
      "stateMutability": "nonpayable",
      "type": "function"
    },
    {
      "inputs": [
        {
          "internalType": "address",
          "name": "recipient",
          "type": "address"
        },
        {
          "internalType": "uint256",
          "name": "amount",
          "type": "uint256"
        }
      ],
      "name": "distributeStakingReward",
      "outputs": [],
      "stateMutability": "nonpayable",
      "type": "function"
    },
    {
      "inputs": [
        {
          "internalType": "address",
          "name": "token",
          "type": "address"
        },
        {
          "internalType": "address",
          "name": "to",
          "type": "address"
        },
        {
          "internalType": "uint256",
          "name": "amount",
          "type": "uint256"
        }
      ],
      "name": "emergencyWithdraw",
      "outputs": [],
      "stateMutability": "nonpayable",
      "type": "function"
    },
    {
      "inputs": [
        {
          "internalType": "address",
          "name": "",
          "type": "address"
        }
      ],
      "name": "farcasterClaimed",
      "outputs": [
        {
          "internalType": "bool",
          "name": "",
          "type": "bool"
        }
      ],
      "stateMutability": "view",
      "type": "function"
    },
    {
      "inputs": [],
      "name": "farcasterDistributed",
      "outputs": [
        {
          "internalType": "uint256",
          "name": "",
          "type": "uint256"
        }
      ],
      "stateMutability": "view",
      "type": "function"
    },
    {
      "inputs": [
        {
          "internalType": "address",
          "name": "",
          "type": "address"
        }
      ],
      "name": "farcasterEligible",
      "outputs": [
        {
          "internalType": "bool",
          "name": "",
          "type": "bool"
        }
      ],
      "stateMutability": "view",
      "type": "function"
    },
    {
      "inputs": [
        {
          "internalType": "address",
          "name": "user",
          "type": "address"
        }
      ],
      "name": "getAirdropInfo",
      "outputs": [
        {
          "internalType": "uint256",
          "name": "totalAmount",
          "type": "uint256"
        },
        {
          "internalType": "uint256",
          "name": "claimedAmount",
          "type": "uint256"
        },
        {
          "internalType": "uint256",
          "name": "claimableAmount",
          "type": "uint256"
        },
        {
          "internalType": "uint256",
          "name": "unlockTime",
          "type": "uint256"
        },
        {
          "internalType": "bool",
          "name": "isActive",
          "type": "bool"
        }
      ],
      "stateMutability": "view",
      "type": "function"
    },
    {
      "inputs": [],
      "name": "getDistributionStats",
      "outputs": [
        {
          "internalType": "uint256",
          "name": "openSaleRemaining",
          "type": "uint256"
        },
        {
          "internalType": "uint256",
          "name": "airdropRemaining",
          "type": "uint256"
        },
        {
          "internalType": "uint256",
          "name": "farcasterRemaining",
          "type": "uint256"
        },
        {
          "internalType": "uint256",
          "name": "stakingRewardsRemaining",
          "type": "uint256"
        },
        {
          "internalType": "uint256",
          "name": "checkInRewardsRemaining",
          "type": "uint256"
        }
      ],
      "stateMutability": "view",
      "type": "function"
    },
    {
      "inputs": [],
      "name": "getTokenInfo",
      "outputs": [
        {
          "internalType": "uint256",
          "name": "totalSupplyAmount",
          "type": "uint256"
        },
        {
          "internalType": "uint256",
          "name": "circulatingSupply",
          "type": "uint256"
        },
        {
          "internalType": "bool",
          "name": "saleActive",
          "type": "bool"
        },
        {
          "internalType": "uint256",
          "name": "currentSalePrice",
          "type": "uint256"
        },
        {
          "internalType": "bool",
          "name": "swappingEnabled",
          "type": "bool"
        },
        {
          "internalType": "uint256",
          "name": "currentSwapFeeRate",
          "type": "uint256"
        }
      ],
      "stateMutability": "view",
      "type": "function"
    },
    {
      "inputs": [],
      "name": "ghoToken",
      "outputs": [
        {
          "internalType": "contract IERC20",
          "name": "",
          "type": "address"
        }
      ],
      "stateMutability": "view",
      "type": "function"
    },
    {
      "inputs": [],
      "name": "name",
      "outputs": [
        {
          "internalType": "string",
          "name": "",
          "type": "string"
        }
      ],
      "stateMutability": "view",
      "type": "function"
    },
    {
      "inputs": [],
      "name": "openSaleActive",
      "outputs": [
        {
          "internalType": "bool",
          "name": "",
          "type": "bool"
        }
      ],
      "stateMutability": "view",
      "type": "function"
    },
    {
      "inputs": [],
      "name": "openSaleDistributed",
      "outputs": [
        {
          "internalType": "uint256",
          "name": "",
          "type": "uint256"
        }
      ],
      "stateMutability": "view",
      "type": "function"
    },
    {
      "inputs": [],
      "name": "owner",
      "outputs": [
        {
          "internalType": "address",
          "name": "",
          "type": "address"
        }
      ],
      "stateMutability": "view",
      "type": "function"
    },
    {
      "inputs": [
        {
          "internalType": "uint256",
          "name": "ghoAmount",
          "type": "uint256"
        }
      ],
      "name": "purchaseTokens",
      "outputs": [],
      "stateMutability": "nonpayable",
      "type": "function"
    },
    {
      "inputs": [],
      "name": "renounceOwnership",
      "outputs": [],
      "stateMutability": "nonpayable",
      "type": "function"
    },
    {
      "inputs": [],
      "name": "salePrice",
      "outputs": [
        {
          "internalType": "uint256",
          "name": "",
          "type": "uint256"
        }
      ],
      "stateMutability": "view",
      "type": "function"
    },
    {
      "inputs": [
        {
          "internalType": "address",
          "name": "recipient",
          "type": "address"
        },
        {
          "internalType": "uint256",
          "name": "amount",
          "type": "uint256"
        }
      ],
      "name": "scheduleAirdrop",
      "outputs": [],
      "stateMutability": "nonpayable",
      "type": "function"
    },
    {
      "inputs": [
        {
          "internalType": "address",
          "name": "newCheckInContract",
          "type": "address"
        }
      ],
      "name": "setCheckInContract",
      "outputs": [],
      "stateMutability": "nonpayable",
      "type": "function"
    },
    {
      "inputs": [
        {
          "internalType": "address",
          "name": "newDevWallet",
          "type": "address"
        }
      ],
      "name": "setDevWallet",
      "outputs": [],
      "stateMutability": "nonpayable",
      "type": "function"
    },
    {
      "inputs": [
        {
          "internalType": "address[]",
          "name": "users",
          "type": "address[]"
        },
        {
          "internalType": "bool[]",
          "name": "eligible",
          "type": "bool[]"
        }
      ],
      "name": "setFarcasterEligibility",
      "outputs": [],
      "stateMutability": "nonpayable",
      "type": "function"
    },
    {
      "inputs": [
        {
          "internalType": "bool",
          "name": "active",
          "type": "bool"
        }
      ],
      "name": "setOpenSaleActive",
      "outputs": [],
      "stateMutability": "nonpayable",
      "type": "function"
    },
    {
      "inputs": [
        {
          "internalType": "uint256",
          "name": "price",
          "type": "uint256"
        }
      ],
      "name": "setSalePrice",
      "outputs": [],
      "stateMutability": "nonpayable",
      "type": "function"
    },
    {
      "inputs": [
        {
          "internalType": "address",
          "name": "newStakingContract",
          "type": "address"
        }
      ],
      "name": "setStakingContract",
      "outputs": [],
      "stateMutability": "nonpayable",
      "type": "function"
    },
    {
      "inputs": [
        {
          "internalType": "bool",
          "name": "enabled",
          "type": "bool"
        },
        {
          "internalType": "uint256",
          "name": "feeRate",
          "type": "uint256"
        },
        {
          "internalType": "address",
          "name": "feeReceiver",
          "type": "address"
        }
      ],
      "name": "setSwapConfig",
      "outputs": [],
      "stateMutability": "nonpayable",
      "type": "function"
    },
    {
      "inputs": [
        {
          "internalType": "address",
          "name": "newTreasury",
          "type": "address"
        }
      ],
      "name": "setTreasury",
      "outputs": [],
      "stateMutability": "nonpayable",
      "type": "function"
    },
    {
      "inputs": [
        {
          "internalType": "uint256",
          "name": "newShareBps",
          "type": "uint256"
        }
      ],
      "name": "setTreasuryShareBps",
      "outputs": [],
      "stateMutability": "nonpayable",
      "type": "function"
    },
    {
      "inputs": [],
      "name": "stakingContract",
      "outputs": [
        {
          "internalType": "address",
          "name": "",
          "type": "address"
        }
      ],
      "stateMutability": "view",
      "type": "function"
    },
    {
      "inputs": [],
      "name": "stakingRewardsDistributed",
      "outputs": [
        {
          "internalType": "uint256",
          "name": "",
          "type": "uint256"
        }
      ],
      "stateMutability": "view",
      "type": "function"
    },
    {
      "inputs": [],
      "name": "swapEnabled",
      "outputs": [
        {
          "internalType": "bool",
          "name": "",
          "type": "bool"
        }
      ],
      "stateMutability": "view",
      "type": "function"
    },
    {
      "inputs": [],
      "name": "swapFeeRate",
      "outputs": [
        {
          "internalType": "uint256",
          "name": "",
          "type": "uint256"
        }
      ],
      "stateMutability": "view",
      "type": "function"
    },
    {
      "inputs": [],
      "name": "swapFeeReceiver",
      "outputs": [
        {
          "internalType": "address",
          "name": "",
          "type": "address"
        }
      ],
      "stateMutability": "view",
      "type": "function"
    },
    {
      "inputs": [
        {
          "internalType": "uint256",
          "name": "kandiAmount",
          "type": "uint256"
        }
      ],
      "name": "swapToGHO",
      "outputs": [
        {
          "internalType": "uint256",
          "name": "ghoAmount",
          "type": "uint256"
        }
      ],
      "stateMutability": "nonpayable",
      "type": "function"
    },
    {
      "inputs": [],
      "name": "symbol",
      "outputs": [
        {
          "internalType": "string",
          "name": "",
          "type": "string"
        }
      ],
      "stateMutability": "view",
      "type": "function"
    },
    {
      "inputs": [],
      "name": "totalSupply",
      "outputs": [
        {
          "internalType": "uint256",
          "name": "",
          "type": "uint256"
        }
      ],
      "stateMutability": "view",
      "type": "function"
    },
    {
      "inputs": [
        {
          "internalType": "address",
          "name": "to",
          "type": "address"
        },
        {
          "internalType": "uint256",
          "name": "value",
          "type": "uint256"
        }
      ],
      "name": "transfer",
      "outputs": [
        {
          "internalType": "bool",
          "name": "",
          "type": "bool"
        }
      ],
      "stateMutability": "nonpayable",
      "type": "function"
    },
    {
      "inputs": [
        {
          "internalType": "address",
          "name": "from",
          "type": "address"
        },
        {
          "internalType": "address",
          "name": "to",
          "type": "address"
        },
        {
          "internalType": "uint256",
          "name": "value",
          "type": "uint256"
        }
      ],
      "name": "transferFrom",
      "outputs": [
        {
          "internalType": "bool",
          "name": "",
          "type": "bool"
        }
      ],
      "stateMutability": "nonpayable",
      "type": "function"
    },
    {
      "inputs": [
        {
          "internalType": "address",
          "name": "newOwner",
          "type": "address"
        }
      ],
      "name": "transferOwnership",
      "outputs": [],
      "stateMutability": "nonpayable",
      "type": "function"
    },
    {
      "inputs": [],
      "name": "treasury",
      "outputs": [
        {
          "internalType": "address",
          "name": "",
          "type": "address"
        }
      ],
      "stateMutability": "view",
      "type": "function"
    },
    {
      "inputs": [],
      "name": "treasuryShareBps",
      "outputs": [
        {
          "internalType": "uint256",
          "name": "",
          "type": "uint256"
        }
      ],
      "stateMutability": "view",
      "type": "function"
    }
  ],
  "bytecode": "0x60a0604052611388600b556016805460ff1916600117905560646017553480156200002957600080fd5b506040516200340b3803806200340b8339810160408190526200004c91620003e7565b6040805180820182526005808252644b414e444960d81b6020808401829052845180860190955291845290830152339160036200008a8382620004e9565b506004620000998282620004e9565b5050506001600160a01b038116620000cc57604051631e4fbdf760e01b8152600060048201526024015b60405180910390fd5b620000d78162000207565b5060016006556001600160a01b038416620001355760405162461bcd60e51b815260206004820152601960248201527f496e76616c69642047484f20746f6b656e2061646472657373000000000000006044820152606401620000c3565b6001600160a01b0383166200018d5760405162461bcd60e51b815260206004820152601a60248201527f496e76616c6964206465762077616c6c657420616464726573730000000000006044820152606401620000c3565b6001600160a01b03848116608052600980546001600160a01b0319908116868416908117909255600a80548216831790556007805482168685161790556008805482169385169390931790925560188054909216179055620001fd306c01431e0fae6d7217caa000000062000259565b50505050620005dd565b600580546001600160a01b038381166001600160a01b0319831681179093556040519116919082907f8be0079c531659141344cd1fd0a4f28419497f9722a3daafe3b4186f6b6457e090600090a35050565b6001600160a01b038216620002855760405163ec442f0560e01b815260006004820152602401620000c3565b620002936000838362000297565b5050565b6001600160a01b038316620002c6578060026000828254620002ba9190620005b5565b909155506200033a9050565b6001600160a01b038316600090815260208190526040902054818110156200031b5760405163391434e360e21b81526001600160a01b03851660048201526024810182905260448101839052606401620000c3565b6001600160a01b03841660009081526020819052604090209082900390555b6001600160a01b038216620003585760028054829003905562000377565b6001600160a01b03821660009081526020819052604090208054820190555b816001600160a01b0316836001600160a01b03167fddf252ad1be2c89b69c2b068fc378daa952ba7f163c4a11628f55a4df523b3ef83604051620003bd91815260200190565b60405180910390a3505050565b80516001600160a01b0381168114620003e257600080fd5b919050565b60008060008060808587031215620003fe57600080fd5b6200040985620003ca565b93506200041960208601620003ca565b92506200042960408601620003ca565b91506200043960608601620003ca565b905092959194509250565b634e487b7160e01b600052604160045260246000fd5b600181811c908216806200046f57607f821691505b6020821081036200049057634e487b7160e01b600052602260045260246000fd5b50919050565b601f821115620004e457600081815260208120601f850160051c81016020861015620004bf5750805b601f850160051c820191505b81811015620004e057828155600101620004cb565b5050505b505050565b81516001600160401b0381111562000505576200050562000444565b6200051d816200051684546200045a565b8462000496565b602080601f8311600181146200055557600084156200053c5750858301515b600019600386901b1c1916600185901b178555620004e0565b600085815260208120601f198616915b82811015620005865788860151825594840194600190910190840162000565565b5085821015620005a55787850151600019600388901b60f8161c191681555b5050505050600190811b01905550565b80820180821115620005d757634e487b7160e01b600052601160045260246000fd5b92915050565b608051612df6620006156000396000818161061c015281816111b10152818161172b015281816117fb01526118350152612df66000f3fe608060405234801561001057600080fd5b50600436106103d05760003560e01c80636ddd1713116101ff578063abb1dc441161011a578063e63ea408116100ad578063f14c002f1161007c578063f14c002f14610885578063f2fde38b14610898578063f51f96dd146108ab578063f8a69d8f146108b457600080fd5b8063e63ea40814610843578063ee99205c14610856578063eeeb757014610869578063f0f442601461087257600080fd5b8063c0f25903116100e9578063c0f25903146107ee578063c1b5ca55146107f7578063c905bb74146106ec578063dd62ed3e1461080a57600080fd5b8063abb1dc441461078d578063aea7544c146107c8578063b35e4ac7146106ec578063b41bdd92146107db57600080fd5b80638ea5220f1161019257806395d89b411161016157806395d89b411461074c5780639dd373b914610754578063a44a044114610767578063a9059cbb1461077a57600080fd5b80638ea5220f14610706578063902d55a51461071957806391ec5ef91461072c578063926282a51461073957600080fd5b80637b97008d116101ce5780637b97008d146106c657806386e396b4146106d95780638afbff8b146106ec5780638da5cb5b146106f557600080fd5b80636ddd17131461067557806370a0823114610682578063715018a6146106ab57806373acd5bb146106b357600080fd5b8063306a6968116102ef57806350547dd4116102825780635ca6dcaa116102515780635ca6dcaa1461044657806361d027b3146106465780636657687d146106595780636b58222e1461066257600080fd5b806350547dd4146105d157806353360a11146105f45780635996db91146106175780635b88349d1461063e57600080fd5b8063380ace60116102be578063380ace60146104465780633a04801d146105ac5780633e78f487146105b55780634b372480146105c857600080fd5b8063306a6968146104ff578063310dcfba14610569578063313ce5671461059457806333530480146105a357600080fd5b80632272aeee116103675780632b5b6872116103365780632b5b6872146104c85780632ca9ca44146104d05780632eccda94146104e357806330654a47146104f657600080fd5b80632272aeee1461047457806323b872dd1461047c5780632492dfd91461048f57806324b97c461461049857600080fd5b80631919fed7116103a35780631919fed714610431578063192a789a146104465780631d08cc591461044e5780631f53ac021461046157600080fd5b806303fe7d98146103d557806306fdde03146103f1578063095ea7b31461040657806318160ddd14610429575b600080fd5b6103de60115481565b6040519081526020015b60405180910390f35b6103f96108be565b6040516103e891906129c0565b610419610414366004612a25565b610950565b60405190151581526020016103e8565b6002546103de565b61044461043f366004612a4f565b61096a565b005b6103de610a03565b61044461045c366004612a25565b610a2b565b61044461046f366004612a68565b610bc9565b6103de610c76565b61041961048a366004612a8a565b610c91565b6103de60125481565b6104a0610cb5565b604080519586526020860194909452928401919091526060830152608082015260a0016103e8565b6103de610dce565b6104446104de366004612a25565b610de9565b6104446104f1366004612ad4565b611000565b6103de600b5481565b61053f61050d366004612a68565b600c60205260009081526040902080546001820154600283015460038401546004909401549293919290919060ff1685565b6040805195865260208601949094529284019190915260608301521515608082015260a0016103e8565b60185461057c906001600160a01b031681565b6040516001600160a01b0390911681526020016103e8565b604051601281526020016103e8565b6103de60135481565b6103de60175481565b6103de6105c3366004612a4f565b611049565b6103de6107d081565b6104196105df366004612a68565b600e6020526000908152604090205460ff1681565b610419610602366004612a68565b600d6020526000908152604090205460ff1681565b61057c7f000000000000000000000000000000000000000000000000000000000000000081565b610444611311565b600a5461057c906001600160a01b031681565b6103de60105481565b61053f610670366004612a68565b61149a565b6016546104199060ff1681565b6103de610690366004612a68565b6001600160a01b031660009081526020819052604090205490565b610444611540565b6104446106c1366004612a68565b611552565b6104446106d4366004612a4f565b6115b8565b6104446106e7366004612b3d565b61190e565b6103de6103e881565b6005546001600160a01b031661057c565b60095461057c906001600160a01b031681565b6103de680a18f07d736b90be55601d1b81565b6014546104199060ff1681565b610444610747366004612a4f565b611ca5565b6103f9611cf8565b610444610762366004612a68565b611d07565b610444610775366004612a4f565b611d67565b610419610788366004612a25565b611f63565b610795611f71565b604080519687526020870195909552921515938501939093526060840152901515608083015260a082015260c0016103e8565b6104446107d6366004612ba9565b611fd8565b6104446107e9366004612a25565b6120f6565b6103de61138881565b610444610805366004612b3d565b612289565b6103de610818366004612be7565b6001600160a01b03918216600090815260016020908152604080832093909416825291909152205490565b610444610851366004612a8a565b612377565b60075461057c906001600160a01b031681565b6103de600f5481565b610444610880366004612a68565b612439565b60085461057c906001600160a01b031681565b6104446108a6366004612a68565b6124e9565b6103de60155481565b6103de6276a70081565b6060600380546108cd90612c1a565b80601f01602080910402602001604051908101604052809291908181526020018280546108f990612c1a565b80156109465780601f1061091b57610100808354040283529160200191610946565b820191906000526020600020905b81548152906001019060200180831161092957829003601f168201915b5050505050905090565b60003361095e818585612524565b60019150505b92915050565b610972612531565b600081116109c75760405162461bcd60e51b815260206004820152601c60248201527f5072696365206d7573742062652067726561746572207468616e20300000000060448201526064015b60405180910390fd5b60158190556040518181527fcea63119cff1639d4025f83bcb53d0a83ec28083118640a8b15232903e8f3a84906020015b60405180910390a150565b612710610a1e6103e8680a18f07d736b90be55601d1b612c6a565b610a289190612c81565b81565b6007546001600160a01b03163314610a7d5760405162461bcd60e51b815260206004820152601560248201527413db9b1e481cdd185ada5b99c818dbdb9d1c9858dd605a1b60448201526064016109be565b6001600160a01b038216610aa35760405162461bcd60e51b81526004016109be90612ca3565b60008111610ac35760405162461bcd60e51b81526004016109be90612cce565b612710610ade6103e8680a18f07d736b90be55601d1b612c6a565b610ae89190612c81565b81601254610af69190612d05565b1115610b445760405162461bcd60e51b815260206004820152601a60248201527f45786365656473207374616b696e6720616c6c6f636174696f6e00000000000060448201526064016109be565b8060126000828254610b569190612d05565b90915550610b6690508282611f63565b610b825760405162461bcd60e51b81526004016109be90612d18565b816001600160a01b03167f6b12cf3543dbfc73ec7f45da6ff600fb4312174a7b9602c9444cca7c86da3a5b82604051610bbd91815260200190565b60405180910390a25050565b610bd1612531565b6001600160a01b038116610c1c5760405162461bcd60e51b8152602060048201526012602482015271125b9d985b1a590819195d881dd85b1b195d60721b60448201526064016109be565b600980546001600160a01b0319166001600160a01b038316908117825560408051818152908101929092526819195d9dd85b1b195d60ba1b60608301526020820152600080516020612da1833981519152906080016109f8565b612710610a1e611388680a18f07d736b90be55601d1b612c6a565b600033610c9f85828561255e565b610caa8585856125dd565b506001949350505050565b6000806000806000600f54612710611388680a18f07d736b90be55601d1b610cdd9190612c6a565b610ce79190612c81565b610cf19190612d41565b601054909550612710610d126107d0680a18f07d736b90be55601d1b612c6a565b610d1c9190612c81565b610d269190612d41565b601154909450612710610d476103e8680a18f07d736b90be55601d1b612c6a565b610d519190612c81565b610d5b9190612d41565b601254909350612710610d7c6103e8680a18f07d736b90be55601d1b612c6a565b610d869190612c81565b610d909190612d41565b601354909250612710610db16103e8680a18f07d736b90be55601d1b612c6a565b610dbb9190612c81565b610dc59190612d41565b90509091929394565b612710610a1e6107d0680a18f07d736b90be55601d1b612c6a565b610df1612531565b6001600160a01b038216610e175760405162461bcd60e51b81526004016109be90612ca3565b60008111610e375760405162461bcd60e51b81526004016109be90612cce565b612710610e526107d0680a18f07d736b90be55601d1b612c6a565b610e5c9190612c81565b81601054610e6a9190612d05565b1115610eb85760405162461bcd60e51b815260206004820152601a60248201527f457863656564732061697264726f7020616c6c6f636174696f6e00000000000060448201526064016109be565b6001600160a01b0382166000908152600c602052604090206004015460ff1615610f245760405162461bcd60e51b815260206004820152601960248201527f41697264726f7020616c7265616479207363686564756c65640000000000000060448201526064016109be565b6040805160a08101825282815260006020808301828152428486019081526276a700606086019081526001608087018181526001600160a01b038b168752600c90955296852095518655915195850195909555935160028401559251600383015591516004909101805460ff191691151591909117905560108054839290610fad908490612d05565b90915550506001600160a01b0382167f5d0eb18fe898f40461ef9033b712b75b2e8647090e6bc847632b7700cbf2d59982610feb6276a70042612d05565b60408051928352602083019190915201610bbd565b611008612531565b6014805460ff19168215159081179091556040519081527fc75413bb803e9f5f8572b10a8262838386a1bc5db1743ff399db4f5c32f4691e906020016109f8565b600061105361263c565b60165460ff1661109c5760405162461bcd60e51b815260206004820152601460248201527314ddd85c1c1a5b99c81a5cc8191a5cd8589b195960621b60448201526064016109be565b600082116110bc5760405162461bcd60e51b81526004016109be90612cce565b3360009081526020819052604090205482111561111b5760405162461bcd60e51b815260206004820152601a60248201527f496e73756666696369656e74204b414e44492062616c616e636500000000000060448201526064016109be565b60006127106017548461112e9190612c6a565b6111389190612c81565b90506111448184612d41565b9150611151333085610c91565b6111955760405162461bcd60e51b815260206004820152601560248201527412d0539112481d1c985b9cd9995c8819985a5b1959605a1b60448201526064016109be565b60405163a9059cbb60e01b8152336004820152602481018390527f00000000000000000000000000000000000000000000000000000000000000006001600160a01b03169063a9059cbb906044016020604051808303816000875af1158015611202573d6000803e3d6000fd5b505050506040513d601f19601f820116820180604052508101906112269190612d54565b6112685760405162461bcd60e51b815260206004820152601360248201527211d213c81d1c985b9cd9995c8819985a5b1959606a1b60448201526064016109be565b80156112c657601854611284906001600160a01b031682611f63565b6112c65760405162461bcd60e51b8152602060048201526013602482015272119959481d1c985b9cd9995c8819985a5b1959606a1b60448201526064016109be565b604080518481526020810184905233917fe9449a96519ef7cb5a2b8a4c6b3a1436a5c19072a04aefd635a726075404b630910160405180910390a25061130c6001600655565b919050565b61131961263c565b336000908152600c60205260409020600481015460ff166113705760405162461bcd60e51b815260206004820152601160248201527004e6f206163746976652061697264726f7607c1b60448201526064016109be565b806003015481600201546113849190612d05565b4210156113c95760405162461bcd60e51b8152602060048201526013602482015272151bdad95b9cc81cdd1a5b1b081b1bd8dad959606a1b60448201526064016109be565b80546001820154106114155760405162461bcd60e51b8152602060048201526015602482015274105b1c9958591e48199d5b1b1e4818db185a5b5959605a1b60448201526064016109be565b6001810154815460009161142891612d41565b82546001840155905061143b3382611f63565b6114575760405162461bcd60e51b81526004016109be90612d18565b60405181815233907f650e45f04ef8a0c267b2f78d983913f69ae3a353b2b32de5429307522be0ab559060200160405180910390a250506114986001600655565b565b6001600160a01b0381166000908152600c60209081526040808320815160a08101835281548082526001830154948201859052600283015493820184905260038301546060830181905260049093015460ff1615156080830152949283928392916115059190612d05565b92508060800151915081801561151b5750824210155b156115315761152a8587612d41565b9350611536565b600093505b5091939590929450565b611548612531565b6114986000612666565b61155a612531565b600880546001600160a01b0319166001600160a01b038316908117909155604080518181526007918101919091526631b432b1b5b4b760c91b60608201526020810191909152600080516020612da1833981519152906080016109f8565b6115c061263c565b60145460ff166116125760405162461bcd60e51b815260206004820152601760248201527f4f70656e2073616c65206973206e6f742061637469766500000000000000000060448201526064016109be565b600081116116325760405162461bcd60e51b81526004016109be90612cce565b6000601554116116795760405162461bcd60e51b815260206004820152601260248201527114d85b19481c1c9a58d9481b9bdd081cd95d60721b60448201526064016109be565b60155460009061169183670de0b6b3a7640000612c6a565b61169b9190612c81565b90506127106116b8611388680a18f07d736b90be55601d1b612c6a565b6116c29190612c81565b81600f546116d09190612d05565b111561171e5760405162461bcd60e51b815260206004820152601c60248201527f45786365656473206f70656e2073616c6520616c6c6f636174696f6e0000000060448201526064016109be565b6117536001600160a01b037f0000000000000000000000000000000000000000000000000000000000000000163330856126b8565b6000612710600b54846117669190612c6a565b6117709190612c81565b9050600061177e8285612d41565b600a549091506001600160a01b0316158015906117a557506009546001600160a01b031615155b6117ea5760405162461bcd60e51b8152602060048201526016602482015275119959481c9958da5c1a595b9d1cc81b9bdd081cd95d60521b60448201526064016109be565b600a54611824906001600160a01b037f0000000000000000000000000000000000000000000000000000000000000000811691168461271f565b60095461185e906001600160a01b037f0000000000000000000000000000000000000000000000000000000000000000811691168361271f565b6118683384611f63565b6118ac5760405162461bcd60e51b815260206004820152601560248201527412d0539112481d1c985b9cd9995c8819985a5b1959605a1b60448201526064016109be565b82600f60008282546118be9190612d05565b9091555050604080518581526020810185905233917f0247061e3be60cac4fe6f65a3d7c8ae719a1d12dc2cf26f67398f5e954842ed1910160405180910390a250505061190b6001600655565b50565b611916612531565b82811461195e5760405162461bcd60e51b8152602060048201526016602482015275082e4e4c2f2e640d8cadccee8d040dad2e6dac2e8c6d60531b60448201526064016109be565b8261199a5760405162461bcd60e51b815260206004820152600c60248201526b456d7074792061727261797360a01b60448201526064016109be565b6000805b828110156119de578383828181106119b8576119b8612d71565b90506020020135826119ca9190612d05565b9150806119d681612d87565b91505061199e565b506127106119fa6107d0680a18f07d736b90be55601d1b612c6a565b611a049190612c81565b81601054611a129190612d05565b1115611a605760405162461bcd60e51b815260206004820152601a60248201527f457863656564732061697264726f7020616c6c6f636174696f6e00000000000060448201526064016109be565b60005b84811015611c86576000868683818110611a7f57611a7f612d71565b9050602002016020810190611a949190612a68565b6001600160a01b031614158015611ac357506000848483818110611aba57611aba612d71565b90506020020135115b8015611b175750600c6000878784818110611ae057611ae0612d71565b9050602002016020810190611af59190612a68565b6001600160a01b0316815260208101919091526040016000206004015460ff16155b15611c74576040518060a00160405280858584818110611b3957611b39612d71565b905060200201358152602001600081526020014281526020016276a700815260200160011515815250600c6000888885818110611b7857611b78612d71565b9050602002016020810190611b8d9190612a68565b6001600160a01b031681526020808201929092526040908101600020835181559183015160018301558201516002820155606082015160038201556080909101516004909101805460ff1916911515919091179055858582818110611bf457611bf4612d71565b9050602002016020810190611c099190612a68565b6001600160a01b03167f5d0eb18fe898f40461ef9033b712b75b2e8647090e6bc847632b7700cbf2d599858584818110611c4557611c45612d71565b905060200201356276a70042611c5b9190612d05565b6040805192835260208301919091520160405180910390a25b80611c7e81612d87565b915050611a63565b508060106000828254611c999190612d05565b90915550505050505050565b611cad612531565b612710811115611cf35760405162461bcd60e51b8152602060048201526011602482015270496e76616c69642073706c69742062707360781b60448201526064016109be565b600b55565b6060600480546108cd90612c1a565b611d0f612531565b600780546001600160a01b0319166001600160a01b03831690811782556040805181815290810192909252667374616b696e6760c81b60608301526020820152600080516020612da1833981519152906080016109f8565b611d6f61263c565b336000908152600d602052604090205460ff16611dd95760405162461bcd60e51b815260206004820152602260248201527f4e6f7420656c696769626c6520666f7220466172636173746572207265776172604482015261647360f01b60648201526084016109be565b336000908152600e602052604090205460ff1615611e2b5760405162461bcd60e51b815260206004820152600f60248201526e105b1c9958591e4818db185a5b5959608a1b60448201526064016109be565b60008111611e4b5760405162461bcd60e51b81526004016109be90612cce565b612710611e666103e8680a18f07d736b90be55601d1b612c6a565b611e709190612c81565b81601154611e7e9190612d05565b1115611ecc5760405162461bcd60e51b815260206004820152601c60248201527f457863656564732046617263617374657220616c6c6f636174696f6e0000000060448201526064016109be565b336000908152600e60205260408120805460ff1916600117905560118054839290611ef8908490612d05565b90915550611f0890503382611f63565b611f245760405162461bcd60e51b81526004016109be90612d18565b60405181815233907f2bb323c274d91762c506348de30d99f109fadd6957d17e33eec6bbaf9670ccab9060200160405180910390a261190b6001600655565b60003361095e8185856125dd565b600080600080600080680a18f07d736b90be55601d1b611fa6306001600160a01b031660009081526020819052604090205490565b600254611fb39190612d41565b601454601554601654601754949b939a5060ff92831699509097501694509092509050565b611fe0612531565b6103e88211156120325760405162461bcd60e51b815260206004820152601b60248201527f466565207261746520746f6f206869676820286d61782031302529000000000060448201526064016109be565b6001600160a01b03811661207f5760405162461bcd60e51b815260206004820152601460248201527324b73b30b634b2103332b2903932b1b2b4bb32b960611b60448201526064016109be565b6016805460ff19168415159081179091556017839055601880546001600160a01b0319166001600160a01b03841690811790915560408051928352602083018590528201527fa317fd95924b8bb1c9889d38f198f6c4811104ffad60bf17987861aa9d24f1019060600160405180910390a1505050565b6008546001600160a01b031633146121495760405162461bcd60e51b815260206004820152601660248201527513db9b1e4818da1958dacb5a5b8818dbdb9d1c9858dd60521b60448201526064016109be565b6001600160a01b03821661216f5760405162461bcd60e51b81526004016109be90612ca3565b6000811161218f5760405162461bcd60e51b81526004016109be90612cce565b6127106121aa6103e8680a18f07d736b90be55601d1b612c6a565b6121b49190612c81565b816013546121c29190612d05565b11156122105760405162461bcd60e51b815260206004820152601b60248201527f4578636565647320636865636b2d696e20616c6c6f636174696f6e000000000060448201526064016109be565b80601360008282546122229190612d05565b9091555061223290508282611f63565b61224e5760405162461bcd60e51b81526004016109be90612d18565b816001600160a01b03167fb32389ddd21e19111761e6cb61dc268dad1ff6adab608bf529e73fe1b109964082604051610bbd91815260200190565b612291612531565b8281146122d95760405162461bcd60e51b8152602060048201526016602482015275082e4e4c2f2e640d8cadccee8d040dad2e6dac2e8c6d60531b60448201526064016109be565b60005b83811015612370578282828181106122f6576122f6612d71565b905060200201602081019061230b9190612ad4565b600d600087878581811061232157612321612d71565b90506020020160208101906123369190612a68565b6001600160a01b031681526020810191909152604001600020805460ff19169115159190911790558061236881612d87565b9150506122dc565b5050505050565b61237f612531565b6001600160a01b0382166123a55760405162461bcd60e51b81526004016109be90612ca3565b60405163a9059cbb60e01b81526001600160a01b0383811660048301526024820183905284169063a9059cbb906044016020604051808303816000875af11580156123f4573d6000803e3d6000fd5b505050506040513d601f19601f820116820180604052508101906124189190612d54565b6124345760405162461bcd60e51b81526004016109be90612d18565b505050565b612441612531565b6001600160a01b03811661248a5760405162461bcd60e51b815260206004820152601060248201526f496e76616c696420747265617375727960801b60448201526064016109be565b600a80546001600160a01b0319166001600160a01b0383169081179091556040805181815260089181019190915267747265617375727960c01b60608201526020810191909152600080516020612da1833981519152906080016109f8565b6124f1612531565b6001600160a01b03811661251b57604051631e4fbdf760e01b8152600060048201526024016109be565b61190b81612666565b6124348383836001612750565b6005546001600160a01b031633146114985760405163118cdaa760e01b81523360048201526024016109be565b6001600160a01b038381166000908152600160209081526040808320938616835292905220546000198110156125d757818110156125c857604051637dc7a0d960e11b81526001600160a01b038416600482015260248101829052604481018390526064016109be565b6125d784848484036000612750565b50505050565b6001600160a01b03831661260757604051634b637e8f60e11b8152600060048201526024016109be565b6001600160a01b0382166126315760405163ec442f0560e01b8152600060048201526024016109be565b612434838383612825565b60026006540361265f57604051633ee5aeb560e01b815260040160405180910390fd5b6002600655565b600580546001600160a01b038381166001600160a01b0319831681179093556040519116919082907f8be0079c531659141344cd1fd0a4f28419497f9722a3daafe3b4186f6b6457e090600090a35050565b6040516001600160a01b0384811660248301528381166044830152606482018390526125d79186918216906323b872dd906084015b604051602081830303815290604052915060e01b6020820180516001600160e01b03838183161783525050505061294f565b6040516001600160a01b0383811660248301526044820183905261243491859182169063a9059cbb906064016126ed565b6001600160a01b03841661277a5760405163e602df0560e01b8152600060048201526024016109be565b6001600160a01b0383166127a457604051634a1406b160e11b8152600060048201526024016109be565b6001600160a01b03808516600090815260016020908152604080832093871683529290522082905580156125d757826001600160a01b0316846001600160a01b03167f8c5be1e5ebec7d5bd14f71427d1e84f3dd0314c0f7b2291e5b200ac8c7c3b9258460405161281791815260200190565b60405180910390a350505050565b6001600160a01b0383166128505780600260008282546128459190612d05565b909155506128c29050565b6001600160a01b038316600090815260208190526040902054818110156128a35760405163391434e360e21b81526001600160a01b038516600482015260248101829052604481018390526064016109be565b6001600160a01b03841660009081526020819052604090209082900390555b6001600160a01b0382166128de576002805482900390556128fd565b6001600160a01b03821660009081526020819052604090208054820190555b816001600160a01b0316836001600160a01b03167fddf252ad1be2c89b69c2b068fc378daa952ba7f163c4a11628f55a4df523b3ef8360405161294291815260200190565b60405180910390a3505050565b600080602060008451602086016000885af180612972576040513d6000823e3d81fd5b50506000513d9150811561298a578060011415612997565b6001600160a01b0384163b155b156125d757604051635274afe760e01b81526001600160a01b03851660048201526024016109be565b600060208083528351808285015260005b818110156129ed578581018301518582016040015282016129d1565b506000604082860101526040601f19601f8301168501019250505092915050565b80356001600160a01b038116811461130c57600080fd5b60008060408385031215612a3857600080fd5b612a4183612a0e565b946020939093013593505050565b600060208284031215612a6157600080fd5b5035919050565b600060208284031215612a7a57600080fd5b612a8382612a0e565b9392505050565b600080600060608486031215612a9f57600080fd5b612aa884612a0e565b9250612ab660208501612a0e565b9150604084013590509250925092565b801515811461190b57600080fd5b600060208284031215612ae657600080fd5b8135612a8381612ac6565b60008083601f840112612b0357600080fd5b50813567ffffffffffffffff811115612b1b57600080fd5b6020830191508360208260051b8501011115612b3657600080fd5b9250929050565b60008060008060408587031215612b5357600080fd5b843567ffffffffffffffff80821115612b6b57600080fd5b612b7788838901612af1565b90965094506020870135915080821115612b9057600080fd5b50612b9d87828801612af1565b95989497509550505050565b600080600060608486031215612bbe57600080fd5b8335612bc981612ac6565b925060208401359150612bde60408501612a0e565b90509250925092565b60008060408385031215612bfa57600080fd5b612c0383612a0e565b9150612c1160208401612a0e565b90509250929050565b600181811c90821680612c2e57607f821691505b602082108103612c4e57634e487b7160e01b600052602260045260246000fd5b50919050565b634e487b7160e01b600052601160045260246000fd5b808202811582820484141761096457610964612c54565b600082612c9e57634e487b7160e01b600052601260045260246000fd5b500490565b602080825260119082015270125b9d985b1a59081c9958da5c1a595b9d607a1b604082015260600190565b6020808252601d908201527f416d6f756e74206d7573742062652067726561746572207468616e2030000000604082015260600190565b8082018082111561096457610964612c54565b6020808252600f908201526e151c985b9cd9995c8819985a5b1959608a1b604082015260600190565b8181038181111561096457610964612c54565b600060208284031215612d6657600080fd5b8151612a8381612ac6565b634e487b7160e01b600052603260045260246000fd5b600060018201612d9957612d99612c54565b506001019056fea42de6429c1410f4470a8ff5afeeae27c734519ac1693e8eb58798a81715c947a2646970667358221220263eaf82a8c245dc7af1a52d3e371fa82991881120564144d4f9fa81c81b532364736f6c63430008140033",
  "linkReferences": {},
  "deployedLinkReferences": {}
}