{
  "_format": "hh-sol-artifact-1",
  "contractName": "ERC222NFT",
  "sourceName": "contracts/ERC222NFT.sol",
  "abi": [
    {
      "inputs": [
        {
          "internalType": "string",
          "name": "name_",
          "type": "string"
        },
        {
          "internalType": "string",
          "name": "symbol_",
          "type": "string"
        },
        {
          "internalType": "string",
          "name": "songName_",
          "type": "string"
        },
        {
          "internalType": "uint256",
          "name": "maxSupply_",
          "type": "uint256"
        },
        {
          "internalType": "string",
          "name": "baseURI_",
          "type": "string"
        },
        {
          "internalType": "address",
          "name": "royaltyReceiver_",
          "type": "address"
        },
        {
          "internalType": "uint96",
          "name": "royaltyFeeNumerator_",
          "type": "uint96"
        }
      ],
      "stateMutability": "nonpayable",
      "type": "constructor"
    },
    {
      "inputs": [],
      "name": "ApprovalCallerNotOwnerNorApproved",
      "type": "error"
    },
    {
      "inputs": [],
      "name": "ApprovalQueryForNonexistentToken",
      "type": "error"
    },
    {
      "inputs": [],
      "name": "BalanceQueryForZeroAddress",
      "type": "error"
    },
    {
      "inputs": [],
      "name": "MintERC2309QuantityExceedsLimit",
      "type": "error"
    },
    {
      "inputs": [],
      "name": "MintToZeroAddress",
      "type": "error"
    },
    {
      "inputs": [],
      "name": "MintZeroQuantity",
      "type": "error"
    },
    {
      "inputs": [],
      "name": "NotCompatibleWithSpotMints",
      "type": "error"
    },
    {
      "inputs": [
        {
          "internalType": "address",
          "name": "owner",
          "type": "address"
        }
      ],
      "name": "OwnableInvalidOwner",
      "type": "error"
    },
    {
      "inputs": [
        {
          "internalType": "address",
          "name": "account",
          "type": "address"
        }
      ],
      "name": "OwnableUnauthorizedAccount",
      "type": "error"
    },
    {
      "inputs": [],
      "name": "OwnerQueryForNonexistentToken",
      "type": "error"
    },
    {
      "inputs": [],
      "name": "OwnershipNotInitializedForExtraData",
      "type": "error"
    },
    {
      "inputs": [],
      "name": "ReentrancyGuardReentrantCall",
      "type": "error"
    },
    {
      "inputs": [],
      "name": "SequentialMintExceedsLimit",
      "type": "error"
    },
    {
      "inputs": [],
      "name": "SequentialUpToTooSmall",
      "type": "error"
    },
    {
      "inputs": [],
      "name": "SpotMintTokenIdTooSmall",
      "type": "error"
    },
    {
      "inputs": [],
      "name": "TokenAlreadyExists",
      "type": "error"
    },
    {
      "inputs": [],
      "name": "TransferCallerNotOwnerNorApproved",
      "type": "error"
    },
    {
      "inputs": [],
      "name": "TransferFromIncorrectOwner",
      "type": "error"
    },
    {
      "inputs": [],
      "name": "TransferToNonERC721ReceiverImplementer",
      "type": "error"
    },
    {
      "inputs": [],
      "name": "TransferToZeroAddress",
      "type": "error"
    },
    {
      "inputs": [],
      "name": "URIQueryForNonexistentToken",
      "type": "error"
    },
    {
      "anonymous": false,
      "inputs": [
        {
          "indexed": true,
          "internalType": "address",
          "name": "owner",
          "type": "address"
        },
        {
          "indexed": true,
          "internalType": "address",
          "name": "approved",
          "type": "address"
        },
        {
          "indexed": true,
          "internalType": "uint256",
          "name": "tokenId",
          "type": "uint256"
        }
      ],
      "name": "Approval",
      "type": "event"
    },
    {
      "anonymous": false,
      "inputs": [
        {
          "indexed": true,
          "internalType": "address",
          "name": "owner",
          "type": "address"
        },
        {
          "indexed": true,
          "internalType": "address",
          "name": "operator",
          "type": "address"
        },
        {
          "indexed": false,
          "internalType": "bool",
          "name": "approved",
          "type": "bool"
        }
      ],
      "name": "ApprovalForAll",
      "type": "event"
    },
    {
      "anonymous": false,
      "inputs": [
        {
          "indexed": false,
          "internalType": "string",
          "name": "newBaseURI",
          "type": "string"
        }
      ],
      "name": "BaseURIUpdated",
      "type": "event"
    },
    {
      "anonymous": false,
      "inputs": [
        {
          "indexed": true,
          "internalType": "uint256",
          "name": "fromTokenId",
          "type": "uint256"
        },
        {
          "indexed": false,
          "internalType": "uint256",
          "name": "toTokenId",
          "type": "uint256"
        },
        {
          "indexed": true,
          "internalType": "address",
          "name": "from",
          "type": "address"
        },
        {
          "indexed": true,
          "internalType": "address",
          "name": "to",
          "type": "address"
        }
      ],
      "name": "ConsecutiveTransfer",
      "type": "event"
    },
    {
      "anonymous": false,
      "inputs": [
        {
          "indexed": true,
          "internalType": "address",
          "name": "from",
          "type": "address"
        },
        {
          "indexed": true,
          "internalType": "uint256",
          "name": "tokenId",
          "type": "uint256"
        }
      ],
      "name": "NFTDepositedToVault",
      "type": "event"
    },
    {
      "anonymous": false,
      "inputs": [
        {
          "indexed": true,
          "internalType": "address",
          "name": "to",
          "type": "address"
        },
        {
          "indexed": true,
          "internalType": "uint256",
          "name": "tokenId",
          "type": "uint256"
        },
        {
          "indexed": false,
          "internalType": "uint256",
          "name": "quantity",
          "type": "uint256"
        }
      ],
      "name": "NFTMinted",
      "type": "event"
    },
    {
      "anonymous": false,
      "inputs": [
        {
          "indexed": true,
          "internalType": "address",
          "name": "previousOwner",
          "type": "address"
        },
        {
          "indexed": true,
          "internalType": "address",
          "name": "newOwner",
          "type": "address"
        }
      ],
      "name": "OwnershipTransferred",
      "type": "event"
    },
    {
      "anonymous": false,
      "inputs": [
        {
          "indexed": true,
          "internalType": "address",
          "name": "receiver",
          "type": "address"
        },
        {
          "indexed": false,
          "internalType": "uint96",
          "name": "feeNumerator",
          "type": "uint96"
        }
      ],
      "name": "RoyaltyUpdated",
      "type": "event"
    },
    {
      "anonymous": false,
      "inputs": [
        {
          "indexed": true,
          "internalType": "address",
          "name": "from",
          "type": "address"
        },
        {
          "indexed": true,
          "internalType": "address",
          "name": "to",
          "type": "address"
        },
        {
          "indexed": true,
          "internalType": "uint256",
          "name": "tokenId",
          "type": "uint256"
        }
      ],
      "name": "Transfer",
      "type": "event"
    },
    {
      "anonymous": false,
      "inputs": [
        {
          "indexed": true,
          "internalType": "address",
          "name": "oldVault",
          "type": "address"
        },
        {
          "indexed": true,
          "internalType": "address",
          "name": "newVault",
          "type": "address"
        }
      ],
      "name": "VaultContractUpdated",
      "type": "event"
    },
    {
      "inputs": [],
      "name": "MAX_SUPPLY",
      "outputs": [
        {
          "internalType": "uint256",
          "name": "",
          "type": "uint256"
        }
      ],
      "stateMutability": "view",
      "type": "function"
    },
    {
      "inputs": [
        {
          "internalType": "address",
          "name": "to",
          "type": "address"
        },
        {
          "internalType": "uint256",
          "name": "tokenId",
          "type": "uint256"
        }
      ],
      "name": "approve",
      "outputs": [],
      "stateMutability": "payable",
      "type": "function"
    },
    {
      "inputs": [],
      "name": "availableToMint",
      "outputs": [
        {
          "internalType": "uint256",
          "name": "",
          "type": "uint256"
        }
      ],
      "stateMutability": "view",
      "type": "function"
    },
    {
      "inputs": [
        {
          "internalType": "address",
          "name": "owner",
          "type": "address"
        }
      ],
      "name": "balanceOf",
      "outputs": [
        {
          "internalType": "uint256",
          "name": "",
          "type": "uint256"
        }
      ],
      "stateMutability": "view",
      "type": "function"
    },
    {
      "inputs": [
        {
          "internalType": "address[]",
          "name": "recipients",
          "type": "address[]"
        },
        {
          "internalType": "uint256[]",
          "name": "quantities",
          "type": "uint256[]"
        }
      ],
      "name": "batchMint",
      "outputs": [],
      "stateMutability": "nonpayable",
      "type": "function"
    },
    {
      "inputs": [
        {
          "internalType": "uint256",
          "name": "tokenId",
          "type": "uint256"
        }
      ],
      "name": "depositToVault",
      "outputs": [],
      "stateMutability": "nonpayable",
      "type": "function"
    },
    {
      "inputs": [
        {
          "internalType": "uint256",
          "name": "tokenId",
          "type": "uint256"
        }
      ],
      "name": "getApproved",
      "outputs": [
        {
          "internalType": "address",
          "name": "",
          "type": "address"
        }
      ],
      "stateMutability": "view",
      "type": "function"
    },
    {
      "inputs": [
        {
          "internalType": "address",
          "name": "owner",
          "type": "address"
        },
        {
          "internalType": "address",
          "name": "operator",
          "type": "address"
        }
      ],
      "name": "isApprovedForAll",
      "outputs": [
        {
          "internalType": "bool",
          "name": "",
          "type": "bool"
        }
      ],
      "stateMutability": "view",
      "type": "function"
    },
    {
      "inputs": [
        {
          "internalType": "address",
          "name": "to",
          "type": "address"
        },
        {
          "internalType": "uint256",
          "name": "quantity",
          "type": "uint256"
        }
      ],
      "name": "mint",
      "outputs": [],
      "stateMutability": "nonpayable",
      "type": "function"
    },
    {
      "inputs": [],
      "name": "name",
      "outputs": [
        {
          "internalType": "string",
          "name": "",
          "type": "string"
        }
      ],
      "stateMutability": "view",
      "type": "function"
    },
    {
      "inputs": [],
      "name": "owner",
      "outputs": [
        {
          "internalType": "address",
          "name": "",
          "type": "address"
        }
      ],
      "stateMutability": "view",
      "type": "function"
    },
    {
      "inputs": [
        {
          "internalType": "uint256",
          "name": "tokenId",
          "type": "uint256"
        }
      ],
      "name": "ownerOf",
      "outputs": [
        {
          "internalType": "address",
          "name": "",
          "type": "address"
        }
      ],
      "stateMutability": "view",
      "type": "function"
    },
    {
      "inputs": [],
      "name": "renounceOwnership",
      "outputs": [],
      "stateMutability": "nonpayable",
      "type": "function"
    },
    {
      "inputs": [],
      "name": "royaltyFeeNumerator",
      "outputs": [
        {
          "internalType": "uint96",
          "name": "",
          "type": "uint96"
        }
      ],
      "stateMutability": "view",
      "type": "function"
    },
    {
      "inputs": [
        {
          "internalType": "uint256",
          "name": "tokenId",
          "type": "uint256"
        },
        {
          "internalType": "uint256",
          "name": "salePrice",
          "type": "uint256"
        }
      ],
      "name": "royaltyInfo",
      "outputs": [
        {
          "internalType": "address",
          "name": "receiver",
          "type": "address"
        },
        {
          "internalType": "uint256",
          "name": "royaltyAmount",
          "type": "uint256"
        }
      ],
      "stateMutability": "view",
      "type": "function"
    },
    {
      "inputs": [],
      "name": "royaltyReceiver",
      "outputs": [
        {
          "internalType": "address",
          "name": "",
          "type": "address"
        }
      ],
      "stateMutability": "view",
      "type": "function"
    },
    {
      "inputs": [
        {
          "internalType": "address",
          "name": "from",
          "type": "address"
        },
        {
          "internalType": "address",
          "name": "to",
          "type": "address"
        },
        {
          "internalType": "uint256",
          "name": "tokenId",
          "type": "uint256"
        }
      ],
      "name": "safeTransferFrom",
      "outputs": [],
      "stateMutability": "payable",
      "type": "function"
    },
    {
      "inputs": [
        {
          "internalType": "address",
          "name": "from",
          "type": "address"
        },
        {
          "internalType": "address",
          "name": "to",
          "type": "address"
        },
        {
          "internalType": "uint256",
          "name": "tokenId",
          "type": "uint256"
        },
        {
          "internalType": "bytes",
          "name": "_data",
          "type": "bytes"
        }
      ],
      "name": "safeTransferFrom",
      "outputs": [],
      "stateMutability": "payable",
      "type": "function"
    },
    {
      "inputs": [
        {
          "internalType": "address",
          "name": "operator",
          "type": "address"
        },
        {
          "internalType": "bool",
          "name": "approved",
          "type": "bool"
        }
      ],
      "name": "setApprovalForAll",
      "outputs": [],
      "stateMutability": "nonpayable",
      "type": "function"
    },
    {
      "inputs": [
        {
          "internalType": "string",
          "name": "newBaseURI",
          "type": "string"
        }
      ],
      "name": "setBaseURI",
      "outputs": [],
      "stateMutability": "nonpayable",
      "type": "function"
    },
    {
      "inputs": [
        {
          "internalType": "address",
          "name": "receiver",
          "type": "address"
        },
        {
          "internalType": "uint96",
          "name": "feeNumerator",
          "type": "uint96"
        }
      ],
      "name": "setRoyalty",
      "outputs": [],
      "stateMutability": "nonpayable",
      "type": "function"
    },
    {
      "inputs": [
        {
          "internalType": "address",
          "name": "newVault",
          "type": "address"
        }
      ],
      "name": "setVaultContract",
      "outputs": [],
      "stateMutability": "nonpayable",
      "type": "function"
    },
    {
      "inputs": [],
      "name": "songName",
      "outputs": [
        {
          "internalType": "string",
          "name": "",
          "type": "string"
        }
      ],
      "stateMutability": "view",
      "type": "function"
    },
    {
      "inputs": [
        {
          "internalType": "bytes4",
          "name": "interfaceId",
          "type": "bytes4"
        }
      ],
      "name": "supportsInterface",
      "outputs": [
        {
          "internalType": "bool",
          "name": "",
          "type": "bool"
        }
      ],
      "stateMutability": "view",
      "type": "function"
    },
    {
      "inputs": [],
      "name": "symbol",
      "outputs": [
        {
          "internalType": "string",
          "name": "",
          "type": "string"
        }
      ],
      "stateMutability": "view",
      "type": "function"
    },
    {
      "inputs": [
        {
          "internalType": "uint256",
          "name": "tokenId",
          "type": "uint256"
        }
      ],
      "name": "tokenURI",
      "outputs": [
        {
          "internalType": "string",
          "name": "",
          "type": "string"
        }
      ],
      "stateMutability": "view",
      "type": "function"
    },
    {
      "inputs": [],
      "name": "totalMinted",
      "outputs": [
        {
          "internalType": "uint256",
          "name": "",
          "type": "uint256"
        }
      ],
      "stateMutability": "view",
      "type": "function"
    },
    {
      "inputs": [],
      "name": "totalSupply",
      "outputs": [
        {
          "internalType": "uint256",
          "name": "result",
          "type": "uint256"
        }
      ],
      "stateMutability": "view",
      "type": "function"
    },
    {
      "inputs": [
        {
          "internalType": "address",
          "name": "from",
          "type": "address"
        },
        {
          "internalType": "address",
          "name": "to",
          "type": "address"
        },
        {
          "internalType": "uint256",
          "name": "tokenId",
          "type": "uint256"
        }
      ],
      "name": "transferFrom",
      "outputs": [],
      "stateMutability": "payable",
      "type": "function"
    },
    {
      "inputs": [
        {
          "internalType": "address",
          "name": "newOwner",
          "type": "address"
        }
      ],
      "name": "transferOwnership",
      "outputs": [],
      "stateMutability": "nonpayable",
      "type": "function"
    },
    {
      "inputs": [],
      "name": "vaultContract",
      "outputs": [
        {
          "internalType": "address",
          "name": "",
          "type": "address"
        }
      ],
      "stateMutability": "view",
      "type": "function"
    }
  ],
  "bytecode": "0x60a06040523480156200001157600080fd5b506040516200255038038062002550833981016040819052620000349162000397565b33878760026200004583826200050e565b5060036200005482826200050e565b50600160005550506001600160a01b0381166200008c57604051631e4fbdf760e01b8152600060048201526024015b60405180910390fd5b62000097816200024b565b506001600a5583620000f65760405162461bcd60e51b815260206004820152602160248201527f4d617820737570706c79206d7573742062652067726561746572207468616e206044820152600360fc1b606482015260840162000083565b6000855111620001495760405162461bcd60e51b815260206004820152601960248201527f536f6e67206e616d652063616e6e6f7420626520656d70747900000000000000604482015260640162000083565b6001600160a01b038216620001a15760405162461bcd60e51b815260206004820152601860248201527f496e76616c696420726f79616c74792072656365697665720000000000000000604482015260640162000083565b612710816001600160601b03161115620001fe5760405162461bcd60e51b815260206004820152601460248201527f526f79616c74792066656520746f6f2068696768000000000000000000000000604482015260640162000083565b6080849052600b6200021186826200050e565b50600c6200022084826200050e565b506001600160601b0316600160a01b026001600160a01b0390911617600d5550620005da9350505050565b600980546001600160a01b038381166001600160a01b0319831681179093556040519116919082907f8be0079c531659141344cd1fd0a4f28419497f9722a3daafe3b4186f6b6457e090600090a35050565b634e487b7160e01b600052604160045260246000fd5b600082601f830112620002c557600080fd5b81516001600160401b0380821115620002e257620002e26200029d565b604051601f8301601f19908116603f011681019082821181831017156200030d576200030d6200029d565b816040528381526020925086838588010111156200032a57600080fd5b600091505b838210156200034e57858201830151818301840152908201906200032f565b600093810190920192909252949350505050565b80516001600160a01b03811681146200037a57600080fd5b919050565b80516001600160601b03811681146200037a57600080fd5b600080600080600080600060e0888a031215620003b357600080fd5b87516001600160401b0380821115620003cb57600080fd5b620003d98b838c01620002b3565b985060208a0151915080821115620003f057600080fd5b620003fe8b838c01620002b3565b975060408a01519150808211156200041557600080fd5b620004238b838c01620002b3565b965060608a0151955060808a01519150808211156200044157600080fd5b50620004508a828b01620002b3565b9350506200046160a0890162000362565b91506200047160c089016200037f565b905092959891949750929550565b600181811c908216806200049457607f821691505b602082108103620004b557634e487b7160e01b600052602260045260246000fd5b50919050565b601f8211156200050957600081815260208120601f850160051c81016020861015620004e45750805b601f850160051c820191505b818110156200050557828155600101620004f0565b5050505b505050565b81516001600160401b038111156200052a576200052a6200029d565b62000542816200053b84546200047f565b84620004bb565b602080601f8311600181146200057a5760008415620005615750858301515b600019600386901b1c1916600185901b17855562000505565b600085815260208120601f198616915b82811015620005ab578886015182559484019460019091019084016200058a565b5085821015620005ca5787850151600019600388901b60f8161c191681555b5050505050600190811b01905550565b608051611f456200060b600039600081816103280152818161096601528181610b860152610dba0152611f456000f3fe6080604052600436106101d85760003560e01c8063715018a6116101025780639fbc871311610095578063b88d4fde11610064578063b88d4fde14610563578063c87b56dd14610576578063e985e9c514610596578063f2fde38b146105b657600080fd5b80639fbc8713146104ee578063a22cb4651461050e578063a2309ff81461052e578063b04622961461054357600080fd5b80638f2fc60b116100d15780638f2fc60b1461048457806395d89b41146104a457806396cd06f8146104b957806396f4ada6146104ce57600080fd5b8063715018a6146103fd57806374601c3c1461041257806381ddcc1f146104275780638da5cb5b1461046657600080fd5b80632a55205a1161017a57806355f804b31161014957806355f804b31461037d5780636352211e1461039d57806368573107146103bd57806370a08231146103dd57600080fd5b80632a55205a146102d757806332cb6b0c1461031657806340c10f191461034a57806342842e0e1461036a57600080fd5b8063095ea7b3116101b6578063095ea7b31461026c57806318160ddd146102815780632274346b146102a457806323b872dd146102c457600080fd5b806301ffc9a7146101dd57806306fdde0314610212578063081812fc14610234575b600080fd5b3480156101e957600080fd5b506101fd6101f836600461184f565b6105d6565b60405190151581526020015b60405180910390f35b34801561021e57600080fd5b50610227610601565b60405161020991906118bc565b34801561024057600080fd5b5061025461024f3660046118cf565b610693565b6040516001600160a01b039091168152602001610209565b61027f61027a3660046118ff565b6106ce565b005b34801561028d57600080fd5b506102966106de565b604051908152602001610209565b3480156102b057600080fd5b50600e54610254906001600160a01b031681565b61027f6102d2366004611929565b6106fd565b3480156102e357600080fd5b506102f76102f2366004611965565b61086f565b604080516001600160a01b039093168352602083019190915201610209565b34801561032257600080fd5b506102967f000000000000000000000000000000000000000000000000000000000000000081565b34801561035657600080fd5b5061027f6103653660046118ff565b6108b1565b61027f610378366004611929565b610a35565b34801561038957600080fd5b5061027f610398366004611987565b610a55565b3480156103a957600080fd5b506102546103b83660046118cf565b610aa8565b3480156103c957600080fd5b5061027f6103d8366004611a45565b610ab3565b3480156103e957600080fd5b506102966103f8366004611ab1565b610d50565b34801561040957600080fd5b5061027f610d96565b34801561041e57600080fd5b50610296610daa565b34801561043357600080fd5b50600d5461044e90600160a01b90046001600160601b031681565b6040516001600160601b039091168152602001610209565b34801561047257600080fd5b506009546001600160a01b0316610254565b34801561049057600080fd5b5061027f61049f366004611acc565b610de3565b3480156104b057600080fd5b50610227610ede565b3480156104c557600080fd5b50610227610eed565b3480156104da57600080fd5b5061027f6104e9366004611ab1565b610f7b565b3480156104fa57600080fd5b50600d54610254906001600160a01b031681565b34801561051a57600080fd5b5061027f610529366004611b0f565b611023565b34801561053a57600080fd5b5061029661108f565b34801561054f57600080fd5b5061027f61055e3660046118cf565b611099565b61027f610571366004611b56565b6111e2565b34801561058257600080fd5b506102276105913660046118cf565b611223565b3480156105a257600080fd5b506101fd6105b1366004611c32565b61129e565b3480156105c257600080fd5b5061027f6105d1366004611ab1565b6112cc565b60006001600160e01b0319821663152a902d60e11b14806105fb57506105fb82611307565b92915050565b60606002805461061090611c5c565b80601f016020809104026020016040519081016040528092919081815260200182805461063c90611c5c565b80156106895780601f1061065e57610100808354040283529160200191610689565b820191906000526020600020905b81548152906001019060200180831161066c57829003601f168201915b5050505050905090565b600061069e82611355565b6106b2576106b26333d1c03960e21b6113a3565b506000908152600660205260409020546001600160a01b031690565b6106da828260016113ad565b5050565b60006001805460005403039050600019805b146106fa57600854015b90565b600061070882611450565b6001600160a01b03948516949091508116841461072e5761072e62a1148160e81b6113a3565b60008281526006602052604090208054338082146001600160a01b038816909114176107725761075e863361129e565b61077257610772632ce44b5f60e11b6113a3565b61077f86868660016114f1565b801561078a57600082555b6001600160a01b038681166000908152600560205260408082208054600019019055918716808252919020805460010190554260a01b17600160e11b17600085815260046020526040812091909155600160e11b8416900361081c5760018401600081815260046020526040812054900361081a57600054811461081a5760008181526004602052604090208490555b505b6001600160a01b0385168481887fddf252ad1be2c89b69c2b068fc378daa952ba7f163c4a11628f55a4df523b3ef600080a48060000361086657610866633a954ecd60e21b6113a3565b50505050505050565b600d546001600160a01b038116906000906127109061089e90600160a01b90046001600160601b031685611cac565b6108a89190611cc3565b90509250929050565b6108b961157f565b6001600160a01b0382166109145760405162461bcd60e51b815260206004820152601b60248201527f43616e6e6f74206d696e7420746f207a65726f2061646472657373000000000060448201526064015b60405180910390fd5b600081116109645760405162461bcd60e51b815260206004820152601f60248201527f5175616e74697479206d7573742062652067726561746572207468616e203000604482015260640161090b565b7f00000000000000000000000000000000000000000000000000000000000000008161098e6115ac565b6109989190611ce5565b11156109df5760405162461bcd60e51b815260206004820152601660248201527545786365656473206d6178696d756d20737570706c7960501b604482015260640161090b565b6000546109ec83836115bc565b80836001600160a01b03167f3a8a89b59a31c39a36febecb987e0657ab7b7c73b60ebacb44dcb9886c2d5c8a84604051610a2891815260200190565b60405180910390a3505050565b610a50838383604051806020016040528060008152506111e2565b505050565b610a5d61157f565b600c610a6a828483611d3e565b507f6741b2fc379fad678116fe3d4d4b9a1a184ab53ba36b86ad0fa66340b1ab41ad8282604051610a9c929190611dfe565b60405180910390a15050565b60006105fb82611450565b610abb61157f565b828114610b035760405162461bcd60e51b8152602060048201526016602482015275082e4e4c2f2e640d8cadccee8d040dad2e6dac2e8c6d60531b604482015260640161090b565b82610b3f5760405162461bcd60e51b815260206004820152600c60248201526b456d7074792061727261797360a01b604482015260640161090b565b6000805b82811015610b8357838382818110610b5d57610b5d611e2d565b9050602002013582610b6f9190611ce5565b915080610b7b81611e43565b915050610b43565b507f000000000000000000000000000000000000000000000000000000000000000081610bae6115ac565b610bb89190611ce5565b1115610bff5760405162461bcd60e51b815260206004820152601660248201527545786365656473206d6178696d756d20737570706c7960501b604482015260640161090b565b60005b84811015610d48576000868683818110610c1e57610c1e611e2d565b9050602002016020810190610c339190611ab1565b6001600160a01b031614158015610c6257506000848483818110610c5957610c59611e2d565b90506020020135115b15610d3657600054610cb2878784818110610c7f57610c7f611e2d565b9050602002016020810190610c949190611ab1565b868685818110610ca657610ca6611e2d565b905060200201356115bc565b80878784818110610cc557610cc5611e2d565b9050602002016020810190610cda9190611ab1565b6001600160a01b03167f3a8a89b59a31c39a36febecb987e0657ab7b7c73b60ebacb44dcb9886c2d5c8a878786818110610d1657610d16611e2d565b90506020020135604051610d2c91815260200190565b60405180910390a3505b80610d4081611e43565b915050610c02565b505050505050565b60006001600160a01b038216610d7057610d706323d3ad8160e21b6113a3565b506001600160a01b031660009081526005602052604090205467ffffffffffffffff1690565b610d9e61157f565b610da86000611688565b565b6000610db46115ac565b610dde907f0000000000000000000000000000000000000000000000000000000000000000611e5c565b905090565b610deb61157f565b6001600160a01b038216610e345760405162461bcd60e51b815260206004820152601060248201526f24b73b30b634b2103932b1b2b4bb32b960811b604482015260640161090b565b612710816001600160601b03161115610e865760405162461bcd60e51b81526020600482015260146024820152730a4def2c2d8e8f240cccaca40e8dede40d0d2ced60631b604482015260640161090b565b6001600160a01b038216600160a01b6001600160601b0383169081028217600d556040519081527f8039bd6e4e7dba001c8840eb2e118d9d131246faa7d0d04335f7305127ec0b109060200160405180910390a25050565b60606003805461061090611c5c565b600b8054610efa90611c5c565b80601f0160208091040260200160405190810160405280929190818152602001828054610f2690611c5c565b8015610f735780601f10610f4857610100808354040283529160200191610f73565b820191906000526020600020905b815481529060010190602001808311610f5657829003601f168201915b505050505081565b610f8361157f565b6001600160a01b038116610fd15760405162461bcd60e51b8152602060048201526015602482015274496e76616c6964207661756c74206164647265737360581b604482015260640161090b565b600e80546001600160a01b038381166001600160a01b0319831681179093556040519116919082907f0c4c4d2975a8d023c64e416a846ffebffa623acf6ef9e580a421649345d906ab90600090a35050565b3360008181526007602090815260408083206001600160a01b03871680855290835292819020805460ff191686151590811790915590519081529192917f17307eab39ab6107e8899845ad3d59bd9653f200f220920489ca2b5937696c31910160405180910390a35050565b6000610dde6115ac565b6110a16116da565b600e546001600160a01b03166110f25760405162461bcd60e51b815260206004820152601660248201527515985d5b1d0818dbdb9d1c9858dd081b9bdd081cd95d60521b604482015260640161090b565b6110fb81611355565b61113e5760405162461bcd60e51b8152602060048201526014602482015273151bdad95b88191bd95cc81b9bdd08195e1a5cdd60621b604482015260640161090b565b3361114882610aa8565b6001600160a01b0316146111905760405162461bcd60e51b815260206004820152600f60248201526e2737ba103a37b5b2b71037bbb732b960891b604482015260640161090b565b600e546111a89033906001600160a01b031683610a35565b604051819033907f23ede08ffbca41ca6c726b330230544088ae831031923090aadef89f8fd34aad90600090a36111df6001600a55565b50565b6111ed8484846106fd565b6001600160a01b0383163b1561121d5761120984848484611704565b61121d5761121d6368d2bf6b60e11b6113a3565b50505050565b606061122e82611355565b61124257611242630a14c4b560e41b6113a3565b600061124c6117e6565b9050805160000361126c5760405180602001604052806000815250611297565b80611276846117f5565b604051602001611287929190611e6f565b6040516020818303038152906040525b9392505050565b6001600160a01b03918216600090815260076020908152604080832093909416825291909152205460ff1690565b6112d461157f565b6001600160a01b0381166112fe57604051631e4fbdf760e01b81526000600482015260240161090b565b6111df81611688565b60006301ffc9a760e01b6001600160e01b03198316148061133857506380ac58cd60e01b6001600160e01b03198316145b806105fb5750506001600160e01b031916635b5e139f60e01b1490565b60008160011161139e5760005482101561139e5760005b50600082815260046020526040812054908190036113945761138d83611e9e565b925061136c565b600160e01b161590505b919050565b8060005260046000fd5b60006113b883610aa8565b90508180156113d05750336001600160a01b03821614155b156113f3576113df813361129e565b6113f3576113f36367d9dca160e11b6113a3565b60008381526006602052604080822080546001600160a01b0319166001600160a01b0388811691821790925591518693918516917f8c5be1e5ebec7d5bd14f71427d1e84f3dd0314c0f7b2291e5b200ac8c7c3b92591a450505050565b6000816001116114e15750600081815260046020526040902054806000036114ce57600054821061148b5761148b636f96cda160e11b6113a3565b5b5060001901600081815260046020526040902054801561148c57600160e01b81166000036114b957919050565b6114c9636f96cda160e11b6113a3565b61148c565b600160e01b81166000036114e157919050565b61139e636f96cda160e11b6113a3565b600e546001600160a01b0384811691161480156115185750600e546001600160a01b031615155b1561121d5760005b81811015611578576115328184611ce5565b6040516001600160a01b038716907f23ede08ffbca41ca6c726b330230544088ae831031923090aadef89f8fd34aad90600090a38061157081611e43565b915050611520565b5050505050565b6009546001600160a01b03163314610da85760405163118cdaa760e01b815233600482015260240161090b565b60005460001990810190806106f0565b60008054908290036115d8576115d863b562e8dd60e01b6113a3565b6115e560008483856114f1565b60008181526004602090815260408083206001600160a01b0387164260a01b6001881460e11b1781179091558084526005909252822080546801000000000000000186020190559081900361164357611643622e076360e81b6113a3565b818301825b808360007fddf252ad1be2c89b69c2b068fc378daa952ba7f163c4a11628f55a4df523b3ef600080a4818160010191508103611648575060005550505050565b600980546001600160a01b038381166001600160a01b0319831681179093556040519116919082907f8be0079c531659141344cd1fd0a4f28419497f9722a3daafe3b4186f6b6457e090600090a35050565b6002600a54036116fd57604051633ee5aeb560e01b815260040160405180910390fd5b6002600a55565b604051630a85bd0160e11b81526000906001600160a01b0385169063150b7a0290611739903390899088908890600401611eb5565b6020604051808303816000875af1925050508015611774575060408051601f3d908101601f1916820190925261177191810190611ef2565b60015b6117c9573d8080156117a2576040519150601f19603f3d011682016040523d82523d6000602084013e6117a7565b606091505b5080516000036117c1576117c16368d2bf6b60e11b6113a3565b805181602001fd5b6001600160e01b031916630a85bd0160e11b149050949350505050565b6060600c805461061090611c5c565b606060a06040510180604052602081039150506000815280825b600183039250600a81066030018353600a90048061180f5750819003601f19909101908152919050565b6001600160e01b0319811681146111df57600080fd5b60006020828403121561186157600080fd5b813561129781611839565b60005b8381101561188757818101518382015260200161186f565b50506000910152565b600081518084526118a881602086016020860161186c565b601f01601f19169290920160200192915050565b6020815260006112976020830184611890565b6000602082840312156118e157600080fd5b5035919050565b80356001600160a01b038116811461139e57600080fd5b6000806040838503121561191257600080fd5b61191b836118e8565b946020939093013593505050565b60008060006060848603121561193e57600080fd5b611947846118e8565b9250611955602085016118e8565b9150604084013590509250925092565b6000806040838503121561197857600080fd5b50508035926020909101359150565b6000806020838503121561199a57600080fd5b823567ffffffffffffffff808211156119b257600080fd5b818501915085601f8301126119c657600080fd5b8135818111156119d557600080fd5b8660208285010111156119e757600080fd5b60209290920196919550909350505050565b60008083601f840112611a0b57600080fd5b50813567ffffffffffffffff811115611a2357600080fd5b6020830191508360208260051b8501011115611a3e57600080fd5b9250929050565b60008060008060408587031215611a5b57600080fd5b843567ffffffffffffffff80821115611a7357600080fd5b611a7f888389016119f9565b90965094506020870135915080821115611a9857600080fd5b50611aa5878288016119f9565b95989497509550505050565b600060208284031215611ac357600080fd5b611297826118e8565b60008060408385031215611adf57600080fd5b611ae8836118e8565b915060208301356001600160601b0381168114611b0457600080fd5b809150509250929050565b60008060408385031215611b2257600080fd5b611b2b836118e8565b915060208301358015158114611b0457600080fd5b634e487b7160e01b600052604160045260246000fd5b60008060008060808587031215611b6c57600080fd5b611b75856118e8565b9350611b83602086016118e8565b925060408501359150606085013567ffffffffffffffff80821115611ba757600080fd5b818701915087601f830112611bbb57600080fd5b813581811115611bcd57611bcd611b40565b604051601f8201601f19908116603f01168101908382118183101715611bf557611bf5611b40565b816040528281528a6020848701011115611c0e57600080fd5b82602086016020830137600060208483010152809550505050505092959194509250565b60008060408385031215611c4557600080fd5b611c4e836118e8565b91506108a8602084016118e8565b600181811c90821680611c7057607f821691505b602082108103611c9057634e487b7160e01b600052602260045260246000fd5b50919050565b634e487b7160e01b600052601160045260246000fd5b80820281158282048414176105fb576105fb611c96565b600082611ce057634e487b7160e01b600052601260045260246000fd5b500490565b808201808211156105fb576105fb611c96565b601f821115610a5057600081815260208120601f850160051c81016020861015611d1f5750805b601f850160051c820191505b81811015610d4857828155600101611d2b565b67ffffffffffffffff831115611d5657611d56611b40565b611d6a83611d648354611c5c565b83611cf8565b6000601f841160018114611d9e5760008515611d865750838201355b600019600387901b1c1916600186901b178355611578565b600083815260209020601f19861690835b82811015611dcf5786850135825560209485019460019092019101611daf565b5086821015611dec5760001960f88860031b161c19848701351681555b505060018560011b0183555050505050565b60208152816020820152818360408301376000818301604090810191909152601f909201601f19160101919050565b634e487b7160e01b600052603260045260246000fd5b600060018201611e5557611e55611c96565b5060010190565b818103818111156105fb576105fb611c96565b60008351611e8181846020880161186c565b835190830190611e9581836020880161186c565b01949350505050565b600081611ead57611ead611c96565b506000190190565b6001600160a01b0385811682528416602082015260408101839052608060608201819052600090611ee890830184611890565b9695505050505050565b600060208284031215611f0457600080fd5b81516112978161183956fea2646970667358221220aba8b261a9e11a8c0a9213417f4533c9f9b6f9be6459295873f5a1eb4dc4361264736f6c63430008140033",
  "linkReferences": {},
  "deployedLinkReferences": {}
}