{
  "_format": "hh-sol-artifact-1",
  "contractName": "ERC222Token",
  "sourceName": "contracts/ERC222Token.sol",
  "abi": [
    {
      "inputs": [
        {
          "internalType": "string",
          "name": "name_",
          "type": "string"
        },
        {
          "internalType": "string",
          "name": "symbol_",
          "type": "string"
        },
        {
          "internalType": "string",
          "name": "songName_",
          "type": "string"
        },
        {
          "internalType": "uint256",
          "name": "totalSupply_",
          "type": "uint256"
        },
        {
          "internalType": "address",
          "name": "nftContract_",
          "type": "address"
        }
      ],
      "stateMutability": "nonpayable",
      "type": "constructor"
    },
    {
      "inputs": [
        {
          "internalType": "address",
          "name": "spender",
          "type": "address"
        },
        {
          "internalType": "uint256",
          "name": "allowance",
          "type": "uint256"
        },
        {
          "internalType": "uint256",
          "name": "needed",
          "type": "uint256"
        }
      ],
      "name": "ERC20InsufficientAllowance",
      "type": "error"
    },
    {
      "inputs": [
        {
          "internalType": "address",
          "name": "sender",
          "type": "address"
        },
        {
          "internalType": "uint256",
          "name": "balance",
          "type": "uint256"
        },
        {
          "internalType": "uint256",
          "name": "needed",
          "type": "uint256"
        }
      ],
      "name": "ERC20InsufficientBalance",
      "type": "error"
    },
    {
      "inputs": [
        {
          "internalType": "address",
          "name": "approver",
          "type": "address"
        }
      ],
      "name": "ERC20InvalidApprover",
      "type": "error"
    },
    {
      "inputs": [
        {
          "internalType": "address",
          "name": "receiver",
          "type": "address"
        }
      ],
      "name": "ERC20InvalidReceiver",
      "type": "error"
    },
    {
      "inputs": [
        {
          "internalType": "address",
          "name": "sender",
          "type": "address"
        }
      ],
      "name": "ERC20InvalidSender",
      "type": "error"
    },
    {
      "inputs": [
        {
          "internalType": "address",
          "name": "spender",
          "type": "address"
        }
      ],
      "name": "ERC20InvalidSpender",
      "type": "error"
    },
    {
      "inputs": [
        {
          "internalType": "address",
          "name": "owner",
          "type": "address"
        }
      ],
      "name": "OwnableInvalidOwner",
      "type": "error"
    },
    {
      "inputs": [
        {
          "internalType": "address",
          "name": "account",
          "type": "address"
        }
      ],
      "name": "OwnableUnauthorizedAccount",
      "type": "error"
    },
    {
      "inputs": [],
      "name": "ReentrancyGuardReentrantCall",
      "type": "error"
    },
    {
      "anonymous": false,
      "inputs": [
        {
          "indexed": true,
          "internalType": "address",
          "name": "owner",
          "type": "address"
        },
        {
          "indexed": true,
          "internalType": "address",
          "name": "spender",
          "type": "address"
        },
        {
          "indexed": false,
          "internalType": "uint256",
          "name": "value",
          "type": "uint256"
        }
      ],
      "name": "Approval",
      "type": "event"
    },
    {
      "anonymous": false,
      "inputs": [
        {
          "indexed": true,
          "internalType": "address",
          "name": "oldNFT",
          "type": "address"
        },
        {
          "indexed": true,
          "internalType": "address",
          "name": "newNFT",
          "type": "address"
        }
      ],
      "name": "NFTContractUpdated",
      "type": "event"
    },
    {
      "anonymous": false,
      "inputs": [
        {
          "indexed": true,
          "internalType": "address",
          "name": "previousOwner",
          "type": "address"
        },
        {
          "indexed": true,
          "internalType": "address",
          "name": "newOwner",
          "type": "address"
        }
      ],
      "name": "OwnershipTransferred",
      "type": "event"
    },
    {
      "anonymous": false,
      "inputs": [
        {
          "indexed": true,
          "internalType": "address",
          "name": "from",
          "type": "address"
        },
        {
          "indexed": false,
          "internalType": "uint256",
          "name": "amount",
          "type": "uint256"
        }
      ],
      "name": "TokensDepositedToVault",
      "type": "event"
    },
    {
      "anonymous": false,
      "inputs": [
        {
          "indexed": true,
          "internalType": "address",
          "name": "to",
          "type": "address"
        },
        {
          "indexed": false,
          "internalType": "uint256",
          "name": "amount",
          "type": "uint256"
        }
      ],
      "name": "TokensMinted",
      "type": "event"
    },
    {
      "anonymous": false,
      "inputs": [
        {
          "indexed": true,
          "internalType": "address",
          "name": "from",
          "type": "address"
        },
        {
          "indexed": true,
          "internalType": "address",
          "name": "to",
          "type": "address"
        },
        {
          "indexed": false,
          "internalType": "uint256",
          "name": "value",
          "type": "uint256"
        }
      ],
      "name": "Transfer",
      "type": "event"
    },
    {
      "anonymous": false,
      "inputs": [
        {
          "indexed": true,
          "internalType": "address",
          "name": "oldVault",
          "type": "address"
        },
        {
          "indexed": true,
          "internalType": "address",
          "name": "newVault",
          "type": "address"
        }
      ],
      "name": "VaultContractUpdated",
      "type": "event"
    },
    {
      "inputs": [],
      "name": "TOKENS_PER_NFT",
      "outputs": [
        {
          "internalType": "uint256",
          "name": "",
          "type": "uint256"
        }
      ],
      "stateMutability": "view",
      "type": "function"
    },
    {
      "inputs": [
        {
          "internalType": "address",
          "name": "owner",
          "type": "address"
        },
        {
          "internalType": "address",
          "name": "spender",
          "type": "address"
        }
      ],
      "name": "allowance",
      "outputs": [
        {
          "internalType": "uint256",
          "name": "",
          "type": "uint256"
        }
      ],
      "stateMutability": "view",
      "type": "function"
    },
    {
      "inputs": [
        {
          "internalType": "address",
          "name": "spender",
          "type": "address"
        },
        {
          "internalType": "uint256",
          "name": "value",
          "type": "uint256"
        }
      ],
      "name": "approve",
      "outputs": [
        {
          "internalType": "bool",
          "name": "",
          "type": "bool"
        }
      ],
      "stateMutability": "nonpayable",
      "type": "function"
    },
    {
      "inputs": [
        {
          "internalType": "address",
          "name": "account",
          "type": "address"
        }
      ],
      "name": "balanceOf",
      "outputs": [
        {
          "internalType": "uint256",
          "name": "",
          "type": "uint256"
        }
      ],
      "stateMutability": "view",
      "type": "function"
    },
    {
      "inputs": [],
      "name": "decimals",
      "outputs": [
        {
          "internalType": "uint8",
          "name": "",
          "type": "uint8"
        }
      ],
      "stateMutability": "view",
      "type": "function"
    },
    {
      "inputs": [
        {
          "internalType": "uint256",
          "name": "amount",
          "type": "uint256"
        }
      ],
      "name": "depositToVault",
      "outputs": [],
      "stateMutability": "nonpayable",
      "type": "function"
    },
    {
      "inputs": [
        {
          "internalType": "uint256",
          "name": "tokenAmount",
          "type": "uint256"
        }
      ],
      "name": "getMaxNFTsFromTokens",
      "outputs": [
        {
          "internalType": "uint256",
          "name": "",
          "type": "uint256"
        }
      ],
      "stateMutability": "pure",
      "type": "function"
    },
    {
      "inputs": [
        {
          "internalType": "uint256",
          "name": "tokenAmount",
          "type": "uint256"
        }
      ],
      "name": "getRemainingTokensAfterNFTConversion",
      "outputs": [
        {
          "internalType": "uint256",
          "name": "",
          "type": "uint256"
        }
      ],
      "stateMutability": "pure",
      "type": "function"
    },
    {
      "inputs": [],
      "name": "getTokenInfo",
      "outputs": [
        {
          "internalType": "string",
          "name": "tokenName",
          "type": "string"
        },
        {
          "internalType": "string",
          "name": "tokenSymbol",
          "type": "string"
        },
        {
          "internalType": "string",
          "name": "tokenSongName",
          "type": "string"
        },
        {
          "internalType": "uint256",
          "name": "tokenTotalSupply",
          "type": "uint256"
        },
        {
          "internalType": "uint256",
          "name": "tokensPerNFT",
          "type": "uint256"
        },
        {
          "internalType": "address",
          "name": "pairedNFTContract",
          "type": "address"
        },
        {
          "internalType": "address",
          "name": "pairedVaultContract",
          "type": "address"
        }
      ],
      "stateMutability": "view",
      "type": "function"
    },
    {
      "inputs": [],
      "name": "initialSupplyMinted",
      "outputs": [
        {
          "internalType": "bool",
          "name": "",
          "type": "bool"
        }
      ],
      "stateMutability": "view",
      "type": "function"
    },
    {
      "inputs": [
        {
          "internalType": "uint256",
          "name": "tokenAmount",
          "type": "uint256"
        }
      ],
      "name": "isValidNFTConversionAmount",
      "outputs": [
        {
          "internalType": "bool",
          "name": "",
          "type": "bool"
        }
      ],
      "stateMutability": "pure",
      "type": "function"
    },
    {
      "inputs": [
        {
          "internalType": "address",
          "name": "to",
          "type": "address"
        },
        {
          "internalType": "uint256",
          "name": "amount",
          "type": "uint256"
        }
      ],
      "name": "mint",
      "outputs": [],
      "stateMutability": "nonpayable",
      "type": "function"
    },
    {
      "inputs": [],
      "name": "name",
      "outputs": [
        {
          "internalType": "string",
          "name": "",
          "type": "string"
        }
      ],
      "stateMutability": "view",
      "type": "function"
    },
    {
      "inputs": [],
      "name": "nftContract",
      "outputs": [
        {
          "internalType": "address",
          "name": "",
          "type": "address"
        }
      ],
      "stateMutability": "view",
      "type": "function"
    },
    {
      "inputs": [
        {
          "internalType": "uint256",
          "name": "nftAmount",
          "type": "uint256"
        }
      ],
      "name": "nftToTokenAmount",
      "outputs": [
        {
          "internalType": "uint256",
          "name": "",
          "type": "uint256"
        }
      ],
      "stateMutability": "pure",
      "type": "function"
    },
    {
      "inputs": [],
      "name": "owner",
      "outputs": [
        {
          "internalType": "address",
          "name": "",
          "type": "address"
        }
      ],
      "stateMutability": "view",
      "type": "function"
    },
    {
      "inputs": [],
      "name": "renounceOwnership",
      "outputs": [],
      "stateMutability": "nonpayable",
      "type": "function"
    },
    {
      "inputs": [
        {
          "internalType": "address",
          "name": "newNFTContract",
          "type": "address"
        }
      ],
      "name": "setNFTContract",
      "outputs": [],
      "stateMutability": "nonpayable",
      "type": "function"
    },
    {
      "inputs": [
        {
          "internalType": "address",
          "name": "newVault",
          "type": "address"
        }
      ],
      "name": "setVaultContract",
      "outputs": [],
      "stateMutability": "nonpayable",
      "type": "function"
    },
    {
      "inputs": [],
      "name": "songName",
      "outputs": [
        {
          "internalType": "string",
          "name": "",
          "type": "string"
        }
      ],
      "stateMutability": "view",
      "type": "function"
    },
    {
      "inputs": [],
      "name": "symbol",
      "outputs": [
        {
          "internalType": "string",
          "name": "",
          "type": "string"
        }
      ],
      "stateMutability": "view",
      "type": "function"
    },
    {
      "inputs": [
        {
          "internalType": "uint256",
          "name": "tokenAmount",
          "type": "uint256"
        }
      ],
      "name": "tokenToNFTAmount",
      "outputs": [
        {
          "internalType": "uint256",
          "name": "",
          "type": "uint256"
        }
      ],
      "stateMutability": "pure",
      "type": "function"
    },
    {
      "inputs": [],
      "name": "totalSupply",
      "outputs": [
        {
          "internalType": "uint256",
          "name": "",
          "type": "uint256"
        }
      ],
      "stateMutability": "view",
      "type": "function"
    },
    {
      "inputs": [
        {
          "internalType": "address",
          "name": "to",
          "type": "address"
        },
        {
          "internalType": "uint256",
          "name": "value",
          "type": "uint256"
        }
      ],
      "name": "transfer",
      "outputs": [
        {
          "internalType": "bool",
          "name": "",
          "type": "bool"
        }
      ],
      "stateMutability": "nonpayable",
      "type": "function"
    },
    {
      "inputs": [
        {
          "internalType": "address",
          "name": "from",
          "type": "address"
        },
        {
          "internalType": "address",
          "name": "to",
          "type": "address"
        },
        {
          "internalType": "uint256",
          "name": "value",
          "type": "uint256"
        }
      ],
      "name": "transferFrom",
      "outputs": [
        {
          "internalType": "bool",
          "name": "",
          "type": "bool"
        }
      ],
      "stateMutability": "nonpayable",
      "type": "function"
    },
    {
      "inputs": [
        {
          "internalType": "address",
          "name": "newOwner",
          "type": "address"
        }
      ],
      "name": "transferOwnership",
      "outputs": [],
      "stateMutability": "nonpayable",
      "type": "function"
    },
    {
      "inputs": [],
      "name": "vaultContract",
      "outputs": [
        {
          "internalType": "address",
          "name": "",
          "type": "address"
        }
      ],
      "stateMutability": "view",
      "type": "function"
    }
  ],
  "bytecode": "0x60806040523480156200001157600080fd5b506040516200199138038062001991833981016040819052620000349162000551565b33858560036200004583826200069e565b5060046200005482826200069e565b5050506001600160a01b0381166200008757604051631e4fbdf760e01b8152600060048201526024015b60405180910390fd5b62000092816200022f565b5060016006558251620000e85760405162461bcd60e51b815260206004820152601960248201527f536f6e67206e616d652063616e6e6f7420626520656d7074790000000000000060448201526064016200007e565b60008211620001465760405162461bcd60e51b815260206004820152602360248201527f546f74616c20737570706c79206d75737420626520677265617465722074686160448201526206e20360ec1b60648201526084016200007e565b6001600160a01b0381166200019e5760405162461bcd60e51b815260206004820152601c60248201527f496e76616c6964204e465420636f6e747261637420616464726573730000000060448201526064016200007e565b6007620001ac84826200069e565b50600880546001600160a01b0319166001600160a01b038316179055620001d4338362000281565b6009805460ff60a01b1916600160a01b17905560405133907f3f2c9d57c068687834f0de942a9babb9e5acab57d516d3480a3c16ee165a4273906200021c9085815260200190565b60405180910390a2505050505062000792565b600580546001600160a01b038381166001600160a01b0319831681179093556040519116919082907f8be0079c531659141344cd1fd0a4f28419497f9722a3daafe3b4186f6b6457e090600090a35050565b6001600160a01b038216620002ad5760405163ec442f0560e01b8152600060048201526024016200007e565b620002bb60008383620002bf565b5050565b620002cc83838362000359565b6009546001600160a01b038381169116148015620002f457506009546001600160a01b031615155b80156200030957506001600160a01b03831615155b156200035457826001600160a01b03167f12057636f12c0a4b711276fed921db9efe59d9ff2ad43469005bf0f9c1df3726826040516200034b91815260200190565b60405180910390a25b505050565b6001600160a01b038316620003885780600260008282546200037c91906200076a565b90915550620003fc9050565b6001600160a01b03831660009081526020819052604090205481811015620003dd5760405163391434e360e21b81526001600160a01b038516600482015260248101829052604481018390526064016200007e565b6001600160a01b03841660009081526020819052604090209082900390555b6001600160a01b0382166200041a5760028054829003905562000439565b6001600160a01b03821660009081526020819052604090208054820190555b816001600160a01b0316836001600160a01b03167fddf252ad1be2c89b69c2b068fc378daa952ba7f163c4a11628f55a4df523b3ef836040516200047f91815260200190565b60405180910390a3505050565b634e487b7160e01b600052604160045260246000fd5b600082601f830112620004b457600080fd5b81516001600160401b0380821115620004d157620004d16200048c565b604051601f8301601f19908116603f01168101908282118183101715620004fc57620004fc6200048c565b816040528381526020925086838588010111156200051957600080fd5b600091505b838210156200053d57858201830151818301840152908201906200051e565b600093810190920192909252949350505050565b600080600080600060a086880312156200056a57600080fd5b85516001600160401b03808211156200058257600080fd5b6200059089838a01620004a2565b96506020880151915080821115620005a757600080fd5b620005b589838a01620004a2565b95506040880151915080821115620005cc57600080fd5b50620005db88828901620004a2565b60608801516080890151919550935090506001600160a01b03811681146200060257600080fd5b809150509295509295909350565b600181811c908216806200062557607f821691505b6020821081036200064657634e487b7160e01b600052602260045260246000fd5b50919050565b601f8211156200035457600081815260208120601f850160051c81016020861015620006755750805b601f850160051c820191505b81811015620006965782815560010162000681565b505050505050565b81516001600160401b03811115620006ba57620006ba6200048c565b620006d281620006cb845462000610565b846200064c565b602080601f8311600181146200070a5760008415620006f15750858301515b600019600386901b1c1916600185901b17855562000696565b600085815260208120601f198616915b828110156200073b578886015182559484019460019091019084016200071a565b50858210156200075a5787850151600019600388901b60f8161c191681555b5050505050600190811b01905550565b808201808211156200078c57634e487b7160e01b600052601160045260246000fd5b92915050565b6111ef80620007a26000396000f3fe608060405234801561001057600080fd5b50600436106101a95760003560e01c806395d89b41116100f9578063b046229611610097578063dd62ed3e11610071578063dd62ed3e14610388578063f24d82e014610362578063f2fde38b146103c1578063fc2ab6f2146103d457600080fd5b8063b04622961461034f578063bfa0a7f914610362578063d56d229d1461037557600080fd5b8063a7ccabdf116100d3578063a7ccabdf14610305578063a9059cbb14610318578063abb1dc441461032b578063adee8ff21461034657600080fd5b806395d89b41146102e257806396cd06f8146102ea57806396f4ada6146102f257600080fd5b8063313ce5671161016657806370a082311161014057806370a082311461028d578063715018a6146102b657806386bfcbc7146102be5780638da5cb5b146102d157600080fd5b8063313ce5671461025657806337b7bd581461026557806340c10f191461027857600080fd5b806306fdde03146101ae578063095ea7b3146101cc5780630f31d117146101ef57806318160ddd146102105780632274346b1461021857806323b872dd14610243575b600080fd5b6101b66103e8565b6040516101c39190610f95565b60405180910390f35b6101df6101da366004610fcb565b61047a565b60405190151581526020016101c3565b6102026101fd366004610ff5565b610494565b6040519081526020016101c3565b600254610202565b60095461022b906001600160a01b031681565b6040516001600160a01b0390911681526020016101c3565b6101df61025136600461100e565b6104a2565b604051601281526020016101c3565b6101df610273366004610ff5565b6104c6565b61028b610286366004610fcb565b6104e5565b005b61020261029b36600461104a565b6001600160a01b031660009081526020819052604090205490565b61028b610641565b6102026102cc366004610ff5565b610655565b6005546001600160a01b031661022b565b6101b6610663565b6101b6610672565b61028b61030036600461104a565b610700565b61028b61031336600461104a565b6107a8565b6101df610326366004610fcb565b610858565b610333610866565b6040516101c39796959493929190611065565b61020261271081565b61028b61035d366004610ff5565b610948565b610202610370366004610ff5565b610aa1565b60085461022b906001600160a01b031681565b6102026103963660046110ce565b6001600160a01b03918216600090815260016020908152604080832093909416825291909152205490565b61028b6103cf36600461104a565b610aaf565b6009546101df90600160a01b900460ff1681565b6060600380546103f790611101565b80601f016020809104026020016040519081016040528092919081815260200182805461042390611101565b80156104705780601f1061044557610100808354040283529160200191610470565b820191906000526020600020905b81548152906001019060200180831161045357829003601f168201915b5050505050905090565b600033610488818585610aea565b60019150505b92915050565b600061048e61271083611151565b6000336104b0858285610afc565b6104bb858585610b7b565b506001949350505050565b6000808211801561048e57506104de61271083611151565b1592915050565b6009546001600160a01b031633148061050857506005546001600160a01b031633145b61054a5760405162461bcd60e51b815260206004820152600e60248201526d139bdd08185d5d1a1bdc9a5e995960921b60448201526064015b60405180910390fd5b6001600160a01b0382166105a05760405162461bcd60e51b815260206004820152601b60248201527f43616e6e6f74206d696e7420746f207a65726f206164647265737300000000006044820152606401610541565b600081116105f05760405162461bcd60e51b815260206004820152601d60248201527f416d6f756e74206d7573742062652067726561746572207468616e20300000006044820152606401610541565b6105fa8282610bda565b816001600160a01b03167f3f2c9d57c068687834f0de942a9babb9e5acab57d516d3480a3c16ee165a42738260405161063591815260200190565b60405180910390a25050565b610649610c14565b6106536000610c41565b565b600061048e6127108361117b565b6060600480546103f790611101565b6007805461067f90611101565b80601f01602080910402602001604051908101604052809291908181526020018280546106ab90611101565b80156106f85780601f106106cd576101008083540402835291602001916106f8565b820191906000526020600020905b8154815290600101906020018083116106db57829003601f168201915b505050505081565b610708610c14565b6001600160a01b0381166107565760405162461bcd60e51b8152602060048201526015602482015274496e76616c6964207661756c74206164647265737360581b6044820152606401610541565b600980546001600160a01b038381166001600160a01b0319831681179093556040519116919082907f0c4c4d2975a8d023c64e416a846ffebffa623acf6ef9e580a421649345d906ab90600090a35050565b6107b0610c14565b6001600160a01b0381166108065760405162461bcd60e51b815260206004820152601c60248201527f496e76616c6964204e465420636f6e74726163742061646472657373000000006044820152606401610541565b600880546001600160a01b038381166001600160a01b0319831681179093556040519116919082907fab9636faa03b42a52a353eb86f070f1ac15b69f0bc419fba63d07b5d996edad790600090a35050565b600033610488818585610b7b565b60608060606000806000806108796103e8565b610881610663565b600761088c60025490565b6008546009548354612710926001600160a01b0390811692169085906108b190611101565b80601f01602080910402602001604051908101604052809291908181526020018280546108dd90611101565b801561092a5780601f106108ff5761010080835404028352916020019161092a565b820191906000526020600020905b81548152906001019060200180831161090d57829003601f168201915b50505050509450965096509650965096509650965090919293949596565b610950610c93565b6009546001600160a01b03166109a15760405162461bcd60e51b815260206004820152601660248201527515985d5b1d0818dbdb9d1c9858dd081b9bdd081cd95d60521b6044820152606401610541565b600081116109f15760405162461bcd60e51b815260206004820152601d60248201527f416d6f756e74206d7573742062652067726561746572207468616e20300000006044820152606401610541565b33600090815260208190526040902054811115610a475760405162461bcd60e51b8152602060048201526014602482015273496e73756666696369656e742062616c616e636560601b6044820152606401610541565b600954610a5f9033906001600160a01b031683610b7b565b60405181815233907f12057636f12c0a4b711276fed921db9efe59d9ff2ad43469005bf0f9c1df37269060200160405180910390a2610a9e6001600655565b50565b600061048e61271083611192565b610ab7610c14565b6001600160a01b038116610ae157604051631e4fbdf760e01b815260006004820152602401610541565b610a9e81610c41565b610af78383836001610cbd565b505050565b6001600160a01b03838116600090815260016020908152604080832093861683529290522054600019811015610b755781811015610b6657604051637dc7a0d960e11b81526001600160a01b03841660048201526024810182905260448101839052606401610541565b610b7584848484036000610cbd565b50505050565b6001600160a01b038316610ba557604051634b637e8f60e11b815260006004820152602401610541565b6001600160a01b038216610bcf5760405163ec442f0560e01b815260006004820152602401610541565b610af7838383610d92565b6001600160a01b038216610c045760405163ec442f0560e01b815260006004820152602401610541565b610c1060008383610d92565b5050565b6005546001600160a01b031633146106535760405163118cdaa760e01b8152336004820152602401610541565b600580546001600160a01b038381166001600160a01b0319831681179093556040519116919082907f8be0079c531659141344cd1fd0a4f28419497f9722a3daafe3b4186f6b6457e090600090a35050565b600260065403610cb657604051633ee5aeb560e01b815260040160405180910390fd5b6002600655565b6001600160a01b038416610ce75760405163e602df0560e01b815260006004820152602401610541565b6001600160a01b038316610d1157604051634a1406b160e11b815260006004820152602401610541565b6001600160a01b0380851660009081526001602090815260408083209387168352929052208290558015610b7557826001600160a01b0316846001600160a01b03167f8c5be1e5ebec7d5bd14f71427d1e84f3dd0314c0f7b2291e5b200ac8c7c3b92584604051610d8491815260200190565b60405180910390a350505050565b610d9d838383610e25565b6009546001600160a01b038381169116148015610dc457506009546001600160a01b031615155b8015610dd857506001600160a01b03831615155b15610af757826001600160a01b03167f12057636f12c0a4b711276fed921db9efe59d9ff2ad43469005bf0f9c1df372682604051610e1891815260200190565b60405180910390a2505050565b6001600160a01b038316610e50578060026000828254610e4591906111a6565b90915550610ec29050565b6001600160a01b03831660009081526020819052604090205481811015610ea35760405163391434e360e21b81526001600160a01b03851660048201526024810182905260448101839052606401610541565b6001600160a01b03841660009081526020819052604090209082900390555b6001600160a01b038216610ede57600280548290039055610efd565b6001600160a01b03821660009081526020819052604090208054820190555b816001600160a01b0316836001600160a01b03167fddf252ad1be2c89b69c2b068fc378daa952ba7f163c4a11628f55a4df523b3ef83604051610f4291815260200190565b60405180910390a3505050565b6000815180845260005b81811015610f7557602081850181015186830182015201610f59565b506000602082860101526020601f19601f83011685010191505092915050565b602081526000610fa86020830184610f4f565b9392505050565b80356001600160a01b0381168114610fc657600080fd5b919050565b60008060408385031215610fde57600080fd5b610fe783610faf565b946020939093013593505050565b60006020828403121561100757600080fd5b5035919050565b60008060006060848603121561102357600080fd5b61102c84610faf565b925061103a60208501610faf565b9150604084013590509250925092565b60006020828403121561105c57600080fd5b610fa882610faf565b60e08152600061107860e083018a610f4f565b828103602084015261108a818a610f4f565b9050828103604084015261109e8189610f4f565b6060840197909752505060808101939093526001600160a01b0391821660a08401521660c0909101529392505050565b600080604083850312156110e157600080fd5b6110ea83610faf565b91506110f860208401610faf565b90509250929050565b600181811c9082168061111557607f821691505b60208210810361113557634e487b7160e01b600052602260045260246000fd5b50919050565b634e487b7160e01b600052601260045260246000fd5b6000826111605761116061113b565b500690565b634e487b7160e01b600052601160045260246000fd5b808202811582820484141761048e5761048e611165565b6000826111a1576111a161113b565b500490565b8082018082111561048e5761048e61116556fea26469706673582212200c2da5f4ce6a556e1adac5b3cef9f856ada4ddf8402ab7dc853da1e87516516b64736f6c63430008140033",
  "linkReferences": {},
  "deployedLinkReferences": {}
}