{
  "_format": "hh-sol-artifact-1",
  "contractName": "ERC222Vault",
  "sourceName": "contracts/ERC222Vault.sol",
  "abi": [
    {
      "inputs": [
        {
          "internalType": "address",
          "name": "nftContract_",
          "type": "address"
        },
        {
          "internalType": "address",
          "name": "tokenContract_",
          "type": "address"
        },
        {
          "internalType": "string",
          "name": "songName_",
          "type": "string"
        },
        {
          "internalType": "address",
          "name": "admin_",
          "type": "address"
        }
      ],
      "stateMutability": "nonpayable",
      "type": "constructor"
    },
    {
      "inputs": [
        {
          "internalType": "address",
          "name": "owner",
          "type": "address"
        }
      ],
      "name": "OwnableInvalidOwner",
      "type": "error"
    },
    {
      "inputs": [
        {
          "internalType": "address",
          "name": "account",
          "type": "address"
        }
      ],
      "name": "OwnableUnauthorizedAccount",
      "type": "error"
    },
    {
      "inputs": [],
      "name": "ReentrancyGuardReentrantCall",
      "type": "error"
    },
    {
      "inputs": [
        {
          "internalType": "address",
          "name": "token",
          "type": "address"
        }
      ],
      "name": "SafeERC20FailedOperation",
      "type": "error"
    },
    {
      "anonymous": false,
      "inputs": [
        {
          "indexed": true,
          "internalType": "address",
          "name": "oldAdmin",
          "type": "address"
        },
        {
          "indexed": true,
          "internalType": "address",
          "name": "newAdmin",
          "type": "address"
        }
      ],
      "name": "AdminUpdated",
      "type": "event"
    },
    {
      "anonymous": false,
      "inputs": [
        {
          "indexed": false,
          "internalType": "uint256",
          "name": "newFloorPrice",
          "type": "uint256"
        }
      ],
      "name": "FloorPriceUpdated",
      "type": "event"
    },
    {
      "anonymous": false,
      "inputs": [
        {
          "indexed": true,
          "internalType": "address",
          "name": "user",
          "type": "address"
        },
        {
          "indexed": true,
          "internalType": "uint256",
          "name": "tokenId",
          "type": "uint256"
        },
        {
          "indexed": false,
          "internalType": "uint256",
          "name": "tokensReceived",
          "type": "uint256"
        }
      ],
      "name": "NFTDepositedToVault",
      "type": "event"
    },
    {
      "anonymous": false,
      "inputs": [
        {
          "indexed": true,
          "internalType": "address",
          "name": "user",
          "type": "address"
        },
        {
          "indexed": true,
          "internalType": "uint256",
          "name": "tokenId",
          "type": "uint256"
        },
        {
          "indexed": false,
          "internalType": "uint256",
          "name": "tokensPaid",
          "type": "uint256"
        }
      ],
      "name": "NFTWithdrawnFromVault",
      "type": "event"
    },
    {
      "anonymous": false,
      "inputs": [
        {
          "indexed": false,
          "internalType": "uint256",
          "name": "totalNFTsMinted",
          "type": "uint256"
        }
      ],
      "name": "OpenMarketModeActivated",
      "type": "event"
    },
    {
      "anonymous": false,
      "inputs": [
        {
          "indexed": true,
          "internalType": "address",
          "name": "previousOwner",
          "type": "address"
        },
        {
          "indexed": true,
          "internalType": "address",
          "name": "newOwner",
          "type": "address"
        }
      ],
      "name": "OwnershipTransferred",
      "type": "event"
    },
    {
      "anonymous": false,
      "inputs": [
        {
          "indexed": false,
          "internalType": "bool",
          "name": "enabled",
          "type": "bool"
        }
      ],
      "name": "SwapStatusUpdated",
      "type": "event"
    },
    {
      "anonymous": false,
      "inputs": [
        {
          "indexed": true,
          "internalType": "address",
          "name": "user",
          "type": "address"
        },
        {
          "indexed": false,
          "internalType": "uint256",
          "name": "tokenAmount",
          "type": "uint256"
        },
        {
          "indexed": true,
          "internalType": "uint256",
          "name": "nftReceived",
          "type": "uint256"
        }
      ],
      "name": "TokensDepositedToVault",
      "type": "event"
    },
    {
      "anonymous": false,
      "inputs": [
        {
          "indexed": true,
          "internalType": "address",
          "name": "user",
          "type": "address"
        },
        {
          "indexed": false,
          "internalType": "uint256",
          "name": "tokenAmount",
          "type": "uint256"
        },
        {
          "indexed": true,
          "internalType": "uint256",
          "name": "nftDeposited",
          "type": "uint256"
        }
      ],
      "name": "TokensWithdrawnFromVault",
      "type": "event"
    },
    {
      "anonymous": false,
      "inputs": [
        {
          "indexed": false,
          "internalType": "uint256",
          "name": "nftCount",
          "type": "uint256"
        },
        {
          "indexed": false,
          "internalType": "uint256",
          "name": "tokenAmount",
          "type": "uint256"
        }
      ],
      "name": "VaultPreloaded",
      "type": "event"
    },
    {
      "inputs": [],
      "name": "TOKENS_PER_NFT",
      "outputs": [
        {
          "internalType": "uint256",
          "name": "",
          "type": "uint256"
        }
      ],
      "stateMutability": "view",
      "type": "function"
    },
    {
      "inputs": [],
      "name": "TOKENS_PER_NFT_UNITS",
      "outputs": [
        {
          "internalType": "uint256",
          "name": "",
          "type": "uint256"
        }
      ],
      "stateMutability": "view",
      "type": "function"
    },
    {
      "inputs": [],
      "name": "TOKEN_DECIMALS",
      "outputs": [
        {
          "internalType": "uint8",
          "name": "",
          "type": "uint8"
        }
      ],
      "stateMutability": "view",
      "type": "function"
    },
    {
      "inputs": [],
      "name": "admin",
      "outputs": [
        {
          "internalType": "address",
          "name": "",
          "type": "address"
        }
      ],
      "stateMutability": "view",
      "type": "function"
    },
    {
      "inputs": [
        {
          "internalType": "uint256",
          "name": "tokenId",
          "type": "uint256"
        }
      ],
      "name": "depositNFT",
      "outputs": [],
      "stateMutability": "nonpayable",
      "type": "function"
    },
    {
      "inputs": [
        {
          "internalType": "uint256",
          "name": "tokenAmount",
          "type": "uint256"
        }
      ],
      "name": "depositTokens",
      "outputs": [],
      "stateMutability": "nonpayable",
      "type": "function"
    },
    {
      "inputs": [
        {
          "internalType": "address",
          "name": "to",
          "type": "address"
        },
        {
          "internalType": "uint256",
          "name": "tokenId",
          "type": "uint256"
        }
      ],
      "name": "emergencyWithdrawNFT",
      "outputs": [],
      "stateMutability": "nonpayable",
      "type": "function"
    },
    {
      "inputs": [
        {
          "internalType": "address",
          "name": "to",
          "type": "address"
        },
        {
          "internalType": "uint256",
          "name": "amount",
          "type": "uint256"
        }
      ],
      "name": "emergencyWithdrawTokens",
      "outputs": [],
      "stateMutability": "nonpayable",
      "type": "function"
    },
    {
      "inputs": [],
      "name": "getFloorPrice",
      "outputs": [
        {
          "internalType": "uint256",
          "name": "",
          "type": "uint256"
        }
      ],
      "stateMutability": "view",
      "type": "function"
    },
    {
      "inputs": [
        {
          "internalType": "uint256",
          "name": "maxResults",
          "type": "uint256"
        }
      ],
      "name": "getNFTsInVault",
      "outputs": [
        {
          "internalType": "uint256[]",
          "name": "",
          "type": "uint256[]"
        }
      ],
      "stateMutability": "view",
      "type": "function"
    },
    {
      "inputs": [],
      "name": "getVaultInfo",
      "outputs": [
        {
          "internalType": "string",
          "name": "vaultSongName",
          "type": "string"
        },
        {
          "internalType": "address",
          "name": "nftAddress",
          "type": "address"
        },
        {
          "internalType": "address",
          "name": "tokenAddress",
          "type": "address"
        },
        {
          "internalType": "uint256",
          "name": "conversionRatio",
          "type": "uint256"
        },
        {
          "internalType": "uint256",
          "name": "nftsHeld",
          "type": "uint256"
        },
        {
          "internalType": "uint256",
          "name": "tokensHeld",
          "type": "uint256"
        },
        {
          "internalType": "uint256",
          "name": "currentFloorPrice",
          "type": "uint256"
        },
        {
          "internalType": "bool",
          "name": "openMarket",
          "type": "bool"
        },
        {
          "internalType": "bool",
          "name": "swappingEnabled",
          "type": "bool"
        }
      ],
      "stateMutability": "view",
      "type": "function"
    },
    {
      "inputs": [],
      "name": "getVaultStats",
      "outputs": [
        {
          "internalType": "uint256",
          "name": "nftsInVault",
          "type": "uint256"
        },
        {
          "internalType": "uint256",
          "name": "tokensInVault",
          "type": "uint256"
        },
        {
          "internalType": "uint256",
          "name": "floorPrice",
          "type": "uint256"
        },
        {
          "internalType": "bool",
          "name": "isOpenMarket",
          "type": "bool"
        },
        {
          "internalType": "uint256",
          "name": "totalNFTsMinted",
          "type": "uint256"
        },
        {
          "internalType": "uint256",
          "name": "maxNFTSupply",
          "type": "uint256"
        }
      ],
      "stateMutability": "view",
      "type": "function"
    },
    {
      "inputs": [
        {
          "internalType": "uint256",
          "name": "tokenId",
          "type": "uint256"
        }
      ],
      "name": "isNFTInVault",
      "outputs": [
        {
          "internalType": "bool",
          "name": "",
          "type": "bool"
        }
      ],
      "stateMutability": "view",
      "type": "function"
    },
    {
      "inputs": [],
      "name": "nftContract",
      "outputs": [
        {
          "internalType": "contract IERC222NFT",
          "name": "",
          "type": "address"
        }
      ],
      "stateMutability": "view",
      "type": "function"
    },
    {
      "inputs": [],
      "name": "nftCount",
      "outputs": [
        {
          "internalType": "uint256",
          "name": "",
          "type": "uint256"
        }
      ],
      "stateMutability": "view",
      "type": "function"
    },
    {
      "inputs": [
        {
          "internalType": "uint256",
          "name": "",
          "type": "uint256"
        }
      ],
      "name": "nftHeld",
      "outputs": [
        {
          "internalType": "bool",
          "name": "",
          "type": "bool"
        }
      ],
      "stateMutability": "view",
      "type": "function"
    },
    {
      "inputs": [
        {
          "internalType": "address",
          "name": "operator",
          "type": "address"
        },
        {
          "internalType": "address",
          "name": "from",
          "type": "address"
        },
        {
          "internalType": "uint256",
          "name": "tokenId",
          "type": "uint256"
        },
        {
          "internalType": "bytes",
          "name": "data",
          "type": "bytes"
        }
      ],
      "name": "onERC721Received",
      "outputs": [
        {
          "internalType": "bytes4",
          "name": "",
          "type": "bytes4"
        }
      ],
      "stateMutability": "pure",
      "type": "function"
    },
    {
      "inputs": [],
      "name": "openMarketMode",
      "outputs": [
        {
          "internalType": "bool",
          "name": "",
          "type": "bool"
        }
      ],
      "stateMutability": "view",
      "type": "function"
    },
    {
      "inputs": [],
      "name": "owner",
      "outputs": [
        {
          "internalType": "address",
          "name": "",
          "type": "address"
        }
      ],
      "stateMutability": "view",
      "type": "function"
    },
    {
      "inputs": [
        {
          "internalType": "uint256[]",
          "name": "nftIds",
          "type": "uint256[]"
        },
        {
          "internalType": "uint256",
          "name": "tokenAmount",
          "type": "uint256"
        }
      ],
      "name": "preloadVault",
      "outputs": [],
      "stateMutability": "nonpayable",
      "type": "function"
    },
    {
      "inputs": [],
      "name": "renounceOwnership",
      "outputs": [],
      "stateMutability": "nonpayable",
      "type": "function"
    },
    {
      "inputs": [
        {
          "internalType": "address",
          "name": "newAdmin",
          "type": "address"
        }
      ],
      "name": "setAdmin",
      "outputs": [],
      "stateMutability": "nonpayable",
      "type": "function"
    },
    {
      "inputs": [
        {
          "internalType": "bool",
          "name": "enabled",
          "type": "bool"
        }
      ],
      "name": "setSwapEnabled",
      "outputs": [],
      "stateMutability": "nonpayable",
      "type": "function"
    },
    {
      "inputs": [],
      "name": "songName",
      "outputs": [
        {
          "internalType": "string",
          "name": "",
          "type": "string"
        }
      ],
      "stateMutability": "view",
      "type": "function"
    },
    {
      "inputs": [],
      "name": "swapEnabled",
      "outputs": [
        {
          "internalType": "bool",
          "name": "",
          "type": "bool"
        }
      ],
      "stateMutability": "view",
      "type": "function"
    },
    {
      "inputs": [],
      "name": "tokenBalance",
      "outputs": [
        {
          "internalType": "uint256",
          "name": "",
          "type": "uint256"
        }
      ],
      "stateMutability": "view",
      "type": "function"
    },
    {
      "inputs": [],
      "name": "tokenContract",
      "outputs": [
        {
          "internalType": "contract IERC222Token",
          "name": "",
          "type": "address"
        }
      ],
      "stateMutability": "view",
      "type": "function"
    },
    {
      "inputs": [],
      "name": "totalMarketCap",
      "outputs": [
        {
          "internalType": "uint256",
          "name": "",
          "type": "uint256"
        }
      ],
      "stateMutability": "view",
      "type": "function"
    },
    {
      "inputs": [
        {
          "internalType": "address",
          "name": "newOwner",
          "type": "address"
        }
      ],
      "name": "transferOwnership",
      "outputs": [],
      "stateMutability": "nonpayable",
      "type": "function"
    },
    {
      "inputs": [
        {
          "internalType": "uint256",
          "name": "additionalValue",
          "type": "uint256"
        }
      ],
      "name": "updateMarketCap",
      "outputs": [],
      "stateMutability": "nonpayable",
      "type": "function"
    }
  ],
  "bytecode": "0x6101206040526007805460ff60a81b1916600160a81b1790553480156200002557600080fd5b5060405162002c7338038062002c738339810160408190526200004891620003ad565b33806200007057604051631e4fbdf760e01b8152600060048201526024015b60405180910390fd5b6200007b816200032a565b50600180556001600160a01b038416620000d85760405162461bcd60e51b815260206004820152601460248201527f496e76616c6964204e465420636f6e7472616374000000000000000000000000604482015260640162000067565b6001600160a01b038316620001305760405162461bcd60e51b815260206004820152601660248201527f496e76616c696420746f6b656e20636f6e747261637400000000000000000000604482015260640162000067565b6000825111620001835760405162461bcd60e51b815260206004820152601960248201527f536f6e67206e616d652063616e6e6f7420626520656d70747900000000000000604482015260640162000067565b6001600160a01b038116620001db5760405162461bcd60e51b815260206004820152601560248201527f496e76616c69642061646d696e20616464726573730000000000000000000000604482015260640162000067565b6001600160a01b03808516608052831660a0526002620001fc838262000549565b5080600760016101000a8154816001600160a01b0302191690836001600160a01b0316021790555060a0516001600160a01b031663adee8ff26040518163ffffffff1660e01b8152600401602060405180830381865afa15801562000265573d6000803e3d6000fd5b505050506040513d601f19601f820116820180604052508101906200028b919062000615565b60c08181525050826001600160a01b031663313ce5676040518163ffffffff1660e01b8152600401602060405180830381865afa158015620002d1573d6000803e3d6000fd5b505050506040513d601f19601f82011682018060405250810190620002f791906200062f565b60ff1660e08190526200030c90600a62000770565b60c0516200031b919062000781565b61010052506200079b92505050565b600080546001600160a01b038381166001600160a01b0319831681178455604051919092169283917f8be0079c531659141344cd1fd0a4f28419497f9722a3daafe3b4186f6b6457e09190a35050565b80516001600160a01b03811681146200039257600080fd5b919050565b634e487b7160e01b600052604160045260246000fd5b60008060008060808587031215620003c457600080fd5b620003cf856200037a565b93506020620003e08187016200037a565b60408701519094506001600160401b0380821115620003fe57600080fd5b818801915088601f8301126200041357600080fd5b81518181111562000428576200042862000397565b604051601f8201601f19908116603f0116810190838211818310171562000453576200045362000397565b816040528281528b868487010111156200046c57600080fd5b600093505b8284101562000490578484018601518185018701529285019262000471565b6000868483010152809750505050505050620004af606086016200037a565b905092959194509250565b600181811c90821680620004cf57607f821691505b602082108103620004f057634e487b7160e01b600052602260045260246000fd5b50919050565b601f8211156200054457600081815260208120601f850160051c810160208610156200051f5750805b601f850160051c820191505b8181101562000540578281556001016200052b565b5050505b505050565b81516001600160401b0381111562000565576200056562000397565b6200057d81620005768454620004ba565b84620004f6565b602080601f831160018114620005b557600084156200059c5750858301515b600019600386901b1c1916600185901b17855562000540565b600085815260208120601f198616915b82811015620005e657888601518255948401946001909101908401620005c5565b5085821015620006055787850151600019600388901b60f8161c191681555b5050505050600190811b01905550565b6000602082840312156200062857600080fd5b5051919050565b6000602082840312156200064257600080fd5b815160ff811681146200065457600080fd5b9392505050565b634e487b7160e01b600052601160045260246000fd5b600181815b80851115620006b25781600019048211156200069657620006966200065b565b80851615620006a457918102915b93841c939080029062000676565b509250929050565b600082620006cb575060016200076a565b81620006da575060006200076a565b8160018114620006f35760028114620006fe576200071e565b60019150506200076a565b60ff8411156200071257620007126200065b565b50506001821b6200076a565b5060208310610133831016604e8410600b841016171562000743575081810a6200076a565b6200074f838362000671565b80600019048211156200076657620007666200065b565b0290505b92915050565b60006200065460ff841683620006ba565b80820281158282048414176200076a576200076a6200065b565b60805160a05160c05160e051610100516123c8620008ab60003960008181610428015281816107fc01528181610961015281816111c70152818161123a015281816112fc015281816115fd015281816118f801528181611a1901528181611a7f0152611aa8015260006102ea0152600061044f0152600081816102ab015281816106c00152818161094001528181610b4f0152818161138c0152611a5c015260008181610492015281816106000152818161074b0152818161091f01528181610c9901528181610df101528181610fb7015281816110390152818161146b0152818161152c015281816117ef0152818161197f01528181611be801528181611c6a0152611d3b01526123c86000f3fe608060405234801561001057600080fd5b50600436106101da5760003560e01c8063922b807911610104578063b1e776e3116100a2578063e01af92c11610071578063e01af92c146104c7578063e91a7ca6146104da578063f2fde38b146104ed578063f851a4401461050057600080fd5b8063b1e776e314610471578063bbffa2d314610484578063d56d229d1461048d578063dd49756e146104b457600080fd5b80639e1a4d19116100de5780639e1a4d19146103e3578063a59aa5a6146103ec578063a98d499414610423578063adee8ff21461044a57600080fd5b8063922b80791461039b57806396cd06f8146103ae578063978cd40f146103c357600080fd5b80635b7f415c1161017c5780637304fa201161014b5780637304fa201461034d5780637f98aa711461035a5780638da5cb5b14610377578063917bb9981461038857600080fd5b80635b7f415c146102e55780636ddd17131461031e578063704b6c0214610332578063715018a61461034557600080fd5b8063150b7a02116101b8578063150b7a02146102435780632a33d6b21461027b578063505860881461028357806355a373d6146102a657600080fd5b8063029a3c5f146101df578063035dd06d146101f45780630af2c6ca1461022c575b600080fd5b6101f26101ed366004611f1c565b610518565b005b610217610202366004611f97565b60009081526003602052604090205460ff1690565b60405190151581526020015b60405180910390f35b61023560045481565b604051908152602001610223565b610262610251366004611fc5565b630a85bd0160e11b95945050505050565b6040516001600160e01b03199091168152602001610223565b610235610746565b610217610291366004611f97565b60036020526000908152604090205460ff1681565b6102cd7f000000000000000000000000000000000000000000000000000000000000000081565b6040516001600160a01b039091168152602001610223565b61030c7f000000000000000000000000000000000000000000000000000000000000000081565b60405160ff9091168152602001610223565b60075461021790600160a81b900460ff1681565b6101f2610340366004612064565b610849565b6101f26108f9565b6007546102179060ff1681565b61036261090d565b604051610223999897969594939291906120ce565b6000546001600160a01b03166102cd565b6101f261039636600461212f565b610a4a565b6101f26103a936600461212f565b610b7a565b6103b6610d08565b604051610223919061215b565b6103d66103d1366004611f97565b610d96565b604051610223919061216e565b61023560055481565b6103f4610f8e565b6040805196875260208701959095529385019290925215156060840152608083015260a082015260c001610223565b6102357f000000000000000000000000000000000000000000000000000000000000000081565b6102357f000000000000000000000000000000000000000000000000000000000000000081565b6101f261047f366004611f97565b6110cc565b61023560065481565b6102cd7f000000000000000000000000000000000000000000000000000000000000000081565b6101f26104c2366004611f97565b61116d565b6101f26104d53660046121c0565b6116db565b6101f26104e8366004611f97565b611777565b6101f26104fb366004612064565b611b3d565b6007546102cd9061010090046001600160a01b031681565b60075461010090046001600160a01b031633148061054057506000546001600160a01b031633145b6105655760405162461bcd60e51b815260040161055c906121dd565b60405180910390fd5b60005b828110156106ac5760008484838181106105845761058461220b565b60209081029290920135600081815260039093526040909220549192505060ff16156105e95760405162461bcd60e51b815260206004820152601460248201527313919508185b1c9958591e481a5b881d985d5b1d60621b604482015260640161055c565b604051632142170760e11b81526001600160a01b037f000000000000000000000000000000000000000000000000000000000000000016906342842e0e9061063990339030908690600401612221565b600060405180830381600087803b15801561065357600080fd5b505af1158015610667573d6000803e3d6000fd5b5050506000828152600360205260408120805460ff19166001179055600480549250906106938361225b565b91905055505080806106a49061225b565b915050610568565b508015610700576106e86001600160a01b037f000000000000000000000000000000000000000000000000000000000000000016333084611b78565b80600560008282546106fa9190612274565b90915550505b60408051838152602081018390527f0aaa76c8a42ec2b6c80e857ced5306e0fe0a1e94eb891a653c2aec9bced6bb84910160405180910390a1610741611bd8565b505050565b6000807f00000000000000000000000000000000000000000000000000000000000000006001600160a01b031663a2309ff86040518163ffffffff1660e01b8152600401602060405180830381865afa1580156107a7573d6000803e3d6000fd5b505050506040513d601f19601f820116820180604052508101906107cb9190612287565b9050806000036107dd57600091505090565b60075460ff161561083b576004546000036107fa57600091505090565b7f000000000000000000000000000000000000000000000000000000000000000060045460055461082b91906122b6565b61083591906122b6565b91505090565b8060065461083591906122b6565b610851611dbe565b6001600160a01b03811661089f5760405162461bcd60e51b8152602060048201526015602482015274496e76616c69642061646d696e206164647265737360581b604482015260640161055c565b600780546001600160a01b03838116610100818102610100600160a81b031985161790945560405193909204169182907f101b8081ff3b56bbf45deb824d86a3b0fd38b7e3dd42421105cf8abe9106db0b90600090a35050565b610901611dbe565b61090b6000611deb565b565b606060008060008060008060008060027f00000000000000000000000000000000000000000000000000000000000000007f00000000000000000000000000000000000000000000000000000000000000007f000000000000000000000000000000000000000000000000000000000000000060045460055461098e610746565b600754875460ff80831692600160a81b9004169089906109ad906122ca565b80601f01602080910402602001604051908101604052809291908181526020018280546109d9906122ca565b8015610a265780601f106109fb57610100808354040283529160200191610a26565b820191906000526020600020905b815481529060010190602001808311610a0957829003601f168201915b50505050509850985098509850985098509850985098509850909192939495969798565b60075461010090046001600160a01b0316331480610a7257506000546001600160a01b031633145b610a8e5760405162461bcd60e51b815260040161055c906121dd565b6001600160a01b038216610ad85760405162461bcd60e51b8152602060048201526011602482015270125b9d985b1a59081c9958da5c1a595b9d607a1b604482015260640161055c565b600554811115610b2a5760405162461bcd60e51b815260206004820152601a60248201527f496e73756666696369656e7420746f6b656e2062616c616e6365000000000000604482015260640161055c565b8060056000828254610b3c9190612304565b90915550610b7690506001600160a01b037f0000000000000000000000000000000000000000000000000000000000000000168383611e3b565b5050565b60075461010090046001600160a01b0316331480610ba257506000546001600160a01b031633145b610bbe5760405162461bcd60e51b815260040161055c906121dd565b6001600160a01b038216610c085760405162461bcd60e51b8152602060048201526011602482015270125b9d985b1a59081c9958da5c1a595b9d607a1b604482015260640161055c565b60008181526003602052604090205460ff16610c595760405162461bcd60e51b815260206004820152601060248201526f139195081b9bdd081a5b881d985d5b1d60821b604482015260640161055c565b6000818152600360205260408120805460ff191690556004805491610c7d83612317565b9091555050604051632142170760e11b81526001600160a01b037f000000000000000000000000000000000000000000000000000000000000000016906342842e0e90610cd290309086908690600401612221565b600060405180830381600087803b158015610cec57600080fd5b505af1158015610d00573d6000803e3d6000fd5b505050505050565b60028054610d15906122ca565b80601f0160208091040260200160405190810160405280929190818152602001828054610d41906122ca565b8015610d8e5780601f10610d6357610100808354040283529160200191610d8e565b820191906000526020600020905b815481529060010190602001808311610d7157829003601f168201915b505050505081565b60606000610da660045484611e6c565b67ffffffffffffffff811115610dbe57610dbe61232e565b604051908082528060200260200182016040528015610de7578160200160208202803683370190505b509050600060015b7f00000000000000000000000000000000000000000000000000000000000000006001600160a01b03166332cb6b0c6040518163ffffffff1660e01b8152600401602060405180830381865afa158015610e4d573d6000803e3d6000fd5b505050506040513d601f19601f82011682018060405250810190610e719190612287565b8111158015610e7f57508482105b15610ed95760008181526003602052604090205460ff1615610ec75780838381518110610eae57610eae61220b565b602090810291909101015281610ec38161225b565b9250505b80610ed18161225b565b915050610def565b508151811015610f875760008167ffffffffffffffff811115610efe57610efe61232e565b604051908082528060200260200182016040528015610f27578160200160208202803683370190505b50905060005b82811015610f7e57838181518110610f4757610f4761220b565b6020026020010151828281518110610f6157610f6161220b565b602090810291909101015280610f768161225b565b915050610f2d565b50949350505050565b5092915050565b600080600080600080600454600554610fa5610746565b600760009054906101000a900460ff167f00000000000000000000000000000000000000000000000000000000000000006001600160a01b031663a2309ff86040518163ffffffff1660e01b8152600401602060405180830381865afa158015611013573d6000803e3d6000fd5b505050506040513d601f19601f820116820180604052508101906110379190612287565b7f00000000000000000000000000000000000000000000000000000000000000006001600160a01b03166332cb6b0c6040518163ffffffff1660e01b8152600401602060405180830381865afa158015611095573d6000803e3d6000fd5b505050506040513d601f19601f820116820180604052508101906110b99190612287565b949b939a50919850965094509092509050565b60075461010090046001600160a01b03163314806110f457506000546001600160a01b031633145b6111105760405162461bcd60e51b815260040161055c906121dd565b80600660008282546111229190612274565b909155507f41c5e8c55061532e874271e77c72be737c2b190be0b0da85c4b6248689eac53a9050611151610746565b60405190815260200160405180910390a161116a611bd8565b50565b611175611e81565b600754600160a81b900460ff166111c55760405162461bcd60e51b815260206004820152601460248201527314ddd85c1c1a5b99c81a5cc8191a5cd8589b195960621b604482015260640161055c565b7f00000000000000000000000000000000000000000000000000000000000000008110156112355760405162461bcd60e51b815260206004820152601960248201527f496e73756666696369656e7420746f6b656e20616d6f756e7400000000000000604482015260640161055c565b61125f7f000000000000000000000000000000000000000000000000000000000000000082612344565b156112a35760405162461bcd60e51b8152602060048201526014602482015273125b9d985b1a59081d1bdad95b88185b5bdd5b9d60621b604482015260640161055c565b6000600454116112f55760405162461bcd60e51b815260206004820152601a60248201527f4e6f204e46547320617661696c61626c6520696e207661756c74000000000000604482015260640161055c565b60006113217f0000000000000000000000000000000000000000000000000000000000000000836122b6565b90506004548111156113755760405162461bcd60e51b815260206004820152601860248201527f4e6f7420656e6f756768204e46547320696e207661756c740000000000000000604482015260640161055c565b6040516323b872dd60e01b81526001600160a01b037f000000000000000000000000000000000000000000000000000000000000000016906323b872dd906113c590339030908790600401612221565b6020604051808303816000875af11580156113e4573d6000803e3d6000fd5b505050506040513d601f19601f820116820180604052508101906114089190612358565b61144c5760405162461bcd60e51b8152602060048201526015602482015274151bdad95b881d1c985b9cd9995c8819985a5b1959605a1b604482015260640161055c565b816005600082825461145e9190612274565b909155506000905060015b7f00000000000000000000000000000000000000000000000000000000000000006001600160a01b03166332cb6b0c6040518163ffffffff1660e01b8152600401602060405180830381865afa1580156114c7573d6000803e3d6000fd5b505050506040513d601f19601f820116820180604052508101906114eb9190612287565b81111580156114f957508282105b156116465760008181526003602052604090205460ff161561163457604051632142170760e11b81526001600160a01b037f000000000000000000000000000000000000000000000000000000000000000016906342842e0e9061156590309033908690600401612221565b600060405180830381600087803b15801561157f57600080fd5b505af1158015611593573d6000803e3d6000fd5b5050506000828152600360205260408120805460ff19169055600480549250906115bc83612317565b919050555081806115cc9061225b565b92505080336001600160a01b03167f0a08eebabec640fe759f6e5d61d6377cfe1f1367ae220b5f81a44a7b74c9be347f000000000000000000000000000000000000000000000000000000000000000060405161162b91815260200190565b60405180910390a35b8061163e8161225b565b915050611469565b508181146116965760405162461bcd60e51b815260206004820152601b60248201527f4661696c656420746f207472616e7366657220616c6c204e4654730000000000604482015260640161055c565b7f41c5e8c55061532e874271e77c72be737c2b190be0b0da85c4b6248689eac53a6116bf610746565b60405190815260200160405180910390a1505061116a60018055565b60075461010090046001600160a01b031633148061170357506000546001600160a01b031633145b61171f5760405162461bcd60e51b815260040161055c906121dd565b60078054821515600160a81b0260ff60a81b199091161790556040517fd101cbf49d2d7d396082a0e64b8dcc4e0b2a280bdccc3855f1d1fe8cf9d0f0e29061176c90831515815260200190565b60405180910390a150565b61177f611e81565b600754600160a81b900460ff166117cf5760405162461bcd60e51b815260206004820152601460248201527314ddd85c1c1a5b99c81a5cc8191a5cd8589b195960621b604482015260640161055c565b6040516331a9108f60e11b81526004810182905233906001600160a01b037f00000000000000000000000000000000000000000000000000000000000000001690636352211e90602401602060405180830381865afa158015611836573d6000803e3d6000fd5b505050506040513d601f19601f8201168201806040525081019061185a9190612375565b6001600160a01b0316146118a05760405162461bcd60e51b815260206004820152600d60248201526c2737ba1027232a1037bbb732b960991b604482015260640161055c565b60008181526003602052604090205460ff16156118f65760405162461bcd60e51b815260206004820152601460248201527313919508185b1c9958591e481a5b881d985d5b1d60621b604482015260640161055c565b7f000000000000000000000000000000000000000000000000000000000000000060055410156119685760405162461bcd60e51b815260206004820152601c60248201527f496e73756666696369656e7420746f6b656e7320696e207661756c7400000000604482015260640161055c565b604051632142170760e11b81526001600160a01b037f000000000000000000000000000000000000000000000000000000000000000016906342842e0e906119b890339030908690600401612221565b600060405180830381600087803b1580156119d257600080fd5b505af11580156119e6573d6000803e3d6000fd5b5050506000828152600360205260408120805460ff1916600117905560048054925090611a128361225b565b91905055507f000000000000000000000000000000000000000000000000000000000000000060056000828254611a499190612304565b90915550611aa390506001600160a01b037f000000000000000000000000000000000000000000000000000000000000000016337f0000000000000000000000000000000000000000000000000000000000000000611e3b565b6040517f00000000000000000000000000000000000000000000000000000000000000008152819033907f494c78ec0278e768f6779f083e8c6b4691758074367b4e7c6355aa772ed6d7049060200160405180910390a37f41c5e8c55061532e874271e77c72be737c2b190be0b0da85c4b6248689eac53a611b23610746565b60405190815260200160405180910390a161116a60018055565b611b45611dbe565b6001600160a01b038116611b6f57604051631e4fbdf760e01b81526000600482015260240161055c565b61116a81611deb565b611bd284856001600160a01b03166323b872dd868686604051602401611ba093929190612221565b604051602081830303815290604052915060e01b6020820180516001600160e01b038381831617835250505050611eab565b50505050565b60075460ff16158015611ced57507f00000000000000000000000000000000000000000000000000000000000000006001600160a01b03166332cb6b0c6040518163ffffffff1660e01b8152600401602060405180830381865afa158015611c44573d6000803e3d6000fd5b505050506040513d601f19601f82011682018060405250810190611c689190612287565b7f00000000000000000000000000000000000000000000000000000000000000006001600160a01b031663a2309ff86040518163ffffffff1660e01b8152600401602060405180830381865afa158015611cc6573d6000803e3d6000fd5b505050506040513d601f19601f82011682018060405250810190611cea9190612287565b10155b1561090b576007805460ff191660011790556040805163144613ff60e31b815290517f2f32e519b30d0f52c856843502cc5b899f08f78da6adc87ddedb8d70c7365b1f916001600160a01b037f0000000000000000000000000000000000000000000000000000000000000000169163a2309ff8916004808201926020929091908290030181865afa158015611d87573d6000803e3d6000fd5b505050506040513d601f19601f82011682018060405250810190611dab9190612287565b60405190815260200160405180910390a1565b6000546001600160a01b0316331461090b5760405163118cdaa760e01b815233600482015260240161055c565b600080546001600160a01b038381166001600160a01b0319831681178455604051919092169283917f8be0079c531659141344cd1fd0a4f28419497f9722a3daafe3b4186f6b6457e09190a35050565b6040516001600160a01b0383811660248301526044820183905261074191859182169063a9059cbb90606401611ba0565b60008282188284100282185b90505b92915050565b600260015403611ea457604051633ee5aeb560e01b815260040160405180910390fd5b6002600155565b600080602060008451602086016000885af180611ece576040513d6000823e3d81fd5b50506000513d91508115611ee6578060011415611ef3565b6001600160a01b0384163b155b15611bd257604051635274afe760e01b81526001600160a01b038516600482015260240161055c565b600080600060408486031215611f3157600080fd5b833567ffffffffffffffff80821115611f4957600080fd5b818601915086601f830112611f5d57600080fd5b813581811115611f6c57600080fd5b8760208260051b8501011115611f8157600080fd5b6020928301989097509590910135949350505050565b600060208284031215611fa957600080fd5b5035919050565b6001600160a01b038116811461116a57600080fd5b600080600080600060808688031215611fdd57600080fd5b8535611fe881611fb0565b94506020860135611ff881611fb0565b935060408601359250606086013567ffffffffffffffff8082111561201c57600080fd5b818801915088601f83011261203057600080fd5b81358181111561203f57600080fd5b89602082850101111561205157600080fd5b9699959850939650602001949392505050565b60006020828403121561207657600080fd5b813561208181611fb0565b9392505050565b6000815180845260005b818110156120ae57602081850181015186830182015201612092565b506000602082860101526020601f19601f83011685010191505092915050565b60006101208083526120e28184018d612088565b6001600160a01b039b8c16602085015299909a166040830152506060810196909652608086019490945260a085019290925260c0840152151560e083015215156101009091015292915050565b6000806040838503121561214257600080fd5b823561214d81611fb0565b946020939093013593505050565b602081526000611e786020830184612088565b6020808252825182820181905260009190848201906040850190845b818110156121a65783518352928401929184019160010161218a565b50909695505050505050565b801515811461116a57600080fd5b6000602082840312156121d257600080fd5b8135612081816121b2565b6020808252601490820152732737ba1030baba3437b934bd32b21030b236b4b760611b604082015260600190565b634e487b7160e01b600052603260045260246000fd5b6001600160a01b039384168152919092166020820152604081019190915260600190565b634e487b7160e01b600052601160045260246000fd5b60006001820161226d5761226d612245565b5060010190565b80820180821115611e7b57611e7b612245565b60006020828403121561229957600080fd5b5051919050565b634e487b7160e01b600052601260045260246000fd5b6000826122c5576122c56122a0565b500490565b600181811c908216806122de57607f821691505b6020821081036122fe57634e487b7160e01b600052602260045260246000fd5b50919050565b81810381811115611e7b57611e7b612245565b60008161232657612326612245565b506000190190565b634e487b7160e01b600052604160045260246000fd5b600082612353576123536122a0565b500690565b60006020828403121561236a57600080fd5b8151612081816121b2565b60006020828403121561238757600080fd5b815161208181611fb056fea264697066735822122030a05a3147a9f145ba8ad437cfb1597813bd43ea197a1cafedb34d17a754836764736f6c63430008140033",
  "linkReferences": {},
  "deployedLinkReferences": {}
}