{
  "_format": "hh-sol-artifact-1",
  "contractName": "ERC222Vault",
  "sourceName": "contracts/ERC222Vault.sol",
  "abi": [
    {
      "inputs": [
        {
          "internalType": "address",
          "name": "nftContract_",
          "type": "address"
        },
        {
          "internalType": "address",
          "name": "tokenContract_",
          "type": "address"
        },
        {
          "internalType": "string",
          "name": "songName_",
          "type": "string"
        },
        {
          "internalType": "address",
          "name": "admin_",
          "type": "address"
        }
      ],
      "stateMutability": "nonpayable",
      "type": "constructor"
    },
    {
      "inputs": [
        {
          "internalType": "address",
          "name": "owner",
          "type": "address"
        }
      ],
      "name": "OwnableInvalidOwner",
      "type": "error"
    },
    {
      "inputs": [
        {
          "internalType": "address",
          "name": "account",
          "type": "address"
        }
      ],
      "name": "OwnableUnauthorizedAccount",
      "type": "error"
    },
    {
      "inputs": [],
      "name": "ReentrancyGuardReentrantCall",
      "type": "error"
    },
    {
      "anonymous": false,
      "inputs": [
        {
          "indexed": true,
          "internalType": "address",
          "name": "oldAdmin",
          "type": "address"
        },
        {
          "indexed": true,
          "internalType": "address",
          "name": "newAdmin",
          "type": "address"
        }
      ],
      "name": "AdminUpdated",
      "type": "event"
    },
    {
      "anonymous": false,
      "inputs": [
        {
          "indexed": false,
          "internalType": "uint256",
          "name": "newFloorPrice",
          "type": "uint256"
        }
      ],
      "name": "FloorPriceUpdated",
      "type": "event"
    },
    {
      "anonymous": false,
      "inputs": [
        {
          "indexed": true,
          "internalType": "address",
          "name": "user",
          "type": "address"
        },
        {
          "indexed": true,
          "internalType": "uint256",
          "name": "tokenId",
          "type": "uint256"
        },
        {
          "indexed": false,
          "internalType": "uint256",
          "name": "tokensReceived",
          "type": "uint256"
        }
      ],
      "name": "NFTDepositedToVault",
      "type": "event"
    },
    {
      "anonymous": false,
      "inputs": [
        {
          "indexed": true,
          "internalType": "address",
          "name": "user",
          "type": "address"
        },
        {
          "indexed": true,
          "internalType": "uint256",
          "name": "tokenId",
          "type": "uint256"
        },
        {
          "indexed": false,
          "internalType": "uint256",
          "name": "tokensPaid",
          "type": "uint256"
        }
      ],
      "name": "NFTWithdrawnFromVault",
      "type": "event"
    },
    {
      "anonymous": false,
      "inputs": [
        {
          "indexed": false,
          "internalType": "uint256",
          "name": "totalNFTsMinted",
          "type": "uint256"
        }
      ],
      "name": "OpenMarketModeActivated",
      "type": "event"
    },
    {
      "anonymous": false,
      "inputs": [
        {
          "indexed": true,
          "internalType": "address",
          "name": "previousOwner",
          "type": "address"
        },
        {
          "indexed": true,
          "internalType": "address",
          "name": "newOwner",
          "type": "address"
        }
      ],
      "name": "OwnershipTransferred",
      "type": "event"
    },
    {
      "anonymous": false,
      "inputs": [
        {
          "indexed": false,
          "internalType": "bool",
          "name": "enabled",
          "type": "bool"
        }
      ],
      "name": "SwapStatusUpdated",
      "type": "event"
    },
    {
      "anonymous": false,
      "inputs": [
        {
          "indexed": true,
          "internalType": "address",
          "name": "user",
          "type": "address"
        },
        {
          "indexed": false,
          "internalType": "uint256",
          "name": "tokenAmount",
          "type": "uint256"
        },
        {
          "indexed": true,
          "internalType": "uint256",
          "name": "nftReceived",
          "type": "uint256"
        }
      ],
      "name": "TokensDepositedToVault",
      "type": "event"
    },
    {
      "anonymous": false,
      "inputs": [
        {
          "indexed": true,
          "internalType": "address",
          "name": "user",
          "type": "address"
        },
        {
          "indexed": false,
          "internalType": "uint256",
          "name": "tokenAmount",
          "type": "uint256"
        },
        {
          "indexed": true,
          "internalType": "uint256",
          "name": "nftDeposited",
          "type": "uint256"
        }
      ],
      "name": "TokensWithdrawnFromVault",
      "type": "event"
    },
    {
      "anonymous": false,
      "inputs": [
        {
          "indexed": false,
          "internalType": "uint256",
          "name": "nftCount",
          "type": "uint256"
        },
        {
          "indexed": false,
          "internalType": "uint256",
          "name": "tokenAmount",
          "type": "uint256"
        }
      ],
      "name": "VaultPreloaded",
      "type": "event"
    },
    {
      "inputs": [],
      "name": "TOKENS_PER_NFT",
      "outputs": [
        {
          "internalType": "uint256",
          "name": "",
          "type": "uint256"
        }
      ],
      "stateMutability": "view",
      "type": "function"
    },
    {
      "inputs": [],
      "name": "admin",
      "outputs": [
        {
          "internalType": "address",
          "name": "",
          "type": "address"
        }
      ],
      "stateMutability": "view",
      "type": "function"
    },
    {
      "inputs": [
        {
          "internalType": "uint256",
          "name": "tokenId",
          "type": "uint256"
        }
      ],
      "name": "depositNFT",
      "outputs": [],
      "stateMutability": "nonpayable",
      "type": "function"
    },
    {
      "inputs": [
        {
          "internalType": "uint256",
          "name": "tokenAmount",
          "type": "uint256"
        }
      ],
      "name": "depositTokens",
      "outputs": [],
      "stateMutability": "nonpayable",
      "type": "function"
    },
    {
      "inputs": [
        {
          "internalType": "address",
          "name": "to",
          "type": "address"
        },
        {
          "internalType": "uint256",
          "name": "tokenId",
          "type": "uint256"
        }
      ],
      "name": "emergencyWithdrawNFT",
      "outputs": [],
      "stateMutability": "nonpayable",
      "type": "function"
    },
    {
      "inputs": [
        {
          "internalType": "address",
          "name": "to",
          "type": "address"
        },
        {
          "internalType": "uint256",
          "name": "amount",
          "type": "uint256"
        }
      ],
      "name": "emergencyWithdrawTokens",
      "outputs": [],
      "stateMutability": "nonpayable",
      "type": "function"
    },
    {
      "inputs": [],
      "name": "getFloorPrice",
      "outputs": [
        {
          "internalType": "uint256",
          "name": "",
          "type": "uint256"
        }
      ],
      "stateMutability": "view",
      "type": "function"
    },
    {
      "inputs": [
        {
          "internalType": "uint256",
          "name": "maxResults",
          "type": "uint256"
        }
      ],
      "name": "getNFTsInVault",
      "outputs": [
        {
          "internalType": "uint256[]",
          "name": "",
          "type": "uint256[]"
        }
      ],
      "stateMutability": "view",
      "type": "function"
    },
    {
      "inputs": [],
      "name": "getVaultInfo",
      "outputs": [
        {
          "internalType": "string",
          "name": "vaultSongName",
          "type": "string"
        },
        {
          "internalType": "address",
          "name": "nftAddress",
          "type": "address"
        },
        {
          "internalType": "address",
          "name": "tokenAddress",
          "type": "address"
        },
        {
          "internalType": "uint256",
          "name": "conversionRatio",
          "type": "uint256"
        },
        {
          "internalType": "uint256",
          "name": "nftsHeld",
          "type": "uint256"
        },
        {
          "internalType": "uint256",
          "name": "tokensHeld",
          "type": "uint256"
        },
        {
          "internalType": "uint256",
          "name": "currentFloorPrice",
          "type": "uint256"
        },
        {
          "internalType": "bool",
          "name": "openMarket",
          "type": "bool"
        },
        {
          "internalType": "bool",
          "name": "swappingEnabled",
          "type": "bool"
        }
      ],
      "stateMutability": "view",
      "type": "function"
    },
    {
      "inputs": [],
      "name": "getVaultStats",
      "outputs": [
        {
          "internalType": "uint256",
          "name": "nftsInVault",
          "type": "uint256"
        },
        {
          "internalType": "uint256",
          "name": "tokensInVault",
          "type": "uint256"
        },
        {
          "internalType": "uint256",
          "name": "floorPrice",
          "type": "uint256"
        },
        {
          "internalType": "bool",
          "name": "isOpenMarket",
          "type": "bool"
        },
        {
          "internalType": "uint256",
          "name": "totalNFTsMinted",
          "type": "uint256"
        },
        {
          "internalType": "uint256",
          "name": "maxNFTSupply",
          "type": "uint256"
        }
      ],
      "stateMutability": "view",
      "type": "function"
    },
    {
      "inputs": [
        {
          "internalType": "uint256",
          "name": "tokenId",
          "type": "uint256"
        }
      ],
      "name": "isNFTInVault",
      "outputs": [
        {
          "internalType": "bool",
          "name": "",
          "type": "bool"
        }
      ],
      "stateMutability": "view",
      "type": "function"
    },
    {
      "inputs": [],
      "name": "nftContract",
      "outputs": [
        {
          "internalType": "contract IERC222NFT",
          "name": "",
          "type": "address"
        }
      ],
      "stateMutability": "view",
      "type": "function"
    },
    {
      "inputs": [],
      "name": "nftCount",
      "outputs": [
        {
          "internalType": "uint256",
          "name": "",
          "type": "uint256"
        }
      ],
      "stateMutability": "view",
      "type": "function"
    },
    {
      "inputs": [
        {
          "internalType": "uint256",
          "name": "",
          "type": "uint256"
        }
      ],
      "name": "nftHeld",
      "outputs": [
        {
          "internalType": "bool",
          "name": "",
          "type": "bool"
        }
      ],
      "stateMutability": "view",
      "type": "function"
    },
    {
      "inputs": [
        {
          "internalType": "address",
          "name": "operator",
          "type": "address"
        },
        {
          "internalType": "address",
          "name": "from",
          "type": "address"
        },
        {
          "internalType": "uint256",
          "name": "tokenId",
          "type": "uint256"
        },
        {
          "internalType": "bytes",
          "name": "data",
          "type": "bytes"
        }
      ],
      "name": "onERC721Received",
      "outputs": [
        {
          "internalType": "bytes4",
          "name": "",
          "type": "bytes4"
        }
      ],
      "stateMutability": "pure",
      "type": "function"
    },
    {
      "inputs": [],
      "name": "openMarketMode",
      "outputs": [
        {
          "internalType": "bool",
          "name": "",
          "type": "bool"
        }
      ],
      "stateMutability": "view",
      "type": "function"
    },
    {
      "inputs": [],
      "name": "owner",
      "outputs": [
        {
          "internalType": "address",
          "name": "",
          "type": "address"
        }
      ],
      "stateMutability": "view",
      "type": "function"
    },
    {
      "inputs": [
        {
          "internalType": "uint256[]",
          "name": "nftIds",
          "type": "uint256[]"
        },
        {
          "internalType": "uint256",
          "name": "tokenAmount",
          "type": "uint256"
        }
      ],
      "name": "preloadVault",
      "outputs": [],
      "stateMutability": "nonpayable",
      "type": "function"
    },
    {
      "inputs": [],
      "name": "renounceOwnership",
      "outputs": [],
      "stateMutability": "nonpayable",
      "type": "function"
    },
    {
      "inputs": [
        {
          "internalType": "address",
          "name": "newAdmin",
          "type": "address"
        }
      ],
      "name": "setAdmin",
      "outputs": [],
      "stateMutability": "nonpayable",
      "type": "function"
    },
    {
      "inputs": [
        {
          "internalType": "bool",
          "name": "enabled",
          "type": "bool"
        }
      ],
      "name": "setSwapEnabled",
      "outputs": [],
      "stateMutability": "nonpayable",
      "type": "function"
    },
    {
      "inputs": [],
      "name": "songName",
      "outputs": [
        {
          "internalType": "string",
          "name": "",
          "type": "string"
        }
      ],
      "stateMutability": "view",
      "type": "function"
    },
    {
      "inputs": [],
      "name": "swapEnabled",
      "outputs": [
        {
          "internalType": "bool",
          "name": "",
          "type": "bool"
        }
      ],
      "stateMutability": "view",
      "type": "function"
    },
    {
      "inputs": [],
      "name": "tokenBalance",
      "outputs": [
        {
          "internalType": "uint256",
          "name": "",
          "type": "uint256"
        }
      ],
      "stateMutability": "view",
      "type": "function"
    },
    {
      "inputs": [],
      "name": "tokenContract",
      "outputs": [
        {
          "internalType": "contract IERC222Token",
          "name": "",
          "type": "address"
        }
      ],
      "stateMutability": "view",
      "type": "function"
    },
    {
      "inputs": [],
      "name": "totalMarketCap",
      "outputs": [
        {
          "internalType": "uint256",
          "name": "",
          "type": "uint256"
        }
      ],
      "stateMutability": "view",
      "type": "function"
    },
    {
      "inputs": [
        {
          "internalType": "address",
          "name": "newOwner",
          "type": "address"
        }
      ],
      "name": "transferOwnership",
      "outputs": [],
      "stateMutability": "nonpayable",
      "type": "function"
    },
    {
      "inputs": [
        {
          "internalType": "uint256",
          "name": "additionalValue",
          "type": "uint256"
        }
      ],
      "name": "updateMarketCap",
      "outputs": [],
      "stateMutability": "nonpayable",
      "type": "function"
    }
  ],
  "bytecode": "0x60e06040526007805460ff60a81b1916600160a81b1790553480156200002457600080fd5b5060405162002a5a38038062002a5a83398101604081905262000047916200031b565b33806200006f57604051631e4fbdf760e01b8152600060048201526024015b60405180910390fd5b6200007a8162000298565b50600180556001600160a01b038416620000d75760405162461bcd60e51b815260206004820152601460248201527f496e76616c6964204e465420636f6e7472616374000000000000000000000000604482015260640162000066565b6001600160a01b0383166200012f5760405162461bcd60e51b815260206004820152601660248201527f496e76616c696420746f6b656e20636f6e747261637400000000000000000000604482015260640162000066565b6000825111620001825760405162461bcd60e51b815260206004820152601960248201527f536f6e67206e616d652063616e6e6f7420626520656d70747900000000000000604482015260640162000066565b6001600160a01b038116620001da5760405162461bcd60e51b815260206004820152601560248201527f496e76616c69642061646d696e20616464726573730000000000000000000000604482015260640162000066565b6001600160a01b03808516608052831660a0526002620001fb8382620004b7565b5080600760016101000a8154816001600160a01b0302191690836001600160a01b0316021790555060a0516001600160a01b031663adee8ff26040518163ffffffff1660e01b8152600401602060405180830381865afa15801562000264573d6000803e3d6000fd5b505050506040513d601f19601f820116820180604052508101906200028a919062000583565b60c052506200059d92505050565b600080546001600160a01b038381166001600160a01b0319831681178455604051919092169283917f8be0079c531659141344cd1fd0a4f28419497f9722a3daafe3b4186f6b6457e09190a35050565b80516001600160a01b03811681146200030057600080fd5b919050565b634e487b7160e01b600052604160045260246000fd5b600080600080608085870312156200033257600080fd5b6200033d85620002e8565b935060206200034e818701620002e8565b60408701519094506001600160401b03808211156200036c57600080fd5b818801915088601f8301126200038157600080fd5b81518181111562000396576200039662000305565b604051601f8201601f19908116603f01168101908382118183101715620003c157620003c162000305565b816040528281528b86848701011115620003da57600080fd5b600093505b82841015620003fe5784840186015181850187015292850192620003df565b60008684830101528097505050505050506200041d60608601620002e8565b905092959194509250565b600181811c908216806200043d57607f821691505b6020821081036200045e57634e487b7160e01b600052602260045260246000fd5b50919050565b601f821115620004b257600081815260208120601f850160051c810160208610156200048d5750805b601f850160051c820191505b81811015620004ae5782815560010162000499565b5050505b505050565b81516001600160401b03811115620004d357620004d362000305565b620004eb81620004e4845462000428565b8462000464565b602080601f8311600181146200052357600084156200050a5750858301515b600019600386901b1c1916600185901b178555620004ae565b600085815260208120601f198616915b82811015620005545788860151825594840194600190910190840162000533565b5085821015620005735787850151600019600388901b60f8161c191681555b5050505050600190811b01905550565b6000602082840312156200059657600080fd5b5051919050565b60805160a05160c0516123c262000698600039600081816103d9015281816108000152818161096501528181611245015281816112b80152818161137a015281816116530152818161194e01528181611a6f01528181611ab90152611b75015260008181610295015281816106540152818161094401528181610b6b0152818161140a0152611adf01526000818161041c0152818161058a0152818161074f0152818161092301528181610d1701528181610e6f01528181611035015281816110b7015281816114c10152818161158201528181611845015281816119d501528181611c5501528181611cd70152611da801526123c26000f3fe608060405234801561001057600080fd5b50600436106101c45760003560e01c8063922b8079116100f9578063bbffa2d311610097578063e01af92c11610071578063e01af92c14610451578063e91a7ca614610464578063f2fde38b14610477578063f851a4401461048a57600080fd5b8063bbffa2d31461040e578063d56d229d14610417578063dd49756e1461043e57600080fd5b80639e1a4d19116100d35780639e1a4d1914610394578063a59aa5a61461039d578063adee8ff2146103d4578063b1e776e3146103fb57600080fd5b8063922b80791461034c57806396cd06f81461035f578063978cd40f1461037457600080fd5b80636ddd1713116101665780637304fa20116101405780637304fa20146102fe5780637f98aa711461030b5780638da5cb5b14610328578063917bb9981461033957600080fd5b80636ddd1713146102cf578063704b6c02146102e3578063715018a6146102f657600080fd5b8063150b7a02116101a2578063150b7a021461022d5780632a33d6b214610265578063505860881461026d57806355a373d61461029057600080fd5b8063029a3c5f146101c9578063035dd06d146101de5780630af2c6ca14610216575b600080fd5b6101dc6101d7366004611ee7565b6104a2565b005b6102016101ec366004611f62565b60009081526003602052604090205460ff1690565b60405190151581526020015b60405180910390f35b61021f60045481565b60405190815260200161020d565b61024c61023b366004611f90565b630a85bd0160e11b95945050505050565b6040516001600160e01b0319909116815260200161020d565b61021f61074a565b61020161027b366004611f62565b60036020526000908152604090205460ff1681565b6102b77f000000000000000000000000000000000000000000000000000000000000000081565b6040516001600160a01b03909116815260200161020d565b60075461020190600160a81b900460ff1681565b6101dc6102f136600461202f565b61084d565b6101dc6108fd565b6007546102019060ff1681565b610313610911565b60405161020d99989796959493929190612099565b6000546001600160a01b03166102b7565b6101dc6103473660046120fa565b610a4e565b6101dc61035a3660046120fa565b610bf8565b610367610d86565b60405161020d9190612126565b610387610382366004611f62565b610e14565b60405161020d9190612139565b61021f60055481565b6103a561100c565b6040805196875260208701959095529385019290925215156060840152608083015260a082015260c00161020d565b61021f7f000000000000000000000000000000000000000000000000000000000000000081565b6101dc610409366004611f62565b61114a565b61021f60065481565b6102b77f000000000000000000000000000000000000000000000000000000000000000081565b6101dc61044c366004611f62565b6111eb565b6101dc61045f36600461218b565b611731565b6101dc610472366004611f62565b6117cd565b6101dc61048536600461202f565b611c0a565b6007546102b79061010090046001600160a01b031681565b60075461010090046001600160a01b03163314806104ca57506000546001600160a01b031633145b6104ef5760405162461bcd60e51b81526004016104e6906121a8565b60405180910390fd5b60005b8281101561063657600084848381811061050e5761050e6121d6565b60209081029290920135600081815260039093526040909220549192505060ff16156105735760405162461bcd60e51b815260206004820152601460248201527313919508185b1c9958591e481a5b881d985d5b1d60621b60448201526064016104e6565b604051632142170760e11b81526001600160a01b037f000000000000000000000000000000000000000000000000000000000000000016906342842e0e906105c3903390309086906004016121ec565b600060405180830381600087803b1580156105dd57600080fd5b505af11580156105f1573d6000803e3d6000fd5b5050506000828152600360205260408120805460ff191660011790556004805492509061061d83612226565b919050555050808061062e90612226565b9150506104f2565b508015610704576040516323b872dd60e01b81526001600160a01b037f000000000000000000000000000000000000000000000000000000000000000016906323b872dd9061068d903390309086906004016121ec565b6020604051808303816000875af11580156106ac573d6000803e3d6000fd5b505050506040513d601f19601f820116820180604052508101906106d0919061223f565b6106ec5760405162461bcd60e51b81526004016104e69061225c565b80600560008282546106fe919061228b565b90915550505b60408051838152602081018390527f0aaa76c8a42ec2b6c80e857ced5306e0fe0a1e94eb891a653c2aec9bced6bb84910160405180910390a1610745611c45565b505050565b6000807f00000000000000000000000000000000000000000000000000000000000000006001600160a01b031663a2309ff86040518163ffffffff1660e01b8152600401602060405180830381865afa1580156107ab573d6000803e3d6000fd5b505050506040513d601f19601f820116820180604052508101906107cf919061229e565b9050806000036107e157600091505090565b60075460ff161561083f576004546000036107fe57600091505090565b7f000000000000000000000000000000000000000000000000000000000000000060045460055461082f91906122cd565b61083991906122cd565b91505090565b8060065461083991906122cd565b610855611e2b565b6001600160a01b0381166108a35760405162461bcd60e51b8152602060048201526015602482015274496e76616c69642061646d696e206164647265737360581b60448201526064016104e6565b600780546001600160a01b03838116610100818102610100600160a81b031985161790945560405193909204169182907f101b8081ff3b56bbf45deb824d86a3b0fd38b7e3dd42421105cf8abe9106db0b90600090a35050565b610905611e2b565b61090f6000611e58565b565b606060008060008060008060008060027f00000000000000000000000000000000000000000000000000000000000000007f00000000000000000000000000000000000000000000000000000000000000007f000000000000000000000000000000000000000000000000000000000000000060045460055461099261074a565b600754875460ff80831692600160a81b9004169089906109b1906122e1565b80601f01602080910402602001604051908101604052809291908181526020018280546109dd906122e1565b8015610a2a5780601f106109ff57610100808354040283529160200191610a2a565b820191906000526020600020905b815481529060010190602001808311610a0d57829003601f168201915b50505050509850985098509850985098509850985098509850909192939495969798565b60075461010090046001600160a01b0316331480610a7657506000546001600160a01b031633145b610a925760405162461bcd60e51b81526004016104e6906121a8565b6001600160a01b038216610adc5760405162461bcd60e51b8152602060048201526011602482015270125b9d985b1a59081c9958da5c1a595b9d607a1b60448201526064016104e6565b600554811115610b2e5760405162461bcd60e51b815260206004820152601a60248201527f496e73756666696369656e7420746f6b656e2062616c616e636500000000000060448201526064016104e6565b8060056000828254610b40919061231b565b909155505060405163a9059cbb60e01b81526001600160a01b038381166004830152602482018390527f0000000000000000000000000000000000000000000000000000000000000000169063a9059cbb906044016020604051808303816000875af1158015610bb4573d6000803e3d6000fd5b505050506040513d601f19601f82011682018060405250810190610bd8919061223f565b610bf45760405162461bcd60e51b81526004016104e69061225c565b5050565b60075461010090046001600160a01b0316331480610c2057506000546001600160a01b031633145b610c3c5760405162461bcd60e51b81526004016104e6906121a8565b6001600160a01b038216610c865760405162461bcd60e51b8152602060048201526011602482015270125b9d985b1a59081c9958da5c1a595b9d607a1b60448201526064016104e6565b60008181526003602052604090205460ff16610cd75760405162461bcd60e51b815260206004820152601060248201526f139195081b9bdd081a5b881d985d5b1d60821b60448201526064016104e6565b6000818152600360205260408120805460ff191690556004805491610cfb8361232e565b9091555050604051632142170760e11b81526001600160a01b037f000000000000000000000000000000000000000000000000000000000000000016906342842e0e90610d50903090869086906004016121ec565b600060405180830381600087803b158015610d6a57600080fd5b505af1158015610d7e573d6000803e3d6000fd5b505050505050565b60028054610d93906122e1565b80601f0160208091040260200160405190810160405280929190818152602001828054610dbf906122e1565b8015610e0c5780601f10610de157610100808354040283529160200191610e0c565b820191906000526020600020905b815481529060010190602001808311610def57829003601f168201915b505050505081565b60606000610e2460045484611ea8565b67ffffffffffffffff811115610e3c57610e3c612345565b604051908082528060200260200182016040528015610e65578160200160208202803683370190505b509050600060015b7f00000000000000000000000000000000000000000000000000000000000000006001600160a01b03166332cb6b0c6040518163ffffffff1660e01b8152600401602060405180830381865afa158015610ecb573d6000803e3d6000fd5b505050506040513d601f19601f82011682018060405250810190610eef919061229e565b8111158015610efd57508482105b15610f575760008181526003602052604090205460ff1615610f455780838381518110610f2c57610f2c6121d6565b602090810291909101015281610f4181612226565b9250505b80610f4f81612226565b915050610e6d565b5081518110156110055760008167ffffffffffffffff811115610f7c57610f7c612345565b604051908082528060200260200182016040528015610fa5578160200160208202803683370190505b50905060005b82811015610ffc57838181518110610fc557610fc56121d6565b6020026020010151828281518110610fdf57610fdf6121d6565b602090810291909101015280610ff481612226565b915050610fab565b50949350505050565b5092915050565b60008060008060008060045460055461102361074a565b600760009054906101000a900460ff167f00000000000000000000000000000000000000000000000000000000000000006001600160a01b031663a2309ff86040518163ffffffff1660e01b8152600401602060405180830381865afa158015611091573d6000803e3d6000fd5b505050506040513d601f19601f820116820180604052508101906110b5919061229e565b7f00000000000000000000000000000000000000000000000000000000000000006001600160a01b03166332cb6b0c6040518163ffffffff1660e01b8152600401602060405180830381865afa158015611113573d6000803e3d6000fd5b505050506040513d601f19601f82011682018060405250810190611137919061229e565b949b939a50919850965094509092509050565b60075461010090046001600160a01b031633148061117257506000546001600160a01b031633145b61118e5760405162461bcd60e51b81526004016104e6906121a8565b80600660008282546111a0919061228b565b909155507f41c5e8c55061532e874271e77c72be737c2b190be0b0da85c4b6248689eac53a90506111cf61074a565b60405190815260200160405180910390a16111e8611c45565b50565b6111f3611ebd565b600754600160a81b900460ff166112435760405162461bcd60e51b815260206004820152601460248201527314ddd85c1c1a5b99c81a5cc8191a5cd8589b195960621b60448201526064016104e6565b7f00000000000000000000000000000000000000000000000000000000000000008110156112b35760405162461bcd60e51b815260206004820152601960248201527f496e73756666696369656e7420746f6b656e20616d6f756e740000000000000060448201526064016104e6565b6112dd7f00000000000000000000000000000000000000000000000000000000000000008261235b565b156113215760405162461bcd60e51b8152602060048201526014602482015273125b9d985b1a59081d1bdad95b88185b5bdd5b9d60621b60448201526064016104e6565b6000600454116113735760405162461bcd60e51b815260206004820152601a60248201527f4e6f204e46547320617661696c61626c6520696e207661756c7400000000000060448201526064016104e6565b600061139f7f0000000000000000000000000000000000000000000000000000000000000000836122cd565b90506004548111156113f35760405162461bcd60e51b815260206004820152601860248201527f4e6f7420656e6f756768204e46547320696e207661756c74000000000000000060448201526064016104e6565b6040516323b872dd60e01b81526001600160a01b037f000000000000000000000000000000000000000000000000000000000000000016906323b872dd90611443903390309087906004016121ec565b6020604051808303816000875af1158015611462573d6000803e3d6000fd5b505050506040513d601f19601f82011682018060405250810190611486919061223f565b6114a25760405162461bcd60e51b81526004016104e69061225c565b81600560008282546114b4919061228b565b909155506000905060015b7f00000000000000000000000000000000000000000000000000000000000000006001600160a01b03166332cb6b0c6040518163ffffffff1660e01b8152600401602060405180830381865afa15801561151d573d6000803e3d6000fd5b505050506040513d601f19601f82011682018060405250810190611541919061229e565b811115801561154f57508282105b1561169c5760008181526003602052604090205460ff161561168a57604051632142170760e11b81526001600160a01b037f000000000000000000000000000000000000000000000000000000000000000016906342842e0e906115bb903090339086906004016121ec565b600060405180830381600087803b1580156115d557600080fd5b505af11580156115e9573d6000803e3d6000fd5b5050506000828152600360205260408120805460ff19169055600480549250906116128361232e565b9190505550818061162290612226565b92505080336001600160a01b03167f0a08eebabec640fe759f6e5d61d6377cfe1f1367ae220b5f81a44a7b74c9be347f000000000000000000000000000000000000000000000000000000000000000060405161168191815260200190565b60405180910390a35b8061169481612226565b9150506114bf565b508181146116ec5760405162461bcd60e51b815260206004820152601b60248201527f4661696c656420746f207472616e7366657220616c6c204e465473000000000060448201526064016104e6565b7f41c5e8c55061532e874271e77c72be737c2b190be0b0da85c4b6248689eac53a61171561074a565b60405190815260200160405180910390a150506111e860018055565b60075461010090046001600160a01b031633148061175957506000546001600160a01b031633145b6117755760405162461bcd60e51b81526004016104e6906121a8565b60078054821515600160a81b0260ff60a81b199091161790556040517fd101cbf49d2d7d396082a0e64b8dcc4e0b2a280bdccc3855f1d1fe8cf9d0f0e2906117c290831515815260200190565b60405180910390a150565b6117d5611ebd565b600754600160a81b900460ff166118255760405162461bcd60e51b815260206004820152601460248201527314ddd85c1c1a5b99c81a5cc8191a5cd8589b195960621b60448201526064016104e6565b6040516331a9108f60e11b81526004810182905233906001600160a01b037f00000000000000000000000000000000000000000000000000000000000000001690636352211e90602401602060405180830381865afa15801561188c573d6000803e3d6000fd5b505050506040513d601f19601f820116820180604052508101906118b0919061236f565b6001600160a01b0316146118f65760405162461bcd60e51b815260206004820152600d60248201526c2737ba1027232a1037bbb732b960991b60448201526064016104e6565b60008181526003602052604090205460ff161561194c5760405162461bcd60e51b815260206004820152601460248201527313919508185b1c9958591e481a5b881d985d5b1d60621b60448201526064016104e6565b7f000000000000000000000000000000000000000000000000000000000000000060055410156119be5760405162461bcd60e51b815260206004820152601c60248201527f496e73756666696369656e7420746f6b656e7320696e207661756c740000000060448201526064016104e6565b604051632142170760e11b81526001600160a01b037f000000000000000000000000000000000000000000000000000000000000000016906342842e0e90611a0e903390309086906004016121ec565b600060405180830381600087803b158015611a2857600080fd5b505af1158015611a3c573d6000803e3d6000fd5b5050506000828152600360205260408120805460ff1916600117905560048054925090611a6883612226565b91905055507f000000000000000000000000000000000000000000000000000000000000000060056000828254611a9f919061231b565b909155505060405163a9059cbb60e01b81523360048201527f000000000000000000000000000000000000000000000000000000000000000060248201527f00000000000000000000000000000000000000000000000000000000000000006001600160a01b03169063a9059cbb906044016020604051808303816000875af1158015611b30573d6000803e3d6000fd5b505050506040513d601f19601f82011682018060405250810190611b54919061223f565b611b705760405162461bcd60e51b81526004016104e69061225c565b6040517f00000000000000000000000000000000000000000000000000000000000000008152819033907f494c78ec0278e768f6779f083e8c6b4691758074367b4e7c6355aa772ed6d7049060200160405180910390a37f41c5e8c55061532e874271e77c72be737c2b190be0b0da85c4b6248689eac53a611bf061074a565b60405190815260200160405180910390a16111e860018055565b611c12611e2b565b6001600160a01b038116611c3c57604051631e4fbdf760e01b8152600060048201526024016104e6565b6111e881611e58565b60075460ff16158015611d5a57507f00000000000000000000000000000000000000000000000000000000000000006001600160a01b03166332cb6b0c6040518163ffffffff1660e01b8152600401602060405180830381865afa158015611cb1573d6000803e3d6000fd5b505050506040513d601f19601f82011682018060405250810190611cd5919061229e565b7f00000000000000000000000000000000000000000000000000000000000000006001600160a01b031663a2309ff86040518163ffffffff1660e01b8152600401602060405180830381865afa158015611d33573d6000803e3d6000fd5b505050506040513d601f19601f82011682018060405250810190611d57919061229e565b10155b1561090f576007805460ff191660011790556040805163144613ff60e31b815290517f2f32e519b30d0f52c856843502cc5b899f08f78da6adc87ddedb8d70c7365b1f916001600160a01b037f0000000000000000000000000000000000000000000000000000000000000000169163a2309ff8916004808201926020929091908290030181865afa158015611df4573d6000803e3d6000fd5b505050506040513d601f19601f82011682018060405250810190611e18919061229e565b60405190815260200160405180910390a1565b6000546001600160a01b0316331461090f5760405163118cdaa760e01b81523360048201526024016104e6565b600080546001600160a01b038381166001600160a01b0319831681178455604051919092169283917f8be0079c531659141344cd1fd0a4f28419497f9722a3daafe3b4186f6b6457e09190a35050565b60008282188284100282185b90505b92915050565b600260015403611ee057604051633ee5aeb560e01b815260040160405180910390fd5b6002600155565b600080600060408486031215611efc57600080fd5b833567ffffffffffffffff80821115611f1457600080fd5b818601915086601f830112611f2857600080fd5b813581811115611f3757600080fd5b8760208260051b8501011115611f4c57600080fd5b6020928301989097509590910135949350505050565b600060208284031215611f7457600080fd5b5035919050565b6001600160a01b03811681146111e857600080fd5b600080600080600060808688031215611fa857600080fd5b8535611fb381611f7b565b94506020860135611fc381611f7b565b935060408601359250606086013567ffffffffffffffff80821115611fe757600080fd5b818801915088601f830112611ffb57600080fd5b81358181111561200a57600080fd5b89602082850101111561201c57600080fd5b9699959850939650602001949392505050565b60006020828403121561204157600080fd5b813561204c81611f7b565b9392505050565b6000815180845260005b818110156120795760208185018101518683018201520161205d565b506000602082860101526020601f19601f83011685010191505092915050565b60006101208083526120ad8184018d612053565b6001600160a01b039b8c16602085015299909a166040830152506060810196909652608086019490945260a085019290925260c0840152151560e083015215156101009091015292915050565b6000806040838503121561210d57600080fd5b823561211881611f7b565b946020939093013593505050565b602081526000611eb46020830184612053565b6020808252825182820181905260009190848201906040850190845b8181101561217157835183529284019291840191600101612155565b50909695505050505050565b80151581146111e857600080fd5b60006020828403121561219d57600080fd5b813561204c8161217d565b6020808252601490820152732737ba1030baba3437b934bd32b21030b236b4b760611b604082015260600190565b634e487b7160e01b600052603260045260246000fd5b6001600160a01b039384168152919092166020820152604081019190915260600190565b634e487b7160e01b600052601160045260246000fd5b60006001820161223857612238612210565b5060010190565b60006020828403121561225157600080fd5b815161204c8161217d565b602080825260159082015274151bdad95b881d1c985b9cd9995c8819985a5b1959605a1b604082015260600190565b80820180821115611eb757611eb7612210565b6000602082840312156122b057600080fd5b5051919050565b634e487b7160e01b600052601260045260246000fd5b6000826122dc576122dc6122b7565b500490565b600181811c908216806122f557607f821691505b60208210810361231557634e487b7160e01b600052602260045260246000fd5b50919050565b81810381811115611eb757611eb7612210565b60008161233d5761233d612210565b506000190190565b634e487b7160e01b600052604160045260246000fd5b60008261236a5761236a6122b7565b500690565b60006020828403121561238157600080fd5b815161204c81611f7b56fea26469706673582212208f1d117897805d4c6ac099ff2e4dbf9e231af03d9d0cc516f0179342b6cf029a64736f6c63430008140033",
  "linkReferences": {},
  "deployedLinkReferences": {}
}