{
  "_format": "hh-sol-artifact-1",
  "contractName": "MintRouter",
  "sourceName": "contracts/MintRouter.sol",
  "abi": [
    {
      "inputs": [
        {
          "internalType": "address",
          "name": "ghoToken_",
          "type": "address"
        },
        {
          "internalType": "address",
          "name": "kandiToken_",
          "type": "address"
        },
        {
          "internalType": "address",
          "name": "devWallet_",
          "type": "address"
        },
        {
          "internalType": "address",
          "name": "kandiPool_",
          "type": "address"
        },
        {
          "internalType": "uint256",
          "name": "platformFeeRate_",
          "type": "uint256"
        }
      ],
      "stateMutability": "nonpayable",
      "type": "constructor"
    },
    {
      "inputs": [
        {
          "internalType": "address",
          "name": "owner",
          "type": "address"
        }
      ],
      "name": "OwnableInvalidOwner",
      "type": "error"
    },
    {
      "inputs": [
        {
          "internalType": "address",
          "name": "account",
          "type": "address"
        }
      ],
      "name": "OwnableUnauthorizedAccount",
      "type": "error"
    },
    {
      "inputs": [],
      "name": "ReentrancyGuardReentrantCall",
      "type": "error"
    },
    {
      "anonymous": false,
      "inputs": [
        {
          "indexed": true,
          "internalType": "address",
          "name": "oldWallet",
          "type": "address"
        },
        {
          "indexed": true,
          "internalType": "address",
          "name": "newWallet",
          "type": "address"
        }
      ],
      "name": "DevWalletUpdated",
      "type": "event"
    },
    {
      "anonymous": false,
      "inputs": [
        {
          "indexed": true,
          "internalType": "address",
          "name": "oldPool",
          "type": "address"
        },
        {
          "indexed": true,
          "internalType": "address",
          "name": "newPool",
          "type": "address"
        }
      ],
      "name": "KandiPoolUpdated",
      "type": "event"
    },
    {
      "anonymous": false,
      "inputs": [
        {
          "indexed": true,
          "internalType": "string",
          "name": "songName",
          "type": "string"
        },
        {
          "indexed": false,
          "internalType": "uint256",
          "name": "newPrice",
          "type": "uint256"
        }
      ],
      "name": "MintPriceUpdated",
      "type": "event"
    },
    {
      "anonymous": false,
      "inputs": [
        {
          "indexed": true,
          "internalType": "string",
          "name": "songName",
          "type": "string"
        },
        {
          "indexed": false,
          "internalType": "bool",
          "name": "enabled",
          "type": "bool"
        }
      ],
      "name": "MintStatusUpdated",
      "type": "event"
    },
    {
      "anonymous": false,
      "inputs": [
        {
          "indexed": true,
          "internalType": "address",
          "name": "user",
          "type": "address"
        },
        {
          "indexed": true,
          "internalType": "string",
          "name": "songName",
          "type": "string"
        },
        {
          "indexed": false,
          "internalType": "uint256",
          "name": "quantity",
          "type": "uint256"
        },
        {
          "indexed": false,
          "internalType": "uint256",
          "name": "totalCost",
          "type": "uint256"
        },
        {
          "indexed": false,
          "internalType": "address",
          "name": "paymentToken",
          "type": "address"
        }
      ],
      "name": "NFTMinted",
      "type": "event"
    },
    {
      "anonymous": false,
      "inputs": [
        {
          "indexed": true,
          "internalType": "address",
          "name": "previousOwner",
          "type": "address"
        },
        {
          "indexed": true,
          "internalType": "address",
          "name": "newOwner",
          "type": "address"
        }
      ],
      "name": "OwnershipTransferred",
      "type": "event"
    },
    {
      "anonymous": false,
      "inputs": [
        {
          "indexed": false,
          "internalType": "uint256",
          "name": "amount",
          "type": "uint256"
        },
        {
          "indexed": false,
          "internalType": "address",
          "name": "token",
          "type": "address"
        }
      ],
      "name": "PlatformFeeCollected",
      "type": "event"
    },
    {
      "anonymous": false,
      "inputs": [
        {
          "indexed": false,
          "internalType": "uint256",
          "name": "oldRate",
          "type": "uint256"
        },
        {
          "indexed": false,
          "internalType": "uint256",
          "name": "newRate",
          "type": "uint256"
        }
      ],
      "name": "PlatformFeeRateUpdated",
      "type": "event"
    },
    {
      "anonymous": false,
      "inputs": [
        {
          "indexed": true,
          "internalType": "string",
          "name": "songName",
          "type": "string"
        },
        {
          "indexed": false,
          "internalType": "address",
          "name": "nftContract",
          "type": "address"
        },
        {
          "indexed": false,
          "internalType": "address",
          "name": "tokenContract",
          "type": "address"
        },
        {
          "indexed": false,
          "internalType": "address",
          "name": "vaultContract",
          "type": "address"
        },
        {
          "indexed": false,
          "internalType": "uint256",
          "name": "mintPrice",
          "type": "uint256"
        }
      ],
      "name": "SongReleaseAdded",
      "type": "event"
    },
    {
      "anonymous": false,
      "inputs": [
        {
          "indexed": true,
          "internalType": "string",
          "name": "songName",
          "type": "string"
        },
        {
          "indexed": false,
          "internalType": "uint256",
          "name": "nftCount",
          "type": "uint256"
        },
        {
          "indexed": false,
          "internalType": "uint256",
          "name": "tokenAmount",
          "type": "uint256"
        }
      ],
      "name": "VaultPreloaded",
      "type": "event"
    },
    {
      "inputs": [
        {
          "internalType": "string",
          "name": "songName",
          "type": "string"
        },
        {
          "internalType": "address",
          "name": "nftContract",
          "type": "address"
        },
        {
          "internalType": "address",
          "name": "tokenContract",
          "type": "address"
        },
        {
          "internalType": "address",
          "name": "vaultContract",
          "type": "address"
        },
        {
          "internalType": "uint256",
          "name": "mintPrice",
          "type": "uint256"
        },
        {
          "internalType": "uint256",
          "name": "maxMintsPerTx",
          "type": "uint256"
        }
      ],
      "name": "addSongRelease",
      "outputs": [],
      "stateMutability": "nonpayable",
      "type": "function"
    },
    {
      "inputs": [
        {
          "internalType": "string",
          "name": "songName",
          "type": "string"
        },
        {
          "internalType": "uint256",
          "name": "quantity",
          "type": "uint256"
        }
      ],
      "name": "calculateMintCost",
      "outputs": [
        {
          "internalType": "uint256",
          "name": "totalCost",
          "type": "uint256"
        },
        {
          "internalType": "uint256",
          "name": "platformFee",
          "type": "uint256"
        },
        {
          "internalType": "uint256",
          "name": "netAmount",
          "type": "uint256"
        }
      ],
      "stateMutability": "view",
      "type": "function"
    },
    {
      "inputs": [],
      "name": "devWallet",
      "outputs": [
        {
          "internalType": "address",
          "name": "",
          "type": "address"
        }
      ],
      "stateMutability": "view",
      "type": "function"
    },
    {
      "inputs": [
        {
          "internalType": "address",
          "name": "token",
          "type": "address"
        },
        {
          "internalType": "address",
          "name": "to",
          "type": "address"
        },
        {
          "internalType": "uint256",
          "name": "amount",
          "type": "uint256"
        }
      ],
      "name": "emergencyWithdraw",
      "outputs": [],
      "stateMutability": "nonpayable",
      "type": "function"
    },
    {
      "inputs": [],
      "name": "getAllSongNames",
      "outputs": [
        {
          "internalType": "string[]",
          "name": "",
          "type": "string[]"
        }
      ],
      "stateMutability": "view",
      "type": "function"
    },
    {
      "inputs": [],
      "name": "getPlatformStats",
      "outputs": [
        {
          "internalType": "uint256",
          "name": "totalSongs",
          "type": "uint256"
        },
        {
          "internalType": "address",
          "name": "ghoAddress",
          "type": "address"
        },
        {
          "internalType": "address",
          "name": "kandiAddress",
          "type": "address"
        },
        {
          "internalType": "address",
          "name": "devWalletAddress",
          "type": "address"
        },
        {
          "internalType": "address",
          "name": "kandiPoolAddress",
          "type": "address"
        },
        {
          "internalType": "uint256",
          "name": "currentPlatformFeeRate",
          "type": "uint256"
        }
      ],
      "stateMutability": "view",
      "type": "function"
    },
    {
      "inputs": [
        {
          "internalType": "string",
          "name": "songName",
          "type": "string"
        }
      ],
      "name": "getSongRelease",
      "outputs": [
        {
          "components": [
            {
              "internalType": "address",
              "name": "nftContract",
              "type": "address"
            },
            {
              "internalType": "address",
              "name": "tokenContract",
              "type": "address"
            },
            {
              "internalType": "address",
              "name": "vaultContract",
              "type": "address"
            },
            {
              "internalType": "uint256",
              "name": "mintPrice",
              "type": "uint256"
            },
            {
              "internalType": "uint256",
              "name": "maxMintsPerTx",
              "type": "uint256"
            },
            {
              "internalType": "bool",
              "name": "mintEnabled",
              "type": "bool"
            },
            {
              "internalType": "bool",
              "name": "exists",
              "type": "bool"
            }
          ],
          "internalType": "struct MintRouter.SongRelease",
          "name": "",
          "type": "tuple"
        }
      ],
      "stateMutability": "view",
      "type": "function"
    },
    {
      "inputs": [
        {
          "internalType": "address",
          "name": "user",
          "type": "address"
        },
        {
          "internalType": "string",
          "name": "songName",
          "type": "string"
        }
      ],
      "name": "getUserMintCount",
      "outputs": [
        {
          "internalType": "uint256",
          "name": "",
          "type": "uint256"
        }
      ],
      "stateMutability": "view",
      "type": "function"
    },
    {
      "inputs": [],
      "name": "ghoToken",
      "outputs": [
        {
          "internalType": "contract IERC20",
          "name": "",
          "type": "address"
        }
      ],
      "stateMutability": "view",
      "type": "function"
    },
    {
      "inputs": [],
      "name": "kandiPool",
      "outputs": [
        {
          "internalType": "address",
          "name": "",
          "type": "address"
        }
      ],
      "stateMutability": "view",
      "type": "function"
    },
    {
      "inputs": [],
      "name": "kandiToken",
      "outputs": [
        {
          "internalType": "contract IKANDI",
          "name": "",
          "type": "address"
        }
      ],
      "stateMutability": "view",
      "type": "function"
    },
    {
      "inputs": [
        {
          "internalType": "string",
          "name": "songName",
          "type": "string"
        },
        {
          "internalType": "uint256",
          "name": "quantity",
          "type": "uint256"
        }
      ],
      "name": "mintWithGHO",
      "outputs": [],
      "stateMutability": "nonpayable",
      "type": "function"
    },
    {
      "inputs": [
        {
          "internalType": "string",
          "name": "songName",
          "type": "string"
        },
        {
          "internalType": "uint256",
          "name": "quantity",
          "type": "uint256"
        },
        {
          "internalType": "uint256",
          "name": "maxKandiAmount",
          "type": "uint256"
        }
      ],
      "name": "mintWithKANDI",
      "outputs": [],
      "stateMutability": "nonpayable",
      "type": "function"
    },
    {
      "inputs": [],
      "name": "owner",
      "outputs": [
        {
          "internalType": "address",
          "name": "",
          "type": "address"
        }
      ],
      "stateMutability": "view",
      "type": "function"
    },
    {
      "inputs": [],
      "name": "platformFeeRate",
      "outputs": [
        {
          "internalType": "uint256",
          "name": "",
          "type": "uint256"
        }
      ],
      "stateMutability": "view",
      "type": "function"
    },
    {
      "inputs": [
        {
          "internalType": "string",
          "name": "songName",
          "type": "string"
        },
        {
          "internalType": "uint256[]",
          "name": "nftIds",
          "type": "uint256[]"
        },
        {
          "internalType": "uint256",
          "name": "tokenAmount",
          "type": "uint256"
        }
      ],
      "name": "preloadVault",
      "outputs": [],
      "stateMutability": "nonpayable",
      "type": "function"
    },
    {
      "inputs": [],
      "name": "renounceOwnership",
      "outputs": [],
      "stateMutability": "nonpayable",
      "type": "function"
    },
    {
      "inputs": [
        {
          "internalType": "address",
          "name": "newDevWallet",
          "type": "address"
        }
      ],
      "name": "setDevWallet",
      "outputs": [],
      "stateMutability": "nonpayable",
      "type": "function"
    },
    {
      "inputs": [
        {
          "internalType": "address",
          "name": "newKandiPool",
          "type": "address"
        }
      ],
      "name": "setKandiPool",
      "outputs": [],
      "stateMutability": "nonpayable",
      "type": "function"
    },
    {
      "inputs": [
        {
          "internalType": "string",
          "name": "songName",
          "type": "string"
        },
        {
          "internalType": "bool",
          "name": "enabled",
          "type": "bool"
        }
      ],
      "name": "setMintEnabled",
      "outputs": [],
      "stateMutability": "nonpayable",
      "type": "function"
    },
    {
      "inputs": [
        {
          "internalType": "string",
          "name": "songName",
          "type": "string"
        },
        {
          "internalType": "uint256",
          "name": "newPrice",
          "type": "uint256"
        }
      ],
      "name": "setMintPrice",
      "outputs": [],
      "stateMutability": "nonpayable",
      "type": "function"
    },
    {
      "inputs": [
        {
          "internalType": "uint256",
          "name": "newRate",
          "type": "uint256"
        }
      ],
      "name": "setPlatformFeeRate",
      "outputs": [],
      "stateMutability": "nonpayable",
      "type": "function"
    },
    {
      "inputs": [
        {
          "internalType": "uint256",
          "name": "",
          "type": "uint256"
        }
      ],
      "name": "songNames",
      "outputs": [
        {
          "internalType": "string",
          "name": "",
          "type": "string"
        }
      ],
      "stateMutability": "view",
      "type": "function"
    },
    {
      "inputs": [
        {
          "internalType": "string",
          "name": "",
          "type": "string"
        }
      ],
      "name": "songReleases",
      "outputs": [
        {
          "internalType": "address",
          "name": "nftContract",
          "type": "address"
        },
        {
          "internalType": "address",
          "name": "tokenContract",
          "type": "address"
        },
        {
          "internalType": "address",
          "name": "vaultContract",
          "type": "address"
        },
        {
          "internalType": "uint256",
          "name": "mintPrice",
          "type": "uint256"
        },
        {
          "internalType": "uint256",
          "name": "maxMintsPerTx",
          "type": "uint256"
        },
        {
          "internalType": "bool",
          "name": "mintEnabled",
          "type": "bool"
        },
        {
          "internalType": "bool",
          "name": "exists",
          "type": "bool"
        }
      ],
      "stateMutability": "view",
      "type": "function"
    },
    {
      "inputs": [
        {
          "internalType": "address",
          "name": "newOwner",
          "type": "address"
        }
      ],
      "name": "transferOwnership",
      "outputs": [],
      "stateMutability": "nonpayable",
      "type": "function"
    },
    {
      "inputs": [
        {
          "internalType": "address",
          "name": "",
          "type": "address"
        },
        {
          "internalType": "string",
          "name": "",
          "type": "string"
        }
      ],
      "name": "userMints",
      "outputs": [
        {
          "internalType": "uint256",
          "name": "",
          "type": "uint256"
        }
      ],
      "stateMutability": "view",
      "type": "function"
    }
  ],
  "bytecode": "0x60c06040523480156200001157600080fd5b5060405162002dca38038062002dca8339810160408190526200003491620002ce565b33806200005c57604051631e4fbdf760e01b8152600060048201526024015b60405180910390fd5b620000678162000261565b50600180556001600160a01b038516620000c45760405162461bcd60e51b815260206004820152601960248201527f496e76616c69642047484f20746f6b656e206164647265737300000000000000604482015260640162000053565b6001600160a01b0384166200011c5760405162461bcd60e51b815260206004820152601b60248201527f496e76616c6964204b414e444920746f6b656e20616464726573730000000000604482015260640162000053565b6001600160a01b038316620001745760405162461bcd60e51b815260206004820152601a60248201527f496e76616c6964206465762077616c6c65742061646472657373000000000000604482015260640162000053565b6001600160a01b038216620001cc5760405162461bcd60e51b815260206004820152601a60248201527f496e76616c6964204b414e444920706f6f6c2061646472657373000000000000604482015260640162000053565b612710811115620002205760405162461bcd60e51b815260206004820152601a60248201527f506c6174666f726d20666565207261746520746f6f2068696768000000000000604482015260640162000053565b6001600160a01b0394851660805292841660a052600280549285166001600160a01b0319938416179055600380549190941691161790915560045562000335565b600080546001600160a01b038381166001600160a01b0319831681178455604051919092169283917f8be0079c531659141344cd1fd0a4f28419497f9722a3daafe3b4186f6b6457e09190a35050565b80516001600160a01b0381168114620002c957600080fd5b919050565b600080600080600060a08688031215620002e757600080fd5b620002f286620002b1565b94506200030260208701620002b1565b93506200031260408701620002b1565b92506200032260608701620002b1565b9150608086015190509295509295909350565b60805160a051612a1b620003af600039600081816101d8015281816103b90152818161162e01528181611709015281816117db01526118bc0152600081816101b00152818161035f01528181610a91015281816118f201528181611be301528181611f1301528181611ff501526120c10152612a1b6000f3fe608060405234801561001057600080fd5b506004361061018e5760003560e01c80638da5cb5b116100de578063e63ea40811610097578063f2fde38b11610071578063f2fde38b14610517578063f36cdce41461052a578063fab1618c1461053d578063fb1c8b9f1461055057600080fd5b8063e63ea408146104db578063e7ce7ac3146104ee578063eeca08f01461050e57600080fd5b80638da5cb5b146104505780638ea5220f14610461578063927fef2e1461047457806397632e8014610487578063a11b34951461049a578063bf346edd146104ad57600080fd5b80634364f1db1161014b578063715018a611610125578063715018a61461039957806375ffe00f146103a157806381880338146103b45780638c5b11a8146103db57600080fd5b80634364f1db146103265780634b6d747c146103395780635996db911461035a57600080fd5b8063136d8883146101935780631f53ac02146102215780632b663c5a1461023657806337b5c2cd146102495780633933d8f8146102fe5780633bd21c3614610311575b600080fd5b600654600254600354600454604080519485526001600160a01b037f0000000000000000000000000000000000000000000000000000000000000000811660208701527f000000000000000000000000000000000000000000000000000000000000000081169186019190915292831660608501529116608083015260a082015260c0015b60405180910390f35b61023461022f3660046122a2565b61058c565b005b610234610244366004612375565b610641565b6102b66102573660046123c7565b8051602081830181018051600580835293830192909401919091209290528154600183015460028401546003850154600486015495909401546001600160a01b0393841695928416949390911692919060ff8082169161010090041687565b604080516001600160a01b0398891681529688166020880152949096169385019390935260608401919091526080830152151560a082015290151560c082015260e001610218565b61023461030c366004612404565b610712565b6103196109a9565b60405161021891906124f4565b610234610334366004612556565b610a82565b61034c61034736600461259b565b610ac2565b604051908152602001610218565b6103817f000000000000000000000000000000000000000000000000000000000000000081565b6040516001600160a01b039091168152602001610218565b610234610b00565b6102346103af3660046122a2565b610b14565b6103817f000000000000000000000000000000000000000000000000000000000000000081565b6103ee6103e93660046123c7565b610bc4565b6040805182516001600160a01b039081168252602080850151821690830152838301511691810191909152606080830151908201526080808301519082015260a08083015115159082015260c09182015115159181019190915260e001610218565b6000546001600160a01b0316610381565b600254610381906001600160a01b031681565b6102346104823660046125e9565b610cce565b610234610495366004612602565b610d6d565b6102346104a8366004612556565b611181565b6104c06104bb366004612556565b61128a565b60408051938452602084019290925290820152606001610218565b6102346104e9366004612683565b611336565b6105016104fc3660046125e9565b61143e565b60405161021891906126bf565b61034c60045481565b6102346105253660046122a2565b6114ea565b600354610381906001600160a01b031681565b61023461054b3660046126d2565b611528565b61034c61055e36600461259b565b6007602090815260009283526040909220815180830184018051928152908401929093019190912091525481565b6105946119dd565b6001600160a01b0381166105ef5760405162461bcd60e51b815260206004820152601a60248201527f496e76616c6964206465762077616c6c6574206164647265737300000000000060448201526064015b60405180910390fd5b600280546001600160a01b038381166001600160a01b0319831681179093556040519116919082907f0db17895a9d092fb3ca24d626f2150dd80c185b0706b36f1040ee239f56cb87190600090a35050565b6106496119dd565b6005826040516106599190612720565b9081526040519081900360200190206005015460ff610100909104166106915760405162461bcd60e51b81526004016105e69061273c565b806005836040516106a29190612720565b908152604051908190036020018120600501805492151560ff19909316929092179091556106d1908390612720565b6040519081900381208215158252907f8b18a9588ddfba93aab14fef2ab30ae0539762f3b5371e4e4c9a20299f3c47d3906020015b60405180910390a25050565b61071a6119dd565b600060058560405161072c9190612720565b90815260408051918290036020908101832060e08401835280546001600160a01b039081168552600182015481169285019290925260028101549091169183019190915260038101546060830152600481015460808301526005015460ff808216151560a084015261010090910416151560c082018190529091506107c35760405162461bcd60e51b81526004016105e69061273c565b821561082d5780516040516340c10f1960e01b8152306004820152602481018590526001600160a01b03909116906340c10f1990604401600060405180830381600087803b15801561081457600080fd5b505af1158015610828573d6000803e3d6000fd5b505050505b81156108ef57602081015160405163a9059cbb60e01b8152306004820152602481018490526001600160a01b0382169063a9059cbb906044016020604051808303816000875af1158015610885573d6000803e3d6000fd5b505050506040513d601f19601f820116820180604052508101906108a99190612773565b6108ed5760405162461bcd60e51b8152602060048201526015602482015274151bdad95b881d1c985b9cd9995c8819985a5b1959605a1b60448201526064016105e6565b505b80604001516001600160a01b031663029a3c5f8585856040518463ffffffff1660e01b815260040161092393929190612790565b600060405180830381600087803b15801561093d57600080fd5b505af1158015610951573d6000803e3d6000fd5b50505050846040516109639190612720565b6040805191829003822085835260208301859052917e6ba67126644f607882543f42a84f027cbfb57e5fe44731114ac6b2f38b75df910160405180910390a25050505050565b60606006805480602002602001604051908101604052809291908181526020016000905b82821015610a795783829060005260206000200180546109ec906127ce565b80601f0160208091040260200160405190810160405280929190818152602001828054610a18906127ce565b8015610a655780601f10610a3a57610100808354040283529160200191610a65565b820191906000526020600020905b815481529060010190602001808311610a4857829003601f168201915b5050505050815260200190600101906109cd565b50505050905090565b610a8a611a0a565b610ab582827f0000000000000000000000000000000000000000000000000000000000000000611a34565b610abe60018055565b5050565b6001600160a01b0382166000908152600760205260408082209051610ae8908490612720565b90815260200160405180910390205490505b92915050565b610b086119dd565b610b126000611cb7565b565b610b1c6119dd565b6001600160a01b038116610b725760405162461bcd60e51b815260206004820152601a60248201527f496e76616c6964204b414e444920706f6f6c206164647265737300000000000060448201526064016105e6565b600380546001600160a01b038381166001600160a01b0319831681179093556040519116919082907fce6246818e035105a67ee419e687f9805098bd9fe5227e37583c57d40b4a18d490600090a35050565b6040805160e081018252600080825260208201819052818301819052606082018190526080820181905260a0820181905260c08201529051600590610c0a908490612720565b9081526040519081900360200190206005015460ff61010090910416610c425760405162461bcd60e51b81526004016105e69061273c565b600582604051610c529190612720565b90815260408051918290036020908101832060e08401835280546001600160a01b039081168552600182015481169285019290925260028101549091169183019190915260038101546060830152600481015460808301526005015460ff808216151560a084015261010090910416151560c082015292915050565b610cd66119dd565b612710811115610d285760405162461bcd60e51b815260206004820152601a60248201527f506c6174666f726d20666565207261746520746f6f206869676800000000000060448201526064016105e6565b600480549082905560408051828152602081018490527fa82b850e6100ae23c7e82adbdcf4da8a3740c1540a6241792521a80179a892dc910160405180910390a15050565b610d756119dd565b6000865111610dc65760405162461bcd60e51b815260206004820152601960248201527f536f6e67206e616d652063616e6e6f7420626520656d7074790000000000000060448201526064016105e6565b6001600160a01b038516610e135760405162461bcd60e51b8152602060048201526014602482015273125b9d985b1a59081391950818dbdb9d1c9858dd60621b60448201526064016105e6565b6001600160a01b038416610e625760405162461bcd60e51b8152602060048201526016602482015275125b9d985b1a59081d1bdad95b8818dbdb9d1c9858dd60521b60448201526064016105e6565b6001600160a01b038316610eb15760405162461bcd60e51b8152602060048201526016602482015275125b9d985b1a59081d985d5b1d0818dbdb9d1c9858dd60521b60448201526064016105e6565b60008211610f0b5760405162461bcd60e51b815260206004820152602160248201527f4d696e74207072696365206d7573742062652067726561746572207468616e206044820152600360fc1b60648201526084016105e6565b60008111610f6b5760405162461bcd60e51b815260206004820152602760248201527f4d6178206d696e747320706572207478206d75737420626520677265617465726044820152660207468616e20360cc1b60648201526084016105e6565b600586604051610f7b9190612720565b9081526040519081900360200190206005015460ff6101009091041615610fe45760405162461bcd60e51b815260206004820152601b60248201527f536f6e672072656c6561736520616c726561647920657869737473000000000060448201526064016105e6565b6040805160e0810182526001600160a01b03808816825286811660208301528516818301526060810184905260808101839052600160a0820181905260c08201529051600590611035908990612720565b9081526040805160209281900383019020835181546001600160a01b03199081166001600160a01b03928316178355938501516001808401805487169284169290921790915592850151600283018054909516911617909255606083015160038301556080830151600483015560a08301516005909201805460c09094015161ffff1990941692151561ff00191692909217610100931515939093029290921790556006805491820181556000527ff652222313e28459528d920b65115c16c04f3efc82aaedc97be59f3f377c0d3f0161110f8782612856565b508560405161111e9190612720565b604080519182900382206001600160a01b038881168452878116602085015286168383015260608301859052905190917f943061c67239ca004b8c3b5629751616f611cdd0ab2f608acc494704ab0d19c2919081900360800190a2505050505050565b6111896119dd565b6005826040516111999190612720565b9081526040519081900360200190206005015460ff610100909104166111d15760405162461bcd60e51b81526004016105e69061273c565b600081116112215760405162461bcd60e51b815260206004820152601c60248201527f5072696365206d7573742062652067726561746572207468616e20300000000060448201526064016105e6565b806005836040516112329190612720565b90815260405190819003602001812060030191909155611253908390612720565b604051908190038120828252907f48bee1dd2f408e7f45b28821c096befb1c963c14a1fc0acd6a4a7b4128715d3d90602001610706565b600080600060058560405161129f9190612720565b9081526040519081900360200190206005015460ff610100909104166112d75760405162461bcd60e51b81526004016105e69061273c565b836005866040516112e89190612720565b908152602001604051809103902060030154611304919061292c565b925061271060045484611317919061292c565b6113219190612943565b915061132d8284612965565b90509250925092565b61133e6119dd565b6001600160a01b0382166113885760405162461bcd60e51b8152602060048201526011602482015270125b9d985b1a59081c9958da5c1a595b9d607a1b60448201526064016105e6565b60405163a9059cbb60e01b81526001600160a01b0383811660048301526024820183905284169063a9059cbb906044016020604051808303816000875af11580156113d7573d6000803e3d6000fd5b505050506040513d601f19601f820116820180604052508101906113fb9190612773565b6114395760405162461bcd60e51b815260206004820152600f60248201526e151c985b9cd9995c8819985a5b1959608a1b60448201526064016105e6565b505050565b6006818154811061144e57600080fd5b906000526020600020016000915090508054611469906127ce565b80601f0160208091040260200160405190810160405280929190818152602001828054611495906127ce565b80156114e25780601f106114b7576101008083540402835291602001916114e2565b820191906000526020600020905b8154815290600101906020018083116114c557829003601f168201915b505050505081565b6114f26119dd565b6001600160a01b03811661151c57604051631e4fbdf760e01b8152600060048201526024016105e6565b61152581611cb7565b50565b611530611a0a565b60006005846040516115429190612720565b90815260408051918290036020908101832060e08401835280546001600160a01b039081168552600182015481169285019290925260028101549091169183019190915260038101546060830152600481015460808301526005015460ff808216151560a084015261010090910416151560c082018190529091506115d95760405162461bcd60e51b81526004016105e69061273c565b8060a001516115fa5760405162461bcd60e51b81526004016105e690612978565b600083826060015161160c919061292c565b6040516370a0823160e01b815233600482015290915083906001600160a01b037f000000000000000000000000000000000000000000000000000000000000000016906370a0823190602401602060405180830381865afa158015611675573d6000803e3d6000fd5b505050506040513d601f19601f8201168201806040525081019061169991906129b9565b10156116e75760405162461bcd60e51b815260206004820152601a60248201527f496e73756666696369656e74204b414e44492062616c616e636500000000000060448201526064016105e6565b6040516323b872dd60e01b8152336004820152306024820152604481018490527f00000000000000000000000000000000000000000000000000000000000000006001600160a01b0316906323b872dd906064016020604051808303816000875af115801561175a573d6000803e3d6000fd5b505050506040513d601f19601f8201168201806040525081019061177e9190612773565b6117c25760405162461bcd60e51b815260206004820152601560248201527412d0539112481d1c985b9cd9995c8819985a5b1959605a1b60448201526064016105e6565b604051633e78f48760e01b8152600481018490526000907f00000000000000000000000000000000000000000000000000000000000000006001600160a01b031690633e78f487906024016020604051808303816000875af115801561182c573d6000803e3d6000fd5b505050506040513d601f19601f8201168201806040525081019061185091906129b9565b9050818110156118b45760405162461bcd60e51b815260206004820152602960248201527f496e73756666696369656e742047484f2072656365697665642066726f6d204b6044820152680414e444920737761760bc1b60648201526084016105e6565b6118e08686847f0000000000000000000000000000000000000000000000000000000000000000611d07565b818111156119d1576001600160a01b037f00000000000000000000000000000000000000000000000000000000000000001663a9059cbb336119228585612965565b6040516001600160e01b031960e085901b1681526001600160a01b03909216600483015260248201526044016020604051808303816000875af115801561196d573d6000803e3d6000fd5b505050506040513d601f19601f820116820180604052508101906119919190612773565b6119d15760405162461bcd60e51b815260206004820152601160248201527011d213c81c99599d5b990819985a5b1959607a1b60448201526064016105e6565b50505061143960018055565b6000546001600160a01b03163314610b125760405163118cdaa760e01b81523360048201526024016105e6565b600260015403611a2d57604051633ee5aeb560e01b815260040160405180910390fd5b6002600155565b6000600584604051611a469190612720565b90815260408051918290036020908101832060e08401835280546001600160a01b039081168552600182015481169285019290925260028101549091169183019190915260038101546060830152600481015460808301526005015460ff808216151560a084015261010090910416151560c08201819052909150611add5760405162461bcd60e51b81526004016105e69061273c565b8060a00151611afe5760405162461bcd60e51b81526004016105e690612978565b60008311611b4e5760405162461bcd60e51b815260206004820152601f60248201527f5175616e74697479206d7573742062652067726561746572207468616e20300060448201526064016105e6565b8060800151831115611bac5760405162461bcd60e51b815260206004820152602160248201527f45786365656473206d6178206d696e747320706572207472616e73616374696f6044820152603760f91b60648201526084016105e6565b6000838260600151611bbe919061292c565b6040516323b872dd60e01b8152336004820152306024820152604481018290529091507f00000000000000000000000000000000000000000000000000000000000000006001600160a01b0316906323b872dd906064016020604051808303816000875af1158015611c34573d6000803e3d6000fd5b505050506040513d601f19601f82011682018060405250810190611c589190612773565b611ca45760405162461bcd60e51b815260206004820152601760248201527f5061796d656e74207472616e73666572206661696c656400000000000000000060448201526064016105e6565b611cb085858386611d07565b5050505050565b600080546001600160a01b038381166001600160a01b0319831681178455604051919092169283917f8be0079c531659141344cd1fd0a4f28419497f9722a3daafe3b4186f6b6457e09190a35050565b6000600585604051611d199190612720565b908152604080516020928190038301812060e08201835280546001600160a01b03908116808452600183015482168685015260028301549091168385015260038201546060840152600480830154608085015260059092015460ff808216151560a086015261010090910416151560c08401528351630cb2dac360e21b815293519295509384936332cb6b0c938184019390918290030181865afa158015611dc5573d6000803e3d6000fd5b505050506040513d601f19601f82011682018060405250810190611de991906129b9565b85826001600160a01b031663a2309ff86040518163ffffffff1660e01b8152600401602060405180830381865afa158015611e28573d6000803e3d6000fd5b505050506040513d601f19601f82011682018060405250810190611e4c91906129b9565b611e5691906129d2565b1115611e995760405162461bcd60e51b815260206004820152601260248201527145786365656473206d617820737570706c7960701b60448201526064016105e6565b600061271060045486611eac919061292c565b611eb69190612943565b90506000611ec48287612965565b90508115612114576000611ed9600284612943565b90506000611ee78285612965565b60025460405163a9059cbb60e01b81526001600160a01b039182166004820152602481018590529192507f0000000000000000000000000000000000000000000000000000000000000000169063a9059cbb906044016020604051808303816000875af1158015611f5c573d6000803e3d6000fd5b505050506040513d601f19601f82011682018060405250810190611f809190612773565b611fcc5760405162461bcd60e51b815260206004820152601760248201527f44657620666565207472616e73666572206661696c656400000000000000000060448201526064016105e6565b60035460405163a9059cbb60e01b81526001600160a01b039182166004820152602481018390527f00000000000000000000000000000000000000000000000000000000000000009091169063a9059cbb906044016020604051808303816000875af1158015612040573d6000803e3d6000fd5b505050506040513d601f19601f820116820180604052508101906120649190612773565b6120b05760405162461bcd60e51b815260206004820152601860248201527f506f6f6c20666565207472616e73666572206661696c6564000000000000000060448201526064016105e6565b604080518581526001600160a01b037f00000000000000000000000000000000000000000000000000000000000000001660208201527fcf1bd34e586f4e12ef1c4c84c337b05dd3f7fc5409e16c5fea9063524eb77022910160405180910390a150505b6040516340c10f1960e01b8152336004820152602481018890526001600160a01b038416906340c10f1990604401600060405180830381600087803b15801561215c57600080fd5b505af1158015612170573d6000803e3d6000fd5b5050505083604001516001600160a01b031663b1e776e3826040518263ffffffff1660e01b81526004016121a691815260200190565b600060405180830381600087803b1580156121c057600080fd5b505af11580156121d4573d6000803e3d6000fd5b5050336000908152600760205260409081902090518a93509091506121fa908b90612720565b9081526020016040518091039020600082825461221791906129d2565b909155505060405161222a908990612720565b60408051918290038220898352602083018990526001600160a01b038816838301529051909133917febfea4a6702470f2dd806bba783617dfc03445e6cc50db8cbe88b4baf97de7cb9181900360600190a35050505050505050565b80356001600160a01b038116811461229d57600080fd5b919050565b6000602082840312156122b457600080fd5b6122bd82612286565b9392505050565b634e487b7160e01b600052604160045260246000fd5b600082601f8301126122eb57600080fd5b813567ffffffffffffffff80821115612306576123066122c4565b604051601f8301601f19908116603f0116810190828211818310171561232e5761232e6122c4565b8160405283815286602085880101111561234757600080fd5b836020870160208301376000602085830101528094505050505092915050565b801515811461152557600080fd5b6000806040838503121561238857600080fd5b823567ffffffffffffffff81111561239f57600080fd5b6123ab858286016122da565b92505060208301356123bc81612367565b809150509250929050565b6000602082840312156123d957600080fd5b813567ffffffffffffffff8111156123f057600080fd5b6123fc848285016122da565b949350505050565b6000806000806060858703121561241a57600080fd5b843567ffffffffffffffff8082111561243257600080fd5b61243e888389016122da565b9550602087013591508082111561245457600080fd5b818701915087601f83011261246857600080fd5b81358181111561247757600080fd5b8860208260051b850101111561248c57600080fd5b95986020929092019750949560400135945092505050565b60005b838110156124bf5781810151838201526020016124a7565b50506000910152565b600081518084526124e08160208601602086016124a4565b601f01601f19169290920160200192915050565b6000602080830181845280855180835260408601915060408160051b870101925083870160005b8281101561254957603f198886030184526125378583516124c8565b9450928501929085019060010161251b565b5092979650505050505050565b6000806040838503121561256957600080fd5b823567ffffffffffffffff81111561258057600080fd5b61258c858286016122da565b95602094909401359450505050565b600080604083850312156125ae57600080fd5b6125b783612286565b9150602083013567ffffffffffffffff8111156125d357600080fd5b6125df858286016122da565b9150509250929050565b6000602082840312156125fb57600080fd5b5035919050565b60008060008060008060c0878903121561261b57600080fd5b863567ffffffffffffffff81111561263257600080fd5b61263e89828a016122da565b96505061264d60208801612286565b945061265b60408801612286565b935061266960608801612286565b92506080870135915060a087013590509295509295509295565b60008060006060848603121561269857600080fd5b6126a184612286565b92506126af60208501612286565b9150604084013590509250925092565b6020815260006122bd60208301846124c8565b6000806000606084860312156126e757600080fd5b833567ffffffffffffffff8111156126fe57600080fd5b61270a868287016122da565b9660208601359650604090950135949350505050565b600082516127328184602087016124a4565b9190910192915050565b6020808252601b908201527f536f6e672072656c6561736520646f6573206e6f742065786973740000000000604082015260600190565b60006020828403121561278557600080fd5b81516122bd81612367565b6040808252810183905260006001600160fb1b038411156127b057600080fd5b8360051b808660608501376020830193909352500160600192915050565b600181811c908216806127e257607f821691505b60208210810361280257634e487b7160e01b600052602260045260246000fd5b50919050565b601f82111561143957600081815260208120601f850160051c8101602086101561282f5750805b601f850160051c820191505b8181101561284e5782815560010161283b565b505050505050565b815167ffffffffffffffff811115612870576128706122c4565b6128848161287e84546127ce565b84612808565b602080601f8311600181146128b957600084156128a15750858301515b600019600386901b1c1916600185901b17855561284e565b600085815260208120601f198616915b828110156128e8578886015182559484019460019091019084016128c9565b50858210156129065787850151600019600388901b60f8161c191681555b5050505050600190811b01905550565b634e487b7160e01b600052601160045260246000fd5b8082028115828204841417610afa57610afa612916565b60008261296057634e487b7160e01b600052601260045260246000fd5b500490565b81810381811115610afa57610afa612916565b60208082526021908201527f4d696e74696e672069732064697361626c656420666f72207468697320736f6e6040820152606760f81b606082015260800190565b6000602082840312156129cb57600080fd5b5051919050565b80820180821115610afa57610afa61291656fea264697066735822122092dfb548c396b4e000429f124553465be2550d89a927a6566f94c6d8adf6c3f464736f6c63430008140033",
  "linkReferences": {},
  "deployedLinkReferences": {}
}