{
  "_format": "hh-sol-artifact-1",
  "contractName": "MintRouter",
  "sourceName": "contracts/MintRouter.sol",
  "abi": [
    {
      "inputs": [
        {
          "internalType": "address",
          "name": "ghoToken_",
          "type": "address"
        },
        {
          "internalType": "address",
          "name": "kandiToken_",
          "type": "address"
        },
        {
          "internalType": "address",
          "name": "devWallet_",
          "type": "address"
        },
        {
          "internalType": "address",
          "name": "kandiPool_",
          "type": "address"
        },
        {
          "internalType": "uint256",
          "name": "platformFeeRate_",
          "type": "uint256"
        }
      ],
      "stateMutability": "nonpayable",
      "type": "constructor"
    },
    {
      "inputs": [
        {
          "internalType": "address",
          "name": "owner",
          "type": "address"
        }
      ],
      "name": "OwnableInvalidOwner",
      "type": "error"
    },
    {
      "inputs": [
        {
          "internalType": "address",
          "name": "account",
          "type": "address"
        }
      ],
      "name": "OwnableUnauthorizedAccount",
      "type": "error"
    },
    {
      "inputs": [],
      "name": "ReentrancyGuardReentrantCall",
      "type": "error"
    },
    {
      "inputs": [
        {
          "internalType": "address",
          "name": "token",
          "type": "address"
        }
      ],
      "name": "SafeERC20FailedOperation",
      "type": "error"
    },
    {
      "anonymous": false,
      "inputs": [
        {
          "indexed": true,
          "internalType": "address",
          "name": "oldWallet",
          "type": "address"
        },
        {
          "indexed": true,
          "internalType": "address",
          "name": "newWallet",
          "type": "address"
        }
      ],
      "name": "DevWalletUpdated",
      "type": "event"
    },
    {
      "anonymous": false,
      "inputs": [
        {
          "indexed": false,
          "internalType": "uint256",
          "name": "newTreasuryShareBps",
          "type": "uint256"
        }
      ],
      "name": "FeeSplitUpdated",
      "type": "event"
    },
    {
      "anonymous": false,
      "inputs": [
        {
          "indexed": true,
          "internalType": "address",
          "name": "oldPool",
          "type": "address"
        },
        {
          "indexed": true,
          "internalType": "address",
          "name": "newPool",
          "type": "address"
        }
      ],
      "name": "KandiPoolUpdated",
      "type": "event"
    },
    {
      "anonymous": false,
      "inputs": [
        {
          "indexed": true,
          "internalType": "string",
          "name": "songName",
          "type": "string"
        },
        {
          "indexed": false,
          "internalType": "uint256",
          "name": "newPrice",
          "type": "uint256"
        }
      ],
      "name": "MintPriceUpdated",
      "type": "event"
    },
    {
      "anonymous": false,
      "inputs": [
        {
          "indexed": true,
          "internalType": "string",
          "name": "songName",
          "type": "string"
        },
        {
          "indexed": false,
          "internalType": "bool",
          "name": "enabled",
          "type": "bool"
        }
      ],
      "name": "MintStatusUpdated",
      "type": "event"
    },
    {
      "anonymous": false,
      "inputs": [
        {
          "indexed": true,
          "internalType": "address",
          "name": "user",
          "type": "address"
        },
        {
          "indexed": true,
          "internalType": "string",
          "name": "songName",
          "type": "string"
        },
        {
          "indexed": false,
          "internalType": "uint256",
          "name": "quantity",
          "type": "uint256"
        },
        {
          "indexed": false,
          "internalType": "uint256",
          "name": "totalCost",
          "type": "uint256"
        },
        {
          "indexed": false,
          "internalType": "address",
          "name": "paymentToken",
          "type": "address"
        }
      ],
      "name": "NFTMinted",
      "type": "event"
    },
    {
      "anonymous": false,
      "inputs": [
        {
          "indexed": true,
          "internalType": "address",
          "name": "previousOwner",
          "type": "address"
        },
        {
          "indexed": true,
          "internalType": "address",
          "name": "newOwner",
          "type": "address"
        }
      ],
      "name": "OwnershipTransferred",
      "type": "event"
    },
    {
      "anonymous": false,
      "inputs": [
        {
          "indexed": false,
          "internalType": "uint256",
          "name": "amount",
          "type": "uint256"
        },
        {
          "indexed": false,
          "internalType": "address",
          "name": "token",
          "type": "address"
        }
      ],
      "name": "PlatformFeeCollected",
      "type": "event"
    },
    {
      "anonymous": false,
      "inputs": [
        {
          "indexed": false,
          "internalType": "uint256",
          "name": "oldRate",
          "type": "uint256"
        },
        {
          "indexed": false,
          "internalType": "uint256",
          "name": "newRate",
          "type": "uint256"
        }
      ],
      "name": "PlatformFeeRateUpdated",
      "type": "event"
    },
    {
      "anonymous": false,
      "inputs": [
        {
          "indexed": true,
          "internalType": "string",
          "name": "songName",
          "type": "string"
        },
        {
          "indexed": false,
          "internalType": "address",
          "name": "nftContract",
          "type": "address"
        },
        {
          "indexed": false,
          "internalType": "address",
          "name": "tokenContract",
          "type": "address"
        },
        {
          "indexed": false,
          "internalType": "address",
          "name": "vaultContract",
          "type": "address"
        },
        {
          "indexed": false,
          "internalType": "uint256",
          "name": "mintPrice",
          "type": "uint256"
        }
      ],
      "name": "SongReleaseAdded",
      "type": "event"
    },
    {
      "anonymous": false,
      "inputs": [
        {
          "indexed": true,
          "internalType": "string",
          "name": "songName",
          "type": "string"
        },
        {
          "indexed": false,
          "internalType": "uint256",
          "name": "nftCount",
          "type": "uint256"
        },
        {
          "indexed": false,
          "internalType": "uint256",
          "name": "tokenAmount",
          "type": "uint256"
        }
      ],
      "name": "VaultPreloaded",
      "type": "event"
    },
    {
      "inputs": [],
      "name": "MAX_FEE_BPS",
      "outputs": [
        {
          "internalType": "uint256",
          "name": "",
          "type": "uint256"
        }
      ],
      "stateMutability": "view",
      "type": "function"
    },
    {
      "inputs": [],
      "name": "MIN_MINT_PRICE",
      "outputs": [
        {
          "internalType": "uint256",
          "name": "",
          "type": "uint256"
        }
      ],
      "stateMutability": "view",
      "type": "function"
    },
    {
      "inputs": [
        {
          "internalType": "string",
          "name": "songName",
          "type": "string"
        },
        {
          "internalType": "address",
          "name": "nftContract",
          "type": "address"
        },
        {
          "internalType": "address",
          "name": "tokenContract",
          "type": "address"
        },
        {
          "internalType": "address",
          "name": "vaultContract",
          "type": "address"
        },
        {
          "internalType": "uint256",
          "name": "mintPrice",
          "type": "uint256"
        },
        {
          "internalType": "uint256",
          "name": "maxMintsPerTx",
          "type": "uint256"
        }
      ],
      "name": "addSongRelease",
      "outputs": [],
      "stateMutability": "nonpayable",
      "type": "function"
    },
    {
      "inputs": [
        {
          "internalType": "string",
          "name": "songName",
          "type": "string"
        },
        {
          "internalType": "uint256",
          "name": "quantity",
          "type": "uint256"
        }
      ],
      "name": "calculateMintCost",
      "outputs": [
        {
          "internalType": "uint256",
          "name": "totalCost",
          "type": "uint256"
        },
        {
          "internalType": "uint256",
          "name": "platformFee",
          "type": "uint256"
        },
        {
          "internalType": "uint256",
          "name": "netAmount",
          "type": "uint256"
        }
      ],
      "stateMutability": "view",
      "type": "function"
    },
    {
      "inputs": [],
      "name": "devWallet",
      "outputs": [
        {
          "internalType": "address",
          "name": "",
          "type": "address"
        }
      ],
      "stateMutability": "view",
      "type": "function"
    },
    {
      "inputs": [
        {
          "internalType": "address",
          "name": "token",
          "type": "address"
        },
        {
          "internalType": "address",
          "name": "to",
          "type": "address"
        },
        {
          "internalType": "uint256",
          "name": "amount",
          "type": "uint256"
        }
      ],
      "name": "emergencyWithdraw",
      "outputs": [],
      "stateMutability": "nonpayable",
      "type": "function"
    },
    {
      "inputs": [],
      "name": "feeTreasuryShareBps",
      "outputs": [
        {
          "internalType": "uint256",
          "name": "",
          "type": "uint256"
        }
      ],
      "stateMutability": "view",
      "type": "function"
    },
    {
      "inputs": [],
      "name": "getAllSongNames",
      "outputs": [
        {
          "internalType": "string[]",
          "name": "",
          "type": "string[]"
        }
      ],
      "stateMutability": "view",
      "type": "function"
    },
    {
      "inputs": [],
      "name": "getPlatformStats",
      "outputs": [
        {
          "internalType": "uint256",
          "name": "totalSongs",
          "type": "uint256"
        },
        {
          "internalType": "address",
          "name": "ghoAddress",
          "type": "address"
        },
        {
          "internalType": "address",
          "name": "kandiAddress",
          "type": "address"
        },
        {
          "internalType": "address",
          "name": "devWalletAddress",
          "type": "address"
        },
        {
          "internalType": "address",
          "name": "kandiPoolAddress",
          "type": "address"
        },
        {
          "internalType": "uint256",
          "name": "currentPlatformFeeRate",
          "type": "uint256"
        }
      ],
      "stateMutability": "view",
      "type": "function"
    },
    {
      "inputs": [
        {
          "internalType": "string",
          "name": "songName",
          "type": "string"
        }
      ],
      "name": "getSongRelease",
      "outputs": [
        {
          "components": [
            {
              "internalType": "address",
              "name": "nftContract",
              "type": "address"
            },
            {
              "internalType": "address",
              "name": "tokenContract",
              "type": "address"
            },
            {
              "internalType": "address",
              "name": "vaultContract",
              "type": "address"
            },
            {
              "internalType": "uint256",
              "name": "mintPrice",
              "type": "uint256"
            },
            {
              "internalType": "uint256",
              "name": "maxMintsPerTx",
              "type": "uint256"
            },
            {
              "internalType": "bool",
              "name": "mintEnabled",
              "type": "bool"
            },
            {
              "internalType": "bool",
              "name": "exists",
              "type": "bool"
            }
          ],
          "internalType": "struct MintRouter.SongRelease",
          "name": "",
          "type": "tuple"
        }
      ],
      "stateMutability": "view",
      "type": "function"
    },
    {
      "inputs": [
        {
          "internalType": "address",
          "name": "user",
          "type": "address"
        },
        {
          "internalType": "string",
          "name": "songName",
          "type": "string"
        }
      ],
      "name": "getUserMintCount",
      "outputs": [
        {
          "internalType": "uint256",
          "name": "",
          "type": "uint256"
        }
      ],
      "stateMutability": "view",
      "type": "function"
    },
    {
      "inputs": [],
      "name": "ghoToken",
      "outputs": [
        {
          "internalType": "contract IERC20",
          "name": "",
          "type": "address"
        }
      ],
      "stateMutability": "view",
      "type": "function"
    },
    {
      "inputs": [],
      "name": "kandiPool",
      "outputs": [
        {
          "internalType": "address",
          "name": "",
          "type": "address"
        }
      ],
      "stateMutability": "view",
      "type": "function"
    },
    {
      "inputs": [],
      "name": "kandiToken",
      "outputs": [
        {
          "internalType": "contract IKANDI",
          "name": "",
          "type": "address"
        }
      ],
      "stateMutability": "view",
      "type": "function"
    },
    {
      "inputs": [
        {
          "internalType": "string",
          "name": "songName",
          "type": "string"
        },
        {
          "internalType": "uint256",
          "name": "quantity",
          "type": "uint256"
        }
      ],
      "name": "mintWithGHO",
      "outputs": [],
      "stateMutability": "nonpayable",
      "type": "function"
    },
    {
      "inputs": [
        {
          "internalType": "string",
          "name": "songName",
          "type": "string"
        },
        {
          "internalType": "uint256",
          "name": "quantity",
          "type": "uint256"
        },
        {
          "internalType": "uint256",
          "name": "maxKandiAmount",
          "type": "uint256"
        }
      ],
      "name": "mintWithKANDI",
      "outputs": [],
      "stateMutability": "nonpayable",
      "type": "function"
    },
    {
      "inputs": [],
      "name": "owner",
      "outputs": [
        {
          "internalType": "address",
          "name": "",
          "type": "address"
        }
      ],
      "stateMutability": "view",
      "type": "function"
    },
    {
      "inputs": [],
      "name": "platformFeeRate",
      "outputs": [
        {
          "internalType": "uint256",
          "name": "",
          "type": "uint256"
        }
      ],
      "stateMutability": "view",
      "type": "function"
    },
    {
      "inputs": [
        {
          "internalType": "string",
          "name": "songName",
          "type": "string"
        },
        {
          "internalType": "uint256[]",
          "name": "nftIds",
          "type": "uint256[]"
        },
        {
          "internalType": "uint256",
          "name": "tokenAmount",
          "type": "uint256"
        }
      ],
      "name": "preloadVault",
      "outputs": [],
      "stateMutability": "nonpayable",
      "type": "function"
    },
    {
      "inputs": [],
      "name": "renounceOwnership",
      "outputs": [],
      "stateMutability": "nonpayable",
      "type": "function"
    },
    {
      "inputs": [
        {
          "internalType": "address",
          "name": "newDevWallet",
          "type": "address"
        }
      ],
      "name": "setDevWallet",
      "outputs": [],
      "stateMutability": "nonpayable",
      "type": "function"
    },
    {
      "inputs": [
        {
          "internalType": "uint256",
          "name": "newTreasuryShareBps",
          "type": "uint256"
        }
      ],
      "name": "setFeeSplitBps",
      "outputs": [],
      "stateMutability": "nonpayable",
      "type": "function"
    },
    {
      "inputs": [
        {
          "internalType": "address",
          "name": "newKandiPool",
          "type": "address"
        }
      ],
      "name": "setKandiPool",
      "outputs": [],
      "stateMutability": "nonpayable",
      "type": "function"
    },
    {
      "inputs": [
        {
          "internalType": "string",
          "name": "songName",
          "type": "string"
        },
        {
          "internalType": "bool",
          "name": "enabled",
          "type": "bool"
        }
      ],
      "name": "setMintEnabled",
      "outputs": [],
      "stateMutability": "nonpayable",
      "type": "function"
    },
    {
      "inputs": [
        {
          "internalType": "string",
          "name": "songName",
          "type": "string"
        },
        {
          "internalType": "uint256",
          "name": "newPrice",
          "type": "uint256"
        }
      ],
      "name": "setMintPrice",
      "outputs": [],
      "stateMutability": "nonpayable",
      "type": "function"
    },
    {
      "inputs": [
        {
          "internalType": "uint256",
          "name": "newRate",
          "type": "uint256"
        }
      ],
      "name": "setPlatformFeeRate",
      "outputs": [],
      "stateMutability": "nonpayable",
      "type": "function"
    },
    {
      "inputs": [
        {
          "internalType": "uint256",
          "name": "",
          "type": "uint256"
        }
      ],
      "name": "songNames",
      "outputs": [
        {
          "internalType": "string",
          "name": "",
          "type": "string"
        }
      ],
      "stateMutability": "view",
      "type": "function"
    },
    {
      "inputs": [
        {
          "internalType": "string",
          "name": "",
          "type": "string"
        }
      ],
      "name": "songReleases",
      "outputs": [
        {
          "internalType": "address",
          "name": "nftContract",
          "type": "address"
        },
        {
          "internalType": "address",
          "name": "tokenContract",
          "type": "address"
        },
        {
          "internalType": "address",
          "name": "vaultContract",
          "type": "address"
        },
        {
          "internalType": "uint256",
          "name": "mintPrice",
          "type": "uint256"
        },
        {
          "internalType": "uint256",
          "name": "maxMintsPerTx",
          "type": "uint256"
        },
        {
          "internalType": "bool",
          "name": "mintEnabled",
          "type": "bool"
        },
        {
          "internalType": "bool",
          "name": "exists",
          "type": "bool"
        }
      ],
      "stateMutability": "view",
      "type": "function"
    },
    {
      "inputs": [
        {
          "internalType": "address",
          "name": "newOwner",
          "type": "address"
        }
      ],
      "name": "transferOwnership",
      "outputs": [],
      "stateMutability": "nonpayable",
      "type": "function"
    },
    {
      "inputs": [
        {
          "internalType": "address",
          "name": "",
          "type": "address"
        },
        {
          "internalType": "string",
          "name": "",
          "type": "string"
        }
      ],
      "name": "userMints",
      "outputs": [
        {
          "internalType": "uint256",
          "name": "",
          "type": "uint256"
        }
      ],
      "stateMutability": "view",
      "type": "function"
    }
  ],
  "bytecode": "0x60c06040523480156200001157600080fd5b5060405162002db138038062002db18339810160408190526200003491620002d4565b33806200005c57604051631e4fbdf760e01b8152600060048201526024015b60405180910390fd5b620000678162000267565b50600180556001600160a01b038516620000c45760405162461bcd60e51b815260206004820152601960248201527f496e76616c69642047484f20746f6b656e206164647265737300000000000000604482015260640162000053565b6001600160a01b0384166200011c5760405162461bcd60e51b815260206004820152601b60248201527f496e76616c6964204b414e444920746f6b656e20616464726573730000000000604482015260640162000053565b6001600160a01b038316620001745760405162461bcd60e51b815260206004820152601a60248201527f496e76616c6964206465762077616c6c65742061646472657373000000000000604482015260640162000053565b6001600160a01b038216620001cc5760405162461bcd60e51b815260206004820152601a60248201527f496e76616c6964204b414e444920706f6f6c2061646472657373000000000000604482015260640162000053565b6103e8811115620002205760405162461bcd60e51b815260206004820152601a60248201527f506c6174666f726d20666565207261746520746f6f2068696768000000000000604482015260640162000053565b6001600160a01b0394851660805292841660a052600280549285166001600160a01b031993841617905560038054919094169116179091556004556113886005556200033b565b600080546001600160a01b038381166001600160a01b0319831681178455604051919092169283917f8be0079c531659141344cd1fd0a4f28419497f9722a3daafe3b4186f6b6457e09190a35050565b80516001600160a01b0381168114620002cf57600080fd5b919050565b600080600080600060a08688031215620002ed57600080fd5b620002f886620002b7565b94506200030860208701620002b7565b93506200031860408701620002b7565b92506200032860608701620002b7565b9150608086015190509295509295909350565b60805160a0516129fc620003b5600039600081816102240152818161042b0152818161172e015281816117f40152818161183501526119160152600081816101fc015281816103d101528181610b0c0152818161194c01528181611c2701528181611f8c01528181611fc6015261200001526129fc6000f3fe608060405234801561001057600080fd5b50600436106101da5760003560e01c80638c5b11a811610104578063d55be8c6116100a2578063f2fde38b11610071578063f2fde38b14610592578063f36cdce4146105a5578063fab1618c146105b8578063fb1c8b9f146105cb57600080fd5b8063d55be8c61461054d578063e63ea40814610556578063e7ce7ac314610569578063eeca08f01461058957600080fd5b8063927fef2e116100de578063927fef2e146104e657806397632e80146104f9578063a11b34951461050c578063bf346edd1461051f57600080fd5b80638c5b11a81461044d5780638da5cb5b146104c25780638ea5220f146104d357600080fd5b80634364f1db1161017c5780635996db911161014b5780635996db91146103cc578063715018a61461040b57806375ffe00f14610413578063818803381461042657600080fd5b80634364f1db1461038a578063467512291461039d5780634b6d747c146103a6578063513f04c4146103b957600080fd5b80632b663c5a116101b85780632b663c5a1461029f57806337b5c2cd146102b25780633933d8f8146103625780633bd21c361461037557600080fd5b8063136d8883146101df5780631cf8a3311461026d5780631f53ac021461028a575b600080fd5b600754600254600354600454604080519485526001600160a01b037f0000000000000000000000000000000000000000000000000000000000000000811660208701527f000000000000000000000000000000000000000000000000000000000000000081169186019190915292831660608501529116608083015260a082015260c0015b60405180910390f35b61027c67058d15e17628000081565b604051908152602001610264565b61029d610298366004612283565b610607565b005b61029d6102ad366004612356565b6106bc565b61031a6102c03660046123a8565b80516020818301810180516006825292820191909301209152805460018201546002830154600384015460048501546005909501546001600160a01b03948516959385169490921692909160ff8082169161010090041687565b604080516001600160a01b0398891681529688166020880152949096169385019390935260608401919091526080830152151560a082015290151560c082015260e001610264565b61029d6103703660046123e5565b61078d565b61037d610a24565b60405161026491906124d5565b61029d610398366004612537565b610afd565b61027c60055481565b61027c6103b436600461257c565b610b3d565b61029d6103c73660046125ca565b610b7b565b6103f37f000000000000000000000000000000000000000000000000000000000000000081565b6040516001600160a01b039091168152602001610264565b61029d610c04565b61029d610421366004612283565b610c18565b6103f37f000000000000000000000000000000000000000000000000000000000000000081565b61046061045b3660046123a8565b610cc8565b6040805182516001600160a01b039081168252602080850151821690830152838301511691810191909152606080830151908201526080808301519082015260a08083015115159082015260c09182015115159181019190915260e001610264565b6000546001600160a01b03166103f3565b6002546103f3906001600160a01b031681565b61029d6104f43660046125ca565b610dd2565b61029d6105073660046125e3565b610e71565b61029d61051a366004612537565b61127e565b61053261052d366004612537565b61138a565b60408051938452602084019290925290820152606001610264565b61027c6103e881565b61029d610564366004612664565b611436565b61057c6105773660046125ca565b61153e565b60405161026491906126a0565b61027c60045481565b61029d6105a0366004612283565b6115ea565b6003546103f3906001600160a01b031681565b61029d6105c63660046126b3565b611628565b61027c6105d936600461257c565b6008602090815260009283526040909220815180830184018051928152908401929093019190912091525481565b61060f611a37565b6001600160a01b03811661066a5760405162461bcd60e51b815260206004820152601a60248201527f496e76616c6964206465762077616c6c6574206164647265737300000000000060448201526064015b60405180910390fd5b600280546001600160a01b038381166001600160a01b0319831681179093556040519116919082907f0db17895a9d092fb3ca24d626f2150dd80c185b0706b36f1040ee239f56cb87190600090a35050565b6106c4611a37565b6006826040516106d49190612701565b9081526040519081900360200190206005015460ff6101009091041661070c5760405162461bcd60e51b81526004016106619061271d565b8060068360405161071d9190612701565b908152604051908190036020018120600501805492151560ff199093169290921790915561074c908390612701565b6040519081900381208215158252907f8b18a9588ddfba93aab14fef2ab30ae0539762f3b5371e4e4c9a20299f3c47d3906020015b60405180910390a25050565b610795611a37565b60006006856040516107a79190612701565b90815260408051918290036020908101832060e08401835280546001600160a01b039081168552600182015481169285019290925260028101549091169183019190915260038101546060830152600481015460808301526005015460ff808216151560a084015261010090910416151560c0820181905290915061083e5760405162461bcd60e51b81526004016106619061271d565b82156108a85780516040516340c10f1960e01b8152306004820152602481018590526001600160a01b03909116906340c10f1990604401600060405180830381600087803b15801561088f57600080fd5b505af11580156108a3573d6000803e3d6000fd5b505050505b811561096a57602081015160405163a9059cbb60e01b8152306004820152602481018490526001600160a01b0382169063a9059cbb906044016020604051808303816000875af1158015610900573d6000803e3d6000fd5b505050506040513d601f19601f820116820180604052508101906109249190612754565b6109685760405162461bcd60e51b8152602060048201526015602482015274151bdad95b881d1c985b9cd9995c8819985a5b1959605a1b6044820152606401610661565b505b80604001516001600160a01b031663029a3c5f8585856040518463ffffffff1660e01b815260040161099e93929190612771565b600060405180830381600087803b1580156109b857600080fd5b505af11580156109cc573d6000803e3d6000fd5b50505050846040516109de9190612701565b6040805191829003822085835260208301859052917e6ba67126644f607882543f42a84f027cbfb57e5fe44731114ac6b2f38b75df910160405180910390a25050505050565b60606007805480602002602001604051908101604052809291908181526020016000905b82821015610af4578382906000526020600020018054610a67906127af565b80601f0160208091040260200160405190810160405280929190818152602001828054610a93906127af565b8015610ae05780601f10610ab557610100808354040283529160200191610ae0565b820191906000526020600020905b815481529060010190602001808311610ac357829003601f168201915b505050505081526020019060010190610a48565b50505050905090565b610b05611a64565b610b3082827f0000000000000000000000000000000000000000000000000000000000000000611a8e565b610b3960018055565b5050565b6001600160a01b0382166000908152600860205260408082209051610b63908490612701565b90815260200160405180910390205490505b92915050565b610b83611a37565b612710811115610bc95760405162461bcd60e51b8152602060048201526011602482015270496e76616c69642073706c69742062707360781b6044820152606401610661565b60058190556040518181527f23e50f4213503cbe5cbbcbd5abed363d018f6800f8027766632969ffef35b2549060200160405180910390a150565b610c0c611a37565b610c166000611c62565b565b610c20611a37565b6001600160a01b038116610c765760405162461bcd60e51b815260206004820152601a60248201527f496e76616c6964204b414e444920706f6f6c20616464726573730000000000006044820152606401610661565b600380546001600160a01b038381166001600160a01b0319831681179093556040519116919082907fce6246818e035105a67ee419e687f9805098bd9fe5227e37583c57d40b4a18d490600090a35050565b6040805160e081018252600080825260208201819052818301819052606082018190526080820181905260a0820181905260c08201529051600690610d0e908490612701565b9081526040519081900360200190206005015460ff61010090910416610d465760405162461bcd60e51b81526004016106619061271d565b600682604051610d569190612701565b90815260408051918290036020908101832060e08401835280546001600160a01b039081168552600182015481169285019290925260028101549091169183019190915260038101546060830152600481015460808301526005015460ff808216151560a084015261010090910416151560c082015292915050565b610dda611a37565b6103e8811115610e2c5760405162461bcd60e51b815260206004820152601a60248201527f506c6174666f726d20666565207261746520746f6f20686967680000000000006044820152606401610661565b600480549082905560408051828152602081018490527fa82b850e6100ae23c7e82adbdcf4da8a3740c1540a6241792521a80179a892dc910160405180910390a15050565b610e79611a37565b6000865111610eca5760405162461bcd60e51b815260206004820152601960248201527f536f6e67206e616d652063616e6e6f7420626520656d707479000000000000006044820152606401610661565b6001600160a01b038516610f175760405162461bcd60e51b8152602060048201526014602482015273125b9d985b1a59081391950818dbdb9d1c9858dd60621b6044820152606401610661565b6001600160a01b038416610f665760405162461bcd60e51b8152602060048201526016602482015275125b9d985b1a59081d1bdad95b8818dbdb9d1c9858dd60521b6044820152606401610661565b6001600160a01b038316610fb55760405162461bcd60e51b8152602060048201526016602482015275125b9d985b1a59081d985d5b1d0818dbdb9d1c9858dd60521b6044820152606401610661565b67058d15e1762800008210156110085760405162461bcd60e51b81526020600482015260186024820152774d696e742070726963652062656c6f77206d696e696d756d60401b6044820152606401610661565b600081116110685760405162461bcd60e51b815260206004820152602760248201527f4d6178206d696e747320706572207478206d75737420626520677265617465726044820152660207468616e20360cc1b6064820152608401610661565b6006866040516110789190612701565b9081526040519081900360200190206005015460ff61010090910416156110e15760405162461bcd60e51b815260206004820152601b60248201527f536f6e672072656c6561736520616c72656164792065786973747300000000006044820152606401610661565b6040805160e0810182526001600160a01b03808816825286811660208301528516818301526060810184905260808101839052600160a0820181905260c08201529051600690611132908990612701565b9081526040805160209281900383019020835181546001600160a01b03199081166001600160a01b03928316178355938501516001808401805487169284169290921790915592850151600283018054909516911617909255606083015160038301556080830151600483015560a08301516005909201805460c09094015161ffff1990941692151561ff00191692909217610100931515939093029290921790556007805491820181556000527fa66cc928b5edb82af9bd49922954155ab7b0942694bea4ce44661d9a8736c6880161120c8782612837565b508560405161121b9190612701565b604080519182900382206001600160a01b038881168452878116602085015286168383015260608301859052905190917f943061c67239ca004b8c3b5629751616f611cdd0ab2f608acc494704ab0d19c2919081900360800190a2505050505050565b611286611a37565b6006826040516112969190612701565b9081526040519081900360200190206005015460ff610100909104166112ce5760405162461bcd60e51b81526004016106619061271d565b67058d15e1762800008110156113215760405162461bcd60e51b81526020600482015260186024820152774d696e742070726963652062656c6f77206d696e696d756d60401b6044820152606401610661565b806006836040516113329190612701565b90815260405190819003602001812060030191909155611353908390612701565b604051908190038120828252907f48bee1dd2f408e7f45b28821c096befb1c963c14a1fc0acd6a4a7b4128715d3d90602001610781565b600080600060068560405161139f9190612701565b9081526040519081900360200190206005015460ff610100909104166113d75760405162461bcd60e51b81526004016106619061271d565b836006866040516113e89190612701565b908152602001604051809103902060030154611404919061290d565b925061271060045484611417919061290d565b6114219190612924565b915061142d8284612946565b90509250925092565b61143e611a37565b6001600160a01b0382166114885760405162461bcd60e51b8152602060048201526011602482015270125b9d985b1a59081c9958da5c1a595b9d607a1b6044820152606401610661565b60405163a9059cbb60e01b81526001600160a01b0383811660048301526024820183905284169063a9059cbb906044016020604051808303816000875af11580156114d7573d6000803e3d6000fd5b505050506040513d601f19601f820116820180604052508101906114fb9190612754565b6115395760405162461bcd60e51b815260206004820152600f60248201526e151c985b9cd9995c8819985a5b1959608a1b6044820152606401610661565b505050565b6007818154811061154e57600080fd5b906000526020600020016000915090508054611569906127af565b80601f0160208091040260200160405190810160405280929190818152602001828054611595906127af565b80156115e25780601f106115b7576101008083540402835291602001916115e2565b820191906000526020600020905b8154815290600101906020018083116115c557829003601f168201915b505050505081565b6115f2611a37565b6001600160a01b03811661161c57604051631e4fbdf760e01b815260006004820152602401610661565b61162581611c62565b50565b611630611a64565b60006006846040516116429190612701565b90815260408051918290036020908101832060e08401835280546001600160a01b039081168552600182015481169285019290925260028101549091169183019190915260038101546060830152600481015460808301526005015460ff808216151560a084015261010090910416151560c082018190529091506116d95760405162461bcd60e51b81526004016106619061271d565b8060a001516116fa5760405162461bcd60e51b815260040161066190612959565b600083826060015161170c919061290d565b6040516370a0823160e01b815233600482015290915083906001600160a01b037f000000000000000000000000000000000000000000000000000000000000000016906370a0823190602401602060405180830381865afa158015611775573d6000803e3d6000fd5b505050506040513d601f19601f82011682018060405250810190611799919061299a565b10156117e75760405162461bcd60e51b815260206004820152601a60248201527f496e73756666696369656e74204b414e44492062616c616e63650000000000006044820152606401610661565b61181c6001600160a01b037f000000000000000000000000000000000000000000000000000000000000000016333086611cb2565b604051633e78f48760e01b8152600481018490526000907f00000000000000000000000000000000000000000000000000000000000000006001600160a01b031690633e78f487906024016020604051808303816000875af1158015611886573d6000803e3d6000fd5b505050506040513d601f19601f820116820180604052508101906118aa919061299a565b90508181101561190e5760405162461bcd60e51b815260206004820152602960248201527f496e73756666696369656e742047484f2072656365697665642066726f6d204b6044820152680414e444920737761760bc1b6064820152608401610661565b61193a8686847f0000000000000000000000000000000000000000000000000000000000000000611d1f565b81811115611a2b576001600160a01b037f00000000000000000000000000000000000000000000000000000000000000001663a9059cbb3361197c8585612946565b6040516001600160e01b031960e085901b1681526001600160a01b03909216600483015260248201526044016020604051808303816000875af11580156119c7573d6000803e3d6000fd5b505050506040513d601f19601f820116820180604052508101906119eb9190612754565b611a2b5760405162461bcd60e51b815260206004820152601160248201527011d213c81c99599d5b990819985a5b1959607a1b6044820152606401610661565b50505061153960018055565b6000546001600160a01b03163314610c165760405163118cdaa760e01b8152336004820152602401610661565b600260015403611a8757604051633ee5aeb560e01b815260040160405180910390fd5b6002600155565b6000600684604051611aa09190612701565b90815260408051918290036020908101832060e08401835280546001600160a01b039081168552600182015481169285019290925260028101549091169183019190915260038101546060830152600481015460808301526005015460ff808216151560a084015261010090910416151560c08201819052909150611b375760405162461bcd60e51b81526004016106619061271d565b8060a00151611b585760405162461bcd60e51b815260040161066190612959565b60008311611ba85760405162461bcd60e51b815260206004820152601f60248201527f5175616e74697479206d7573742062652067726561746572207468616e2030006044820152606401610661565b8060800151831115611c065760405162461bcd60e51b815260206004820152602160248201527f45786365656473206d6178206d696e747320706572207472616e73616374696f6044820152603760f91b6064820152608401610661565b6000838260600151611c18919061290d565b9050611c4f6001600160a01b037f000000000000000000000000000000000000000000000000000000000000000016333084611cb2565b611c5b85858386611d1f565b5050505050565b600080546001600160a01b038381166001600160a01b0319831681178455604051919092169283917f8be0079c531659141344cd1fd0a4f28419497f9722a3daafe3b4186f6b6457e09190a35050565b6040516001600160a01b038481166024830152838116604483015260648201839052611d199186918216906323b872dd906084015b604051602081830303815290604052915060e01b6020820180516001600160e01b0383818316178352505050506121c5565b50505050565b6000600685604051611d319190612701565b908152604080516020928190038301812060e08201835280546001600160a01b03908116808452600183015482168685015260028301549091168385015260038201546060840152600480830154608085015260059092015460ff808216151560a086015261010090910416151560c08401528351630cb2dac360e21b815293519295509384936332cb6b0c938184019390918290030181865afa158015611ddd573d6000803e3d6000fd5b505050506040513d601f19601f82011682018060405250810190611e01919061299a565b85826001600160a01b031663a2309ff86040518163ffffffff1660e01b8152600401602060405180830381865afa158015611e40573d6000803e3d6000fd5b505050506040513d601f19601f82011682018060405250810190611e64919061299a565b611e6e91906129b3565b1115611eb15760405162461bcd60e51b815260206004820152601260248201527145786365656473206d617820737570706c7960701b6044820152606401610661565b600061271060045486611ec4919061290d565b611ece9190612924565b90506000611edc8287612946565b9050811561205357600061271060055484611ef7919061290d565b611f019190612924565b90506000611f0f8285612946565b6002549091506001600160a01b031615801590611f3657506003546001600160a01b031615155b611f7b5760405162461bcd60e51b8152602060048201526016602482015275119959481c9958da5c1a595b9d1cc81b9bdd081cd95d60521b6044820152606401610661565b600254611fb5906001600160a01b037f00000000000000000000000000000000000000000000000000000000000000008116911683612236565b600354611fef906001600160a01b037f00000000000000000000000000000000000000000000000000000000000000008116911684612236565b604080518581526001600160a01b037f00000000000000000000000000000000000000000000000000000000000000001660208201527fcf1bd34e586f4e12ef1c4c84c337b05dd3f7fc5409e16c5fea9063524eb77022910160405180910390a150505b6040516340c10f1960e01b8152336004820152602481018890526001600160a01b038416906340c10f1990604401600060405180830381600087803b15801561209b57600080fd5b505af11580156120af573d6000803e3d6000fd5b5050505083604001516001600160a01b031663b1e776e3826040518263ffffffff1660e01b81526004016120e591815260200190565b600060405180830381600087803b1580156120ff57600080fd5b505af1158015612113573d6000803e3d6000fd5b5050336000908152600860205260409081902090518a9350909150612139908b90612701565b9081526020016040518091039020600082825461215691906129b3565b9091555050604051612169908990612701565b60408051918290038220898352602083018990526001600160a01b038816838301529051909133917febfea4a6702470f2dd806bba783617dfc03445e6cc50db8cbe88b4baf97de7cb9181900360600190a35050505050505050565b600080602060008451602086016000885af1806121e8576040513d6000823e3d81fd5b50506000513d9150811561220057806001141561220d565b6001600160a01b0384163b155b15611d1957604051635274afe760e01b81526001600160a01b0385166004820152602401610661565b6040516001600160a01b0383811660248301526044820183905261153991859182169063a9059cbb90606401611ce7565b80356001600160a01b038116811461227e57600080fd5b919050565b60006020828403121561229557600080fd5b61229e82612267565b9392505050565b634e487b7160e01b600052604160045260246000fd5b600082601f8301126122cc57600080fd5b813567ffffffffffffffff808211156122e7576122e76122a5565b604051601f8301601f19908116603f0116810190828211818310171561230f5761230f6122a5565b8160405283815286602085880101111561232857600080fd5b836020870160208301376000602085830101528094505050505092915050565b801515811461162557600080fd5b6000806040838503121561236957600080fd5b823567ffffffffffffffff81111561238057600080fd5b61238c858286016122bb565b925050602083013561239d81612348565b809150509250929050565b6000602082840312156123ba57600080fd5b813567ffffffffffffffff8111156123d157600080fd5b6123dd848285016122bb565b949350505050565b600080600080606085870312156123fb57600080fd5b843567ffffffffffffffff8082111561241357600080fd5b61241f888389016122bb565b9550602087013591508082111561243557600080fd5b818701915087601f83011261244957600080fd5b81358181111561245857600080fd5b8860208260051b850101111561246d57600080fd5b95986020929092019750949560400135945092505050565b60005b838110156124a0578181015183820152602001612488565b50506000910152565b600081518084526124c1816020860160208601612485565b601f01601f19169290920160200192915050565b6000602080830181845280855180835260408601915060408160051b870101925083870160005b8281101561252a57603f198886030184526125188583516124a9565b945092850192908501906001016124fc565b5092979650505050505050565b6000806040838503121561254a57600080fd5b823567ffffffffffffffff81111561256157600080fd5b61256d858286016122bb565b95602094909401359450505050565b6000806040838503121561258f57600080fd5b61259883612267565b9150602083013567ffffffffffffffff8111156125b457600080fd5b6125c0858286016122bb565b9150509250929050565b6000602082840312156125dc57600080fd5b5035919050565b60008060008060008060c087890312156125fc57600080fd5b863567ffffffffffffffff81111561261357600080fd5b61261f89828a016122bb565b96505061262e60208801612267565b945061263c60408801612267565b935061264a60608801612267565b92506080870135915060a087013590509295509295509295565b60008060006060848603121561267957600080fd5b61268284612267565b925061269060208501612267565b9150604084013590509250925092565b60208152600061229e60208301846124a9565b6000806000606084860312156126c857600080fd5b833567ffffffffffffffff8111156126df57600080fd5b6126eb868287016122bb565b9660208601359650604090950135949350505050565b60008251612713818460208701612485565b9190910192915050565b6020808252601b908201527f536f6e672072656c6561736520646f6573206e6f742065786973740000000000604082015260600190565b60006020828403121561276657600080fd5b815161229e81612348565b6040808252810183905260006001600160fb1b0384111561279157600080fd5b8360051b808660608501376020830193909352500160600192915050565b600181811c908216806127c357607f821691505b6020821081036127e357634e487b7160e01b600052602260045260246000fd5b50919050565b601f82111561153957600081815260208120601f850160051c810160208610156128105750805b601f850160051c820191505b8181101561282f5782815560010161281c565b505050505050565b815167ffffffffffffffff811115612851576128516122a5565b6128658161285f84546127af565b846127e9565b602080601f83116001811461289a57600084156128825750858301515b600019600386901b1c1916600185901b17855561282f565b600085815260208120601f198616915b828110156128c9578886015182559484019460019091019084016128aa565b50858210156128e75787850151600019600388901b60f8161c191681555b5050505050600190811b01905550565b634e487b7160e01b600052601160045260246000fd5b8082028115828204841417610b7557610b756128f7565b60008261294157634e487b7160e01b600052601260045260246000fd5b500490565b81810381811115610b7557610b756128f7565b60208082526021908201527f4d696e74696e672069732064697361626c656420666f72207468697320736f6e6040820152606760f81b606082015260800190565b6000602082840312156129ac57600080fd5b5051919050565b80820180821115610b7557610b756128f756fea2646970667358221220e90b4a6d04b81e8302bcac4951ad2650dfcec8827d194eae4957f9fee2d4493264736f6c63430008140033",
  "linkReferences": {},
  "deployedLinkReferences": {}
}